:020000040001F9
:10B00000104500203D930200DFF90100BBFA01006A
:10B010000000000000000000000000000000000030
:10B0200000000000000000000000000013FB010011
:10B03000000000000000000087FD0100DBFD0100B2
:10B04000E57E02005F260200E14C0200A7470200F5
:10B05000234F020000000000496602001572020042
:10B06000818D020027520200AF5802000F710200CA
:10B0700077720200DB8502001F9E02002B9E0200F9
:10B08000BF9E020045360200C19E0200C39E020020
:10B09000E1360200C5620200E1610200C59E0200C5
:10B0A000C79E0200C99E02000000000000000000D0
:10B0B0000000000000000000000000000000000090
:10B0C0004261000B000C000050610478047900001C
:10B0D0004D61039E039F00004661017B017C0000DF
:10B0E000446101030104202000000000546105FFB9
:10B0F000060020004E6103FC03FD00004C61031FAD
:10B1000003200000476101AB01AC00004B6102C5A8
:10B1100002C600004861020B020C20200000000063
:10B120004A61027E027F0000516104CE04CF00001C
:10B1300058610699069A00005A48610718071900D5
:10B14000434861005E005F00534861055B055C0099
:10B1500052610515051600005A6107160717000011
:10B160004361005C005D000053610559055A000011
:10B17000596106E106E200005761066D066E0000A7
:10B180004161000100022020000000004F610472B4
:10B190000473000045610171017200004961026C95
:10B1A000026D00005561065F06600000566107E70A
:10B1B00007E80000414961000300040045496101BE
:10B1C000730174005549610661066200414F6100D8
:10B1D00009000A004F556104760477004955610261
:10B1E00074027500494561026E026F0056456107A1
:10B1F000E907EA004552610179017A00414E610098
:10B2000005000600454E610175017600494E610258
:10B2100070027100554E610663066400564E610768
:10B22000EB07EC00414E47610007000800000000FA
:10B23000454E47610177017800000000494E4761A3
:10B2400002720273000000004F4E476104740475DF
:10B25000000000005A484961071A071B000000005F
:10B2600043484961006000610000000053484961A3
:10B27000055D055E000000005249610517051800D4
:10B280005A4961077607770043496100B700B80063
:10B2900053496105B405B50059496106E506E60064
:10B2A000575561066F06700059556106EB06EC00B4
:10B2B00059456106E306E4005955456106EF06F07D
:10B2C000000000005955414E6106ED06EE000000F9
:10B2D00059494E6106E706E80000000059554E61E5
:10B2E00006F106F20000000059494E476106E906E2
:10B2F000EA0000004241740035000B07F1003600FF
:10B300000B07CA0020000B08060052000B07C500FF
:10B310001B000000424F74004E000B0801004F005C
:10B320000B07E00032000B080E005A000B07DD008F
:10B33000310000004249740048000B07FE0049003C
:10B340000B07DA002E000B080B0057000B07D70085
:10B350002B0000004255740050000B0804005100FF
:10B360000B07E50034000B0811005B000B07E3003E
:10B3700033000000424149740037000B07F20038E7
:10B38000000B07CB0021000B08070053000B07C67A
:10B39000001C000042454974003F000B07F70040C5
:10B3A000000B07D40028000B07FB0045000B07D05B
:10B3B0000025000042414F74003D000B07F5003EA0
:10B3C000000B07CE0024000B080A0056000B07C92B
:10B3D000001F0000424945740016000B027A001756
:10B3E000000B02770011000B027B0018000B0276A5
:10B3F0000010000042414E740039000B07F3003A80
:10B40000000B07CC0022000B08080054000B07C7F4
:10B41000001D000042454E740041000B07F8004239
:10B42000000B07D50029000B07FC0046000B07D1D5
:10B430000026000042494E74004A000B07FF004BF3
:10B44000000B07DB002F000B080C0058000B07D87F
:10B45000002C000042414E4774003B000B07F400F3
:10B460003C000B07CD0023000B08090055000B071B
:10B47000C8001E0042454E47740043000B07F90008
:10B4800044000B07D6002A000B07FD0047000B07FE
:10B49000D200270042494E4774004C000B080000C0
:10B4A0004D000B07DC0030000B080D0059000B07A6
:10B4B000D9002D0050417404A4047807F104A504B8
:10B4C0007807CA048D0478080604C3047807C50405
:10B4D00088000000504F7404BD0478080104BE04C5
:10B4E0007807E004A00478080E04CB047807DD0494
:10B4F0009E00000050497404B7047807FE04B804A5
:10B500007807DA049B0478080B04C8047807D7048A
:10B510009800000050557404C10478080404C20463
:10B520007807E504A30478081104CD047807E30440
:10B53000A20000005041497404A6047807F204A751
:10B54000047807CB048E0478080704C4047807C67F
:10B55000048900005045497404AE047807F704AF2D
:10B56000047807D40495047807FB04B4047807D062
:10B570000492000050414F7404AC047807F504AD08
:10B58000047807CE04910478080A04C7047807C930
:10B59000048C0000504F557404BF0478080304C0A5
:10B5A000047807E204A10478081004CC047807DFCB
:10B5B000049F00005049457304830478027A048490
:10B5C00004780277047E0478027B04850000000082
:10B5D00050414E7404A8047807F304A9047807CCFA
:10B5E000048F0478080804C5047807C7048A00009B
:10B5F00050454E7404B0047807F804B1047807D5B8
:10B600000496047807FC04B5047807D1049300007D
:10B6100050494E7404B9047807FF04BA047807DB74
:10B62000049C0478080C04C9047807D80499000025
:10B6300050414E477404AA047807F404AB04780719
:10B64000CD04900478080904C6047807C8048B0068
:10B6500050454E477404B2047807F904B3047807E0
:10B66000D60497047807FD04B6047807D204940042
:10B6700050494E477404BB0478080004BC047807A2
:10B68000DC049D0478080D04CA047807D9049A00E4
:10B690004D417403CF039E07F103D0039E07CA03F5
:10B6A000B8039E080603F1039E07C503B40000001B
:10B6B0004D4F7403EB039E080103EC039E07E00368
:10B6C000CB039E080E03F9039E07DD03CA000000AA
:10B6D0004D497403E5039E07FE03E6039E07DA0364
:10B6E000C7039E080B03F6039E07D703C50000009F
:10B6F0004D557403EF039E080403F0039E07E50312
:10B70000CE039E081103FB039E07E303CD00000058
:10B710004D457403D9039E07F603DA039E07D3034E
:10B72000C1039E07FA03E1039E07CF03BD0000009B
:10B730004D41497403D1039E07F203D2039E07CB08
:10B7400003B9039E080703F2039E07C603B5000072
:10B750004D45497403DB039E07F703DC039E07D4C2
:10B7600003C2039E07FB03E2039E07D003BE000053
:10B770004D414F7403D7039E07F503D8039E07CEB0
:10B7800003BC039E080A03F5039E07C903B7000024
:10B790004D4F557303ED039E080303EE039E07E22E
:10B7A00003CC039E081003FA000000004D495574B5
:10B7B00003AF039E027C03B0039E027903A7039E9E
:10B7C000027D03B3039E027803A600004D49457431
:10B7D00003AC039E027A03AD039E027703A5039E8A
:10B7E000027B03AE039E027603A400004D414E741B
:10B7F00003D3039E07F303D4039E07CC03BA039E2F
:10B80000080803F3039E07C703B600004D454E74B6
:10B8100003DD039E07F803DE039E07D503C3039EE3
:10B8200007FC03E3039E07D103BF00004D494E739D
:10B8300003E7039E07FF03E8039E07DB03C8039E9D
:10B84000080C03F7000000004D414E477303D50379
:10B850009E07F403D6039E07CD03BB039E0809038E
:10B86000F40000004D454E477403DF039E07F903C3
:10B87000E0039E07D603C4039E07FD03E4039E076F
:10B88000D203C0004D494E477403E9039E080003EC
:10B89000EA039E07DC03C9039E080D03F8039E0715
:10B8A000D903C6004641740190017B07F101910163
:10B8B0007B07CA0182017B080601A5017B07C50140
:10B8C0007F000000464F74019F017B080101A00129
:10B8D0007B07E0018C017B080E01A8017B07DD01DD
:10B8E0008B00000046557401A3017B080401A401EC
:10B8F0007B07E5018F017B081101AA017B07E301AA
:10B900008E000000464549740196017B07F70197B8
:10B91000017B07D40188017B07FB019C017B07D0D9
:10B9200001850000464F557301A1017B080301A268
:10B93000017B07E2018D017B081001A900000000D6
:10B9400046414E740192017B07F30193017B07CCC2
:10B950000183017B080801A6017B07C70180000065
:10B9600046454E740198017B07F80199017B07D584
:10B970000189017B07FC019D017B07D10186000045
:10B9800046414E47740194017B07F40195017B0702
:10B99000CD0184017B080901A7017B07C801810053
:10B9A00046454E4774019A017B07F9019B017B07CD
:10B9B000D6018A017B07FD019E017B07D20187002A
:10B9C0004441740147010307F10148010307CA011B
:10B9D0002F010308060166010307C5012A000000C4
:10B9E0004445740151010307F60152010307D301D5
:10B9F00038010307FA0157010307CF0134000000A3
:10BA0000444974015A010307FE015B010307DA018F
:10BA10003D0103080B016B010307D7013B00000048
:10BA20004455740162010308040163010307E50141
:10BA30004501030811016F010307E3014300000002
:10BA4000444149740149010307F2014A010307CB4C
:10BA50000130010308070167010307C6012B00003D
:10BA60004455497401230103066B01240103066850
:10BA7000011E0103066C012801030667011D000079
:10BA8000444549730153010307F70154010307D4E7
:10BA90000139010307FB01580000000044414F74C5
:10BAA000014F010307F50150010307CE01330103E4
:10BAB000080A016A010307C9012E0000444F5574AA
:10BAC0000160010308030161010307E20142010370
:10BAD0000810016E010307DF01400000444945746E
:10BAE00001110103027A011201030277010A010325
:10BAF000027B0113010302760109000044495574D9
:10BB000001140103027C011501030279010C0103F8
:10BB1000027D011A01030278010B000044414E74BA
:10BB2000014B010307F3014C010307CC0131010371
:10BB300008080168010307C7012C000044554E7432
:10BB40000164010308050165010307E601460103DD
:10BB500008120170010307E40144000044414E470C
:10BB600074014D010307F4014E010307CD013201B9
:10BB70000308090169010307C8012D0044454E4728
:10BB8000740155010307F90156010307D6013A0173
:10BB90000307FD0159010307D201370044494E470D
:10BBA00074015C01030800015D010307DC013E0133
:10BBB00003080D016C010307D9013C00444F4E47B7
:10BBC00074015E01030802015F010307E101410105
:10BBD00003080F016D010307DE013F0054417406A5
:10BBE0003605FF07F1063705FF07CA062205FF08DD
:10BBF00006065405FF07C5061D00000054457406DF
:10BC00004005FF07F6064105FF07D3062905FF0794
:10BC1000FA064605FF07CF062700000054497406C0
:10BC20004805FF07FE064905FF07DA062C05FF0851
:10BC30000B065905FF07D7062B0000005455740664
:10BC40005005FF0804065105FF07E5063405FF0807
:10BC500011065D05FF07E3063200000054414974F8
:10BC6000063805FF07F2063905FF07CB062305FF57
:10BC70000807065505FF07C6061E000054554974FF
:10BC8000061605FF066B061705FF0668061105FF79
:10BC9000066C061B05FF06670610000054414F7432
:10BCA000063E05FF07F5063F05FF07CE062605FF02
:10BCB000080A065805FF07C906210000544F5574AD
:10BCC000064E05FF0803064F05FF07E2063105FF94
:10BCD0000810065C05FF07DF062F0000544F4E4793
:10BCE00074064C05FF0802064D05FF07E106300506
:10BCF000FF080F065B05FF07DE062E00544945735B
:10BD0000060905FF027A060A05FF0277060405FF09
:10BD1000027B060B0000000054414E74063A05FFFA
:10BD200007F3063B05FF07CC062405FF0808065667
:10BD300005FF07C7061F000054554E74065205FF45
:10BD40000805065305FF07E6063505FF0812065EDF
:10BD500005FF07E40633000054414E4774063C05D6
:10BD6000FF07F4063D05FF07CD062505FF08090678
:10BD70005705FF07C806200054454E477406440582
:10BD8000FF07F9064505FF07D6062A05FF07FD064A
:10BD90004705FF07D206280054494E4773064A0557
:10BDA000FF0800064B05FF07DC062D05FF080D0602
:10BDB0005A0000004E4174044403FC07F10445039B
:10BDC000FC07CA042403FC0806046403FC07C5043A
:10BDD0001F0000004E4574044E03FC07F6044F0399
:10BDE000FC07D3042D03FC07FA045603FC07CF0419
:10BDF000290000004E4974045A03FC07FE045B034B
:10BE0000FC07DA043403FC080B046903FC07D704BD
:10BE1000310000004E5574046203FC0804046303FF
:10BE2000FC07E5043C03FC0811046D03FC07E30474
:10BE30003B0000004E5673046E03FC0813046F03AE
:10BE4000FC0814047003FC08150471004E41497489
:10BE5000044603FC07F2044703FC07CB042503FC5C
:10BE60000807046503FC07C6042000004E4549741A
:10BE7000045003FC07F7045103FC07D4042E03FC11
:10BE800007FB045703FC07D0042A00004E414F74FF
:10BE9000044C03FC07F5044D03FC07CE042803FC07
:10BEA000080A046803FC07C9042300004E564574C1
:10BEB000044103FC07EF044203FC07EE044003FCCB
:10BEC00007F0044303FC07ED043F00004E4955739F
:10BED000041003FC027C041103FC0279040603FC39
:10BEE000027D0415000000004E494574040D03FC5A
:10BEF000027A040E03FC0277040503FC027B040FA4
:10BF000003FC0276040400004E414E74044803FC16
:10BF100007F3044903FC07CC042603FC0808046665
:10BF200003FC07C7042100004E454E74045203FC75
:10BF300007F8045303FC07D5042F03FC07FC04583F
:10BF400003FC07D1042B00004E494E74045C03FC33
:10BF500007FF045D03FC07DB043503FC080C046ADF
:10BF600003FC07D8043200004E414E4774044A03D4
:10BF7000FC07F4044B03FC07CD042703FC08090469
:10BF80006703FC07C80422004E454E47740454035F
:10BF9000FC07F9045503FC07D6043003FC07FD0435
:10BFA0005903FC07D2042C004E494E4774045E032B
:10BFB000FC0800045F03FC07DC043603FC080D04E6
:10BFC0006B03FC07D90433004E4F4E4774046003E3
:10BFD000FC0802046103FC07E1043A03FC080F04B7
:10BFE0006C03FC07DE0437004C4174036C031F072D
:10BFF000F1036D031F07CA034F031F0806038D03D8
:10C000001F07C5034A0000004C45740376031F0751
:10C01000F60377031F07D30357031F07FA037C03B5
:10C020001F07CF03540000004C4974037F031F0710
:10C03000FE0380031F07DA035D031F080B0392034F
:10C040001F07D7035A0000004C55740389031F08CB
:10C0500004038A031F07E50365031F081103970301
:10C060001F07E303630000004C56740399031F0885
:10C0700013039A031F0814039B031F0815039C0353
:10C080001F0816039D0000004C414974036E031FF6
:10C0900007F2036F031F07CB0350031F0807038E2C
:10C0A000031F07C6034B00004C414F740374031F6A
:10C0B00007F50375031F07CE0353031F080A0391F7
:10C0C000031F07C9034E00004C4549740378031F42
:10C0D00007F70379031F07D40358031F07FB037DEA
:10C0E000031F07D0035500004C4F55740387031FEF
:10C0F00008030388031F07E20362031F0810039667
:10C10000031F07DF036000004C4955740337031F0A
:10C11000027C0338031F0279032B031F027D033DBA
:10C12000031F0278032A00004C4945740334031F9F
:10C13000027A0335031F02770329031F027B0336AC
:10C14000031F0276032800004C5645740369031F41
:10C1500007EF036A031F07EE0368031F07F0036B73
:10C16000031F07ED036700004C414E740370031F6B
:10C1700007F30371031F07CC0351031F0808038F44
:10C18000031F07C7034C00004C494E740381031F73
:10C1900007FF0382031F07DB035E031F080C0393E3
:10C1A000031F07D8035B00004C554E74038B031F1D
:10C1B0000805038C031F07E60366031F0812039894
:10C1C000031F07E4036400004C414E4774037203ED
:10C1D0001F07F40373031F07CD0352031F0809034E
:10C1E00090031F07C8034D004C454E4774037A0364
:10C1F0001F07F9037B031F07D60359031F07FD031E
:10C200007E031F07D20356004C494E477403830335
:10C210001F08000384031F07DC035F031F080D03CF
:10C2200094031F07D9035C004C4F4E4773038503EB
:10C230001F08020386031F07E10361031F080F03A2
:10C240009500000047417401E401AB07F101E501ED
:10C25000AB07CA01D001AB0806020201AB07C5015A
:10C26000CB00000047457401EE01AB07F601EF017A
:10C27000AB07D301D801AB07FA01F601AB07CF0139
:10C28000D500000047557401FE01AB080401FF0111
:10C29000AB07E501E201AB0811020901AB07E301BD
:10C2A000E00000004741497401E601AB07F201E7F5
:10C2B00001AB07CB01D101AB0807020301AB07C6F5
:10C2C00001CC00004745497301F001AB07F701F1CC
:10C2D00001AB07D401D901AB07FB01F70000000057
:10C2E0004755497401C101AB066B01C201AB066839
:10C2F00001B601AB066C01C901AB066701B50000D0
:10C3000047414F7401EC01AB07F501ED01AB07CEDE
:10C3100001D401AB080A020601AB07C901CF000036
:10C32000474F557401FC01AB080301FD01AB07E267
:10C3300001DF01AB0810020801AB07DF01DD0000DF
:10C3400047414E7401E801AB07F301E901AB07CCAB
:10C3500001D201AB0808020401AB07C701CD000000
:10C3600047454E7401F201AB07F801F301AB07D565
:10C3700001DA01AB07FC01F801AB07D101D60000DF
:10C3800047554E74020001AB0805020101AB07E6F8
:10C3900001E301AB0812020A01AB07E401E100006E
:10C3A00047414E477401EA01AB07F401EB01AB07CB
:10C3B000CD01D301AB0809020501AB07C801CE00CE
:10C3C00047454E477401F401AB07F901F501AB078E
:10C3D000D601DB01AB07FD01F901AB07D201D700A4
:10C3E000474F4E477401FA01AB080201FB01AB074E
:10C3F000E101DE01AB080F020701AB07DE01DC0043
:10C400004B417302F902C507F102FA02C507CA02DD
:10C41000E702C508060316004B4574030302C5076F
:10C42000F6030402C507D302EE02C507FA030B02A6
:10C43000C507CF02EC0000004B5574031202C5087B
:10C4400004031302C507E502F702C50811031D0224
:10C45000C507E302F50000004B41497302FB02C52A
:10C4600007F202FC02C507CB02E802C50807031762
:10C47000000000004B55497402DA02C5066B02DB6E
:10C4800002C5066802CF02C5066C02E202C5066755
:10C4900002CE00004B414F74030102C507F50302B1
:10C4A00002C507CE02EB02C5080A031A02C507C976
:10C4B00002E600004B4F5574031002C50803031138
:10C4C00002C507E202F402C50810031C02C507DF1B
:10C4D00002F200004B414E7402FD02C507F302FE5A
:10C4E00002C507CC02E902C50808031802C507C740
:10C4F00002E400004B454E73030702C507F803082A
:10C5000002C507D502EF02C507FC030C00000000BE
:10C510004B554E74031402C50805031502C507E602
:10C5200002F802C50812031E02C507E402F6000065
:10C530004B414E477402FF02C507F4030002C507D2
:10C54000CD02EA02C50809031902C507C802E500C1
:10C550004B454E4774030902C507F9030A02C50794
:10C56000D602F002C507FD030D02C507D202ED0099
:10C570004B4F4E4774030E02C50802030F02C50756
:10C58000E102F302C5080F031B02C507DE02F1003A
:10C590004841740245020B07F10246020B07CA022A
:10C5A00030020B08060263020B07C5022B000000D5
:10C5B000484574024F020B07F60250020B07D302E4
:10C5C00039020B07FA0257020B07CF0235000000B1
:10C5D000485574025F020B08040260020B07E50273
:10C5E00043020B0811026A020B07E302410000003C
:10C5F000484149740247020B07F20248020B07CB7D
:10C600000231020B08070264020B07C6022C00006D
:10C61000484549740251020B07F70252020B07D436
:10C62000023A020B07FB0258020B07D00236000049
:10C63000485549740221020B066B0222020B066860
:10C640000216020B066C0229020B06670215000097
:10C6500048414F74024D020B07F5024E020B07CE04
:10C660000234020B080A0267020B07C9022F0000FE
:10C67000484F5574025D020B0803025E020B07E28D
:10C680000240020B08100269020B07DF023E0000A5
:10C6900048414E740249020B07F3024A020B07CCD1
:10C6A0000232020B08080265020B07C7022D0000C8
:10C6B00048454E740253020B07F80254020B07D58B
:10C6C000023B020B07FC0259020B07D102370000A4
:10C6D00048554E740261020B08050262020B07E620
:10C6E0000244020B0812026B020B07E40242000034
:10C6F00048414E4774024B020B07F4024C020B07F1
:10C70000CD0233020B08090266020B07C8022E0095
:10C7100048454E47740255020B07F90256020B07B3
:10C72000D6023C020B07FD025A020B07D202380068
:10C73000484F4E4774025B020B0802025C020B0773
:10C74000E1023F020B080F0268020B07DE023D0008
:10C750004A497402B6027E07FE02B7027E07DA0279
:10C76000AF027E080B02C0027E07D702AC000000B9
:10C770004A557402BC027E080402BD027E07E5022F
:10C78000B4027E081102C3027E07E302B200000079
:10C790004A495574029A027E027C029B027E02790B
:10C7A000028C027E027D02A1027E0278028B0000D2
:10C7B0004A4945740295027E027A0296027E027709
:10C7C0000289027E027B0297027E027602880000C6
:10C7D0004A55457402A8027E066902A9027E0666D1
:10C7E00002A5027E066A02AA027E066502A4000075
:10C7F0004A494E7402B8027E07FF02B9027E07DB87
:10C8000002B0027E080C02C1027E07D802AD000011
:10C810004A554E7402BE027E080502BF027E07E63C
:10C8200002B5027E081202C4027E07E402B30000D1
:10C830004A494E477402BA027E080002BB027E07D4
:10C84000DC02B1027E080D02C2027E07D902AE00F0
:10C85000514974050604CE07FE050704CE07DA0425
:10C86000FF04CE080B051004CE07D704FC0000001F
:10C87000515574050C04CE0804050D04CE07E505DA
:10C880000404CE0811051304CE07E30502000000DE
:10C890005149557304EA04CE027C04EB04CE0279BC
:10C8A00004DC04CE027D04F100000000514945740F
:10C8B00004E504CE027A04E604CE027704D904CE5D
:10C8C000027B04E704CE027604D80000515545747B
:10C8D00004F804CE066904F904CE066604F504CE15
:10C8E000066A04FA04CE066504F4000051494E7449
:10C8F000050804CE07FF050904CE07DB050004CEBA
:10C90000080C051104CE07D804FD000051554E74E3
:10C91000050E04CE0805050F04CE07E6050504CE76
:10C920000812051404CE07E40503000051494E47E0
:10C9300074050A04CE0800050B04CE07DC050104CB
:10C94000CE080D051204CE07D904FE00584974061E
:10C95000D2069907FE06D3069907DA06CB06990890
:10C960000B06DC069907D706C80000005855740668
:10C97000D80699080406D9069907E506D00699084D
:10C980001106DF069907E306CE00000058495574EA
:10C9900006B60699027C06B70699027906A806999A
:10C9A000027D06BD0699027806A700005849457425
:10C9B00006B10699027A06B20699027706A406998C
:10C9C000027B06B30699027606A30000585545740B
:10C9D00006C40699066906C50699066606C1069943
:10C9E000066A06C60699066506C0000058494E74D8
:10C9F00006D4069907FF06D5069907DB06CC0699EB
:10CA0000080C06DD069907D806C9000058554E7473
:10CA100006DA0699080506DB069907E606D10699A7
:10CA2000081206E0069907E406CF000058494E4771
:10CA30007406D60699080006D7069907DC06CD06C7
:10CA400099080D06DE069907D906CA005A4841849E
:10CA50000752071807F10753071807CA073E0718B8
:10CA60000806076D071807C5073900005A484584AE
:10CA7000075C071807F6075D071807D3074807186C
:10CA800007FA0762071807CF074300005A48558482
:10CA9000076907180804076A071807E50750071809
:10CAA00008110774071807E3074F00005A48414967
:10CAB000840754071807F20755071807CB073F07E5
:10CAC000180807076E071807C6073A005A4855495D
:10CAD00084072F0718066B07300718066807240716
:10CAE00018066C0737071806670723005A48414F96
:10CAF00084075A071807F5075B071807CE07420790
:10CB000018080A0771071807C9073D005A484F550A
:10CB1000840767071808030768071807E2074E0726
:10CB20001808100773071807DF074C005A48414ED2
:10CB3000840756071807F30757071807CC0740075D
:10CB4000180808076F071807C7073B005A48454EE3
:10CB500084075E071807F8075F071807D507490716
:10CB60001807FC0763071807D10746005A48554EB7
:10CB700084076B07180805076C071807E6075107B5
:10CB80001808120775000000434841840093005EB6
:10CB900007F10094005E07CA0081005E080600AE3F
:10CBA000005E07C5007D000043484584009D005E8F
:10CBB00007F6009E005E07D30089005E07FA00A317
:10CBC000005E07CF008600004348558400AA005E3F
:10CBD000080400AB005E07E50091005E081100B597
:10CBE000005E07E30090000043484149840095003F
:10CBF0005E07F20096005E07CB0082005E08070029
:10CC0000AF005E07C6007E004348554984007400AB
:10CC10005E066B0075005E06680069005E066C00CB
:10CC20007B005E06670068004348414F83009B001D
:10CC30005E07F5009C005E07CE0085005E080A00D6
:10CC4000B200000043484F558400A8005E0803006E
:10CC5000A9005E07E2008F005E081000B4005E07C6
:10CC6000DF008D004348414E840097005E07F300CB
:10CC700098005E07CC0083005E080800B0005E07E5
:10CC8000C7007F004348454E84009F005E07F800C0
:10CC9000A0005E07D5008A005E07FC00A4005E07C6
:10CCA000D10087004348554E8300AC005E08050064
:10CCB000AD005E07E60092005E081200B6000000BC
:10CCC000534841840593055B07F10594055B07CA4A
:10CCD0000580055B080605AC055B07C5057B000004
:10CCE00053484584059D055B07F6059E055B07D304
:10CCF0000588055B07FA05A3055B07CF05850000DE
:10CD00005348558405A8055B080405A9055B07E59C
:10CD10000591055B081105B2055B07E3058F00006F
:10CD200053484149840595055B07F20596055B0765
:10CD3000CB0581055B080705AD055B07C6057C00D3
:10CD400053485549840571055B066B0572055B0602
:10CD5000680566055B066C0579055B066705650079
:10CD60005348414F84059B055B07F5059C055B0710
:10CD7000CE0584055B080A05B0055B07C9057F0081
:10CD800053484F558405A6055B080305A7055B07B7
:10CD9000E2058E055B081005B1055B07DF058D0018
:10CDA0005348414E840597055B07F30598055B07DB
:10CDB000CC0582055B080805AE055B07C7057D004D
:10CDC0005348454E84059F055B07F805A0055B07A2
:10CDD000D5058B055B07FC05A4055B07D10586001F
:10CDE0005348554E8405AA055B080505AB055B074E
:10CDF000E60592055B081205B3055B07E4059000A4
:10CE00005245740541051507F60542051507D3057A
:10CE100031051507FA0547051507CF052E00000057
:10CE2000525574054E05150804054F051507E5050F
:10CE300039051508110557051507E30537000000EA
:10CE40005255497405220515066B0523051506681C
:10CE5000051D0515066C052705150667051C000050
:10CE600052414F74053F051507F50540051507CEDE
:10CE7000052D0515080A0554051507C9052A0000E2
:10CE8000524F5574054C05150803054D051507E26D
:10CE90000536051508100556051507DF0534000091
:10CEA00052414E73053B051507F3053C051507CCAC
:10CEB000052B0515080805520000000052454E7468
:10CEC0000543051507F80544051507D50532051571
:10CED00007FC0548051507D1052F000052554E7473
:10CEE0000550051508050551051507E6053A051510
:10CEF00008120558051507E40538000052414E4751
:10CF000074053D051507F4053E051507CD052C05EF
:10CF10001508090553051507C805290052454E4750
:10CF2000740545051507F90546051507D6053305AA
:10CF30001507FD0549051507D2053000524F4E472C
:10CF400073054A05150802054B051507E10535056A
:10CF500015080F05550000005A4173079E07160774
:10CF6000F1079F071607CA078B0716080607BC00BC
:10CF70005A457407A8071607F607A9071607D30727
:10CF800093071607FA07B0071607CF0790000000AF
:10CF90005A557307B80716080407B9071607E507B7
:10CFA0009C0716081107C3005A41497407A00716C9
:10CFB00007F207A1071607CB078C0716080707BD5E
:10CFC000071607C6078700005A45497407AA0716BF
:10CFD00007F707AB071607D40794071607FB07B137
:10CFE000071607D0079100005A55497407800716A5
:10CFF000066B078107160668077B0716066C078510
:10D0000007160667077A00005A414F7407A60716ED
:10D0100007F507A7071607CE078F0716080A07C0E8
:10D02000071607C9078A00005A4F557407B6071636
:10D03000080307B7071607E2079A0716081007C282
:10D04000071607DF079800005A414E7407A207161B
:10D0500007F307A3071607CC078D0716080807BEB6
:10D06000071607C7078800005A454E7307AC071616
:10D0700007F807AD071607D50795071607FC07B28F
:10D08000000000005A554E7407BA0716080507BB82
:10D09000071607E6079D0716081207C4071607E4D8
:10D0A000079B00005A414E477407A4071607F40770
:10D0B000A5071607CD078E0716080907BF0716072D
:10D0C000C80789005A454E477407AE071607F90787
:10D0D000AF071607D60796071607FD07B30716070B
:10D0E000D20792005A4F4E477407B407160802073A
:10D0F000B5071607E107990716080F07C1071607B6
:10D10000DE07970043417400DF005C07F100E00098
:10D110005C07CA00CC005C080600FA005C07C5008A
:10D12000C800000043457400E9005C07F600EA000F
:10D130005C07D300D4005C07FA00EF005C07CF0067
:10D14000D100000043454E7400EB005C07F800EC92
:10D15000005C07D500D5005C07FC00F0005C07D13F
:10D1600000D2000043557400F6005C080400F7008C
:10D170005C07E500DD005C08110101005C07E300CD
:10D18000DB0000004341497400E1005C07F200E26B
:10D19000005C07CB00CD005C080700FB005C07C605
:10D1A00000C900004355497400C1005C066B00C211
:10D1B000005C066800BC005C066C00C6005C06678C
:10D1C00000BB000043414F7300E7005C07F500E837
:10D1D000005C07CE00D0005C080A00FE00000000E2
:10D1E000434F557400F4005C080300F5005C07E24F
:10D1F00000DA005C08100100005C07DF00D80000C6
:10D2000043414E7400E3005C07F300E4005C07CC8C
:10D2100000CE005C080800FC005C07C700CA0000E4
:10D2200043554E7400F8005C080500F9005C07E601
:10D2300000DE005C08120102005C07E400DC000074
:10D2400043414E477400E5005C07F400E6005C07CC
:10D25000CD00CF005C080900FD005C07C800CB00D2
:10D2600043454E477400ED005C07F900EE005C0793
:10D27000D600D6005C07FD00F1005C07D200D300A9
:10D28000434F4E477400F2005C080200F3005C0755
:10D29000E100D9005C080F00FF005C07DE00D7004A
:10D2A00053417405DB055907F105DC055907CA052B
:10D2B000C90559080605F6055907C505C40000004B
:10D2C00053457405E5055907F605E6055907D305E5
:10D2D000D1055907FA05EB055907CF05CE00000027
:10D2E00053557405F20559080405F3055907E5057A
:10D2F000D90559081105FD055907E305D8000000B7
:10D300005341497405DD055907F205DE055907CB80
:10D3100005CA0559080705F7055907C605C50000E0
:10D320005355497405BD0559066B05BE0559066878
:10D3300005B90559066C05C20559066705B8000010
:10D3400053414F7405E3055907F505E4055907CE28
:10D3500005CD0559080A05FA055907C905C8000091
:10D36000534F557405F00559080305F1055907E2B7
:10D3700005D70559081005FC055907DF05D500003C
:10D3800053414E7405DF055907F305E0055907CCF5
:10D3900005CB0559080805F8055907C705C600005B
:10D3A00053454E7405E7055907F805E8055907D5B3
:10D3B00005D2055907FC05EC055907D105CF00003A
:10D3C00053554E7305F40559080505F5055907E64B
:10D3D00005DA0559081205FE0000000053414E47CA
:10D3E0007405E1055907F405E2055907CD05CC059B
:10D3F00059080905F9055907C805C70053454E479F
:10D400007405E9055907F905EA055907D605D30555
:10D410005907FD05ED055907D205D000534F4E477A
:10D420007405EE0559080205EF055907E105D60513
:10D4300059080F05FB055907DE05D400594174074B
:10D440000106E107F1070206E107CA06F706E1084F
:10D4500006070F06E107C506F3000000594F7407E1
:10D460000906E10801070A06E107E006FE06E108F1
:10D470000E071306E107DD06FB00000059414F745B
:10D48000070706E107F5070806E107CE06FA06E1F9
:10D49000080A071206E107C906F60000594F55743D
:10D4A000070D06E10803070E06E107E2070006E1A3
:10D4B0000810071506E107DF06FD000059414E740C
:10D4C000070306E107F3070406E107CC06F806E1C7
:10D4D0000808071006E107C706F4000059414E4747
:10D4E00074070506E107F4070606E107CD06F9060D
:10D4F000E10809071106E107C806F500594F4E4734
:10D5000074070B06E10802070C06E107E106FF06B7
:10D51000E1080F071406E107DE06FC005741740618
:10D5200081066D07F10682066D07CA0675066D084D
:10D53000060694066D07C50671000000574F740675
:10D5400092066D08010693066D07E00680066D08D9
:10D550000E0698066D07DD067F00000057414974EE
:10D560000683066D07F20684066D07CB0676066D08
:10D5700008070695066D07C60672000057454974F0
:10D580000689066D07F7068A066D07D4067C066DC8
:10D5900007FB068F066D07D00679000057414E74D1
:10D5A0000685066D07F30686066D07CC0677066DC1
:10D5B00008080696066D07C70673000057454E74A7
:10D5C000068B066D07F8068C066D07D5067D066D81
:10D5D00007FC0690066D07D1067A000057414E47BA
:10D5E000740687066D07F40688066D07CD06780673
:10D5F0006D08090697066D07C806740057454E4723
:10D6000074068D066D07F9068E066D07D6067E0632
:10D610006D07FD0691066D07D2067B004C494193CC
:10D62000032C031F026C07F1032D031F026C07CAB2
:10D630000324031F026C0806033900005449414EBD
:10D6400093060505FF026C07F3060605FF026C074B
:10D65000CC060205FF026C0808060C004249414F47
:10D66000930014000B026C07F50015000B026C0709
:10D67000CE000F000B026C080A001A005A485541F0
:10D68000A307270718065F07F107280718065F0793
:10D69000CA071F0718065F0806073300534855419D
:10D6A000A30569055B065F07F1056A055B065F0771
:10D6B000CA0561055B065F08060575004E55414EBB
:10D6C00093041903FC065F07F3041A03FC065F07C3
:10D6D000CC041603FC065F0808041D004B55414EA0
:10D6E0009302D602C5065F07F302D702C5065F079D
:10D6F000CC02CC02C5065F080802E0005255414E3C
:10D700009305200515065F07F305210515065F073C
:10D71000CC051B0515065F080805260053554F93D9
:10D7200005BF0559065F080105C00559065F07E0FA
:10D7300005BA0559065F080E05C300004348554168
:10D74000A1006C005E065F07F1006D0044454E715C
:10D750000135010307D10136000000004449419121
:10D7600001160103026C0806011700004649414FEB
:10D7700091017D017B026C07C9017E004E554E71FF
:10D78000043D03FC07E6043E000000004B454971E0
:10D79000030502C507F70306000000004C4F7103A4
:10D7A0003E031F0472033F004E4F5571043803FCC3
:10D7B00007DF04390000000054454971064205FFA7
:10D7C00007F70643000000005A484549810744070F
:10D7D0001807D007450000005348454981058905D1
:10D7E0005B07D4058A0000005255419105190515C3
:10D7F000065F07CA051A0000E0225200801802687E
:10D80000914203D34368D218914202D38068002822
:10D81000F5D170471848016800290ED180214902CE
:10D820008160090941600021C943C160016104218F
:10D830004161124A1160124901600120704730B401
:10D8400007230C0008341C4201D1002304E0082403
:10D850000D000835641B2340C918D21A8161C260CB
:10D86000012313434B602823091D8B50024909698A
:10D87000C16130BC704700002C3C0020A02C00206F
:10D880006859883CF0B587B0060007200C000834C2
:10D89000044205D008240D000835641B0440091912
:10D8A000039111000831014205D008211400083409
:10D8B000091B0840121817000398C018049004466A
:10D8C0000398381AC01A019003201843039948603E
:10D8D000BC4201D300F0FEFF01257868284001D149
:10D8E00000F0F8FF0198102801D200F0F3FFB069B2
:10D8F000874207D1F06801994018F060B461054390
:10D90000656077E17069874208D1B0680199401875
:10D91000B06074610543656020506BE178688107F1
:10D92000890F012900D0D1E0072188430690C00863
:10D930001F2843D8B9680291F968009105900098B2
:10D94000874201D100F0C6FF0298874201D100F062
:10D95000C1FF7868072188430599C900884201D032
:10D9600000F0B8FF300028300599C900401802992E
:10D97000814207D03269914200D29FE0C968B94222
:10D9800000D09BE00099029A914206D13168059A35
:10D99000012090408143316092E0814208D00846E6
:10D9A0003169884200D289E08068B84200D085E0C1
:10D9B0000098D06002980099886081E0B869029070
:10D9C000F968B94210D0B8680091316988422CD307
:10D9D000C168B94229D100998968B94225D1009915
:10D9E000C1600099886022E03A001432106800900B
:10D9F000002805D13A00103210680090002816D097
:10DA0000009801E00A001068010014310B68002B37
:10DA1000F8D1010010310B68002BF3D10090306970
:10DA2000824202D30020106001E000F053FF029810
:10DA3000002845D0982040003018F9698900401826
:10DA400001688F420AD100990160002915D17168DF
:10DA5000FA69012090408143716031E00298316998
:10DA6000884208D30069B8420098029901D1086140
:10DA700003E0486101E000F02DFF009800281FD06E
:10DA800030690099814219D30299009A91613969EC
:10DA9000002908D0814204D3009801610098886170
:10DAA00001E000F017FF7869002809D03169884249
:10DAB00004D3009948610099816101E000F00AFFF8
:10DAC00006983F1801980699401801907868A84375
:10DAD0007860019828436060019820500198C00840
:10DAE0001F2826D80290300028300299C90040181B
:10DAF000009007460198102801D200F0EBFE306834
:10DB000002990200CA402A4003D18D400543356086
:10DB100008E0009880683169884201D3070001E07D
:10DB200000F0D8FE00988460FC60A7600098E06078
:10DB300060E00198000A25D02904884201D31F2003
:10DB400020E0FF21C9434118090C082211408840F8
:10DB5000B44A8218120C04231A4000929040B24A30
:10DB60008218120C02231A400E23591A009BC91A5C
:10DB7000891A9040C00B08184100019AC01DC2408C
:10DB80002A40881898214900711882008918E0619C
:10DB900000236361236172681700C7402F4004D1DE
:10DBA0008540154375600C601DE009681F28019DC4
:10DBB00001D1019805E019224008101A8540F8E7C4
:10DBC00039004A680727BA43824217D00A00103248
:10DBD000EF0FBF00D2196D001768002FF0D1306928
:10DBE000824205D31460A161E4600498A06001E062
:10DBF00000F070FE0398083007B0F0BD8868326905
:10DC00009142F5D39042F3D3C460049A8A60A06035
:10DC1000E160A361EEE7FFB583B00500AF693C00AA
:10DC20002100FFF7E9FD01684068081800902738D7
:10DC3000410701D1002003E00821081A4007400FE6
:10DC400000990E182F3E20001030864200D2260088
:10DC500030001830029000200190059A283A04996B
:10DC60002800FFF7ECFD30000830400701D000F03D
:10DC700031FE1B20706030000830E0214900691837
:10DC8000102200F06BFE0498E021490068500598CE
:10DC9000691848600698E02149006918C86030009A
:10DCA0000830E0214900691888600298019900E075
:10DCB000001D07224260491C02000832009B9A4264
:10DCC000F6D3012901DC00F005FEA64200D19AE05E
:10DCD000311B201D4018026801239A43026001266F
:10DCE0000120084360606150C8081F2823D80190B4
:10DCF000C0002818283000900746102901D200F0F3
:10DD0000E9FD286801990200CA40324003D18E40E3
:10DD100006432E6008E0009880682969884201D394
:10DD2000070001E000F0D6FD00988460FC60A76069
:10DD30000098E06067E0080A29D01A04904201D3F5
:10DD40001F2024E0FF22D2438218120C08231A401D
:10DD500002929040334A8218120C04231A40019216
:10DD60009040314A8218120C02231A4000920E226F
:10DD7000029BD21A019BD21A009BD21A9840C00B68
:10DD800010184200C01D0B00C3403340D018820061
:10DD9000AA1898235B00D2180092E0610022626109
:10DDA00022616A681300C340334007D1864016439E
:10DDB0006E60009804600098A0611FE0009A1268ED
:10DDC0001F2801D1080006E0192340081B1A08008B
:10DDD000984000E0320053680726B3438B4214D0CA
:10DDE00013001033C60FB6009B1940001E68002EAA
:10DDF000F0D12869834204D31C60A261E460A7606B
:10DE000001E000F067FD07B0F0BD906829698A4223
:10DE1000F7D38842F5D3C4609760A060E260002029
:10DE2000A061F0E700F0FFFF00C0FFFFF8B50400BD
:10DE30000E005B4D2868002801D1FFF7EBFC00962F
:10DE4000A96870182F30491E8843864200D386E0A7
:10DE5000D82149006618B168002905D03268101829
:10DE600082427CD281427AD300F0A4FD002876D091
:10DE7000010002680020C043814270D030688018E1
:10DE80003060D82040002058D8235B00E3185B683E
:10DE9000984200D218007060A06900282AD1206939
:10DEA000002801D0814200D22161316172610020DD
:10DEB000F0612B6863620023DB4323622300283375
:10DEC000DB601D469D6008355D611D61801C10335F
:10DED0002028F5D33348844201D1283A27E0201F77
:10DEE0000068072398432018083889180A1A283A26
:10DEF00001001CE0E02040002018030000E09B68C7
:10DF0000002B2ED01D685E68AD19A942F7D11D7B8C
:10DF10002D0726D4A7691E68B74222D35D687619FB
:10DF2000B7421ED2A8185860E0688218A169200084
:10DF3000FFF785FC20E09B68002B19D01D68854207
:10DF4000F9D1187B000713D4284619605D68AA1818
:10DF50005A60009B02002000FFF794FCF2BD0020F5
:10DF6000F2BD2369994200D2216103008818E3E7DA
:10DF700000232000FFF74FFEE06800998142EED2B7
:10DF8000401AE060A169009A8A18A2610123034344
:10DF900053600098032202434A6008000830F2BD33
:10DFA0002C3C0020E42A0020F2B584B000244F422B
:10DFB000090A25D080225202914201D31F211FE07D
:10DFC000FF22D2438A18120C08231A409140B84B02
:10DFD000CB181B0C04252B409940154D4D192D0CC9
:10DFE000022635400E26B21AD21A521BA940C90B7E
:10DFF00051184A00049BC91DCB40D907C90F5118BD
:10E0000001910090982149004018029001998900DF
:10E01000405800282BD001991F29049B04D01921B6
:10E02000019A5208891A8B400021049A03E000BF2C
:10E0300000C0FFFF5B0045680726B543AD1ABD422F
:10E0400003D204002F0000D192E145691030DE0FA9
:10E05000B6008059002D02D0854200D0290000284A
:10E06000E8D10492080000283DD1002C40D10121C4
:10E0700001980122824050004242024300984068C9
:10E08000104000D171E1434203405B1E180B102287
:10E090001040C3405A0908252A400392D3409A08E9
:10E0A00004252A40D3405D08022635400195EB4007
:10E0B0005D082940029D039E80198018019A8018EE
:10E0C0004018CB40C018800028580CE0100042686F
:10E0D0009A43521ABA4201D2170004000269002A78
:10E0E000F4D104914069002802D004990723EEE797
:10E0F000002C00D139E1009880680499401A8742C9
:10E1000000D332E100980069844200D22BE17818F4
:10E1100003906068072188430399884201D000F08A
:10E12000D9FB04982518AC4200D31CE1A0690190EA
:10E13000E668A6420DD0A06800990969884226D3F6
:10E14000C168A14223D1B168A14220D1C660B060AC
:10E150001FE0200014300668002E07D12000103088
:10E160000668002E15D001E0080006683100143161
:10E170000A68002AF8D1310010310A68002AF3D168
:10E1800000990969884202D30021016001E000F092
:10E19000A1FB0198002841D00298E169890040184C
:10E1A00001688C420BD10660002E17D100984068A0
:10E1B0000121E26991408843009948602EE001986E
:10E1C00000990969884207D30069A042019801D1EA
:10E1D000066103E0466101E000F07CFB002E1DD0EB
:10E1E00000980069864217D30198B0612069002821
:10E1F00008D000990969884202D33061866101E044
:10E2000000F068FB6069002808D00099096988421D
:10E2100002D37061866101E000F05CFB0320012203
:10E22000102F09D2039908436060201D03994018FC
:10E2300001680A43026093E004990843606001208A
:10E2400038436860EF51F8081F2820D80099C300B0
:10E25000C918283101910E46009909680B00C34086
:10E26000134004D182400A430098026008E0B0687D
:10E2700000990969884201D3060001E000F02AFBF9
:10E2800001988560F560AE600198E86068E0380A42
:10E2900029D01104884201D31F2024E0FF21C94363
:10E2A0004118090C082319408840014B02E000BFC7
:10E2B00000F0FFFFC3181B0C042633400193984065
:10E2C000334BC3181B0C022633400E26711A019ED5
:10E2D000891BC91A9840C00B08184100C01D3B009B
:10E2E000C3401340C81802998300C9180191E8611E
:10E2F000002169612961009B5B681E00C6401640D1
:10E3000008D182401A430098426001980560019844
:10E31000A86120E0019A12681F2801D1380006E0A8
:10E32000192340081B1A3800984000E03200536857
:10E330000726B343BB421DD013001033C60FB600EF
:10E340009B1940001E68002EF0D10098006983429E
:10E3500004D31D60AA61ED60AD6001E000F0BAFA7F
:10E360002000083002E000F0B5FA002005B0F0BD52
:10E37000049278E69068009B1B699A42EED398421B
:10E38000ECD3C5609560A860EA60A961E8E7000089
:10E3900000C0FFFFF3B585B0416848420840401E09
:10E3A000010B10221140C840420908231A40D040F6
:10E3B000830804242340D840440802252C40E04030
:10E3C0008507ED0F059E98277F00F619019689189D
:10E3D000C91809194919E840081880003058040084
:10E3E000416807229143069A8F1A1646072207E0D2
:10E3F000080041689143891BB94201D20F00040013
:10E4000001690029F4D140690028F2D1059800691A
:10E41000844200D2DBE060689043B919884201D0A1
:10E4200000F058FAA0190490844200D3CFE0A0690C
:10E430000090E568A5420DD0A06805990969884259
:10E4400026D3C168A14223D1A968A14220D1C560C9
:10E45000A8601FE0200014300568002D07D12000BF
:10E4600010300568002D15D001E00800056829006E
:10E4700014310A68002AF8D1290010310A68002AEC
:10E48000F3D105990969884202D30021016001E0B6
:10E4900000F020FA0098002841D00198E169890035
:10E4A000401801688C420BD10560002D17D10598EA
:10E4B00040680121E26991408843059948602EE057
:10E4C000009805990969884207D30069A04200981D
:10E4D00001D1056103E0456101E000F0FBF9002D89
:10E4E0001DD005980069854217D30098A86120695E
:10E4F000002808D005990969884202D328618561FE
:10E5000001E000F0E7F96069002808D00599096981
:10E51000884202D36861856101E000F0DBF90320E5
:10E52000102F09D2B91908436060201D40180168F6
:10E5300001220A43026047E0304360600125012068
:10E540003843211D88510498C7510598806803906D
:10E55000C608202E01D300F0BDF9039800282ED064
:10E5600005984069019002960598F10040182830FE
:10E57000009006460398102801D200F0ABF90598E8
:10E58000006802990200CA402A4004D18D40054328
:10E590000598056009E00098806805990969884236
:10E5A00001D3060001E000F095F901980099886018
:10E5B0000198F0600198866000980199C8600598FC
:10E5C00087600498059948612000083002E000F057
:10E5D00081F9002007B0F0BDF8B586B0060000BF95
:10E5E00000BF0124BA4DF52E00D326E10B2E01D237
:10E5F000102602E00B3607208643F1082868C84041
:10E60000032738424FD00122824388180390280004
:10E6100028300399C9004018019086680398C0000B
:10E6200002907068072188430299884201D000F067
:10E6300051F9B06800900198864201D100F04AF982
:10E640000098864201D100F045F97068072188439F
:10E650000299884201D000F03DF901980099884262
:10E6600006D12968039A01209040814329600FE078
:10E6700008462969884209D3C068B04206D100988B
:10E680000199886001980099C86001E000F022F9C2
:10E69000029807437760301D0299401801680C43C7
:10E6A0000460370007E1AA68B24200D3D8E000282E
:10E6B00000D1B8E001228A405200884053421343FF
:10E6C000034059421940491E080B10221040C14016
:10E6D0004A0908231A400292D1408A0804231A40AA
:10E6E0000192D1404A0802231A400092D1404A08C0
:10E6F0002240029BC018019BC018009BC0188018C4
:10E70000D14040180490280028300499C9004018CE
:10E710000290806800900498C000039000984068C0
:10E72000072188430399884201D000F0D3F800986C
:10E730008068019000980299884201D100F0CAF8DF
:10E7400000980199884201D100F0C4F8009840680F
:10E75000072188430399884201D000F0BBF8029852
:10E760000199884206D12968049A0120904081438A
:10E77000296010E00846296988420AD3C0680099D8
:10E78000884206D101980299886002980199C86070
:10E7900001E000F09FF80398801B02903743009837
:10E7A0004760029820430099091D885100988019FC
:10E7B0000590029805990850A8680490C608202E74
:10E7C00001D300F087F80498002826D068690190EA
:10E7D000039628002830F10047183E0004981028BE
:10E7E00001D200F077F8286803990200CA4022405D
:10E7F00003D18C4004432C6007E0B8682969884243
:10E8000001D3060001E000F065F80198B8600198B6
:10E81000F060019886600198C7600298A86005982A
:10E820006861009F47E06868002836D03100280002
:10E83000FFF7B0FD070013D044E03F20C0438642FD
:10E8400002D30026F6430BE00B36072086436868A8
:10E85000002805D031002800FFF7A6FB070031D1C2
:10E86000AA68B24219D3931B68690321102B08D3FD
:10E8700082196A61AB601C435460D35031434160DC
:10E8800009E00023AB606B6111434160011D8918F1
:10E890000A6814430C6007000DE0E86886420CD259
:10E8A000801BE860A9698A19AA61044354600320A7
:10E8B000304348600F00083704E031002800FFF7BC
:10E8C000B5FA070000BF00BF380007B0F0BD000078
:10E8D000E42A002080B5012000F082F801BDF1B4E7
:10E8E0000168421841684808131800988068C907F1
:10E8F0001ED5494640181BE01778521C0770401C73
:10E90000761EF9D1002C13D01678521C89080D40C0
:10E91000032D01D11578521C290271184D4241195D
:10E92000A41C05D00D78491C0570401C641EF9D14B
:10E930009A420FD01178521C032503260E4002D1B3
:10E940001678F61C521C0C090F2CD9D114780F34F0
:10E95000521CD5E700980C30F2BC704770B4103AE6
:10E9600003D378C9103A78C0FBD2530701D318C932
:10E9700018C001D508C908C0D20704D30B8803808A
:10E98000891C801C002A01D50B78037070BC70476D
:10E990008B0701D18307E1D0124205D00B78491CC7
:10E9A0000370401C521EF9D170470268531C03606B
:10E9B0001170704707490868002801D0002070478F
:10E9C000054807229043086004499143091A0160F1
:10E9D000704700BFFC3C0020174500201047002076
:10E9E0002021090326311820ABBEF9E7F0B5A5B008
:10E9F00004000D002A9E00BF73A003C86F4603C722
:10EA0000089506A83B2146540020119004940392D7
:10EA1000029313E0039C3500049F21780898B847BF
:10EA20000890002800D1B6E01198401C1190641C99
:10EA30006D1EF2D104970398801903900398007813
:10EA4000252809D100260B960C960D960E960F964A
:10EA500010960021039C0FE06A460021C9430398E9
:10EA600001F011F8060001D1119896E0D2D50126E7
:10EA7000E1E7080001210143641C20782028F8D038
:10EA800023280CD02B2804D02D2805D0302809D0DD
:10EA900085E008000221EEE708000421EBE708000A
:10EAA0000821E8E708001021E5E713960AE0139A29
:10EAB000444B9A4205DA93009A18520010183038E5
:10EAC0001390641C20780200303A0A2AEFD3207891
:10EAD0002E2803D00020C043129028E0641C207828
:10EAE0002A280AD102980068029A10600268001D64
:10EAF000029B18601292641C19E02D2802D12D226D
:10EB0000641C00E0002212960CE0002A09D1129B3E
:10EB10002C4DAB4205DA9D00EB185B00181830381D
:10EB20001290641C20780300303B0A2BEDD306AD15
:10EB300029872778390000BF25A000F0B5FF0028FD
:10EB400001D0641C00E000273A202F54285C68287C
:10EB500004D1207868280AD1622005E06C2806D10B
:10EB600020786C2803D171203A216854641C16A8BF
:10EB70000A902378029A06A9049800F067F8611CAD
:10EB80000391002807D116AA06A9049800F0F8F905
:10EB9000002800D452E70020C04325B0F0BD2A2849
:10EBA00083D10298026802601068121D029B1A60ED
:10EBB0001390002804D54242139208000421014317
:10EBC000641C84E7CBCCCC0C0000000000000000EB
:10EBD000686A6C747A4C00000B0062281CD06828AC
:10EBE0000DD06A2803D06C2823D0712821D11A684F
:10EBF000D21D072082431A6003CA1A607047002A98
:10EC000019681960086803D0091D196000B217E07F
:10EC1000091D196080B217E0002A19681960086898
:10EC200003D0091D196040B20AE0091D1960C0B285
:10EC30000AE0002A19681960086803D0091D1960E4
:10EC4000C1177047091D1960002170477CB50C0081
:10EC500011001E0025693200253A00D14AE11C3A14
:10EC600000D182E0121F022A00D87EE00E3A00D1C5
:10EC700004E1521F58D0093A77D0921E16D0521E86
:10EC800034D0521E022A70D9121F2FD0521F00D129
:10EC900094E0521E48D0521E00D1DEE0D21E00D1B8
:10ECA000FAE0921E40D0D21E3ED029E13A22A25C68
:10ECB0006C2A09D06069421C62610A680A601368A4
:10ECC000121D0A602B5425E10A680A601368121DA0
:10ECD0000A60009300210191C94321636A46210023
:10ECE00000F0D0F9002800D414E100E101223A201C
:10ECF000205CFFF771FF03C4083C002904DA606957
:10ED0000411C61612D210DE0208F810704D56069D0
:10ED1000411C61612B2105E0C00721D56069411CC0
:10ED20006161202129541BE000223A20205CFFF77A
:10ED300053FF03C4083C3820205C000710D503CCE7
:10ED4000083C002901D100280AD02020304378282F
:10ED500006D1606930212954401C411C61612E5448
:10ED600060692818E060310084E00868C01D07224F
:10ED7000904308600CC808600CC4083C03CC083CF5
:10ED8000C80F04D06069411C61612D210DE0208F06
:10ED9000810704D56069411C61612B2105E0C00732
:10EDA00004D56069411C61612021295460692818DB
:10EDB000E0603100200000F083FAABE03B20205CF3
:10EDC000002803D00024E44353A074E03A20205CE0
:10EDD000622808D0682823D06A2812D06C282ED048
:10EDE00071280ED02BE00A680A601068121D0A60B4
:10EDF000002803D10024E4434DA05CE0E16A0170E7
:10EE000088E0086808600268001D0860002A03D1D5
:10EE10000024E44346A04EE0E06AC11703C279E053
:10EE20000A680A601068121D0A60002804D10024D4
:10EE3000E44300BF3EA03EE0E16A01806AE00A6868
:10EE40000A601068121D0A60002803D10024E44300
:10EE500037A030E0E16A01605CE0086808600268A1
:10EE6000001D08600020C0430021104003C4083C7E
:10EE7000E5607821200000F06BF94BE06C223A232A
:10EE8000E2540B680B601A681B1D0B60002A29D125
:10EE90000024E4432CA00EE03A22A25C6C2AF0D0BD
:10EEA000086808600568001D0860E560002D06D14F
:10EEB0000024E4432BA000F001FE201A76BD266B4F
:10EEC000002E03D5280000F01DFE09E032000021CD
:10EED000280000F01FFE002801D0401B00E0300099
:10EEE000A06117E0210000F0CDF8002812D5002025
:10EEF000C04376BD6069411C61612521295409E048
:10EF00006169481C606125226A54310002D0411CAD
:10EF100061612E54002076BD7072696E74665F73F5
:10EF20003A20256E20646973616C6C6F77656400AC
:10EF30007072696E74663A2062616420256E206189
:10EF40007267756D656E74007072696E74665F735A
:10EF50003A2062616420256C7320617267756D656B
:10EF60006E7400007072696E74665F733A2062613D
:10EF70006420257320617267756D656E74000000F2
:10EF8000F8B506000C001700606B6169401A216A31
:10EF9000401AA169401A616A401AE169401AA16ADF
:10EFA000401A00903820205C40070ED400980028BA
:10EFB0000BDD05462021A068B047A06000285DD089
:10EFC000E06A401CE0626D1EF4D13A0063692100E2
:10EFD000300000F0E9FC002850D1256A002D0ADD40
:10EFE0003021A068B047A060002847D0E06A401CEC
:10EFF000E0626D1EF4D1A369E2682100300000F0E8
:10F00000D3FC00283AD1656A002D0ADD3021A068C2
:10F01000B047A060002831D0E06A401CE0626D1E5D
:10F02000F4D1E369E068A16942182100300000F0E2
:10F03000BBFC002822D1A56A002D0ADD3021A06882
:10F04000B047A060002819D0E06A401CE0626D1E45
:10F05000F4D13820205C40070ED5009800280BDD45
:10F0600005462021A068B047A060002806D0E06ACD
:10F07000401CE0626D1EF4D10020F2BD0020C043B0
:10F08000F2BD0000F0B5A7B004000D0016002F6B14
:10F09000002F00D5874F00F048FD696B0A1800BFAC
:10F0A00029A003C804AB03C3812A4AD200200694D6
:10F0B000009503900024002F32DD04AA316801A8D6
:10F0C00000F0E6FC05003CD43068002801D16D1E3C
:10F0D00037D4AF4224DB00984069401981280BD314
:10F0E0000098446307AA00990698FFF749FF039028
:10F0F000002815D4009844610098406902902A00C5
:10F1000001A907A8029BC018FFF742FC029840190A
:10F11000009948613068002802D0361D7F1BCAE77D
:10F12000069B009C0398002804D107AA2100180020
:10F13000FFF726FF002802D100216161616327B03B
:10F14000F0BD0020C043FAE700000000000000000E
:10F15000F2B586B0040025696F2901D1082707E0C0
:10F16000084620210143782901D00A2700E0102712
:10F170003C2603CC083C04AA03C26A46127E642AD9
:10F1800003D06A46127E692A09D1002907DA04A849
:10F1900003C800220023121A8B4104A80CC004A843
:10F1A00003C8002920D100281ED1206B00281BD1C4
:10F1B000082F4ED13820205C00074AD53B2630204E
:10F1C00046E000290ED53821615C14220A40102A3D
:10F1D00008D1616B6269891A226A891A081A0028A3
:10F1E00000DD206207B0F0BD0294009504A830C88D
:10F1F000761E0196200029003A00FB1700F09AFCC9
:10F200003032D0B23A2803DB6846007E51381218FB
:10F2100000988255200029003A00FB1700F08AFC74
:10F2200004000D0001D1002C05D00298C06800999F
:10F2300089198842DCD3029C009D082F09D138200F
:10F24000205C000705D5A85D302802D0761E30204E
:10F25000A8553C20801BA061A919E160216B884260
:10F26000AFDA081A2062208F134901402187B9E7DD
:10F27000F8B50026114F04000D00009214E0C007FD
:10F2800007D532003B002000290000F088FC040074
:10F290000D000098401000903000390032003B0013
:10F2A00000F07DFC06000F0000980028E7D1200048
:10F2B0002900F4BDFFFFFF7FEFFF000000002440A6
:10F2C000F3B593B005AA03C802AB03C314A8007832
:10F2D000202101436846017061290BD01398006B0F
:10F2E000002801D5062003E004D1672902D10120BE
:10F2F00013990863139803C84C006415641C13D158
:10F300000B0311D003201399886114A80078613889
:10F310001A2804D255497944FF31533116E0544933
:10F320007944FF314D3111E04C006415641C13D158
:10F330000B0311D103201399886114A80078613858
:10F340001A281BD34B497944FF312B3103221398E0
:10F35000C068FFF71DFBC2E110AB03C38CA6C0CE93
:10F3600010A803C8394080256D03A9420BD20023A1
:10F37000019310AB30CB604069400EE03E497944C8
:10F38000FF310939E2E7080D834C2418019410A8D5
:10F3900003C8834D0D4081492943139B03C368462D
:10F3A0000078612813D11398C06830210170811C46
:10F3B000139BD96014A90978612901D1782100E053
:10F3C0005821417013984069801C13994861139823
:10F3D00030C826402F4005D1002E03D100206B46B7
:10F3E000188173E168460078612800D0A8E013987E
:10F3F000006B002801D5212000E0401C0090009FF8
:10F400007F1C02A803C80022002300F08AFC02D25D
:10F410008020000645400198001F019069460A754A
:10F4200005A8461C002F00DC5FE120002900002217
:10F4300080235B0300F08EFC00D956E169004A0D81
:10F4400011001C31002A19D0002917DDB24A91425F
:10F4500006DB10052900802212061140014311E04D
:10F460004F4A2A400805104305000DE030AA00006D
:10F4700030AA000034AA00002CAA00002900802233
:10F480001206114000240D002000290000F07CFC31
:10F490000290FF1F002F09DD00F0B0FC02000B00FE
:10F4A0002000290000F011FD04000D00F01D0721CF
:10F4B000029A04E0401E13071B0F03701211002A6A
:10F4C00001DD491EF6D5491E00D50AE1401E002285
:10F4D0000270F8E70023040005AD2D1901E0401E7D
:10F4E0006D1E641E2E789E42F9D00F2B04D14B1C4A
:10F4F0001B5D5B1C491C0B55002C04D505AA401C48
:10F500000199091D0191431E11D4D41814A9097839
:10F5100025783035EEB23A2E02DB0E003A3EAD19B8
:10F5200025705B1E641E002BF2D514AB1970139965
:10F53000096B002900D4C6E0411E139B1963C2E089
:10F5400002A830C86D006D08019874494843744999
:10F5500000F032FD019007200199401A029005DD6C
:10F56000024620002900FFF783FE0AE04242002005
:10F570006C49FFF77DFE02000B002000290000F01F
:10F580004AFD6A461278662A0CD1019A0A320AE0CC
:10F59000FFFFFFFFFFFFFF7F02FCFFFF0000E03FD8
:10F5A000FFFF0F800622139B1B6B9A18142A00DDA5
:10F5B000142230236C46237505AB5C1C02E002A8C4
:10F5C00003C8049A002A3CDD02AB03C3049202A8DC
:10F5D00003C800F0EBFB0F9006460834042530000A
:10F5E0000A2100F0FDFC0F0030000A2100F0F8FCB9
:10F5F00006003037601E077030000A2100F0F0FC72
:10F600000F0030000A2100F0EBFC0600A41E30378A
:10F6100027706D1EE3D10834049808380490002840
:10F62000CDDD0F9800F0DAFB02000B0002A803C842
:10F6300000F04BFC00223C4B00F0B1FA02AA03C2DE
:10F64000C5E705A8401C211A05A8421C019802E044
:10F65000491E401E521C1378302BF9D00190684689
:10F660000078662802D10198401C06E068460078C0
:10F67000652801D1012000E00020139B1B6B1818A6
:10F68000814200DA481E00281DD4884204DA115C49
:10F69000352901DB392300E030230400511E0D1908
:10F6A00001E0401E6D1E641E2E789E42F9D0392B5B
:10F6B00002D1135D5B1C1355002C04D50A00401CBD
:10F6C0000199491C019169460881019800B2009096
:10F6D000029B1BB214A80178139800F027F815B00C
:10F6E000F0BDC61D002F00DD9FE605A9481C331A9A
:10F6F00005A8421C0098834200DC1800002800D5B1
:10F7000015E7984200DBE5E64B1C1B5C072B00DC91
:10F71000E0E60F23DFE60000FF070000977500001A
:10F72000A08601000000F03F84D79741F6B583B072
:10F7300006000F001C0000F0B0F9406A007869462E
:10F740000870356B002C03DC012400BFA3A00490DB
:10F7500020203843662803D10A9F3FB27F1C1AE05D
:10F76000672800D085E00A9800B20321C943884287
:10F7700000DA82E0A84200DB7FE00A9F3FB27F1CF4
:10F780003820305C000702D4AC4200DA250038B2E1
:10F790002D1A00D50025B169F06840183AB2002A48
:10F7A00026DC491C30220270002D03DC3820305C3E
:10F7B000000704D568460078F2685054491CB161CE
:10F7C00038B241428D4200DA6F423FB278427062F5
:10F7D000ED19A54200DA2C0024B2F461220004994C
:10F7E000F068B369C018FFF7D3F8281BB062C3E014
:10F7F000944218DA22000499FFF7CAF8B069001998
:10F80000B0613FB2391B7162002D03DC3821715C9D
:10F81000090706D569460978F2681154F069401C59
:10F82000F061B562A8E00499FFF7B2F838B2B169A7
:10F830000918E41B002D03DC3822B25C120704D542
:10F840006A461278F3685A54491CB16121B28D425C
:10F8500000DA2C0022B204990918F068B369C018C4
:10F86000FFF796F824B2B0690019B061281B7062E6
:10F8700082E0612F11D1702712E0AC4204DA382106
:10F88000715C090700D425006D1E00D50025672F87
:10F8900001D1652704E0452702E0412F00D1502720
:10F8A000B069411CB161049A1278F3681A54049843
:10F8B000401C0490002D03DC3820305C000718D574
:10F8C000481CB0616A461278F3685A54002D10DD66
:10F8D000641E21B28D4200DA2C0022B20499F36832
:10F8E0001818FFF755F824B2B0690019B061281B49
:10F8F0007062F068B169401807700A9909B200296E
:10F9000004D42B214170801C049006E02D2242700B
:10F91000801C049048426946088500246D460A9878
:10F9200000B205E00A2100F047FB2970641C6D1C41
:10F9300000B20028F6DC012C09DC202038436528C1
:10F9400005D13020049908700498401C0490002CC4
:10F9500028D13020049908700498401C07E0641EE8
:10F960006946095D30310170401C002CF7DCF168FC
:10F97000B2698918401AF0613820305C14210140C6
:10F9800010290DD17069B1694018716A4018F16988
:10F990004018B16A4018716B884201DA081A306267
:10F9A00005B0F0BD0498E0E7F8B50024002B13D0B3
:10F9B00007000E0014001D002178B068B847B06041
:10F9C000002807D0F06A401CF062641C6D1EF3D161
:10F9D000002401E00024E4432000F2BD3000FEE7F3
:10F9E000613807E005E0010061391A2901D20120E0
:10F9F000704741381A288041C00F704701002139F3
:10FA00000F290AD301003A39062906D901005B39CA
:10FA1000062902D37B380428EDE7012070472048EF
:10FA2000704730B45368D418042B0BDA002909D07E
:10FA3000057825700578002D04D05B1C491E641CD8
:10FA4000401CF1E7536030BC704738B500290ED038
:10FA50001D001400FFF7E5FF616820006A6B904706
:10FA60000122D243811A02D0491E02D004E00120B3
:10FA700000E00020C04332BD0021616032BD80B58E
:10FA8000DA6B904702BD80B5054BFFF7DEFF02BD84
:10FA900080B5034BFFF7F3FF02BD0248704700003B
:10FAA000E8270020B0270020C9B202788A4203D09C
:10FAB000401C002AF9D100207047FEE780B50028DD
:10FAC00001D100BF07A006490B68002B03D02222FA
:10FAD0000021984701E0FEF7FDFE222002BD000054
:10FAE000F83C0020636F6E73747261696E742068F5
:10FAF000616E646C65723A20626164206D65737337
:10FB000061676500431C0178401C0942FBD1C01AA3
:10FB10007047FEE7C9B2521E05D30378401C8B42E2
:10FB2000F9D1401E70470020704780B5FFF777FF7E
:10FB3000006C02BD124224D0994228D970B500252C
:10FB40001B4202D00C00002109E0002401264918C4
:10FB50006441944200D3A41A7641F8D331000126BF
:10FB600001E0764109D2001864416D41A41A9D411B
:10FB7000F7D2A4185D41B619F5D3300022002B004E
:10FB800070BD1B42D8D108B5C046C04608BD01D1E2
:10FB90009042D3D202000B00002100207047F0B544
:10FBA0000E005E400125ED072E40B446AE0ADF1878
:10FBB0004C18F44208D2F7420ED2640D01D07F0DEA
:10FBC00012D100206146F0BD05D1F74201D87F0D6A
:10FBD00005D10020C143F0BDFBD1640DF9D0002058
:10FBE000C143490549088FE0E419C902DB022943F2
:10FBF0002B43DB0A460DC00231438E4630B487B238
:10FC000095B27D432E0CADB2140C7C43A419260C86
:10FC1000240425439CB27C43A419190C7943270C76
:10FC2000C919A4B20F043C43090C000C97B2474316
:10FC30002E0CBE193543ADB2170C4743360CBF1915
:10FC4000A6B2BF193E043543240C3E0C36199FB2B0
:10FC50004743BF19BCB23E0C89191F0C47437F189C
:10FC60003E043443390C704680B297B247432E0CA1
:10FC7000BE193543ADB2170C4743360CBF19A6B2B7
:10FC8000BF193E043543240C3E0C36199FB247433E
:10FC9000BF19BCB23E0C89191F0C47437F183E04A4
:10FCA0003443390C77463F0C90B278432E0C8019C0
:10FCB0000604ADB22E43050CA0B22D18120C7A43E7
:10FCC0005019020C80B2240CA4189AB27A4312196B
:10FCD00014042043120C89181B0C7B43C91830BC38
:10FCE000EF0A394203D1B61940414941641E6F12EF
:10FCF000BF0DE41B0BDBFF19BC4211DA2405002702
:10FD00004208AE417841614166463143F0BD641C12
:10FD100005D1401C6141CF0201D34908F4E750E707
:10FD20005DE730B4012464054D00EC420BD85D0062
:10FD3000EC4208D80C001C4364000443144304D272
:10FD4000994200D1904230BC7047FCD08B42FAD12E
:10FD50008242F8E730B4012464054D00EC420BD830
:10FD60005D00EC4208D80C001C43640004431443BB
:10FD700004D28B4200D1824230BC7047FCD0994201
:10FD8000FAD19042F8E7FEE7F4464A1805D200F0AF
:10FD90000FF801D580174008604700F009F80121ED
:10FDA000C907884200D90800404260474A1812D269
:10FDB000400DC90208430121C9070843520D4021E3
:10FDC0000901521A521C06D452421F3201D4D040AB
:10FDD0007047C017704700207047FEE701004222BD
:10FDE0001201D21E004207D002D4521E0018FCD5C8
:10FDF000C10A400512058918704700000100EED5C0
:10FE00004042F446FFF7EBFF0122D207114360475F
:10FE10008B4200D1824205D98446100062468C464E
:10FE200019006346DF184C18640D7F0D3AD0661C2C
:10FE3000760537D0E61B352E34DCDB022B43DB0A9C
:10FE40000C0DC9022943C912202E0DDB1700203EDC
:10FE500006D01F00F741F3405F400026012A77419A
:10FE6000C01871410DD217E01700F741F24057401A
:10FE7000F3415A40B340F3405A400026801859419C
:10FE80000AD3A21C52050FD0C207012F72411700DE
:10FE90004008CB0718434908641C24054208AF41B9
:10FEA00070416141F0BC7047641C21050020F9E7F6
:10FEB0006B4010E06B40ABE7F742F3D1E943F1E769
:10FEC0002442EFD100200021ECE7F0B40125ED073A
:10FED0000F005F40EED40C00871A9C4105D2C01B76
:10FEE000A141D219634169406B40AE0ADF184C183A
:10FEF000F442E1D2640D7F0DE2D0E61B362ED1DC58
:10FF0000DB022B43DB0AA4460C0DC9022943C90AB4
:10FF1000012E28DC04D1D6075208DF073A435B08DC
:10FF2000EF0A76429041994114D039423BD1B6193B
:10FF300040414941761C394204D1761C00184941A0
:10FF40003942FAD0B9436746B74208D9A41B240501
:10FF50002143A7E70042EAD13642E8D1A2E7E40A0A
:10FF6000E10700209EE7202E0BDD203E1F00F3401E
:10FF7000F7415F40012A002257417E42984191415A
:10FF80000BE01700F741F2405740F3415A40B340AD
:10FF9000F3405A407E42904199410A0303D2641EC5
:10FFA000B619404149410027641E24054208AE416C
:10FFB00078416141F0BC7047CA0F00D0494203103C
:10FFC0005A400DD004B500D3404200F009F8009A21
:10FFD000D20701D34942124200D5404204BD00007D
:10FFE000094214D088420FD30122030C01D100042E
:10FFF0001204002300185B418B4200D35B1A52416C
:020000040002F8
:10000000F8D319001000704701000020704708B5B0
:10001000C046C04608BDF0B40E005E400125ED07A5
:100020002E40B446AE0ADF184C18F4423BD2F742D9
:1000300041D2640D43D07F0D38D0E41BC902DB02EE
:1000400029432B43CF0ADB0A0600B61A9F4104D28C
:10005000641EB6197F41B6185F416812800D2418DE
:100060000018844222DAE80C0021B6197F41B61A42
:100070009F4102D2B6185F413F1C40414941F4D331
:10008000241C21DD2405B6197F41B61A9F4105D3F2
:100090003743C60737430026012F7041614166464A
:1000A0003143F0BC7047FCD1F74205D20020C14378
:1000B00049054908F3E704D00020C143F1E77F0D6B
:1000C000FAD000206146ECE72442FAD1401C61419D
:1000D0000F03F6D30020E2E770B505000026A64C1A
:1000E000201DB1004158002901D028008847761C06
:1000F000082EF5D370BD8188A04A914204D00088B3
:10010000002802D0012000E00020C0B27047BFB537
:100110008022D200821800250400083402200880C2
:100120000F000092009884421CD220680021C9432D
:10013000884217D02000FFF7DEFF002808D0A06813
:10014000AD49496A884200D20800AB49486200E0E4
:1001500001256088810064180C343988C01C081897
:100160003880DFE70298002800D00570BFBD02008C
:100170001389C81C181810815089401AC01E50815C
:100180007047000080B500200090022301A29A4829
:1001900041690AE0DEC0ADDEFF011EF180B501005D
:1001A00000200090022300BF02A2944800F0A9FEA4
:1001B00002BD0000DEC0ADDEFE011EF170B5C21C46
:1001C00092B2FE2A01DB092070BD002000238C4C76
:1001D0001D0164192578002D06D126899519668997
:1001E000AD19ADB2FF2D04DD5B1C022BEFDB072048
:1001F00070BD0B8061898918618170BD804A0901D9
:1002000051184A89101AC01E4881704770B50C00F9
:1002100021687B4A000110184568002903D04888EE
:1002200080000E1805E02E00083603E0708880007C
:1002300036180C368020C000281886420CD2306850
:100240000021C943884207D03000FFF754FF00283F
:10025000ECD02660012070BD002070BDF8B5040010
:100260000D0060680026644F002821D0634B196898
:1002700088421DD301005B688B4219D3820717D1D6
:1002800022893B899A4213D1226883689A420FD10E
:1002900000225B48031D14011B598B4204D28024A9
:1002A000E4001B19994215D3521C022AF2DB1AE012
:1002B0002E80009669462888FFF7A8FF00280CD0FA
:1002C0000098806821688842F4D10098606038897D
:1002D000208100E02A800120F2BD2888401C28806F
:1002E00080B20228E5DB0020F2BDF8B5424F3C7C2D
:1002F000A40701D40220F2BD0092002A04D01C0001
:1003000006000D00002C05D10520F2BD2060A0885C
:10031000401CA080A088022821DA39490001085C2D
:100320000028F4D12100A088FFF770FF0028EDD04D
:100330002068002E03D0828833889A42F2D1002DA3
:1003400003D002882B889A42ECD18168009A116010
:10035000009948603889009908810020F2BD0A2080
:10036000F2BD0168A84A13003833994202D008311F
:100370000160704702607047043B0020FFFF0000EF
:10038000FEB5150000260022A04C636F032B30D869
:1003900001910821019FC91B9B4F7F6CB94228D353
:1003A0000100206F18188007800F1C22504320186E
:1003B000FEF7D4FA606F401C60670198002817D0E0
:1003C000914C606C216C40184007800E2018009002
:1003D0002F00019DF000381803C8009A03C2684638
:1003E000FFF7BFFF761CAE42F4D3606C4019606427
:1003F00001221000FEBD0000B83A00203C28002079
:10040000883A0020FEB50027002469460C704C8015
:1004100002254F480068498889024018611C89B24A
:100420000191A649220189180268A54B9A4226D15A
:100430004268A44BD21A02D0521E0BD01FE00A70A1
:1004400048600A000E320831FFF761FE38000227CB
:10045000074344E02E4E6A461278002A04D00D70FD
:1004600072694A600D81019C70610022310018316F
:10047000FFF74DFE308B022820D104201FE0002220
:100480000026F6439300C358B34226D1521CFF2ADC
:10049000F8D91F4A5269002A06D00D7048600D81B4
:1004A0001B484480019C05E0194948610D830120E7
:1004B0006946087038000127074303E00820390027
:1004C00007000F4368464088401C694648806846DC
:1004D000408802289DDDF8B2FEBD03200870019C13
:1004E000F0E700001CB50C0000210091012300BFC3
:1004F00008A20100164800F004FD002801D00E20DB
:1005000016BD01206D49220189188873002016BD8F
:10051000B83A00200000FFFF10B5B54C608867496D
:10052000000109180A488A89002A07D100230122FC
:10053000496800F028FD0421217010BD05212170BB
:100540000221218300230122616900F01CFD10BDFE
:100550003C28002080B5A64841684B88DB1C03215D
:100560000170002100919BB242684169008B8000BC
:1005700009181AE680B59E48011D4088FFF746FE1F
:10058000002802D0FFF7E6FF02BDFFF7C5FF02BD5E
:1005900030B501220223494995480478002C09D03E
:1005A000E41E18D0641E1ED0641E012C27D9A41E80
:1005B00028D030BD03895B1C038100234380037373
:1005C0001C010C5D641EA441E40FC518AC725B1CD9
:1005D000022BF5DB16E0018B42685288D21C891889
:1005E0000183037030BD42694488240109194C68B5
:1005F00044614A60028B0A810383062100E00721DF
:10060000017030BD027030BD6C38002070360020A3
:10061000F8B502000F20764C257CFE232B40002AE3
:1006200002D023740120F2BD00910125234E002742
:100630000979002905D002291CD007D3032922D02B
:1006400034E0FFF79FFD00990D712FE00020317815
:10065000022906D10501301D4059FFF79FFD77554E
:1006600024E00120317C0229F4D0022018432074B8
:100670008848F2BD002301226169874800F083FCAD
:100680000221218310E06069FFF788FD62886169BB
:100690001201331D9B181D6865611960B118228B0A
:1006A0000A81022222830F7000990F71002804D062
:1006B000207CFE21014021740E20F2BD883A0020EA
:1006C000DEC0ADDEFE011EF1FEB50C00494A618AB6
:1006D000090151180191002805D0E1880198FFF720
:1006E00046FD0120FEBD486809898900451801269C
:1006F0000627207C062874D801A1095C8F4400BF1E
:1007000024AC406008CEDE0000209062A0695062F8
:100710001100203110002430FFF7A0FD002801D186
:100720000A20FEBD002000900123221D29005A4806
:1007300000F0E7FB02212174002835D00E2551E09E
:1007400000200090012322000C3229000831524879
:1007500000F0D7FBA17D002900D00326267433E0EA
:100760000027BA48416C002908D0026CD300C71892
:10077000521C5207520F0264491E4164002000902F
:10078000BB883A68A08A80002918434800F0B9FB6A
:10079000A18ABA888918A182A17D491EA17509067E
:1007A00000D126740028C9D100251FE00020009048
:1007B000012322000832291D374800F0A2FB2178CE
:1007C000032900D1052727740028B7D1ECE7118C45
:1007D000906AFFF787FE0500277403D106E02D4DD0
:1007E00000E00F25E1880198FFF7C1FC2800FEBD5D
:1007F000B83A0020883A002038B5002801D00120FE
:1008000032BD934C0025207B002801D0257301E0E8
:10081000FFF7BEFE8F482178491E062933D801A272
:10082000525C97440666363C6042540000216218D0
:10083000937A002B0AD095720A0103000C339B5A5D
:10084000002B03D18218927B012A1ED0491C022959
:10085000EDDB2570658065600E4832BDFFF77AFEDE
:1008600032BDFFF759FE32BD06212170001D61889F
:1008700009014058FFF792FC32BD072020706560E7
:10088000FFF780FC32BD0F2032BD6180FFF772FEA2
:1008900032BD00001D1D00003C280020F0B585B0D1
:1008A0000100B64E306F1C22504334180A000F204E
:1008B000012723785B1E08D05B1E012B12D99B1EDB
:1008C000012B14D99B1E50D006E021001000FFF729
:1008D0009FFE002800D1AAE00021A94A904248D1F9
:1008E000019155E021001000FFF7EEFEF1E700292D
:1008F00001D00120F0E7217900291CD0022901D084
:1009000002D3E6E79E48E4E7514D2B001C336A46CC
:100910000021A01DFFF7E9FC002804D1298C0198D3
:10092000FFF7E0FD04E029001C31002200230CC188
:100930000A28CED1E6E701A80C2100F0D5FBE0683B
:100940000190694601A8FFF789FC002809D00298A8
:100950008188E1800188218169460988FFF7C2FD0D
:1009600000E00A2002212171B3E71000FFF744FFE5
:10097000AFE701902078022801D0032808D133483E
:10098000026CA37DD2180264426CA37DD21A426429
:10099000032568462278521E052A2AD801A39B5CAB
:1009A0009F4400BF4C3C20160A06052120E004228B
:1009B0000270E2888281C1811BE00570E18881813B
:1009C000218911E00222027022898281A288C281DB
:1009D000E2680292227C062A00D10121017408E01B
:1009E000077021898181A188C181E068029000E0BF
:1009F00001706846FFF770FB1C21306F1C225043CA
:100A0000301800F071FB706F00280AD0316F491C5C
:100A10000D403567401E706703D00020FFF73EFF92
:100A200005E00B48007CFB2101400948017405B03A
:100A3000F0BD0748017C4A0700D5704780B5042205
:100A40000A4302740020FFF729FF01BD6C38002023
:100A5000B83A0020883A002080B50800FFF71EFF52
:100A600001BDF9B58DB0002604968A4F387C800709
:100A700001D402206DE00191002901D1052068E038
:100A800008888549884203D001984088002801D110
:100A900004205EE001980089039001994968029161
:100AA0000023032500E05B1C834254D2DC000C5978
:100AB0002C42F8D003204CE00299091DC200895A4B
:100AC0006418401C03998842F6D36946A0B2FFF728
:100AD00075FB002804D03CE01088694608805488E3
:100AE0000EA8007805A908700E746A4612884A821A
:100AF000019A12898A758D827A6A521C7A620892EA
:100B0000019A12880A81019A52888A80CC800D9DB0
:100B1000032803D10420087428680B904E810198A3
:100B20004268018905A8FFF72BFC002806D168461A
:100B30000188A0B2FFF762FB08200AE0002D05D073
:100B40006E6008982860AE7238892881FFF771FFBF
:100B500000200FB0F0BD002ABED100200024B1E774
:100B60005E490A78082A01D10C2070479300CB18FF
:100B70005860521C0A700020704700007036002038
:100B80001D1D0000F8B58CB06846142100F0ACFAC9
:100B9000404C207C81071ED4C1072FD40127384345
:100BA000207400F049F905AD2F700226FFF72AFCEA
:100BB0000B281CD801A1095C8F4400BF0C220C2219
:100BC0003230103032262C260B2018E0207CFE21FB
:100BD00001400E4326746846FFF77EFA0EE00020BF
:100BE00000E00320287102E02E7100E02F71002246
:100BF000002105A8FFF7C4FBFFF71BFF00200DB085
:100C0000F0BD38B5040001D00D0001D1052032BD82
:100C10006946FFF723FB00280FD0606834496A4615
:100C20001288120189180A88521C0A8028600C3028
:100C300068600120A072002032BD0A2032BD1CB5C0
:100C4000040001D1052016BD6946FFF707FB002807
:100C500011D028486946098809014018818900296E
:100C600007D0A27A002A04D0491E81810020A072F8
:100C700016BD062016BD0A2016BD80B5022305E06C
:100C800080B5002801D1052002BD03230022FFF713
:100C9000E8FE02BDB83A0020FFFF000018B587B09B
:100CA000154C207C800701D4022013E00620694601
:100CB0000870002200216846FFF762FB002808D078
:100CC0002078002801D001202073FFF7B2FE002019
:100CD00000E0082008B010BD00000000043B002028
:100CE00003B581B002A901A8FFF7FFFA0EBD00000D
:100CF000943A0020883A0020B83A00207FB50200DC
:100D00006846002300240025002678C06846137A30
:100D1000012B02D0022B06D00DE004701369029360
:100D2000938A838107E0012303709389D4891B1B75
:100D300003819389438150680190684612689268E4
:100D400090477FBD002808D0B2494A68904204D33A
:100D50008968884201D20120704700207047AE4860
:100D60004168491E416004D1AA490A78FD23134015
:100D70000B700168491C082900D1002101607047EF
:100D800038B5A6480100C0310A6818235A438318B1
:100D90004868002827D0187A012802D0022810D0ED
:100DA0001DE0D88A9C8A80225200251A954200DADA
:100DB000221A800092B2D96809181C69201829DF0C
:100DC00001E0988928DF112807D192480178FD2297
:100DD0000A4004211143017031BD002803D00921CC
:100DE0001800FFF78BFF31BD8A48017806220A40C0
:100DF00000D0704780B502220A430270FFF7C0FF9F
:100E000001BD38B5B1490A00C0325368082B01D181
:100E1000002032BD1468E518082D00D3083D0400F9
:100E20005B1C5360182045434D191821280000F021
:100E30005BF92560012032BD7FB5A548A549401A60
:100E400000090100A44A12680023DB439A4202D140
:100E5000A24A126892020192A14A12786B461A7055
:100E60006A461278D20742D400220BE09C4B5B68A2
:100E700014011B191C68002C03D05B68002B00D0E8
:100E8000491E521C8242F1D303910021944A5268B8
:100E900002921FE0029D1E01AD192E68002E02D0A5
:100EA0006E68002E04D16D7BAC4201D22C001A007A
:100EB0005B1C8342EED38A4B5B681206120D9A18B4
:100EC000019B5360019B147BA40265425B19136074
:100ED0000193491C039A914203D2002300240A0083
:100EE000E7E768460078012101437D480170002052
:100EF00004B070BD7A48017801220A4302700020D4
:100F00007047F8B50D0017001E0075490978C9072C
:100F100001D40120F2BD0400FFF714FF002801D125
:100F20000220F2BD002F01D0002D01D10320F2BD1F
:100F30000320074201D1054201D00620F2BD2068FE
:100F4000854204D36068B1006918884201D2052047
:100F5000F2BD300001D10420F2BD6846FFF751FF19
:100F6000002801D10720F2BD06980099486000983A
:100F700004600120009908720098C760009805611C
:100F80000098868239E0F8B50D0016001F0021494F
:100F90000978C90701D40120F2BD0400FFF7D2FE91
:100FA000002801D10220F2BD280001D10320F2BDAA
:100FB000A90501D00620F2BD21688D4204D36168E5
:100FC000B202A818814201D20520F2BD300001D141
:100FD0000420F2BD6846FFF714FF002801D1072066
:100FE000F2BD0098476000980460022000990872E2
:100FF000A80A0099888100980682FFF7F5FE002074
:10100000F2BD002801D1032070473649096801600C
:101010000020704758200020E435002024350020AF
:1010200038B5010029480300C0331A681824624308
:1010300080182B4A147802252C4231D00023022933
:1010400002D003291FD035E05370017A01290CD05A
:1010500002292FD18189491C8181C189491CC18103
:10106000028A89B2914225D10BE0C18A828AEB01C2
:10107000541A9C4200DA531AC918C18289B29142AB
:1010800018D1002107E05178491C5170C9B20429D8
:1010900010DB53700821FFF731FEFFF760FE09E017
:1010A000600707D5FB20204010705968002901D047
:1010B00005431570FFF764FE31BD0A480068082833
:1010C00001D1012070470020704700002435002026
:1010D0005C2800203C280020141000101400001090
:1010E00058200020E8350020002200BF094202D02D
:1010F000491E4254FCD1704780B502005A4801781D
:101100000A4302705949042000F099FB01BD000018
:1011100070B5554D2A78564C002A03D02100042082
:1011200000F08DFB2878C00714D5BE26760032006B
:1011300014A1042000F083FB002231004D4800F090
:10114000FFFB2878FE2202402A702100243104206F
:1011500000F075FB2878800712D5022211A1042027
:1011600000F06DFB01220221434800F0E9FB2878E2
:10117000FD2202402A7021002431042000F05FFB90
:1011800070BD00001B5B313B33326D3A4445425524
:10119000473A7265636F726420757365723A2564AD
:1011A0000D0A00001B5B313B33326D3A444542551A
:1011B000473A7265636F7264207379733A25640DE0
:1011C0000A000000F8B50500FA218900FEF7F4FED8
:1011D000C0B2009028006421FEF7EEFE0A21FEF75F
:1011E000EBFECFB228000A21FEF7E6FE0A21FEF749
:1011F000E3FECCB228000A21FEF7DEFECDB2009855
:10120000002804D09749401880B200F08DFE964E19
:10121000002F04D10098002806D0300002E0934946
:10122000781880B200F080FE00983843002C0BD173
:10123000002D05D0002801D0AB480AE0A8190EE027
:1012400000280FD130000BE0002804D0012C02D17F
:10125000AF48281803E00A2044436019801980B27F
:1012600000F062FEF1BD00000E3D00206893020018
:10127000448E0200BC2C0020003D0020F2B584B05A
:10128000060005206946087000244C70A148017CC6
:10129000C07B081AC0B2029069468C70300002D13F
:1012A000022001F001F99C4880789B49C978994A4D
:1012B000127A8A422BD101216A469170062800DDFC
:1012C0000620944FF97B0818062801DD0620A2E0CD
:1012D000300008D1062901D1402001E02020C8407B
:1012E000012101F0A9F80022002000213B7A8A4C5C
:1012F000E478A34200D0AEE0012203926B465E7117
:101300009C781A7100256846C170039E20E0012870
:1013100002D007206A461070012000E0401C7D4A80
:10132000537C984279DA0832125C8A42F6D108205E
:1013300071E05F280AD00D0008E00D006846C07813
:10134000401C6946C870200600D13400761CF6B2F5
:10135000787C864278DAB819007A691C6E4A9278ED
:101360009642E6DA6D4A925D90421AD1684640791B
:1013700000280BD1F97B8819062801D1402002E012
:1013800020208919C840012101F056F868460079EB
:10139000401C6946087102988642D7D101204870E6
:1013A000D4E75F28C9D1CEE71C00A2421FD10206B4
:1013B0001DD1B87C002801D1022000E0012069463F
:1013C0000870002E38D1964CE25CF87BC24000BF1A
:1013D00027A1032000F033FA02230322A878205C1F
:1013E000F97BC840C1B2012001F0AEF824E004222C
:1013F000C3B2022B0BDAC0B201280BD16846407889
:10140000002804D10298002801D0002905D168469F
:10141000027002E00320694608706846007C0028DC
:101420000AD03C48807C002806D16846007806280F
:1014300002D00920694608706846807835494870AE
:101440006846007805B0F0BD684646798470027938
:1014500028006946C978304DAB78062BA4DD0624F8
:10146000A3E700003E330000D23200003533000015
:101470001B5B313B33376D3A494E464F3A536574E7
:10148000526762426C696E6B3A25780D0A00000063
:1014900038B5FF2801D11F4840781F490918CC787A
:1014A000413CE4B2002C03D0072C01DA9A4D0BE04A
:1014B000E11F062901D8994D06E021000E390629C1
:1014C00001D2974D00E0974DFF280CD09649401867
:1014D00080B200F029FD280000F026FDA44861003C
:1014E000405A00F021FD31BDC832000080B51828F7
:1014F00001DAA04808E0302801DA9F4804E04028DB
:1015000001DA9E4800E09E4800F00EFD01BD00009B
:1015100048330000C4370020483300204B330020FC
:1015200038B504000D001430606020001630A06053
:1015300004216068FFF7D8FD0821A068FFF7D4FDFB
:1015400025700020E060207431BD30B543688C0800
:101550001B191C78490006250D401100A9402143A4
:101560001970012A02D1017C491C017430BDD9B522
:101570000C003C21FEF734FD07003C21FEF730FD56
:101580000600804800F0D0FC002E05D0B0B2FFF776
:1015900019FE7D4800F0C8FC38003C21FEF720FD14
:1015A000080005D088B2FFF70DFE784800F0BCFCBB
:1015B00000983C21FEF714FD080005D088B2FFF723
:1015C00001FE734800F0B0FC7249601880B200F070
:1015D000ABFC7148027801211143704A062C07D0F8
:1015E0001AD3082C06D003D30A2C0FD008D313E04B
:1015F0006B4812E013885B1C1380017069480CE093
:1016000013889B1C13800170674806E01388DB1C5D
:1016100013800170654800E0654800F085FCD3BD8B
:10162000A78402004B0006221A4040688908405CEB
:101630000321914001400800D040704710B50400DC
:10164000220000BF64A1042000F0F9F8594800F01E
:101650006BFC2000FFF74AFF5748008800F064FC4D
:1016600010BD0320554908700B205549087070477C
:10167000022052490870062051490870704710B581
:10168000464C402221001431201D00F0B8FF0A21F1
:101690002000F830FFF744FF0A2192204000201874
:1016A000FFF73EFF0A21A82040002018FFF738FF6F
:1016B00010BD80B5022043494870BE21490037481B
:1016C000FFF712FD0120FFF717FDFFF7D8FF01BD5F
:1016D00038B532480088FF21F631884215DA0028F3
:1016E00010D0451E28006421FEF766FCFA2189000F
:1016F0004843040028006421FEF75EFC601832496C
:10170000401800E0314880B202E0FFF75BFD30484E
:1017100000F00AFC31BD0000E63A0000E73A0000A4
:10172000E83A0000E93A0000DD3A000070B5002513
:10173000284C060031002806800D205800F090FF4C
:10174000002805D06D1CE8B20F28F3DB002070BD27
:10175000EDB2002D06D06D1E0B2D05D90C3D012DCF
:1017600004D9F3E7012070BD022070BD032070BDD5
:10177000C48F0200FA3A0000FB3A0000FC3A000075
:10178000FD3A0000AF3A0000B03A0000B13A000064
:10179000B23A0000EE3A00000E3D0020BC2C0020C2
:1017A000D03A0000CF3A0000CE3A0000CD3A000017
:1017B000D13A0000F93A0000CC330020093D002066
:1017C0000C3D0020003D0020591B0000BD1B000007
:1017D000A73A0000642000201B5B313B33326D3A96
:1017E00044454255473A63757272656E742071754F
:1017F00065733A202578000038B5012000F03AFFE3
:10180000050007D101F08FF8040001F08AF82100EB
:1018100000F002F8280032BD264A506191617047FD
:101820001CB5009313000A000021224C6469A047F4
:1018300013BD80B500230022FFF7F2FF01BD80B584
:10184000009201236A46FFF7EBFF01BDE0B500926D
:10185000019302236A46FFF7E3FF07BD38B584B062
:10186000089D099C009201930295039404236A4603
:10187000FFF7D6FF05B030BDF0B585B00D4C6D4615
:1018800028740E001500002069464B820021039148
:1018900002916946498A01910095030032000021B6
:1018A0006846007CA769B8476946498A8842EDD3F3
:1018B00005B0F0BDC43B002038B50400654D20786C
:1018C000002802D001280BD031BD606800281DD14E
:1018D00029000420FFF7ADFF01205F49087031BDEA
:1018E0006268002A0ED1A2685FA10420FFF7A7FF5B
:1018F000A28900BF64A10420FFF7A1FFE2892900AB
:10190000243100E068A10420FFF799FF31BD0000F9
:1019100038B5514D2878002810D15048FFF720F9EC
:10192000FFF730F9040001D001F00EF82878002804
:10193000FCD0220064A10420FFF781FF31BD00002C
:1019400070B5474CA54406000C00150081A003C8E3
:1019500008AA03C205A80C21FFF7C6FB220031002C
:101960000AA8FDF715F8A208A00700D0521C012014
:1019700002AC002D03D102212180618001E0208092
:1019800060800AA900916B469A8069460391208184
:1019900055A10420FFF753FF08AB05AA61882088F2
:1019A000FFF79EF9002802A905A805D1FFF768F9FD
:1019B0000400220054A104E0FFF75FF904002200B4
:1019C00059A10420FFF73BFF072C01D1FFF766F96F
:1019D0008520C000854470BD78B587B006000D0035
:1019E000140000BF5DA003C802AA03C204A80C2112
:1019F000FFF77AFB002C01D1022100E0012108460B
:101A000002AB04AAFFF76CF904001BD155A003C870
:101A10006A4603C2694604A8FFF7F3F80199002259
:101A200030002E0002E08B5C8354521CB242FADB81
:101A3000050004A8FFF703F93200290042A001F0D5
:101A4000C7F804E0220007490120FFF7F8FE200054
:101A500008B070BD948E02000D3D0020B918020040
:101A6000D8FBFFFFD49B02001B5B313B33326D3A46
:101A700044454255473A5265636F72642049443A7F
:101A800009307825303478001B5B313B33326D3AB6
:101A900044454255473A46696C652049443A093005
:101AA00078253034780000001B5B313B33326D3ACF
:101AB00044454255473A5752495445204E524620D4
:101AC000434F44453A2558001B5B313B33326D3A56
:101AD00044454255473A666C61736820696E697483
:101AE0003A25640D0A0000001B5B313B33326D3A2E
:101AF00044454255473A666C6173682073697A655C
:101B00003A25780D0A0000001B5B313B33326D3AF9
:101B100044454255473A666C61736820757064614C
:101B200074653A25640D0A001B5B313B33326D3A14
:101B300044454255473A666C617368207772697410
:101B4000653A25640D0A000066647320726561645D
:101B50000000000000000000000000000000000085
:101B600000000000000000000000000038B5040084
:101B7000FF2069460870A7492078002803D0022872
:101B80005AD058D331BD684601F0ECFAA24C20007F
:101B90000C3001F007FE22782BA10420FFF74FFE46
:101BA000217808200225012907D1694609780029F2
:101BB00038D10004C54908602EE004290BD16946DC
:101BC000097800292ED107202070C1480178012909
:101BD00029D1057027E0002901D00A2923D1C74C5B
:101BE0002178012910D068460078CA2806D100BFA4
:101BF0001DA10420FFF71DFE012013E021A10420F8
:101C0000FFF717FE04200DE025A16A461278024274
:101C100004D00420FFF70DFE257004E00420FFF738
:101C200008FE032020706846027800BF23A103202D
:101C3000FFF705FE31BD30310320FFF7FAFD606884
:101C400000F082FE31BD00001B5B313B33326D3A48
:101C500044454255473A6D7033526563537461741D
:101C600075733A25640D0A001B5B313B33326D3AC4
:101C700044454255473A7573625F63686B696E67A6
:101C80000D0A00001B5B313B33326D3A444542552F
:101C9000473A7573625F6572726F720D0A000000D9
:101CA0001B5B313B33326D3A44454255473A7573BD
:101CB000625F6472697665720D0A00001B5B313BDE
:101CC00033376D3A494E464F3A723A25640D0A0051
:101CD00080B551480178012903D0042901D0062993
:101CE00001D10921017000BF02A10320FFF7A1FD6E
:101CF00001BD00001B5B313B33376D3A494E464F07
:101D00003A6D70332D7265632074696D656F7574FB
:101D10000D0A000080B58AB004A800BF10A11822E7
:101D2000FCF71CFE8F4800901021019110300290AA
:101D30004020039003238C4A694604A801F0BCF9B3
:101D4000002801D000F000FE884A00210AA001F01E
:101D5000F7FC002801D000F0F7FD0BB000BD00003B
:101D60000D0000000C000000FFFFFFFFFFFFFFFF62
:101D7000000000000050270004310020F8B586B0B4
:101D800001AC7E232370D31C6370A0701318DB1C7E
:101D9000DBB200250027059110000322190008E09E
:101DA000059AD3191A7832706A4612781B78C918C6
:101DB0007F1CA618521C6B461A708742F0DB3170EC
:101DC00068460678EF20A055761CF2B201A900BF44
:101DD00012A000F0FDFE05E0605D01F0DCF90028D6
:101DE000FAD16D1CF0B28542F6DB069A530CD20391
:101DF000FA204000002180185941FA229200002365
:101E0000FDF798FE01000022594801F0B1FC07B02F
:101E1000F0BD0000988D0200F83000207774323059
:101E2000303320636D6400007FB501002CD00400C6
:101E3000FA25AD002900FEF7BFF8C210120F1118E5
:101E400009110901461AF6B2062E07DB2000290007
:101E5000FEF7B2F88BB2B21F0DA108E0601EC821D8
:101E6000FEF7AAF8401CC2B2230000BF0BA16846CF
:101E700001F0B4FC012807DB6B00C2B26946A52063
:101E8000FFF77CFF012000E0002004B070BD0000DF
:101E90005359532530326425303364004155253081
:101EA000336425303464000080B5C021C90107E0E7
:101EB00080B50002FC229201024080200002104303
:101EC000411889B29E4800F0AEFB01BD08050050E4
:101ED000093D002010B5202801DB9A4C02E080214A
:101EE000C9014418A2B200BF9BA10320FFF7A7FCC1
:101EF000A1B2934800F097FB10BD00000A3D0020FE
:101F000080B5E021C901DDE710B58F4C8021490083
:101F100020003C30FFF7E8F8802221003C3120000F
:101F20002C3000F06CFB10BD80B50100CAE780B515
:101F300085480121C1702C3000F08DFB01BD824924
:101F40004978014200D1704780B5FFF7F0FF0420C7
:101F500000F0AAFA01BD80B501207B498870FFF727
:101F6000E6FF01BD1C3800206D1B0200D11C0200E1
:101F700004310020F8B5744C2078002607280CD0D6
:101F8000082801D0092809D12079002805D0267118
:101F9000218920002C3000F046FB26700125072700
:101FA00060788007800FA17801431ED0A670E0788A
:101FB00000281BD0E6702278032A09D1E80463497F
:101FC0000860642300220021AB20FFF7D7FE0DE05C
:101FD000062A05D120000C3001F0E4FB26701FE03A
:101FE00065A10420FFF72BFC00E0E67020780228B2
:101FF00007D156484068800B054001D0032020706F
:10200000F1BD032808D151494868800B0540F7D13C
:1020100080200003086078E0002801D00A28EFD172
:1020200000A9891C20002C3000F00AFB00286ED18A
:1020300068464088E080267168464088208168466E
:102040004088860B68464388320000BF51A10320B8
:10205000FFF7FCFB002E03D0022E4BD008D3F1BDBE
:102060002570684640888004800CFFF7DDFEF1BDD6
:102070006846408869460870042049888904890FA9
:1020800005D0022913D00CD303292CD0F1BD207028
:10209000FA235B0001226946AE20FFF76FFE25712F
:1020A000F1BD2070642300220021AB201FE0062038
:1020B00020706846027864204243D317DB03500C3B
:1020C0000343D203FA204000002180185941FA222C
:1020D00092000023FDF72EFD0100002220000C30AD
:1020E00001F046FBF1BD642300220021CA20FFF766
:1020F00045FEF1BD6846408869460870684601782B
:1021000040888004800E00F097F92770F1BD0A2006
:1021100020700F480178032904D1067000217F2028
:1021200000F08AF9F1BD0B49401A80B2801F0128E6
:1021300002D93A38042801D801207047002070479E
:10214000243100201F400000F83000200C05005012
:10215000093D0020983A00001B5B313B33376D3A54
:10216000494E464F3A73657420766F6C3A2025309D
:1021700034780D0A000000001B5B313B33326D3AAE
:1021800044454255473A756E20627265616B202561
:10219000640D0A001B5B313B33376D3A494E464FA5
:1021A0003A747970653A25642C76616C3A2530343E
:1021B000780D0A0070B504000D0016007100881932
:1021C000FCF70AFA60602570668003209949AA002E
:1021D00088500120A840A9490860200000F005F8B7
:1021E0001521A748FEF780FF70BD20B50021002211
:1021F0000AE053009B184568E9544568ED1869707A
:102200004568EB189970521C43889A42F1DB00F044
:1022100001F820BDF0B50278012191409F4A51603C
:102220009F4B1C689F4D322300BF00BF00BF00BF03
:1022300000BF00BF00BF00BFAC4200D000BF013BE9
:10224000F2D10023F0E000BF516000BF00BF00BF2B
:1022500000BF00BF00BF00BF00BFE0E000245D0082
:10226000ED1846687619365D80273E40002E1160D5
:102270000ADD00BF00BF00BF00BF00BF00BF00BF3E
:1022800000BF00BF516009E000BF516000BF00BF48
:1022900000BF00BF00BF00BF00BF00BF4668761987
:1022A000365D40273E40002E11600ADD00BF00BFB2
:1022B00000BF00BF00BF00BF00BF00BF00BF516034
:1022C00009E000BF516000BF00BF00BF00BF00BFFA
:1022D00000BF00BF00BF46687619365D20273E402C
:1022E000002E11600ADD00BF00BF00BF00BF00BFAD
:1022F00000BF00BF00BF00BF516009E000BF5160D8
:1023000000BF00BF00BF00BF00BF00BF00BF00BFD5
:1023100046687619365D10273E40002E11600ADDB2
:1023200000BF00BF00BF00BF00BF00BF00BF00BFB5
:1023300000BF516009E000BF516000BF00BF00BF97
:1023400000BF00BF00BF00BF00BF46687619365D02
:1023500008273E40002E11600ADD00BF00BF00BF0D
:1023600000BF00BF00BF00BF00BF00BF516009E059
:1023700000BF516000BF00BF00BF00BF00BF00BF73
:1023800000BF00BF46687619365D04273E40002E28
:1023900011600ADD00BF00BF00BF00BF00BF00BF6B
:1023A00000BF00BF00BF516009E000BF516000BF27
:1023B00000BF00BF00BF00BF00BF00BF00BF466836
:1023C0007619365D02273E40002E11600ADD00BFFF
:1023D00000BF00BF00BF00BF00BF00BF00BF00BF05
:1023E000516009E000BF516000BF00BF00BF00BFE7
:1023F00000BF00BF00BF00BF466875192D5DEE0726
:10240000F60F002E116000DC1DE700BF00BF00BF0B
:1024100000BF00BF00BF00BF00BF00BF5160641C11
:10242000032C00DA1BE75B1C4488A34200DA15E7A3
:10243000F0BD0000000700500A00010600D57047FB
:10244000F0B5002158A35400A2189A18544B012447
:1024500001258D4028420CD04D006D1856789F689C
:102460007F197E7016789F687E5596789F687D19D3
:10247000AE70491C0729EBDB1C70F0BD0C05005049
:10248000E03B002046480178002900D1704780B524
:1024900000210170001DFFF7BDFE01BD08050050C1
:1024A000A42700200024F40070B5040000213F2080
:1024B000FFF7C2FF00250026300001F0BFF9002819
:1024C00003D028002025F5400543761C062EF3DBBB
:1024D0002100E8B2FFF7B0FF70BDB0B53148077E0C
:1024E0007F1C077600242F48610009194518697878
:1024F0000120A040FF290FD1A9780F4204D0062C5B
:1025000000D14020297803E0062C00D14020002192
:10251000C0B2FFF791FF13E0002911D0AA78114251
:1025200004D0062C00D14020002103E0062C00D16D
:1025300040202978C0B2FFF77FFF6878401E68709E
:10254000641C062CCFDDB0BD70B500250E00140054
:102550001A000121A9400E420BD012496B005B19F1
:10256000C91808702300FF2B01D053435B004B7048
:102570008A706D1C072DECDB70BD10B500210022A8
:1025800001239340184206D0064B5400A4181B198F
:10259000197059709970521C072AF1DB10BD0000A8
:1025A000A43C0020E03B00200000008000000080F0
:1025B000000000800080803F3F00FFFFFF00000020
:1025C00010B50268C368848823405B00D152C1689B
:1025D000491CC16010BD10B503688468611880880B
:1025E00001404800185A108010BD10B504000A00C0
:1025F0000021FFF7F0FFA068401CA06010BD10B5DF
:10260000002901D10E2010BD130002D05C1E234012
:1026100001D0092010BD0160511E81800021816020
:10262000C160002010BD10B58268C36884889A1A02
:10263000944203D3FFF7C4FF002010BD042010BD57
:1026400080B58268C3689A1A03D0FFF7CEFF0020D6
:1026500002BD052002BDC168816000207047FEE711
:1026600002780B78002A03D0401C491C9A42F7D00C
:10267000D01A704738B50500AC4C2078002802D03D
:1026800061788D4204D001F055FA01202070657008
:10269000002032BDF8B500250A2607000C002200F4
:1026A0007919002001F017FA2D18241A002801D1F9
:1026B000761E01D0002CF2D10120F2BD002901D5F7
:1026C0000020704702685118016001207047000027
:1026D00070B505000E0014000120002D13D0042257
:1026E00097A13000FCF754F92068001D20602B688A
:1026F00091A280214900301D01F028FA010020003C
:10270000FFF7DCFF70BD0021216070BDF8B5C6B0D9
:10271000080017000024059405AA06A9FFF7D8FFB2
:1027200000284FD04C9806A9059A8D18802676006F
:10273000469906282ED801A2125C97440622423EF2
:102740003A3632003800FDF7DDF90400059820180C
:10275000B0421FD2220039002800FCF719F919E015
:102760000B683A000598311A280001F0EFF910E0E3
:102770004869049008690390C868029088680190CD
:10278000486800900B683A000598311A280001F05B
:10279000DDF90400210005A8FFF790FF059C241D2A
:1027A00000280FD0B4420DD8042200BF64A106A8AF
:1027B000059BC018FCF7ECF80594214606A8FFF726
:1027C00069FF00E0002047B0F0BD0000F8B5C6B0DA
:1027D000080014004F990022009202934D9A51185C
:1027E0000591002801D00A2100E000210391002B6F
:1027F00016D16A4606A9FFF76BFF00287AD02000A1
:10280000FDF780F90500C22D00D9C2252A0021005C
:1028100006A8009BC018FCF7BBF800984019009070
:1028200006A800994518039A8918441831341046AF
:10283000002806D0202201462800FEF757FC039806
:102840002D18102602980599884207D32020287059
:102850006870A870ED1C2070641C27E04D998842B8
:1028600002D24C98029903E04E9802994D9A891A27
:10287000405C6946087102200F790100481E00295A
:102880003AD081003A00CA401107090F0A2901DA3B
:10289000303100E037316A1C4342D154EDE76846DD
:1028A0000079049908700298401C0290761EC9D1E4
:1028B0000D2020700A206070202028700098039955
:1028C00043314018009004221DA106A8009BC018A7
:1028D000FCF75EF80098001D0090014606A8FFF77F
:1028E000D9FE002805D00020009002980599884262
:1028F00096D3029847B0F0BD2020A870ED1C049438
:10290000641C380020385F28C9D3380001F044F92E
:102910000028C4D1380001F048F90028BFD12E208A
:10292000BFE703487047034870470000023D00209E
:102930000D270200CD2702005B253038645D0000C2
:102940001B5B306D000000001FB5040068460C21C1
:10295000FEF7CAFB02946A460021024801F02EF9F4
:102960001FBD00000140000070B5002504000E00EE
:1029700003E0205C00F006F86D1CA8B2B042F8D36A
:1029800070BD0000F8B50600894D68202F5A280058
:102990006830408869460880002486482A78052ADD
:1029A00046D801A39B5C9F44040C22284060AA2EB9
:1029B0003FD1012027E0AA21697002212970007807
:1029C000864201D2FF2833D1AE7032E037020320B5
:1029D00019E0380037000743652F01DB002727E0A7
:1029E00028006830448004200DE0281D09884654E2
:1029F00068460088401C29006831488080B2001D6C
:102A0000B84216DB0520287013E06978B14206D180
:102A1000A978017068460188281D00F0FFF86C70E5
:102A2000290068314C8000276421281DFEF75CFBDB
:102A30002C7068202F52687846406E70F1BD0000FF
:102A400010B55D4C2278231D9854521C2270D0B2D0
:102A5000142801DA002911D0D2B2211D08A000F0FB
:102A6000B7F82278211D554801F070F9082803D0E5
:102A7000002801D0FFF768FF0020207010BD000083
:102A8000626C655F6E75735F737472696E675F7396
:102A9000656E6400F7B582B0694600BF19A218CA16
:102AA00018C169460A8A521D424B1B784B701304A9
:102AB0001B0E8B70CA70FF2242400A710024002551
:102AC0006846465D00213000FFF7BAFF2000340061
:102AD00044406D1C042DF3DD0025039F08E07E19A2
:102AE00000213078FFF7ACFF2000347844406D1CA3
:102AF0006846008A8542F2DB0121E0B2FFF7A0FFC1
:102B000005B0F0BD5500000000000000F0B585B034
:102B100001A800BF2CA10CC90CC02948C0680490B2
:102B200027480069039001AF22480078787000259B
:102B3000BD708320F8705A2038710024A8B23E5C22
:102B400000213000FFF77CFF2000340044406D1C62
:102B5000A8B20428F2DD402569461A48FFF770FD47
:102B6000002811D068460088060A00213000FFF7CF
:102B700067FF684607880021F8B2FFF761FF200071
:102B80003C007440444006E00021FFF759FF00215B
:102B90000020FFF755FF6D1EDED10121E0B2FFF7E7
:102BA0004FFF07480499C1600399016105B0F0BD6A
:102BB00058370020073D0020143C0020543A0020E4
:102BC000BC2C0020C02C002055000000000000009C
:102BD00038B50D0014002300020000BF05A103203A
:102BE000FEF734FE23002A0008A10320FEF744FE6E
:102BF00031BD00001B5B313B33376D3A494E464FC8
:102C00003A25732D2D25640D0A0000001B5B313B16
:102C100033376D3A494E464F3A0D0A00F8B59CB02D
:102C200004000D002078694608702A00210000BFCA
:102C3000AFA0FFF7CDFF681EC0B20290A64D297865
:102C4000A6480278A64B01206F463F78072F00D197
:102C500014E1082F00D11DE1A12F17D0A22F1ED003
:102C6000A32F2BD0A42F00D1A5E0A52F23D0A62FD2
:102C700064D0A72F00D1A3E0A82F00D1E1E0A92FB5
:102C800000D1E0E0D02F00D1E5E019E195480088BF
:102C900003A9020A0A7048700222A12017E1BE218E
:102CA00049009048FEF720FA002069460873012287
:102CB00003A9A2200BE1FFF729FF0AE18A4800904F
:102CC0008068401C009988600020884908800021A5
:102CD000029A671C0CE085B2A61C765D7D5D2D0214
:102CE0007519804E5B00F318A6269D53491C801C65
:102CF000D30F9B185D10CBB2AB42ECDB0098057490
:102D00000120FEF7F9F90098806803A9020E0A7005
:102D1000020C4A70020A8A70C8700422A320FFF7CE
:102D2000B9FEFFF718F900213F20FFF785FB0220CD
:102D30006A4908700020AF490870CAE000250021E8
:102D4000684A83B2A61CF65C671CFB5C1B02F31886
:102D50000E06F60D9619E427F353491C801CCBB2DE
:102D60000A2BEEDB0120FEF7C7F9029900200022B2
:102D700005E0631C96B29B5D43401800521C93B261
:102D80008EB2B342F5D369460873012203A9A62087
:102D9000FFF780FE6078401E01280BD8FFF7DBF8B4
:102DA00000213F20FFF748FB6078C01C4B490870AA
:102DB000914805708DE0914801904B48066811E0FC
:102DC0006178484A4848012905D1A821490051188D
:102DD0000191C66806E0022904D1922149005118E8
:102DE0000191466803AD300E2870300C6870300ACF
:102DF000A870EE7004270024019E2006C00DB16863
:102E0000095A090ABAB2A9547F1CB168085AB9B262
:102E100068547F1CE1B23000FEF704FCB9B268547C
:102E20007F1C641CE0B20A28E7DB03A8F168090AEA
:102E3000BAB281547F1CF168BAB281547F1CBAB215
:102E400042E0187045E000201870694608730122BE
:102E500003A9A9203BE003AC2270062A08D1092966
:102E600000D10020607000F0A9FFA070032202E0F2
:102E7000FF206070022203A9D02028E000206946CC
:102E80000873012203A90720FFF704FE607801F010
:102E90008DF81EE0022003AB1870062A0CD106291B
:102EA00005D100201870FFF756F8092003E0092922
:102EB00002D1002119702870012203A9082006E020
:102EC000022069460873012203A968460078FFF7CB
:102ED000E1FD1DB0F0BD0000EB3C0020E91F00202B
:102EE000083D0020BC2C0020502D00209E2D0020ED
:102EF000626C6520636D6400F0B5B3B001F016FA42
:102F0000002875D03E480078002871D001AE3D48B9
:102F10000078307006223C49701CFBF739FD002513
:102F200000200522121AD2B2B218D571401CC1B2CB
:102F30000629F6DB0D223348037834490800A43013
:102F40001C00062C4AD801A73F5DBF4498060E36E8
:102F500036368800488870730E2244E0C28F727340
:102F60000278B2730F24954233DA68000818A6235A
:102F7000C05A030AE7B2F355641CE3B2F054641C70
:102F80006D1CF0E7DB1E03D05B1E012B02D904E0B1
:102F9000C06D01E00800E430009000230098590063
:102FA00041180C88240AD7B2F455521C0988D4B2AF
:102FB0003155521C5B1C0A2BF1DB154F1400E9B292
:102FC0003800FEF72FFBE1B27054641C6D1C0A2D13
:102FD000F5DB220007E00A48057003E008480570A9
:102FE000FF2030700122D2B201A9A820FFF752FDC4
:102FF00033B0F0BDE93C0020EA3C0020B42D0020B5
:10300000083D0020E91F0020C6370020BC2C00200E
:10301000E83900203EB5704C0178002934D00229EF
:1030200026D047D240680178201D01F0A4FB6169D9
:103030000125002803D06A461570019006E0E0687B
:103040002269101A04D000206A461070684688472A
:10305000E06821892269101A814207D301222100E8
:10306000193120001C3001F041FD37BD257037BDFE
:103070006A461170C06801900122210019312000B8
:103080001C3001F033FD12E0210018312000243003
:1030900001F07EFB002807D1012221001831200019
:1030A0001C3001F083FC37BD032069460870684678
:1030B0006169884737BD0000F8B588B006000D008B
:1030C0001F00454C6261002D01D1072048E06A686D
:1030D00092B22968201D01F03AFB002840D1EA682D
:1030E00092B2A9682000243001F031FB002837D1CA
:1030F000684600BF3AA12022FBF730FC70690690B9
:10310000317C002900D00121684601750777002530
:10311000717C002900D00E214175F0680290B068E2
:10312000039030680190706800902C4A6946200036
:103130001C3001F0C3FB002812D12570306800213B
:10314000C94388420BD020001C3001F0FFFC012253
:103150002100193120001C3001F0C8FC00E00020E3
:1031600009B0F0BD70B501001B4C2578201D01F0A1
:103170000FFB0600002D0CD0002020700122210042
:10318000193120001C3001F0B1FC002801D0FFF7FC
:10319000DBFB300070BD38B501000F4C200024303F
:1031A00001F0E9FA050015D120001C3001F015FCF2
:1031B00000280FD1210018312000243001F0E8FA56
:1031C000002807D101222100183120001C3001F015
:1031D000EDFB0500280032BDF01F00201530020075
:1031E000FFFFFFFFFFFFFFFFFFFFFFFFFFFFFFFFEF
:1031F000000000000000000000E0D7010300000014
:1032000010B5C20018231340FF249C40E2438907F5
:10321000090E9940030007D59E4B0007000F0838A0
:1032200080088000181803E09B489B089B00C0188A
:1032300003681A401143016010BD000000280FD040
:1032400096490968964A00BF00BF00BF00BF00BF93
:1032500000BF00BF00BF914200D000BF0138F2D1D3
:10326000704738B5802080028E4908608E488021E2
:103270004902016401608D4C012525602F20FFF774
:10328000DDFF6560B84C002525612F20FFF7D6FFD4
:10329000A57231BDF8B5B4480378C168009100212A
:1032A00017E03E00FF69002F13D0A742F9D1BE42BC
:1032B00007D1EC69C460002C03D1B74C22600161D6
:1032C000C2723C68FA69F261002A02D015682C19B2
:1032D0001460C56801224678DCB2B44218D0446854
:1032E000DEB218277E43A4195B1C8778DEB2BE428B
:1032F00000D100232678022E02D0032E0FD0E8E75B
:1033000064682E003700CEE71174D269C26006E00F
:103310000098854201D00120F2BD0020F2BDC268B4
:10332000002AD6D0F0E7F1B582B08F4CE06801906A
:10333000002300E0E260E0680121029A002A2FD118
:1033400022786578AA4253D06568160018277E4314
:10335000AD19521CA778D6B2BE4200D1002222700D
:103360006A682E78012EEBD1167C002EE8D1AE686B
:103370005660EE6896602E69D6606D699561E57A53
:10338000002D00D0536055680095AD4D009E276913
:10339000F61B2E406F08BE4205D2956875190AE0EB
:1033A000D5690295EFE72669009FF61B35409668C0
:1033B000B54202D2751B156000E013605360936044
:1033C0001174D3610028B5D001681568A94203D3F0
:1033D000491B0160D061ADE701000E68AE420CD21E
:1033E000AD1B0800C969002909D0F6E70020FEBD21
:1033F000019A9042FAD00120FEBD761B0E60156046
:10340000D161C26197E7FEB55748C06800283DD03A
:10341000554F0468AE4D2868009038690290884E78
:1034200000980299401A3040C01C0190B87A0028D8
:1034300011D1A84880214902016401604800A649D1
:103440000860A64908600120BC4908602F20FFF7EA
:10345000F5FE0120B8720198844200D2040002985F
:1034600000193040E8632968009A801A3040891AB0
:103470000E40F61CB0420BD22868E8632F20FFF7FD
:10348000DDFE80208002B9490860F7BDFFF7E9FE44
:10349000F7BD00001CED00E000E400E0A4270020E0
:1034A0000024F40080E100E0081301400410014012
:1034B000F8B584B0002000902B48006901902A499B
:1034C000C96803912849097A5D4A0292264A527ACC
:1034D00091420FD0491CCAB2022A00D10021224ACF
:1034E0000B069B0DD3185C690019029B0340136106
:1034F000012501E0002400251B480172FFF7CAFEE8
:1035000006001948C068002D1CD000230FE0641B82
:103510005B19002515600090D069D568002D07D093
:10352000019EF618029F374057609560D16100995F
:10353000002817D002001568AC42E8D20091291B80
:1035400011600126084CE0600098FFF7ECFE0028AF
:1035500001D1002E02D00398FFF755FF0020E07242
:1035600005B0F0BD0091ECE7283B002030B5964A4D
:1035700051784B1C9578DCB2AC4200D10023157811
:10358000DCB2AC4201D1002030BD0370506818227B
:103590005143401830BD000008100140F3B581B020
:1035A000040017001D0000200026694608706846C8
:1035B00001F0A6FB00A8401CFFF7D8FF002801D1AE
:1035C00004260DE00299012202704460404A12680C
:1035D0008260C16007614561684640787A494870F9
:1035E0006846007801F0A3FB002E03D18020400341
:1035F0005E4908603000FEBD7CB505000C0000206F
:10360000002669460870684601F07AFB00A8401C55
:10361000FFF7ACFF002801D1042605E004704560E7
:1036200068464078684948706846007801F07FFB3A
:10363000002E03D1802040034C490860300076BD45
:10364000FFFFFF00F8B56148002101644164816417
:10365000C164016041605C4FFD68002D36D00024DC
:103660001B4800683969401A0602360A28688642F3
:1036700018D3361A24182800ED69017C00290FD0D0
:103680000021017442698169FB69002B06D010009A
:103690009847002804D0FFF757F901E00800904749
:1036A000002DE3D1787A397A814206D1401C7872B4
:1036B000C0B2022801D10020787238001430797A23
:1036C000890044508020400328490860F1BD000073
:1036D000041501400413014080E200E000E100E035
:1036E00080B5FFF7E5FE01BDF8B51400920701D1E2
:1036F000002C01D10720F2BD1E000F000090FFF743
:10370000B0FD314DEE6100202880AF706C60E86044
:103710002881802464032E48046003211420FFF7CD
:103720006FFD2C4804602C4C009860600321112030
:10373000FFF766FD206828610020F2BD00100140FF
:10374000214B5B68002B09D0130001D0002801D168
:10375000072070470068037C002B01D008207047C9
:1037600003744174426100207047000000E200E0F1
:1037700080B51300144A5268002A08D0002806D0E9
:10378000052901D2072002BD4269002A01D1082083
:1037900002BD427C012A01D10A0000E00022FFF7AD
:1037A000FDFE02BD80B508494968002904D0002803
:1037B00002D04169002901D1082002BD0021017415
:1037C0000221FFF719FF02BD283B00200011014034
:1037D00080E200E000E100E0041501400CB418B5FF
:1037E00083B004000A0006A8029001940020009013
:1037F00002AB01A9084878441E30FBF7F7F8002116
:10380000019A1170002801D40198001B04B001999D
:1038100010BC03B0084700BF93B1FFFFA022D20540
:1038200080001018E022D20080180268524B13402A
:1038300003600268090411430160704780B501F01C
:1038400093FA02BDF1B50D0000246846007801F03E
:103850009BFA0C282FD22900484A43001B18D51880
:10386000474E3718002916D002291DD01DD22C78BA
:10387000687800280CD0320031690A2041433000BA
:103880001830FFF775FF002802D1684600783070C5
:10389000A878387109E030001830FFF783FFAC7862
:1038A0003879A04207D100E06C78200003D071691C
:1038B000002900D08847F1BD80B502210078FFF7CC
:1038C000C1FF01BD38B503000D0000202C490D617A
:1038D0004A6199072FD5002422000E32D2B200216E
:1038E000200000F029F80122012103E022000E321D
:1038F000D2B20221200000F01FF8641C0B2C08D863
:10390000002806D10A2CF1D00B2CEFD0062CE3D3E3
:10391000E9E7002804D16A080C211A4801F0A4FA4A
:10392000002801D101F0D8FA002804D1164A00215C
:1039300020A0FFF705FF32BD60B50B0000210C2869
:1039400016D20E4D46003618AD19012A05D1012BAD
:1039500002D10E30020005E00022002B06D0022B1F
:1039600002D005D22A7004E06A7002E0AA7000E07A
:103970000721080060BD0000FFFFFCFFE03A0020C7
:10398000B0390020D88C0200B938020010B504000C
:1039900001F00AFA012804D1200001F005FA022101
:1039A00003E0200001F000FA0321FFF737FF0020B9
:1039B00010BD0000C839002010B55C4C0220206109
:1039C000606100BF11A0A06121007831E161802118
:1039D000890021620021A1626162E162A0649E20EF
:1039E00080002018E06410202065A1656165E16514
:1039F00004224FA1E01DFAF7CBFF072206A1200009
:103A0000FAF7ACFF2020A07110BD00005465726D64
:103A1000696E616C00000000534547474552000045
:103A2000FEB50024C76801900E00150001980069DA
:103A300001998968C91B874201D2C01B00E00818A0
:103A4000401E884200D30800A84200D928000090F8
:103A50000246310001984068C019FAF799FF0098B2
:103A6000241836182D1A3F1801988068874200D113
:103A700000270198C760002DD8D12000FEBDF8B501
:103A800004000F001500E668A068801B00906068C5
:103A9000801900998D4205D23900FAF779FF701923
:103AA000E060F1BD0A463900FAF772FF00982D1A5E
:103AB0002A0039186068FAF76BFFE560F1BD01690B
:103AC000C2688A4204D38068401E801A401870473A
:103AD000881A401E7047B0B50F0014001349182211
:103AE00050430D1818356869002803D0022813D0F8
:103AF00006D318E02800FFF7E2FFA04206D212E04A
:103B00002800FFF7DCFFA04200D8040022003900A3
:103B10002800FFF7B4FF07E0220039002800FFF774
:103B20007FFF040000E000242000B0BD5C280020DE
:103B30005254540004480078002800D0704780B5E3
:103B4000FFF73AFF01BD00005C28002008B410B563
:103B500085B007AB049300240394002902D101949B
:103B6000029402E00190491E0291009404AB01A965
:103B7000084878441E30FAF739FF0199002900D02F
:103B80000C70002800D4039805B0019910BC02B055
:103B9000084700BFD162000010B50400FBF73FFFEB
:103BA000010020000969884710BD10B50400FBF72B
:103BB00036FF01002000C969884710BD80B506495D
:103BC0000120FDF736FEBFF34F8F0448044908601B
:103BD000BFF34F8F00BFFDE7D89D02000400FA0538
:103BE0000CED00E078B58FB00400032101A8FDF7CB
:103BF0007BFA112501A8057045708178F9220A40E9
:103C00000221114381701C2108A8FDF76DFA08A854
:103C100000781C21014308A80170002609960B9624
:103C20000C9601A80D900E9602A8217881705B4930
:103C3000018003216846FDF757FA68460570457014
:103C40008178E3220A40032111438170142103A8E3
:103C5000FDF74AFA02A803906846049003A80121E0
:103C6000018146811421818123000C3303AA08A914
:103C70006088A2DF10B070BD7CB5040039D00D00A3
:103C800037D02888102804D0112804D0502805D017
:103C900073BDA88800E04248A08273BD414E310048
:103CA0008C310420FDF7C5FDA0880190208A00908A
:103CB000A389EA8831000420FDF7D0FDE888218A35
:103CC00088420BD1298A022908D12800123001F03C
:103CD00022F9002800D00120A07573BDA189884277
:103CE00007D1A369002B04D02A8A290012312000B1
:103CF000984773BD30B585B004000D0001A800BF22
:103D00002AA11022FAF72AFE002C01D0002D01D1A1
:103D10000E2019E02248A0822868A0610020A0752A
:103D2000210001A863DF00280ED168462178817048
:103D30001D490180A21C69460120A0DF002803D193
:103D400029002000FFF74EFF05B030BD76B584B0E6
:103D5000002801D10E201FE0828A114B9A4202D026
:103D6000827D002A01D1082016E06A46928A142A30
:103D700001DD072010E06A4600230024002500260C
:103D800078C26A4683891380039105A902910121B3
:103D900091706946808AA6DF06B070BDE1FF000021
:103DA000FFFF0000808A0200E0FF0000FB349B5F01
:103DB00080000080001000000000000035480078FE
:103DC0007047344A002901D01078401C107014202C
:103DD00050707047F1B52F4C207800250226062739
:103DE00000990978092952D801A2525C974400BF72
:103DF0000A0C2E9E6C448E9E9EA225702AA1032042
:103E0000FDF717FD00213F20FEF716FB22490E703B
:103E10002248FEF789F800980770A670F1BD204986
:103E2000401880B2FEF780F80520A0700098077057
:103E3000A580F1BDA088002808D100F077FA0028FD
:103E400004D001222100B220FEF724FEA088411CEC
:103E5000A180C9281DDBA580042015E061784A1ED9
:103E60006270002902D10921009A1170401CC1B270
:103E7000142900DB0020207000980670F1BD09486D
:103E800000780A2805D1A07800990870F1BD009843
:103E90000570F1BD34280020F9300020AA3A000056
:103EA00071170000F83000201B5B313B33376D3A4F
:103EB000494E464F3A6D75736963206D6F64650DA9
:103EC0000A00000030B5039D049C52000A4399008B
:103ED00011432A020A4321041143544A800011501D
:103EE00030BDE0B5002101910091002301220121A4
:103EF000FFF7E8FF07BDE0B50B000021019100913D
:103F00000022FFF7DFFF07BD38B50D00140000BF2A
:103F100003A0FEF75DFE21002800FEF725FD31BD60
:103F2000626C65206E7573207365727669636500D7
:103F300080B50800AA490078002804D0022805D0DE
:103F400003D2343102E0683100E09C310320FDF7F8
:103F500070FC01BD1FB501A80021002206C09848D1
:103F60000190042001A908714871964C20001C3072
:103F700001F032F8AF48009069462000FFF7BAFE22
:103F8000002801D0FEF7E0FC1FBD80B50020002016
:103F9000C046002801D0FEF7D7FC01F033F9002815
:103FA00001D0FEF7D1FC3CDF14E1000070B5060043
:103FB00000248C4D300008D0C3A10320FDF739FC4C
:103FC00068780E2812DAC01C08E000BFC3A10320E5
:103FD000FDF72FFC6878032808DBC01E68700124F9
:103FE0006878FDF777FF0220FDF786F89C48007897
:103FF0000A2807D09B480088FEF795F8002813D0C0
:10400000FDF795FF002C08D06878801E0321FBF790
:10401000D3FF9549401880B204E0002E01D09348A8
:1040200000E09348FDF780FF70BD000000070050DE
:10403000F8B500240E2834DB8E4B1C608E4B1B78A9
:10404000082B2ED114282CDB26D005D316281FD000
:1040500020D3182801D019D3F1BD884D2878022823
:104060000AD1FDF778FF0220FDF734FF00217F2001
:10407000FEF7E2F92C70F1BD0E20FDF72BFF0621B3
:104080007F20FEF7D9F902202870F1BD042104E059
:10409000012102E0022100E003217F20FEF7CCF99C
:1040A000F1BD774F774D784E7849021F6ED0D21E02
:1040B00074D0D21E63D0121F052A0CD9921F0FD0C4
:1040C000521E13D0521E36D0521E0BD0521E35D067
:1040D000521E44D0F1BD01006D4800F04CFBF1BD13
:1040E000002000E00120FFF761FFF1BD69490C707D
:1040F000FDF731FF00213F20FEF79EF93878401C84
:10410000C1B2072901DB00200CE0891E03D0891E03
:10411000012906D906E0A421695C002902D1032007
:1041200000E0062038705C490C705C490C705C49FA
:104130000C705C4811E001F077F8F1BDFDF70BFF62
:104140005948FDF7F1FEBE2149002800FCF7CCFFDD
:10415000FDF7AFFA0120387050480470F1BD534CA0
:1041600022780320FDF76BFB2078002826D0FDF78E
:10417000F2FE4F48FDF7D8FEFDF773FAF1BD283186
:104180000320FDF756FBFFF700FFF1BD4C31032084
:10419000FDF74FFB1321308876DF09E074310320EF
:1041A000FDF747FB30884349884207D101F070FA98
:1041B000082803D0002801D0FEF7C6FBF1BD00009F
:1041C000313F0200543A002080B53B4A3B4902206F
:1041D000FFF778FB002801D0FEF7B6FB01BD000019
:1041E000F4880200003D002010B50620FFF779FE9C
:1041F000334C402060600420FFF773FE10206060A5
:104200000220FFF76EFE042020601320FFF769FEF6
:104210008020000360600920FFF763FE802080009B
:10422000206003210E20FFF766FE00210320FFF728
:1042300062FE10BD093F020080B5FDF765FEFFF785
:10424000C3FFFDF767FDFFF7CFFF01F083FA01F031
:1042500003FC072207211B48FDF7ACFF01BD00004E
:10426000F8300020FE300020D83A00009F3A0000CD
:104270009E3A0000EC3C00200C3D00200B3D00204D
:10428000E91F0020BC2C002032280020308B0200C7
:10429000FC370020DC3C0020E83C0020E93C00200A
:1042A000EA3C0020EB3C0020A53A0000093D00203C
:1042B000A63A0000FFFF000031400200CD0C0000D4
:1042C00008050050A83C00201B5B313B33376D3A9A
:1042D000494E464F3A766F6C2B0D0A001B5B313B03
:1042E00033376D3A494E464F3A766F6C2D0D0A00C2
:1042F0000078002800D0704780B53B216B4840888B
:1043000076DFBEE080B5FEF71FFB01BD80B500285B
:1043100009D0032809D102200020C046002804D07B
:10432000FEF712FB01BDFFF730FE01BD5F480078CC
:10433000704770B588B004005C4D688801262188FC
:10434000022930D010290CD0112912D013291CD0E9
:104350003A2924D051292AD052291BD055291ED0C0
:1043600048E02E70FDF7F7FD5148FDF7DDFDA08810
:1043700009E0002028704F490870FDF7ECFD4E4819
:10438000FDF7D2FD4D48688034E0002300228521EE
:104390007FDF2BE0002300220021A9DF26E013218C
:1043A000A08876DF22E00021A08867DF1EE0684653
:1043B000A11D1022FAF7ECFA68460078002819D0FF
:1043C0006846007A042803D0062801D0052811D1B8
:1043D00004A869460978022901D1017000E006703D
:1043E000C1214900818004A9A088A8DF002801D04C
:1043F000FEF7AAFA08B070BD10B5040001F050FC39
:104400002100A748FFF738FC2000FFF792FF2000AB
:1044100001F010F92100A34800F085FE10BD80B521
:10442000FCF7FEFD01BD30B5A7B03C2118A8FCF794
:104430005BFE18A802210170002484700621C1705F
:104440003C2109A8FCF750FE012509A805829648E1
:104450000E90202101A8FCF747FE01A8C57040205E
:10446000059006940094914B01AA09A918A800F0A0
:1044700052FF002801D0FEF767FA27B030BD80B5A3
:1044800048DF002801D0FEF75FFA01BD002800D008
:10449000704780B5FDF7F6FF85480178002903D005
:1044A0000021017001F068F901BD000030280020F2
:1044B000513B0000083D0020523B0000FFFF000080
:1044C000F0B589B00020FDF797F9002801D0FEF77C
:1044D0003BFA784C8BA300BF87A22100483104200F
:1044E000FDF7B4F90023744A06210020FFF7FCF819
:1044F000002801D0FEF728FAFFF79EFE01F056FDD6
:10450000FDF706FA03266D4D012202212800FDF772
:1045100063FA0A281CD02878032819D1684F002292
:10452000BE2149003800FDF757FA0A2811D0FDF7DF
:10453000A6F8A4203B5C3A8821000320FDF786F909
:104540006B782A78210024310320FDF77FF902E0FF
:104550002E70FDF7AEF800BF6DA00068009000233C
:1045600048225849684601F007FE002801D0FEF7AE
:10457000EBF901AA0121002001F040FE002801D042
:10458000FEF7E2F901A801F05DFE002801D0FEF778
:10459000DBF94D4801F014FE002801D0FEF7D4F9F4
:1045A0004A4801F015FE002801D0FEF7CDF9112090
:1045B0006946087003A871DF03AD0622691C00BFBD
:1045C00046A0FEF705FBAB786A7800BF46A105A8B8
:1045D000FFF704F905A8FBF795FA82B205A968462A
:1045E0007CDF002801D0FEF7AFF901A800210022EE
:1045F00006C001A8102101803C2141800025858052
:10460000C8214900C1807ADF002801D0FEF79CF95B
:10461000FFF709FFFFF79EFC21006C310420FDF736
:1046200008F91C216846FCF75FFD0095A020800278
:104630000190F0200003029068460673C58105745E
:104640002348059023480690684601F0D7FA0028D1
:1046500001D0FEF779F9210098310420FDF7E9F83F
:104660001D4A0221022001F03BFE002801D0FEF786
:104670006BF901F0B7FC2100C4310420FDF7D9F833
:10468000032000F0F1FE002801D0FEF75DF92100C3
:10469000EC310420FDF7CDF8FFF7F1FEFCE7000058
:1046A000543A0020703A0020A02000200D43020060
:1046B000053D0020F486020094340020003D0020D7
:1046C000BC2C00204C340020F94302001F4402009F
:1046D000F1420200054302008D4402006D61632037
:1046E00061646472657373004A494D4D592D2530DC
:1046F000325825303258000041756720323120325F
:104700003032300031363A33383A32390000000066
:104710000010020010B50268C36884882340D15499
:10472000C168491CC16010BD10B503688468611878
:1047300080880140585C107010BD10B504000A005C
:104740000021FFF7F1FFA068401CA06010BD10B56C
:10475000002901D10E2010BD130002D05C1E2340A1
:1047600001D0092010BD0160511E818000218160AF
:10477000C160002010BD10B58268C36884889A1A91
:10478000944203D3FFF7C6FF002010BD042010BDE4
:1047900080B58268C3689A1A03D0FFF7CEFF002065
:1047A00002BD052002BDFEE74058002804E0C122FA
:1047B000920080580140080000D00120C0B270472C
:1047C0008B4BC018826001607047A123DB00C018CA
:1047D00001608260704730B5039D049C52000A431B
:1047E000990011432A020A4321041143814A80009F
:1047F000115030BDE0B5002101910091002301224C
:104800000121FFF7E8FF07BDE0B50B000021019192
:1048100000910022FFF7DFFF07BDF8B506000C008E
:10482000206801250027FF43B84206D001218140BE
:10483000714801602068FFF7DDFF6068B84202D070
:104840000021FFF7E1FFA06931686C4A8850607D64
:10485000217D0143306848328150626821683068A8
:10486000FFF7AEFF207D012813D1A068B84202D027
:104870000021FFF7C9FFE068B84205D085405E48D7
:104880000560E068FFF7B6FFA268E1683068FFF7EF
:104890009CFFF1BD10B5002203688E2464001A51FC
:1048A000036828341A51904A0368C124A4001A519D
:1048B00000680003001601F02FFD10BDF8B50600DA
:1048C000AD4833791C246343C518E87E002801D025
:1048D0000820F2BD17000C003000FFF79EFF6F604C
:1048E000206928606868002803D0217F3000FFF726
:1048F000D1FF04203168A022D20088500020E87542
:104900002876A8750121E976A876F2BD00228E23CB
:104910005B00C2508A688B8AD25C8B8A5B1C8B825C
:10492000A34942507047F8B50400934821791C22EE
:10493000514345180020009021688E225200885073
:1049400001202168886029002068FFF7DFFF686880
:10495000002829D1802676008E277F000FE03900BD
:104960002068FFF721FF002802D1A88AB042F6D1C3
:10497000A88AB04203D029002068FFF7C7FFA88AA1
:10498000A97D8842EBD3A88AB04202D10F200090C3
:1049900008E039002068FFF707FF0028F9D0012060
:1049A0002168C8600020A8750098F2BDF8B5040021
:1049B0000F001500704821791C2251434618200031
:1049C00000F00BF8002801D01120F2BDB575B760DA
:1049D000B0822000FFF7A7FFF2BD674900791C22D3
:1049E00050430818807D002800D001207047000047
:1049F0000C050000000700500805005024050000C9
:104A00000021026892235B00D15002681C3BD15008
:104A1000012100680160704710B5A322D2008218FE
:104A200084235B00C0180023CC7D002C036001D1DF
:104A3000106810BD487E1268CB681A54487E401C2E
:104A4000487610BDF8B50700A84839791C225143B3
:104A50004418A07E034302D13800FFF7D1FF386825
:104A60006168002938D1A22252008150009492211D
:104A700049003868FFF798FE06008421490038682D
:104A8000FFF792FE0400A22149003868FFF78CFE70
:104A900005002C433443EAD0304309D100993868EB
:104AA000FFF7BAFF0098407E0099C97D8842DED3A7
:104AB00000980021C175002E01D00320F2BD002D09
:104AC00001D00F20F2BD39680122807E002801D07C
:104AD0000A6006E04A6004E081218900C122920058
:104AE00081500020F2BD000080000200F1B57F4837
:104AF000009B1B791C246343C018002400238125DC
:104B0000AD004668002E04D0009E3668C227BF0064
:104B1000F551C67D002E10D0037E002B09D04068D1
:104B2000002804D000980068C12189004550112058
:104B3000F2BD01230161027603E0C275C1604476D3
:104B400004760098FFF77EFFF2BD000038B5040040
:104B5000664D28001A3021791C225143405C002800
:104B600009D12000FFF74CFF28001A3021791C22C0
:104B700051430122425431BDA83B00201FB5030020
:104B80006846012404700172019219685A689047BE
:104B90001FBDF8B5020000206B46187019729168AD
:104BA00001919075116868465268904705B000BD44
:104BB0001C050000F8B584B007000C008126B60083
:104BC000002580218900FFF7F2FD002826D09221E0
:104BD00049003800FFF7E8FD00281FD08E20400074
:104BE00038188560C22080003E50A07E002801D188
:104BF000012078606846022101709021C90079186F
:104C00000A680A600392E17D0172E0680190E5752F
:104C1000257621686846626890472DE004213800B7
:104C2000FFF7C5FD002827D0842149003800FFF791
:104C3000BBFD002820D021003800FFF7EDFEE07D0D
:104C4000617E884218D1207E002807D0E268617E0C
:104C5000E0752069E060257665760AE0A07E002890
:104C600001D101207860C22080003E50E575E268E5
:104C7000617E2000FFF782FF8E2149003800FFF798
:104C800093FD002811D0A08AA17D884204D2210082
:104C90003800FFF73BFE08E08E2040003D50A17D2C
:104CA000002902D02000FFF774FFA221490038003C
:104CB000FFF77AFD002811D08E2040003818856259
:104CC000A07E002801D001203860E07D002805D0BA
:104CD000E575E268617E2000FFF750FF05B0F0BD8A
:104CE00080B502490248FFF765FF01BDA83B0020DF
:104CF00000200040EFF3108072B6704762B6704734
:104D000038B50400FFF7F6FF0121134A5368002B62
:104D100007D151601149124B1D680D401560196093
:104D200000212170002801D1FFF7E8FF31BD10B547
:104D3000094C616800290CD000280AD1FFF7DAFF7E
:104D40002168084A116000216160002801D1FFF745
:104D5000D5FF10BD00000000BC3C0020FC06FFBCDD
:104D600080E100E000E100E006490A6810A1085C6B
:104D7000C240D107C90F012801D1080070470120A6
:104D8000484070471005005010B501000020C04396
:104D9000002200BF06A39C5C8C4203D0521C0C2A4C
:104DA000F9D310BD100010BD01A1085C70470000D0
:104DB000151E11120A0810140B0F0001E0B5002592
:104DC0004D4F3978E8B2884225D278682906490DD6
:104DD00046183078012181403A69114219D08A433E
:104DE0003A6101F025FC3278FB68012191401940BD
:104DF0000300934099420CD17178012900D0002121
:104E00004140491E8941C90F7368002B01D0100031
:104E100098476D1CD5E7E0BDF8B507000125BD40FA
:104E2000354C20001430FEF7BDFC00281AD1206953
:104E3000EE43284214D1380001F0FAFBE168002863
:104E400001D0294301E00E403100E16020690543B3
:104E500025610022A16820001430FEF789FCF1BD15
:104E600006402661F1BD0000F8B504000D001600F3
:104E7000052E01D20720F2BD01F030FB002803D13E
:104E800001F006FB002826D128001B494C60087061
:104E90008E600022CA600A61184E00BF1AA5270062
:104EA00004002000441E00060FD028680090200651
:104EB000400D381881786A46517032006946007892
:104EC00001F01AFB0028ECD0F2BD0D4A002100BF12
:104ED0000CA0FEF735FCF2BD38B50025064C06E007
:104EE00001216068EA00805C01F05CFB6D1C2078A9
:104EF0008542F5D3002032BD203A0020194E020031
:104F0000BD4D0200343A00200300000001784078D3
:104F100000020843704780B5FFF7F8FFC007C00FD5
:104F200002BDFEE7002900D0704780B5A848826D19
:104F3000A8490320FCF783FCA74A13211068808846
:104F400076DF01201168087501BD78B58FB00400C7
:104F5000032101A8FCF7C8F8112501A805704570C8
:104F60008178F9220A400221114381701C2108A88E
:104F7000FCF7BAF808A800781821014308A80170C6
:104F8000002609960B960C9601A80D900E9602A885
:104F9000217881700121018003216846FCF7A4F883
:104FA0006846057045708178F1220A40132111434B
:104FB0008170142103A8FCF797F802A803906846B3
:104FC000049003A8866017218181A31D03AA08A964
:104FD0006088A2DF10B070BD30B585B004000D0050
:104FE00001A800BF83A11022F9F7B8FC002C01D062
:104FF000002D01D10E2026E0774804607748A0807C
:105000002868206100202075A073210001A863DFBB
:10501000002818D168462178817001210180A21CE6
:1050200069460120A0DF00280DD129002000FFF7EC
:105030008CFF002807D1012001F0E7FB002802D1F6
:1050400001F004FD002005B030BDF8B586B002AB1C
:105050000024002500260027F0C303236C4623808C
:1050600001AB20241C7059709A7002A9C2880A8072
:1050700001228A708D806946049101A9059102A9D7
:105080008088A6DF07B0F0BDF8B586B00F0002A992
:1050900000220023002400253CC1022402AA14702F
:1050A00001250026817B00290FD0917901230B4334
:1050B00093719680030002A99888A8DF1128FBD07D
:1050C00001939088002804D02BE0FF21FE319180CD
:1050D000F0E7397B012900D1012422001846FFF7AF
:1050E000B4FF012C1DD1387B01281AD10198026927
:1050F000002A04D0684606706946019890473448F3
:105100008565374801F0D1FC06214020FDF794F970
:105110004020FDF732FAE804324908603248FCF7D3
:1051200083FE07B0F0BD1CB504004FD000294DD060
:105130000888102806D0112807D050282ED05128D2
:1051400015D013BD8888A08013BDA08889888842A7
:105150003CD12248A080207D002837D0BFF34F8F5C
:10516000224823490860BFF34F8F00BFFDE78888BE
:10517000A28890422AD18879022827D10889E2881A
:10518000904223D1887B042820D006281ED00528F1
:105190001CD008312000FFF777FF13BDC888628953
:1051A000904213D1088A022810D108001230FFF76C
:1051B000B2FEA0732269002A08D0002801D0012085
:1051C00000E00220694608702000904713BD0000EF
:1051D0009C2F0020908F0200E43C0020FFFF000085
:1051E000254F020008050050563B00000400FA0558
:1051F0000CED00E050EADA308883B89F604F15F379
:105200000000408E80B50020FEF7C0FB002801D0D2
:10521000062807D10120FEF7B9FB002801D0062897
:1052200000D1002002BDFEE770B50220FCF787FE2A
:10523000022428480178022008400526264D2749E7
:105240000978002908D0491E012916D9891E02298A
:1052500024D9C91E35D070BD002839D0287802283D
:1052600001D0052834D13F20FDF7E6F81C48002185
:1052700081740121C1742C7070BD002828D0687819
:10528000042802D0082806D070BD00213F20FDF779
:10529000D3F86E7070BD0320687070BD002817D001
:1052A000AA78082A01D00B2A05D100213F20FDF75A
:1052B000C3F8AE7070BD00BF0AA10420FCF7BFFAAE
:1052C00070BDFCF748FE01210020FEF77AFDEC706E
:1052D00070BD0000F9300020E83C0020E91F0020EC
:1052E000C43700201B5B313B33326D3A4445425595
:1052F000473A696E206572726F72207374617465CB
:105300003A25640054480179002902D1007B002825
:1053100000D001207047F3B581B004001100002CCB
:1053200001D0002901D10E20FEBD089E00934A4FF6
:10533000012038760025FD7648482022F9F70EFB3B
:1053400000987862BE6246483884072138001030E1
:10535000FBF7CAFE434E3C213000FBF7C5FE207828
:105360003070A078B070E078F070607870702000D5
:10537000103003C83200103203C22000083003C8C6
:105380003200083203C22000183003C8320018323D
:1053900003C2A74801004431626A002A12D0020009
:1053A000403272624860626A13884027C353928811
:1053B0000A80002304E0676ABF68FF5CC7545B1C77
:1053C0009342F8D3A26A002A1AD0020020320A615E
:1053D00002004C32B262A26A93888B8112880A81E1
:1053E000002206E0A36A9B689B5C07002037BB5441
:1053F000521C8B899A42F5D32C22A25C2C23F254A6
:10540000226A002A07D0020058323262226A538888
:10541000CB8212888A826168002900D071600022E4
:105420000D4903005C33D400A41A1B190C689700C3
:10543000E351521C082AF4DB020094322B01D218EB
:105440008B68AC001A516D1C082DF5DB02993000F9
:1054500001F02AFEFEBD00002C200020483B002069
:10546000FFFF000074390020F0B587B0864C217E24
:10547000002901D10820D7E00600E6766846FBF750
:10548000C0FD01270098002801D06776CBE00721F6
:1054900020001030FBF728FEE07E7C4D6978002963
:1054A00001D0012806D0A97800290CD0012801D00C
:1054B000022808D1616A002903D02777082088478D
:1054C00001E00020207700202118497C002900D02D
:1054D000ACE0401C0628F7D30020012E06D01DD3D7
:1054E000032E11D009D3042E13D017E069780029B8
:1054F00003D0002808D0012011E0A978002903D0AA
:10550000002801D002200AE0E878002801D003201A
:1055100005E02879002801D0042000E00020E07692
:10552000616A00290ED0E07E032801D0042809D149
:105530002878002806D0607F002803D1A7770720AD
:10554000884701E00020A077182101A8FBF7CCFDD7
:1055500001AE002030703072607FE17E00295BD0A8
:1055600002290CD003D3042939D013D32FE0A77616
:105570002000103002903770002030612AE00220B5
:10558000A0762000103002903770E8687082A8681A
:1055900030821FE029693182696971822978002986
:1055A00001D1032023E00028FBD1FFF7ABFE002848
:1055B000F7D004940220307204204149C8700021C1
:1055C0003F4801F071FD002801D10520A076E07E62
:1055D000002823D001A873DF00281FD024E0A96988
:1055E0003182E96971822978002902D10420A076EC
:1055F000F0E70028FAD1FFF785FE0028F6D00494E2
:10560000022030722E480421C170002101F04CFDAF
:105610000028DCD10620D9E70020A076616A0029A5
:1056200001D0A07E8847002007B0F0BD012054E7DC
:105630003432002010B5234C0188102904D01129E0
:1056400008D01B290ED010BD817D01291BD1808877
:10565000208410BD002161778088218C884212D17E
:10566000012008E0007A00280DD1E07E401C0521D1
:10567000FAF7A2FCC8B2FFF7F7FE002803D0A16A30
:10568000002900D0884710BD2C200020483B002076
:1056900010B574DF0B4C0120607709480621C170FA
:1056A000002101F001FD002809D1E07EFFF7DCFEBA
:1056B000002803D0A16A002900D08847002010BD2F
:1056C000743900202C20002058B506000A2934D156
:1056D000318808000A0001235C00345FA04200DA30
:1056E000A0B28C4200DAA1B212195B1C0A2BF3DBC8
:1056F0004018101A4003000C1DD08021C9008842B8
:1057000001DB584817E0FAF769FB57A20CCAFAF711
:1057100046FA0022564BFAF742FA0022554BFAF7A6
:105720003EFA0022544BFAF776FC0022534BFAF76C
:1057300036FAFAF729FB5349088051BD0178002950
:1057400000D0704780B50189C9B24068FFF7BCFF3F
:1057500001BD000080B500BF54A000786946087004
:105760004749684601F0DCFC002801D0FDF7ECF861
:105770004B4801F0EFFC01BD80B54A4801784A1C56
:105780000270092909DB002101700A21001D01F0C6
:1057900019FD002801D0FDF7D7F801F0E9FC01BDA3
:1057A000F8B5384E3388002B59D037480178374D3B
:1057B0000024374FBB4222DA04294FDC0521017057
:1057C00000217F20FCF738FE287802280AD1FCF758
:1057D000C2FB3048FCF7A8FBFBF743FF4020FCF777
:1057E000CCFE06E04020FCF7C8FE2C700B202A49B6
:1057F000087002214020FCF71FFE0120F2BD2D7829
:105800002837BB420FDA022D29D1032926DC0421D7
:1058100001702248FCF788FB0423FF22402102206C
:10582000FCF792FE1AE06037BB420ADA022D16D16D
:10583000032913DA032101701B48FCF775FB0221D1
:1058400006E0022D0BD1002908D1012101700321AE
:105850004020FCF7F1FD4020FCF78FFE3480002053
:10586000F2BD0000681000006666666666660A4063
:105870000000503F000046400080404000408F4004
:105880003D570200E23C0020063D0020093D00207B
:10589000210D0000A33A00000C3D0020A13A0000B9
:1058A00024200020FC3B0020A23A00000300FEE779
:1058B00030B5039D049C52000A43990011432A020B
:1058C0000A4321041143854A8000115030BD000075
:1058D00083490968A3A2105CC140C807C00F704784
:1058E00010B505210A1AD2B27E48042141608B0509
:1058F000D40701D5036000E043604B05940701D550
:10590000036000E043600B050A4201D0036010BD54
:10591000436010BD73480421016089050160490896
:10592000016049080160704738B500200024450037
:10593000E0B2FFF7CDFF2843641CE1B20529F6DB96
:10594000C0B232BD38B5684C207D00284DD16946C3
:1059500020003830FEF71CFF002846D16846027848
:105960000E3A6275D2B200BF67A10320FBF767FF52
:105970004025607DFDF762FF002813D05B48016879
:1059800040228A4342600D408560607DFFF7A8FF9A
:105990000120207522001532554920001830FDF7EE
:1059A000E7FE31BD0220E074617D0020A31C585445
:1059B000A07450480078C0070CD54F4800780028E4
:1059C00008D1062901D1402001E02020C840002153
:1059D000FCF732FD627D00BF51A10320FBF72FFFD2
:1059E0000622A11C55A0FDF7F3F831BD38B50578A6
:1059F0000120FCF7A4FAFFF797FF3A4904220A6056
:105A000092050A6052080A6052080A6058A1085CB0
:105A1000354C61198870A07425700120E074002055
:105A2000207501F03FFC35480078012801D002289C
:105A300006D105217F20FCF7FFFC072030490870C4
:105A40002A0000BF40A10320FBF7F9FE0622A11C9B
:105A50003AA0FDF7BDF831BDFEB5234E142130004C
:105A6000FBF742FB274A00213DA0FDF769FE002815
:105A700001D0FCF769FF1022310048313000383086
:105A8000FEF765FE0025002436A70195009500234A
:105A900000220021385DFFF70BFF641C052CF4DBAE
:105AA000002400BF31A701950095002301220121A8
:105AB000385DFFF7FDFE641C032CF4DB2800FDF7C6
:105AC000BDFE002806D029000E31C9B230003830A2
:105AD000FEF751FE6D1C052DF0DDF7BD00070050EF
:105AE0001005005008050050C43700200405005080
:105AF00066060000F9300020DC3C0020F93B002065
:105B00000C3D0020ED5902001B5B313B33376D3AF1
:105B1000494E464F3A73656C203A2025780D0A00AD
:105B20001B5B313B33376D3A494E464F3A72656DD8
:105B30006F7665203A2025640D0A00006368617263
:105B400020627566660000001B5B313B33376D3A9F
:105B5000494E464F3A696E733A2025640D0A00009B
:105B6000DC3700201D1C1B1A190000001817160036
:105B7000314142434445464748494A4B4C4D4E4FBC
:105B8000505152535455005758595A56000000323C
:105B9000408862490A88904204D34988814201D3EF
:105BA000012070470020704738B55D4CE08B5D499F
:105BB000884222D0217F491C2177227BC9B28A42A8
:105BC00008D3564975DF002817D0A169002914D0E1
:105BD000884731BD00252577217C002907D03B214E
:105BE00076DF002803D0A169002900D088476169C9
:105BF000002902D068460570884731BD70B506009F
:105C0000474C200031001C22F8F7A8FE00256577DC
:105C10003168424E002911D030000822F8F7B8FE52
:105C200030007ADF002808D13E48E08325773E4ADD
:105C3000002100BF3EA0FDF783FD70BD30007BDF7B
:105C40000028F1D070BD38B50025354C3748FFF736
:105C50009FFF00281AD1607F002805D061690029C4
:105C60001CD06A46157017E0207F002801D16168BA
:105C700000E0A168002220002030FDF779FD002817
:105C80000CD0A169002909D0884707E06169002983
:105C900004D001206A46107068468847657731BD98
:105CA00038B5010000251E4C20480A88102A06D06D
:105CB000112A0FD0122A29D0502A0FD031BD8A883C
:105CC000E28318310822F8F763FE2577E08900287F
:105CD00022D11FE01348E08325770CE0C888E289D1
:105CE000904219D1088A022816D108001230FFF715
:105CF00012F900280ED120002030FDF753FD0028B6
:105D00000AD0A169002907D0884731BD083108228F
:105D1000F8F73EFEFFF797FF31BD0000C43C0020BE
:105D2000F4380020FFFF0000A95B0200CC3C0020FB
:105D300014390020A6490A680123834018009043C3
:105D4000486013408B607047674800680121C008B5
:105D5000084000D1704710B5924A934B00201C7840
:105D6000002C06D119701070FCF7F5F8FCF7C8F894
:105D700018E098490978092904D01178022901D03E
:105D8000042905D1944908700B209449087009E052
:105D9000032907D19248FCF7C7F89C48FCF7C4F8E0
:105DA000FBF75FFC012010BDF8B58B4F3878002859
:105DB00005D00420FFF7BEFF387803281FD03978BC
:105DC00000269348934C854D2A780A2A17D801A3B8
:105DD0009B5C9F440A38485C6E7AA09AE6EC5400BB
:105DE000002974D16068411C6160972808D36660FF
:105DF00001243C70FFF7D4FC002868D12C70F1BD61
:105E00000B20FDF71BFD002861D16660F1BD012963
:105E10005DD103214020FCF70FFB022056E07E48B5
:105E20004078FCF757F80A2050E002294FD10320B0
:105E30004CE00A20FDF702FD002801D0072045E0D4
:105E4000042043E0FFF780FF002840D105203DE01B
:105E50007248FCF769F87248FCF766F8FBF738FC03
:105E600070490320FBF7E5FC0620207009202DE097
:105E7000067008202AE0FFF793FC002827D1FFF7DF
:105E800063FF002823D16078002813D0401E01282A
:105E90000CD9801E022805D9C01E18D16248FDF712
:105EA00099FFF1BD614801F023FBF1BD604801F0AD
:105EB00017FDF1BD5F4801F0FFFEF1BD01F026FACC
:105EC000F1BD444800780A2801D120782870F1BD3E
:105ED00080B5012058490870FFF734FDFFF764FFD3
:105EE000FCF748F801BD00001005005070B5FDF743
:105EF00003F8FBF70DF9FCF7F0FA504D454CA0788C
:105F0000002805D02868002802D1A070FBF7B0FB5C
:105F10004B490868401C08600A21FAF761F800291B
:105F20003ED1424E6078C01E032802D23078082845
:105F300036D12868401C28600620FFF7FBFE286841
:105F4000801E10D0401F0ED0401F0CD0401F0AD022
:105F5000401F08D09E3814D0B43814D0B43814D0B0
:105F60003C3816D070BD6078C01E032818D2307837
:105F7000082815D133480088FBF760FB04203070F7
:105F800070BD314802E0314800E03148FBF7CCFFFA
:105F900070BD3048FBF7C8FFFBF763FB0120A07022
:105FA00070BD00000A3D0020043D002080B52A4A53
:105FB000012100BF2CA0FDF7C3FB284A012100BF2F
:105FC0002AA0FDF7BDFB002801D0FCF7BDFC01BDF8
:105FD00004050050F8300020093D00200C3D002051
:105FE000A43A000010B51E4C0022A4214900200054
:105FF000FDF7BEFB00221B4920002030FDF7B8FB57
:10600000002801D0FCF7A0FC10BD0000A63A00005B
:106010000B3D0020E81F0020003D0020993A0000C1
:10602000A03A0000B09B0200EB3C0020EA3C0020BC
:10603000E93C0020E83C0020053D0020EC3C00202D
:10604000F03C0020183A00209A3A00009B3A0000E9
:106050009C3A00009D3A0000D15E0200ED5E020015
:10606000B4380020CD0C0000B4380020D438002013
:10607000202804DA6D49C140C807C00F70470120CD
:10608000704738B50400FFF7F3FF002801D16848D6
:1060900032BDE0001821014020000322002805D570
:1060A000644B25072D0F083DAD0801E0624B8508C4
:1060B000AD005B59CB4099090A40032A0FD8002A4A
:1060C0000DD0022A0BD0E206D20E01215B4B5C6898
:1060D000002C06D191405A480160002032BD724820
:1060E00032BD400980001818036891401943F3E756
:1060F00080B5FDF763FD01BD7CB56C4E307800289E
:1061000036D000250024F06800281BD1012519E0B5
:10611000002802D0FCF718FC1CE0009801F0FEFEFD
:106120003169002916D00098884713E0002802D072
:10613000FCF70AFC02E0B068F16888472C4217D1EE
:10614000002C07D17078002812D1684652DF05284C
:10615000DED10124002DF1D17078002808D170889B
:1061600069460880B06861DF0528DFD10125E5E7D1
:1061700073BD4E480078704738B51400002916D01A
:106180008A0714D1494A9160548053602C4B196896
:10619000CC07E40F0125002C01D045490D6045498D
:1061A00010DF002805D0002C09D01D6032BD07206B
:1061B00032BD157001F0B9FE1620FFF762FF32BD47
:1061C000010001D10E2070473849C8600020704797
:1061D000010001D10E20704734490861002070474A
:1061E00080B532484068002805D08047002804D098
:1061F000FCF7AAFB01BDFFF77FFF01BD70B50400EE
:106200000D00160014213000FAF76EFF01203080D7
:1062100000213161317BFE220A4032733572747283
:10622000002C00D0B072002070BD0000FC06FFBC46
:10623000012000001CED00E000E400E0BC3C002078
:1062400000E100E03EB505001B4801900198009078
:106250001B4C024621000420FBF7F1FA6946280096
:1062600060DF050000980199884212D002462100A3
:1062700034310220FBF7E3FA1048416800684143DB
:106280008020800508180099421A210080310220E0
:1062900005E0002D05D02A002100BC310120FBF7CC
:1062A000CEFA28003EBD000002200000803C002005
:1062B00080E100E0F1600200E81F002034000010DF
:1062C0000888020013480178491E8941C90F0170EE
:1062D0004168002900D1704780B50078884701BD2A
:1062E00038B505000C000B484260152001F046FE51
:1062F00000280DD12900152001F048FE002807D103
:10630000152001F033FE002802D1210003204CDFCC
:1063100032BD0000D43C002010B5C2001823134049
:10632000FF249C40E2438907090E9940030007D5EA
:106330000C4B0407240F083CA408A4001B1903E01D
:10634000094C83089B00E3181C6822401143196024
:106350000121C006C00E814004480160044801606C
:1063600010BD00001CED00E000E400E080E200E071
:1063700000E100E05C4940180068012800D00020DE
:10638000704730B5039D049C52000A4399001143A5
:106390002A020A4321041143544A8000115030BD9F
:1063A000A022D20580001018E022D20080180268D6
:1063B0004F4B1340036002680904114301607047AA
:1063C0000000000038B56B4608A425681D60030076
:1063D00008E06C469D006459A225ED0064591460E4
:1063E000121D5B1C4418A342F3D331BD00000050C2
:1063F000012243075B0F9A40C008085C10407047B9
:106400003C4908184021405604288041C00F70477D
:106410003849081840214056042801DB0120704704
:10642000002070473349081840214056C043C00F30
:106430007047F3B501000020C0430425130002D1CA
:106440000423102500E000232A4C00E05B1CAB4233
:1064500011D29E00A619009636688642F6D1180021
:10646000019B66184027F055009D2B60002A02D141
:1064700022185C23D15440B2F6BD1E490022D243FB
:106480008300CA50042802DB08185C21425470477C
:1064900070B5184C6C20205C002801D0082070BD1D
:1064A000FF22202120004030FAF720FE00250026A0
:1064B000F0B2FFF7E2FF761CF0B21028F8DB032100
:1064C0000620FFF729FF3548056080200006344983
:1064D000086001206C216054002070BD5248007893
:1064E000002800D0012070470060004000070050E5
:1064F000FFFFFCFFE8360020FEB507000D00160088
:106500000024FFF78FFF002801D0082443E031006A
:106510002E00F2783800FFF78CFF05000020C04302
:10652000854237D0B07800280BD0A020C005B90034
:106530004018E021C900401801680222914301601F
:1065400007E0019000907378002200213800FFF7E7
:1065500018FF3078F178002913D03449AA0089183F
:106560000A68384B13400B600A683B02F8256D013E
:106570001D400004C0239B0203402B4313430B60C8
:1065800009E08C494A195C23D25C80011043491907
:10659000C85400E004242000FEBD00007C610040DF
:1065A00004630040F1B50F00824C25180126FFF767
:1065B0002FFF002816D04020285620185C21405676
:1065C0000006800F0221032805D17B480068009B4C
:1065D000D840064000E0012800D003210098FFF7D2
:1065E000DFFEF1BD0098FFF70BFF00281AD0402016
:1065F00028560E49820089180A6832430A60002131
:1066000082003302D21812B20D4BD2181160002F43
:1066100008D04021695689006158002902D086407F
:1066200066480660F1BD0000543700201065004048
:1066300061490968C140C807C00F704700000000E9
:1066400000600040FFE0FCFFF0B585B00024684624
:10665000046080256D000126042728B2FFF78AFE1A
:10666000002809D055480068304005D0002029B2E4
:10667000554A89180860344376002D1D7F1EECD1E1
:10668000260080273F06BE204000FFF773FE00284B
:1066900007D000204B4908603E436A460121FFF7BE
:1066A00091FE300715D00124002534420DD0A900F9
:1066B00043484218106813683E4A5258110004D0EB
:1066C0009903890FC004C00E904764006D1C042D0F
:1066D000EBD337406CD002A8002101600020C043FA
:1066E00001E00090029803900026002431488019B0
:1066F00060214056C5B22900C0229143019100217A
:10670000C943884246D003A90198FFF771FE0028CB
:1067100040D02806800F0490264801994118402255
:106720008956890047583800049802D1032831D18E
:1067300001E003280BD10198C00802A90A5C0121DD
:10674000019B5B075B0F9940114302AA11541F483C
:106750000199890040588003850F69460198FFF729
:1067600047FE002802D0022D14D101E0032D11D1E3
:106770000498032808D1022D01D1032100E0022151
:106780000198FFF70DFE641C380003D00499C9B2CC
:106790000198B847761C0C2EA8D3240608D001AA6D
:1067A00001210020FFF70EFE01980099884298D140
:1067B00005B0F0BDE836002010050050046300402D
:1067C000106500407C610040006000400007005000
:1067D00070B504000E00674D2868012188432860C9
:1067E000310003D102218843286007E06249032079
:1067F000FBF71FF828680221014329602000426846
:10680000002A01D03100904770BD10B50100002270
:106810000020002918D0594C21000320FBF709F86B
:10682000FAF768FB002802D02100343106E0544812
:10683000FFF7CEFC002806D0210060310320FAF7D4
:10684000F8FF082010BD04224A490A6010BD00006C
:10685000F1B584B017001D000024464800684207C7
:1068600020D5820705D547490320FAF7E2FF0A2021
:106870002AE0012630433F4A10600095BBB20A006F
:1068800004994148FAF73DFB040006D0220000BFFE
:106890003FA10320FAF7D3FF15E0364801680E4305
:1068A000066010E03A00049801F0A7FB28000AD027
:1068B00068461021FAF718FC019504980290684682
:1068C00087810021A847200005B0F0BDF3B585B051
:1068D0001700002406462D4D0B46320029000320E8
:1068E000FAF7B4FF23480068410723D5810706D58E
:1068F000290028310320FAF79CFF0A2038E00125FF
:106900001C4E284330603B00069A92B205991E48FF
:10691000FAF739FB040009D0220000BF24A10320AC
:10692000FAF78DFF3068A843306020E030680543F7
:1069300035601CE0B00A69460880059D069E280067
:1069400001F04AFB8020C0002D18761EF7D13800D8
:106950000DD001A81EA11022F8F700F8029701A897
:10696000694609880181A90A41810021B8472000B0
:1069700007B0F0BDF43C00201C9C0200D08B02004C
:1069800021100200F88F02004C280020F08D020038
:106990001B5B313B33376D3A494E464F3A466C618B
:1069A00073683A206661696C65642025640D0A008D
:1069B0001B5B313B33376D3A494E464F3A45726166
:1069C0007365206661696C65643A2025640D0A0070
:1069D00001000000000000000000000000000000B6
:1069E00080B55E4A0B0001D1002313705268002A63
:1069F00000D0904701BD000080B559480168594A50
:106A0000594800BF00BF00BF00BF00BF00BF00BFAC
:106A100000BF914200D000BF0138F2D101F019FB54
:106A200001BD10B5514C05E021000320FAF701FF2C
:106A3000FFF7E2FFFAF741FB0028F5D110BD80B562
:106A4000002258214A4801F01FFB02BD70B5494D94
:106A500029000320FAF7EDFE002040490870464C5B
:106A6000AE2676003200FF2189022000F7F776FF7C
:106A700020680021C943884204D0FFF7E0FF216865
:106A8000884211D0290030310320FAF7D2FE3100BC
:106A90002000FAF729FB01206060002000F005F8D3
:106AA000002801D0FBF750FF70BDF8B50500334C4E
:106AB000FF22920221003C310320FAF7C0FE274E4C
:106AC00005E021000320FAF7B4FEFFF795FF3078C8
:106AD0000128F6D0012030707560FF25AD02FFF768
:106AE000A0FF002201212800FFF7F0FE0728F6D0C2
:106AF0000025002802D021006C3121E01E4FFFF755
:106B00009EFF386057222100A0310320FAF797FE3C
:106B1000AE225200390030000830F7F71FFFFF2780
:106B2000BF02FFF77EFF164B5722310008313800B5
:106B3000FFF78EFE0728F4D0002807D02100C431CB
:106B40000120FAF776FE35700320F2BD2100F43102
:106B50000320FAF76EFE0020F2BD0000382E002060
:106B6000A42700200024F400A0860100188F020052
:106B7000A02F00205C8C02009C2F0020DC850200EE
:106B8000E16902000870000A4870022070477CB575
:106B900004000D0028880930824201D20C2076BD05
:106BA000684671DF00281FD1082029886054288892
:106BB000401C28801B2180B221542888401C28803A
:106BC0006E460622711C80B22018F7F7E1FE288875
:106BD000801D28803178002900D0012180B2215405
:106BE0002888401C2880002076BD7CB504002578CC
:106BF000012D04D16078002801D1072076BD0192D3
:106C00001688B01C834221D3012D04D1607830183E
:106C1000801C83421AD30A00981B831E9BB26946CC
:106C20000B80019800881018801C7DDF002831D16E
:106C30002178082002290DD1694609888B4207DA9C
:106C400069460B8069460988FF290BD30C2076BD65
:106C50000920F7E70129F3D161788B42F0DB6B461D
:106C60001980EFE769460988491C019B1B88D154AC
:106C700001990988491C019B198089B250540198D7
:106C80000088401C019908806946098840180199CC
:106C90000880002076BDF8B584B00A9C0B9F0025C3
:106CA0002688029600260390684681704270878588
:106CB00022E0022021886A46928D94466A46127824
:106CC0008A181018844540DB002D09D1491C218009
:106CD0006846807889B258542088401C208001255D
:106CE00020881A18694601A865DF002822D120886B
:106CF000097840182080761C0398008886421BDAA9
:106D000001A803994968B20089180A8802804A8854
:106D100042800022694665DF00280BD16846007872
:106D200049788842E7D1002DC3D00020C2E70299FC
:106D30005854002005B0F0BD002DFAD020880299EB
:106D4000401A401E81B2FF29F1DD0C20F2E7F1B5B7
:106D500082B014001F00089E099D01950096022232
:106D6000FFF799FF002807D12100019500963B000D
:106D700010220298FFF78FFFFEBD7CB51400228819
:106D8000951DAB4201D20C2076BD009000880628EC
:106D90000DDB1B4B1B4DA84201DB984207D1009E27
:106DA0007688062E03DBAE4203DB9E4207D0072027
:106DB00076BD984203D09E4201D08642F7D30D00A3
:106DC0000520A8542088401C2080122180B229541C
:106DD0002088401C208080B2291800980088FFF786
:106DE000D1FE21880818208080B229180098408898
:106DF000FFF7C8FE218808182080002076BD00001B
:106E0000FFFF0000810C000070B504001500A08891
:106E1000801C2A881618B61CB34201D3FF2801D360
:106E20000C2070BD0E00401CB0542888401C2880E7
:106E3000FF2180B231542888401C288080B231184C
:106E40002088FFF79FFE298808182880A288002A3A
:106E50000CD0A168002901D1072070BD80B2301884
:106E6000F7F796FD2888A18840182880002070BD7B
:106E7000F8B5836A002B39D0002400900F0016006B
:106E800022E0401C318878543088401C3080162124
:106E900080B239543088401C308080B2391828883C
:106EA000FFF770FE318808183080AA88002A0AD0BF
:106EB000A96800291AD080B23818F7F769FD308820
:106EC000A98840183080641C00992C22895CE0B2AB
:106ED00088420DD20098806AE1B20C2251434518D5
:106EE000A888801CFF28CCD30C20F2BD0720F2BD5F
:106EF0000020F2BDFEB506000D00140000270020A2
:106F000021886A46118127802D21715C002907D0D4
:106F10006846028921002800FFF739FE002850D179
:106F2000B17800291FD0684600892188091D884250
:106F300046D3684679DF002843D10320218868546E
:106F40002088401C2080192180B229542088401CB0
:106F5000208080B2291868460088FFF713FE218838
:106F6000081820800020F2780221002A1AD052B29C
:106F70006846027020886A461289C31C9A421FD351
:106F800029542088401C2080012280B22A54208865
:106F9000401C20806A46127880B22A542088401C07
:106FA000208000207268002A1ED0002010562288FF
:106FB0006B461A806A4612891B88DB1C9A4201D2F2
:106FC0000C20FEBD6A461288A9542188491C2180E4
:106FD0000A2289B26A542188491C218089B26854E6
:106FE0002088401C20800020318900290CD0684670
:106FF0000089019000942B00062202213000083005
:10700000FFF7A5FE00284ED1318A00290CD0684632
:107010000089019000942B000722032130001030DA
:10702000FFF795FE00283ED1318B00290CD0684631
:107030000089019000942B00152214213000183093
:10704000FFF785FE00282ED1376A002F08D068464A
:107050000389220029003800FFF78FFE002822D183
:10706000776A002F08D0684603892200290038007B
:10707000FFF7CAFE002816D12C21715C002908D028
:1070800068460389220029003000FFF7F1FE00283E
:1070900009D13178002906D06846038922002900E9
:1070A0003000FFF7A2FDFEBD78B591B00C001F21A6
:1070B0006A4651801180002500280AD0C17849070E
:1070C0000FD5921C09A9FFF715FF00281DD109AEA5
:1070D00002E0002669464D8020000CD0C1780029CE
:1070E00001D0072011E06A4601A9FFF703FF00283D
:1070F0000BD101AA02E00022684605806846038899
:10710000DBB24188C9B2300072DF12B070BDFEE759
:1071100052490858002800D00120C0B27047000032
:1071200038B54F4CA27C002A01D0082032BD0D009A
:1071300000214C4A1160290007D0002801D100BF6E
:107140004CA001780720FFF7E7F825600120A07424
:10715000002032BD0021416041494A68002A02D125
:10716000486070470A0051680029FBD150607047A1
:1071700001203A490860704770B50020394908601D
:107180003A4908608C68364A537CD5685E00AC5337
:107190005B1C5374147CDBB2A34211D293685B680E
:1071A0000124002B01D1536800E0012093601A688C
:1071B0004A600C60002801D028480460002070BD9F
:1071C000012070BD38B5264CA27C022A01D11120C5
:1071D00032BD0222A2746268A2602174002161742F
:1071E000E0601068214A50601E480160012515606A
:1071F0002068002802D01E48056009E02802FFF739
:1072000087FF0028FAD0FFF7B7FF0028F6D0A57453
:10721000002032BDFEB5144F01240025104EF06849
:1072200000280BD10F4805603C6010480560694696
:107230000C7080688880B47468460BE0FFF79CFF90
:10724000002809D03C6068460570F1680191317CE6
:107250000181B47431688847F7BD000000700040B8
:10726000583C002000710040087300400075004049
:10727000047300400300FEE7FA21890048430FD061
:107280005D4909685D4A00BF00BF00BF00BF00BF85
:1072900000BF00BF00BF914200D000BF0138F2D153
:1072A0007047000070B500F00FFF06282CD1544C39
:1072B0002678544D71A128000830FBF7D1F9002839
:1072C0000BD1320058A10420FAF7B9FA022140206C
:1072D000FBF7B2F82078012112E000BF69A1280075
:1072E0000830FBF7BDF900280CD1320055A104206D
:1072F000FAF7A5FA01214020FBF79EF82078022139
:1073000001432170207870BD002070BDF8B50700E2
:107310003D48007800243A4D3978002905D00229EB
:1073200052D038D3032960D064E000BF4CA10320C1
:10733000FAF77FFA012635490E7035480068C00813
:10734000304021D0E0B2FEF7CBFAC820FFF794FF1F
:10735000FEF7EAFA0500FEF7DDFAC820FFF78CFF1A
:107360002800FBF718FF0028FAD1002D01D10121D8
:1073700000E002212020E040FBF75EF8641CE0B250
:107380000628DFDB3E70F1BD2248FAF7CDFD032071
:1073900038706E70F1BD0B20FCF750FA002801D058
:1073A0001D490C701748C17C012924D1C474FFF712
:1073B00079FF03281FD12C7003217F20FBF73CF8B5
:1073C000052016490870F1BD15490C600A2812D134
:1073D000A978481C132900DD0020A870A87811495D
:1073E000401880B2FAF7A0FDF1BD0A2803D16878F1
:1073F0003870F1BD3C70F1BDA42700200024F400DA
:10740000F93B0020C4370020F8300020F93000207C
:1074100010050050B1360000093D00200C3D002051
:10742000EC3C0020711700001B5B313B33326D3A9E
:1074300044454255473A66726F742D706173733AD2
:10744000256400001B5B313B33326D3A44454255A5
:10745000473A6261636B2D706173733A2564000073
:107460001B5B313B33376D3A494E464F3A66726586
:1074700065206D6F64650D0A000000003131313107
:10748000313100003232323232320000BAB50700F8
:107490000025002401F00CF869460988F8F78CFDF6
:1074A00089B2002005E05200BA5A8A4200D1012474
:1074B000401CC2B2AA42F6DB20000C000028E8D132
:1074C000220000BF04A10420FAF7B9F968003C5279
:1074D0006D1C082DDDD3B3BD1B5B313B33326D3AE0
:1074E00044454255473A72616E643A25780000007F
:1074F000FEB5B04C2F21615C002902D0616B491CA4
:10750000616300902D20215C082700260B25009840
:1075100000780B2800D98BE101A24000125A974451
:1075200016000E032A00AE00CC01D601A600F20020
:107530001A010E026002FC02BF490320FAF779F932
:10754000BE48006801F02AF82E2166540320BC4989
:1075500008702D21665466630A212000F9F7E0FFC8
:10756000B8480078C01E03D0401E012812D916E08A
:10757000E0214900A068FFF789FF1422A16800BF3D
:10758000CAA0FBF725FB142221001631C9A0FBF786
:107590001FFB04E01422AC49A068F7F7F9F9A948E9
:1075A0000078032804D002D305280BD008D330E19B
:1075B0002E20205C002801D0A44828E1A44826E120
:1075C000A44824E1A44822E103209D4A10702CE144
:1075D0009B48067000213F20FAF72EFFA0682D215E
:1075E000615C4900405A208600F0F4FD00280ED06E
:1075F0002D20205C9949401880B2FAF795FC208E26
:10760000FAF71CF80098057007202C21605401201F
:107610002F2102E103208A49087001210120F9F796
:107620002DFE0A20FAF740FCFF20F9F731FF009801
:1076300005702C2027548A480660F7BD0320804936
:107640000870884CE07C0128F7D1E67486480190E8
:10765000A07C41381A281BD201210020F9F70EFE28
:1076600002900098057001990F70029A94A103206E
:10767000FAF7E5F87D4D0298401E072806D801A1CB
:10768000095C8F441A30504844404C48009805E04B
:107690007748FAF749FC0098057001980770F7BD24
:1076A0007448A17C4900401882380088FAF73CFCF5
:1076B0002800FAF739FC7048FAF736FC6048067083
:1076C00009200199B2E0681C0EE0681E0CE06B48CE
:1076D0000AE0A81C08E06748A17C490040188238ED
:1076E0000088FAF721FC2800FAF71EFCF7BD009885
:1076F00005702C202754F7BD0120514A107002223A
:107700002000F9F722FF2D20205C401C2D21605421
:107710005B48FAF709FC2D20205C0A2804DA594856
:10772000FAF702FC062000E00A2000990D7023E021
:10773000434A167001222000F9F707FF2D20205C34
:10774000401C2D21605450480088FAF7EDFB4F484B
:10775000FAF7EAFB00F0ACFE0321F8F72DFC4C48E9
:10776000081880B2FAF7E0FB4A48FAF7DDFB00F0B0
:107770000BFE009805700A202C2160542F202654FF
:10778000F7BD0A2939DB2D202654606B6421F8F7F8
:1077900027FCE060217CF9F7EAFE3F4801009431C4
:1077A000284A1278032A07D01ED3052A12D00AD3FA
:1077B0001AE000BFE83900200A68521C0A602C2237
:1077C0002100F8300EE04A68521C4A602C22210049
:1077D000922305E0CA68521CCA602C222100A8230B
:1077E0005B00C018F7F7BAF801202E216054022080
:1077F0002C21605400980570F7BD2848FAF794FBD7
:10780000207C2749401880B2FAF78EFB2548FAF70A
:107810008BFB0098057006202C216054F7BD224890
:1078200000780A2806D12C20205C00990870F7BD4A
:1078300000980670F7BD00BF2C9E0200F03C0020AF
:10784000F9300020E91F0020A02D0020B33A0000ED
:10785000A93A00005A3B0000593B0000683B000079
:10786000EC3C0020C4370020143A0020B73A000056
:10787000BB3A0000C48F0200C93A0000C73A0000BA
:10788000AE3A0000583B0000CC330020C33A000061
:10789000D53A0000C23A0000BC2C0020AC3A0000EF
:1078A000EE3A0000AD3A0000F830002071756573C3
:1078B0004C69620071756573427566660000000070
:1078C0001B5B313B33376D3A494E464F3A63757215
:1078D00072656E74526573756C743A25640D0A0096
:1078E000F1B582B0C248009003270025C14C0B2699
:1078F000029800780B2800D977E102A14000095ACC
:107900008F4400BF18006400CC0098017C029A02EA
:10791000B2025C00E00002023A02D402B64903203F
:10792000F9F787FFB5480770B5480078012805D1F9
:10793000B448FAF7F9FAE02040000CE0B248FAF750
:10794000F3FAB24800900078F9F73CFCB048FAF737
:10795000EBFA00980078208102980670072028E151
:10796000A6480770012017E10220A44908700021F1
:107970003F20FAF761FDA24800780128A54802D10E
:10798000811C801C06E00100A431C98F4900411808
:10799000A631E2302061E160088800F01BFC00287D
:1079A00052D09D499DA0FAF75BFE002800D1012529
:1079B000A5709B48FAF7B8FAE0680088F9F796FDD9
:1079C00000980088FAF7B0FA029806700220F0E0FA
:1079D0008A48077001210120F9F750FC0A20FAF7C4
:1079E00063FA89E0854807708E4FF87C01282BD117
:1079F000FD74A078002804D0387A552801D156208B
:107A00003872B87C41381A281FD201210020F9F7BA
:107A100035FC02006270029806700820207000BFDA
:107A20008CA10320F9F70BFF7F4E6078401E0728DA
:107A300006D801A1095C8F44142A4E46423A4A46B0
:107A40000820029908706570F7BD0820A4E0774807
:107A5000B97C4900401882380088FAF765FA30008E
:107A6000FAF762FA7248FAF75FFA64490D70092072
:107A70002070E8E7701CFAF757FAE4E7701EFAE79F
:107A80006C48F8E7B01CF6E76848B97C4900401834
:107A900082380088FAF748FA3000ECE700F014FB6F
:107AA000002821D001210020F9F7E8FB6070401E7A
:107AB000012809D9C01E012810D9801E0CD0401EF3
:107AC0000ED0401E0AD00EE05948FAF72DFA4B4965
:107AD0000D700920207006E0574802E0554800E08C
:107AE0005648FAF721FA6570E0680088F9F7FEFC5D
:107AF00000980088FAF718FAFF20F9F7C9FC0298F5
:107B00000670082055E03D48057000980088FAF797
:107B10000BFA4B48FAF708FA00F0CAFC0321F8F711
:107B20004BFA4848081880B2FAF7FEF94648FAF7C7
:107B3000FBF900F029FC029806700A2039E0A088C1
:107B4000401CA08080B2042816DDA5803148018841
:107B5000491C01800120F9F7CFFA00F0A9FC0321AC
:107B6000F8F72AFA3948081880B2FAF7DDF9F9F778
:107B7000AFFD0420207000E004260298067032E079
:107B800002201E490870E088411CE180FF21F63187
:107B900088422CDBE580062002990870F7BD174863
:107BA00005702948FAF7C0F900F0EEFB029806705C
:107BB00004202070F7BD20690188491C23898AB2FE
:107BC0009A4201D3002100E001250180029805704E
:107BD0000120F9F791FAF7BD1D4800780A2806D16F
:107BE000207802990870E580F7BD02980570F7BD0E
:107BF000CC330020443C0020489E0200F930002095
:107C0000E91F0020C13A0000533B0000602D002016
:107C10005B3B0000BC2C00204B330020564500008D
:107C2000F93A0000C4370020B73A0000C48F0200C0
:107C3000C93A0000C73A0000B83A0000B93A00005B
:107C4000C33A0000D53A0000C23A0000D23A000020
:107C5000F83000201B5B313B33376D3A494E464FBD
:107C60003A63757272656E74526573756C743A25F9
:107C7000640D0A0070B506000124674D28780028BD
:107C800004D12C703921281DF9F72EFAE02040008C
:107C900086420ADA00208019C10888B2C900711A28
:107CA0008C4028180179214201D0002070BD0C437E
:107CB0000471012070BD0000F1B503250026574C6A
:107CC000574F0078052858D801A1095C49008F4416
:107CD0000211172F6C9300BF5BA10320F9F7A9FDD8
:107CE000504805705048FAF71FF9052000990870B0
:107CF000012058E04B4801780D430570022078E0E0
:107D0000F87C012813D1FE74787C022840DBB87C13
:107D1000010041391A293BD24449400008188238F1
:107D20000088FAF701F90520009908706570F1BD27
:107D30003C490D70022000990870797C38000830A9
:107D400000F002FA608005263949884216D0020008
:107D500044A10320F9F773FD61883648FAF763FC04
:107D6000608800F037FA002854D000F00DFB00289E
:107D700050D0012020700420607049E038000830A5
:107D8000F9F7D4FC002845D0012804D156203872D8
:107D900000980570F1BD2849401880B2FAF7C4F880
:107DA0000098067002206070F1BD012700990F70E5
:107DB0006088FFF75FFF00282CD0A088401CA080BF
:107DC00080B2042826DDA6801C480188491C018059
:107DD0000120F9F791F900F06BFB0321F8F7ECF8BB
:107DE0001748081880B2FAF79FF8F9F771FC677026
:107DF000052000990870F1BDF87C012804D01148D5
:107E000000780A2806D16078009908702670F1BDC4
:107E100000980670F1BD000034390020DC3C0020E1
:107E2000C4370020F9300020A83A0000C48F0200B7
:107E3000FFFF0000C02C0020453B0000BC2C0020B0
:107E4000D23A0000F83000201B5B313B33376D3AEB
:107E5000494E464F3A66726565206D6F64650D0A3E
:107E6000000000001B5B313B33376D3A494E464FF3
:107E70003A776F7264206964783A25640D0A0000CD
:107E800070B500200024344D2978002901D08524C4
:107E900013E0A86068602861E86030480068C007A7
:107EA00003D403210020FEF737FA0126FEF761F91B
:107EB000002801D12A4806602E70200070BD38B518
:107EC0000400254802D10500083507E005001035FB
:107ED00004E008682860200049688847296800296C
:107EE000F7D131BDF8B501241B4F00251E4E306877
:107EF000002806D035601B4804607C700020FFF726
:107F0000DEFF7068002807D0756002201549086000
:107F1000BC700120FFF7D3FFF1BD0000002800D0A6
:107F2000704780B5FFF7CBFF01BD1CB50020694647
:107F300008706846FCF7E4FE074C2078002801D161
:107F4000FFF79EFFE068401CE0600120A0706846DB
:107F50000078FCF7ECFE13BD6C3C002000E100E073
:107F60001805004008030040000100400121C00640
:107F7000C00E814014480160002070470121C006F6
:107F8000C00E8140114801600020704710B5C2004A
:107F900018231340FF249C40E2438907090E9940AF
:107FA000030007D50A4B0007000F0838800880003F
:107FB000181803E007489B089B00C01803681A4084
:107FC00011430160002010BD00E100E080E200E00C
:107FD0001CED00E000E400E0174902220A60174AA5
:107FE0001368002BFCD0486010680028FCD00020EB
:107FF000086010680028FCD07047FCB50E4B0124C7
:108000001C600E4C2568002DFCD000250026019038
:10801000009108E0B00000990958019F395020688C
:108020000028FCD0761C9642F4D31D6020680028FE
:10803000FCD0F3BD0000000004E5014000E4014075
:10804000104A9288904201D2401C00E00020C0B249
:10805000704738B50B4C0EE02078A168C2008A1832
:108060009188E368658868431818126890472078FB
:10807000FFF7E6FF2070207861788142ECD131BDB6
:1080800000000000943C0020E0B5002A02D100234B
:10809000DB4301E01268D343002502000EE0002616
:1080A00006E0505D584003000820DE07F7D5054E76
:1080B0005F0833007B40401EF7D16D1C8D42F0D32A
:1080C000D843E0BD2083B8EDB0B5AE4CA51C002070
:1080D0000100401CC9B2062923DA2978002920D1E1
:1080E0006D1CF5E73978002924D17F1E1DE0137837
:1080F000002B01D15F231370521CBA42F7D17A1BB7
:10810000521C290020000830F6F742FC20000830FD
:10811000F7F7F8FC00E00020607420782074607CA1
:10812000B0BD401EE0730020E71D0100401CC9B235
:108130000629D7DB072120000830F8F7D5FFAF422A
:10814000E9D32A00D9E7000079B582B00E000346D2
:108150003200A4490420F9F779FB0025A248A900C0
:1081600040580100002401E0641C491C0A78413A8F
:108170001A2AF9D30090C7204000854206D1E3B205
:10818000009A00BF9EA10420F9F776FB3000E1B20F
:10819000884200D2E0B2072801DB062204E08E42CA
:1081A00001D2E2B200E032000099029800F006FA33
:1081B00000280CD06D1CE02040008542CEDB2A0058
:1081C00094A10420F9F73BFB884804B070BDA8B225
:1081D000FBE70000F0B585B000256A461580844CA9
:1081E0002080814980000E580621E01CF8F77CFFB2
:1081F0000023002231005E1CF6B2C81801900078FE
:108200000700413F1A2F00D381E0052B00DD7EE0FF
:10821000E31CD7B2D8553300521CECE7447201235B
:108220007348827A45720FE003231025019809E014
:1082300030220198050007E0032330220825897ABF
:10824000C72008406946088069480190807A0199F2
:1082500088810021684645800298CDB2854200DBC6
:108260008BE0019D0C352606F60DAA53641C022BEB
:1082700007DB6D466D88019E0C362706FF0DF55312
:10828000641C022B01DC10DB07E06D462D88019E8B
:108290000C362706FF0DF553641C019DAD7A019E37
:1082A0000C362706FF0DF553641C491CD5E7E2B2D6
:1082B0005FA10320F9F7C3FA4E48009004707C21B7
:1082C0004D48F8F711FF002461A6049F039D12E0BA
:1082D000791908784978AD1CEDB2454A2306DB0DC3
:1082E000D21884320002081810801288310003204E
:1082F000F9F7A5FA641C00990978E0B28842E7D33F
:108300005AA10320F9F795FA012005B0F0BD0491B8
:1083100020468370120632D063A182788918491EE4
:10832000097881720199097803960F270F220A4074
:108330000292052A00DB029509090F400124052F4E
:1083400000DC6BE701464C72887ACF220240019232
:1083500020220223BF1FFFB2002F00D15FE7022FB0
:1083600000D165E705D3042F00D165E700D25BE7B4
:1083700005E0897ADF2008405CE7200697D10020DD
:10838000C3E70000C4370020F8B5194F8020400033
:10839000385C002825D000241DE060003E18B2891A
:1083A00015001648C07BC540EBB200BF36A10320C4
:1083B000F9F74CFA0121E8B2F9F77AFD8420305A36
:1083C000F9F7B2FD00213F20F9F772FD0A20F9F715
:1083D0006BFD641CE4B280204000385C8442DCDB2E
:1083E0000120F2BDF89B0200A4200020FFFF000046
:1083F0004833002048340020CC330020C43700200C
:108400001B5B313B33326D3A44454255473A0D0AC6
:10841000000000001B5B313B33326D3A444542554E
:10842000473A776F72646964783A25780D0A0000DC
:108430001B5B313B33376D3A494E464F3A617564A9
:10844000696F20636F6E743A25640D0A00000000A6
:108450001B5B313B33376D3A494E464F3A61756489
:10846000696F206964783A25780D0A001B5B313BFF
:1084700033376D3A494E464F3A6465636F64652001
:1084800066696E69210D0A001B5B313B33376D3A1B
:10849000494E464F3A72676220623A257820663A22
:1084A00025780D0A000000002030383C3E3F0000D7
:1084B000F0B53D480078002859D13B4840683B4919
:1084C00048433B4940183B49F7F78AFD3748414349
:1084D000374808183749F7F783FD34484143344893
:1084E00008183449F7F77CFD3048414330480818F4
:1084F0003049F7F775FD2D4841432D4808182D499F
:10850000F7F76EFD29484143294808182949F7F72C
:1085100067FD26484143264808182649F7F760FDBD
:1085200022484143224808182249F7F759FD1E48BE
:108530004160214D102604461D4F60681B49484389
:10854000C0191C49F7F74CFD616029601748414389
:10855000C8191849F7F744FD616069600835761E4F
:10856000EBD11548C16F80228150012020700E4C44
:1085700060680E4948430E4940180E49F7F730FD30
:1085800061600D4B180080300278D206520E9A18A6
:1085900013680360116098008008F0BD0249002252
:1085A0000A70486070470000A82700200D66190077
:1085B0005FF36E3CFFFFFF7FEC350020A446521EA8
:1085C00008D303780C78401C491CA342F7D0181B31
:1085D00064467047002064467047FEE71B5B313BF2
:1085E00033376D3A494E464F3A57616974696E6741
:1085F00020666F72206F7468657220666C617368A4
:10860000206F7065726174696F6E20746F20666987
:108610006E6973682E0D0A001B5B313B33376D3A70
:10862000494E464F3A45726173696E67206F6C64BC
:108630002073657474696E67732061743A203078B2
:10864000253038780D0A00001B5B313B33316D3A21
:108650004552524F523A45726173696E6720667295
:108660006F6D20666C617368206D656D6F72792027
:108670006661696C65642E0D0A0000001B5B313B6E
:1086800033376D3A494E464F3A57726974696E678F
:108690002030782530387820776F7264730D0A00A7
:1086A0001B5B313B33316D3A4552524F523A537452
:1086B0006F72696E6720746F20666C617368206DDD
:1086C000656D6F7279206661696C65642E0D0A00B4
:1086D0001B5B313B33376D3A494E464F3A5772690F
:1086E00074696E672073657474696E67732E2E2EBD
:1086F0000D0A00001B5B313B33376D3A494E464F44
:108700003A312D7573657220706172616D203A2562
:10871000642C25640D0A00001B5B313B33376D3A36
:10872000494E464F3A322D73797320706172616DF4
:10873000203A25642C25640D0A0000001B5B313BA8
:1087400033326D3A44454255473A7869616F7869EA
:108750002073746172743A25732025730D0A00002A
:108760001B5B313B33326D3A44454255473A5365C2
:108770007276696365732061726520696E697469D8
:10878000616C697A65640D0A000000001B5B313B77
:1087900033326D3A44454255473A636F6E6E2070EE
:1087A0006172616D732061726520696E69746961BF
:1087B0006C697A65640D0A001B5B313B33326D3A9C
:1087C00044454255473A6170702074696D65727313
:1087D0002061726520737461727465640D0A000013
:1087E0001B5B313B33326D3A44454255473A616435
:1087F000766572746973696E67206973207374613A
:10880000727465640D0A00001B5B313B33326D539B
:1088100044483A44454255473A73645F626C655F29
:10882000656E61626C653A2052414D2073746172CD
:108830007420617420307825780D0A001B5B313B71
:1088400033336D5344483A5741524E494E473A7379
:10885000645F626C655F656E61626C653A2052416F
:108860004D2073746172742073686F756C6420623C
:10887000652061646A757374656420746F20307854
:1088800025780D0A000000001B5B313B33336D532C
:1088900044483A5741524E494E473A52414D20734F
:1088A000697A652073686F756C6420626520616405
:1088B0006A757374656420746F2030782578200D94
:1088C0000A0000001B5B313B33316D5344483A458D
:1088D00052524F523A73645F626C655F656E6162BB
:1088E0006C653A206572726F7220307825780D0AB7
:1088F000000000001B5B313B33376D3A494E464F59
:108900003A496E6469636174696F6E20666F7220A4
:10891000424C455F44465520697320646973616227
:108920006C65640D0A0000001B5B313B33376D3A08
:10893000494E464F3A496E6469636174696F6E20AF
:10894000666F7220424C455F44465520697320652E
:108950006E61626C65640D0A000000001B5B313BB8
:1089600033376D3A494E464F3A4465766963652020
:10897000697320656E746572696E6720626F6F74CB
:108980006C6F61646572206D6F6465210D0A000073
:108990001B5B313B33376D3A494E464F3A556E6B50
:1089A0006E6F776E206576656E742066726F6D20CF
:1089B000626C655F6466750D0A00000010B5F020FA
:1089C0000F2228490B78012B1BD14B68134018D17B
:1089D0008B68034202D1CC6804400CD0F0241C40C8
:1089E000102C02D1CC68044005D00340302B08D1B4
:1089F000CB68034005D11C4B1C4C2360E30B1C4C83
:108A000023600B78012B0CD14B68134009D18B6884
:108A10000340402B05D1CB68034002D10123154C04
:108A200023600B78012B1BD14B681A4018D18A6840
:108A3000F0231340A02B02D1CB68034005D00240A5
:108A4000D02A0DD1C96808400AD10B480168012914
:108A500004D00A49016001680129FCD1C0214161AB
:108A600010BD0000E00F00F0DFFF07C0040500406C
:108A7000186C00400806004000EC064075930000AA
:108A80001B5B313B33326D3A44454255473A705F88
:108A90006576745F77726974652D3E68616E646C8B
:108AA000653A25782C20705F6E75732D3E72785F65
:108AB00068616E646C65732E76616C75655F686164
:108AC0006E646C653A25782C705F6E75732D3E72FE
:108AD000785F68616E646C65732E636363645F685E
:108AE000616E646C653A25782C705F6E75732D3EEF
:108AF00074785F68616E646C65732E76616C756501
:108B00005F68616E646C653A257800001B5B313BE1
:108B100033326D3A44454255473A424C455F4741EE
:108B20005454535F4556545F57524954450D0A00FB
:108B30001B5B313B33376D3A494E464F3A0D0A7055
:108B40006F776572206B6579207072657373203A58
:108B500025780D0A000000001B5B313B33376D3A6E
:108B6000494E464F3A0D0A4253505F4556454E54C2
:108B70005F534C4545500D0A000000001B5B313B24
:108B800033376D3A494E464F3A0D0A4253505F45CE
:108B900056454E545F444953434F4E4E4543540D42
:108BA0000A0000001B5B313B33376D3A494E464F9C
:108BB0003A0D0A4253505F4556454E545F57484957
:108BC00054454C4953545F4F46460D0A000000007F
:108BD0001B5B313B33376D3A494E464F3A2D2D2DB5
:108BE0002D2D2D2D206E72665F6466755F666C613B
:108BF00073685F696E69742D2D2D2D2D2D2D0D0A35
:108C0000000000001B5B313B33376D3A494E464F45
:108C10003A4E6F7420696E697469616C697A696E25
:108C20006720746865207468696E670D0A0000002B
:108C30001B5B313B33376D3A494E464F3A4E6F74AA
:108C400020696E697469616C697A696E67207468FD
:108C500065207468696E6720320D0A001B5B313B2A
:108C600033376D3A494E464F3A72756E6E696E678C
:108C7000206E72665F6466755F73657474696E6793
:108C8000735F696E69740D0A000000001B5B313B65
:108C900033376D3A494E464F3A2121212121212176
:108CA00021212121212121212052657365747469BC
:108CB0006E6720626F6F746C6F616465722073659C
:108CC0007474696E677320212121212121212121C2
:108CD00021210D0A000000001500000045380200A7
:108CE0001E00000045380200110000004538020057
:108CF00012000000453802000A000000453802005A
:108D0000080000004538020010000000453802004D
:108D100014000000453802000B0000004538020036
:108D20000F00000045380200000000004538020036
:108D30000101000045380200F8B5002700250600B3
:108D40000C006846027016E0A800A02149004018F7
:108D500001B271180A68002A0CD0C1229200B258E0
:108D600080235B02AB40134004D00F60616800B207
:108D7000226890476D1C684600788542E4DBF1BDAF
:108D800080B5042202490348FFF7D6FF01BD000069
:108D9000B03C0020008000401B5B313B33376D3A14
:108DA000494E464F3A0D0A4150505F554152545F6B
:108DB000434F4D4D554E49434154494F4E5F4552E7
:108DC000524F520D0A0000001B5B313B33376D3AA6
:108DD000494E464F3A0D0A4150505F554152545F3B
:108DE0004649464F5F4552524F520D0A000000005F
:108DF0001B5B313B33376D3A494E464F3A45726102
:108E000073696E673A203078253038782C206E757B
:108E10006D3A2025640D0A001B5B313B33376D3AF8
:108E2000494E464F3A45726173653A204661696C16
:108E30007572652073696E6365206C6173740D0AC9
:108E4000000000001B5B313B33326D3A4445425514
:108E5000473A706172616D4D6F64696679466C6105
:108E6000673A25640D0A00001B5B313B33326D3AD3
:108E700044454255473A706172616D4D6F64696651
:108E800079466C61672061667465723A25640D0AE3
:108E9000000000001B5B313B33326D3A44454255C4
:108EA000473A66647320696E6974207375636365FD
:108EB00073730D0A000000001B5B313B33326D3AC7
:108EC00044454255473A5265636F7264206B657939
:108ED0003A0930782530347800000000554500000C
:108EE0004A7600005176000058760000597600005E
:108EF0004A7645005176450058764500597645003A
:108F00004A764E0051764E0058764E0059764E0005
:108F10004C5545004E5545001B5B313B33376D3A90
:108F2000494E464F3A57616974696E6720666F72A1
:108F300020617661696C61626C6520737061636544
:108F4000206F6E20666C6173682071756575652E83
:108F50000D0A000070B40123002413E00168001D15
:108F6000194202D04D466D1E49190C60091D121F91
:108F7000042AFAD20D00960701D50C80AD1C1A40C8
:108F800000D02C700268001D002AE7D170BC704729
:108F90001B5B313B33376D3A494E464F3A4F627453
:108FA00061696E65642073657474696E67732C20E3
:108FB000656E746572206466752069732025640A85
:108FC0000000000001000B005C00030171017B0147
:108FD000AB010B026C027E02C5021F039E03FC0361
:108FE00072047804CE0415055905FF055F06E707EE
:108FF0006D069906E10616071B5B313B33376D3A68
:10900000494E464F3A466C6173683A204661696C36
:109010007572652073696E6365206C6173740D0AE7
:10902000000000004E49414E4794040903FC026CC5
:1090300007F4040A03FC026C07CD040203FC026C73
:109040000809041303FC026C07C803FF00000000BA
:109050004C49414E47940330031F026C07F403311F
:10906000031F026C07CD0326031F026C0809033B94
:10907000031F026C07C80322000000004A49414E4A
:1090800047940291027E026C07F40292027E026C07
:1090900007CD0286027E026C0809029E027E026CE7
:1090A00007C80282000000005149414E479404E184
:1090B00004CE026C07F404E204CE026C07CD04D6A1
:1090C00004CE026C080904EE04CE026C07C804D278
:1090D000000000005849414E479406AD0699026CC5
:1090E00007F406AE0699026C07CD06A10699026C3C
:1090F000080906BA0699026C07C8069D0000000020
:1091000051494F4E479404E804CE026C080204E92A
:1091100004CE026C07E104DB04CE026C080F04F0FD
:1091200004CE026C07DE04DA0000000058494F4EFE
:10913000479406B40699026C080206B50699026CBB
:1091400007E106A60699026C080F06BC0699026C98
:1091500007DE06A5000000005A48554149A407292A
:109160000718065F07F2072A0718065F07CB0720D4
:109170000718065F080707340718065F07C6071CAD
:10918000000000004348554149A4006E005E065FA0
:1091900007F2006F005E065F07CB0065005E065FAA
:1091A00008070078005E065F07C600620000000046
:1091B0005348554149A4056B055B065F07F2056CF2
:1091C000055B065F07CB0562055B065F0807057652
:1091D000055B065F07C6055F000000005A48554161
:1091E0004EA4072B0718065F07F3072C0718065F26
:1091F00007CC07210718065F080807350718065F20
:1092000007C7071D00000000434855414EA40070E9
:10921000005E065F07F30071005E065F07CC006624
:10922000005E065F08080079005E065F07C70063FE
:1092300000000000534855414EA4056D055B065FD4
:1092400007F3056E055B065F07CC0563055B065FEC
:1092500008080577055B065F07C70560000000008A
:109260004755414E479401BF01AB065F07F401C06B
:1092700001AB065F07CD01B401AB065F080901C869
:1092800001AB065F07C801B0000000004B55414E1E
:10929000479402D802C5065F07F402D902C5065FEB
:1092A00007CD02CD02C5065F080902E102C5065FCF
:1092B00007C802C9000000004855414E4794021FEC
:1092C000020B065F07F40220020B065F07CD0214B3
:1092D000020B065F08090228020B065F07C802108E
:1092E000000000005A4855414E47A4072D071806B4
:1092F0005F07F4072E0718065F07CD072207180639
:109300005F080907360718065F07C8071E00000038
:10931000434855414E47A40072005E065F07F400C3
:1093200073005E065F07CD0067005E065F080900F8
:109330007A005E065F07C80064000000032106484B
:1093400002680A430260054802680A430260044852
:1093500080470448004700002405004054050040B1
:10936000BD890200AD9E02001B5B313B33326D3A7A
:1093700044454255473A73657420706172616D4D82
:109380006F64696679466C61673A25640D0A00006E
:109390005455414E94061405FF065F07F306150564
:1093A000FF065F07CC060F05FF065F0808061A05D3
:1093B000FF065F07C7060E004A494194028D027EF0
:1093C000026C07F1028E027E026C07CA0284027EE2
:1093D000026C0806029C027E026C07C50280000037
:1093E0005149419404DD04CE026C07F104DE04CE41
:1093F000026C07CA04D404CE026C080604EC04CE46
:10940000026C07C504D000005849419406A906998A
:10941000026C07F106AA0699026C07CA069F069914
:10942000026C080606B80699026C07C5069B000088
:109430004249414E940012000B026C07F3001300E6
:109440000B026C07CC000E000B026C080800190020
:109450000B026C07C7000D005049414E94047F0475
:1094600078026C07F304800478026C07CC047C0457
:1094700078026C080804860478026C07C7047A0036
:109480004D49414E9403A8039E026C07F303A903C0
:109490009E026C07CC03A2039E026C080803B10372
:1094A0009E026C07C703A0004449414E94010D0180
:1094B00003026C07F3010E0103026C07CC010701E4
:1094C00003026C080801180103026C07C7010500BC
:1094D0004E49414E94040703FC026C07F304080351
:1094E000FC026C07CC040103FC026C0808041203A4
:1094F000FC026C07C703FE004C49414E94032E0347
:109500001F026C07F3032F031F026C07CC03250314
:109510001F026C0808033A031F026C07C7032100EF
:109520004A49414E94028F027E026C07F302900278
:109530007E026C07CC0285027E026C0808029D0246
:109540007E026C07C70281005149414E9404DF043A
:10955000CE026C07F304E004CE026C07CC04D50401
:10956000CE026C080804ED04CE026C07C704D100DB
:109570005849414E9406AB0699026C07F306AC06B7
:1095800099026C07CC06A00699026C080806B90679
:1095900099026C07C7069C005049414F940481040E
:1095A00078026C07F504820478026C07CE047D040F
:1095B00078026C080A04870478026C07C9047B00EF
:1095C0004D49414F9403AA039E026C07F503AB0378
:1095D0009E026C07CE03A3039E026C080A03B2032B
:1095E0009E026C07C903A1004449414F94010F0139
:1095F00003026C07F501100103026C07CE0108019C
:1096000003026C080A01190103026C07C901060074
:109610005449414F94060705FF026C07F5060805FB
:10962000FF026C07CE060305FF026C080A060D0553
:10963000FF026C07C90601004E49414F94040B0319
:10964000FC026C07F5040C03FC026C07CE04030358
:10965000FC026C080A041403FC026C07C904000035
:109660004C49414F940332031F026C07F503330347
:109670001F026C07CE0327031F026C080A033C037A
:109680001F026C07C90323004A49414F9402930209
:109690007E026C07F50294027E026C07CE028702FE
:1096A0007E026C080A029F027E026C07C9028300D8
:1096B0005149414F9404E304CE026C07F504E404DD
:1096C000CE026C07CE04D704CE026C080A04EF0465
:1096D000CE026C07C904D3005849414F9406AF0627
:1096E00099026C07F506B00699026C07CE06A20631
:1096F00099026C080A06BB0699026C07C9069E000F
:109700004755419401B901AB065F07F101BA01ABBE
:10971000065F07CA01B101AB065F080601C501ABD0
:10972000065F07C501AD00004B55419402D202C54A
:10973000065F07F102D302C5065F07CA02CA02C567
:10974000065F080602DE02C5065F07C502C7000005
:10975000485541940219020B065F07F1021A020BE9
:10976000065F07CA0211020B065F08060225020BFC
:10977000065F07C5020D0000475541499401BB0132
:10978000AB065F07F201BC01AB065F07CB01B2017C
:10979000AB065F080701C601AB065F07C601AE0056
:1097A0004B5541499402D402C5065F07F202D50227
:1097B000C5065F07CB02CB02C5065F080702DF02C2
:1097C000C5065F07C602C8004855414994021B02FE
:1097D0000B065F07F2021C020B065F07CB021202A8
:1097E0000B065F08070226020B065F07C6020E0083
:1097F0004455414E9401210103065F07F301220104
:1098000003065F07CC011C0103065F08080127015E
:1098100003065F07C7011B004C55414E94034403E8
:109820001F065F07F30345031F065F07CC034103D1
:109830001F065F08080348031F065F07C7034000B1
:109840004755414E9401BD01AB065F07F301BE01D0
:10985000AB065F07CC01B301AB065F080801C70187
:10986000AB065F07C701AF004855414E94021D0289
:109870000B065F07F3021E020B065F07CC02130202
:109880000B065F08080227020B065F07C7020F00DE
:109890004A55414E9402A6027E065F07F302A702D4
:1098A0007E065F07CC02A3027E065F080802AB02B9
:1098B0007E065F07C702A2005155414E9404F6048C
:1098C000CE065F07F304F704CE065F07CC04F3046B
:1098D000CE065F080804FB04CE065F07C704F2004B
:1098E0005855414E9406C20699065F07F306C30613
:1098F00099065F07CC06BF0699065F080806C706EB
:1099000099065F07C706BE005A55414E94077E0769
:1099100016065F07F3077F0716065F07CC07790770
:1099200016065F080807840716065F07C707780052
:109930004355414E9400BF005C065F07F300C00032
:109940005C065F07CC00BA005C065F080800C50033
:109950005C065F07C700B9005355414E9405BB052F
:1099600059065F07F305BC0559065F07CC05B70527
:1099700059065F080805C10559065F07C705B60007
:1099800044554F9401250103065F08010126010398
:10999000065F07E001200103065F080E01290103AD
:1099A000065F07DD011F000054554F94061805FFA0
:1099B000065F0801061905FF065F07E0061305FFAD
:1099C000065F080E061C05FF065F07DD0612000095
:1099D0004E554F94041B03FC065F0801041C03FC56
:1099E000065F07E0041803FC065F080E041E03FC74
:1099F000065F07DD041700004C554F940346031F14
:109A0000065F08010347031F065F07E00343031FC8
:109A1000065F080E0349031F065F07DD03420000CF
:109A200047554F9401C301AB065F080101C401AB68
:109A3000065F07E001B801AB065F080E01CA01AB83
:109A4000065F07DD01B700004B554F9402DC02C5ED
:109A5000065F080102DD02C5065F07E002D102C50C
:109A6000065F080E02E302C5065F07DD02D00000B4
:109A700048554F940223020B065F08010224020B93
:109A8000065F07E00218020B065F080E022A020BAF
:109A9000065F07DD021700005A48554FA40731073B
:109AA00018065F080107320718065F07E007260758
:109AB00018065F080E07380718065F07DD07250040
:109AC0004348554FA40076005E065F08010077000A
:109AD0005E065F07E0006B005E065F080E007C001C
:109AE0005E065F07DD006A005348554FA405730505
:109AF0005B065F08010574055B065F07E005680506
:109B00005B065F080E057A055B065F07DD056700EB
:109B100052554F9405240515065F080105250515C6
:109B2000065F07E0051F0515065F080E05280515E9
:109B3000065F07DD051E00005A554F940782071681
:109B4000065F080107830716065F07E0077D071613
:109B5000065F080E07860716065F07DD077C000014
:109B600043554F9400C3005C065F080100C4005CCD
:109B7000065F07E000BE005C065F080E00C7005CE1
:109B8000065F07DD00BD000010B5074979441831B4
:109B9000064C7C44163404E0081D0A68891888477E
:109BA0000100A142F8D110BD000200002C0200000B
:109BB0001B5B313B33376D3A494E464F3A4D414975
:109BC0004E5F53544154455F535441525455500DC8
:109BD0000A0000001B5B313B33316D3A4552524F56
:109BE000523A4644532052454144204552524F5226
:109BF0003A25640D0A0000001B5B313B33326D3A9D
:109C000044454255473A676574576F7264446174BE
:109C1000613A25642C3C25733E0D0A001B5B313BE9
:109C200033376D3A494E464F3A47656E65726174F7
:109C3000696E67206661696C7572650D0A000000C7
:109C40005A48414E47840758071807F40759071820
:109C500007CD0741071808090770071807C8073C10
:109C6000000000005A48454E47840760071807F96E
:109C70000761071807D6074A071807FD0764071882
:109C800007D20747000000005A484F4E4784076537
:109C9000071808020766071807E1074D0718080F9D
:109CA0000772071807DE074B000000004348414ECB
:109CB00047840099005E07F4009A005E07CD008497
:109CC000005E080900B1005E07C8008000000000C7
:109CD0004348454E478400A1005E07F900A2005E9C
:109CE00007D6008B005E07FD00A5005E07D2008846
:109CF0000000000043484F4E478400A6005E080263
:109D000000A7005E07E1008E005E080F00B3005E52
:109D100007DE008C000000005348414E478405993F
:109D2000055B07F4059A055B07CD0583055B08090C
:109D300005AF055B07C8057E000000005348454E8F
:109D4000478405A1055B07F905A2055B07D6058CCD
:109D5000055B07FD05A5055B07D205870000000030
:109D60004A494F4E47930298027E026C08020299BC
:109D7000027E026C07E1028A027E026C080F02A0DA
:109D800000000000534855414E47A3056F055B0690
:109D90005F07F40570055B065F07CD0564055B068C
:109DA0005F08090578000000ADF1FFFFB414000062
:109DB0005C28002000000000274BFFFF0E01000080
:109DC000F20B0000E81F0020174BFFFFF706000012
:109DD000300000003C2800201B5B313B33316D41DB
:109DE00050505F4552524F523A4552524F523A46A6
:109DF0006174616C0D0A00000120C046002801D08A
:109E0000FFF7C2FE00BF00BF002000BF00BFFAF78F
:109E100057FB00F000F880B500F002F801BDFEE746
:109E200007463846F4F7DCFDFBE7FEE71B5B313BFA
:109E300033376D3A494E464F3A6578616D206D6F04
:109E400064650D0A000000001B5B313B33376D3A3F
:109E5000494E464F3A7374756479206D6F64650D91
:109E60000A0000008268521C82604268002A06D004
:109E70000268531C036011704168491E41607047BD
:109E8000FF2902D90020C0437047017001207047AC
:109E90000078401E8041C043C00F70476E616E0065
:109EA0004E414E00696E6600494E460000BF00BF3D
:109EB00000BF00BFFFF7A0FF00002E004300FEE739
:109EC000FEE7FEE7FEE7FEE7FEE7F312010001F022
:109ED00001032000402752021613683B2211015251
:109EE0008808F10F0110033C2800205C041003DCFB
:109EF0008E0200E00412E40412E80412EC0412F0F2
:109F00000412F40412F80412FC041003008F02007F
:109F10000404120804120C04121004121404100792
:109F2000E0FF0100C0B00100C80412D00412D80440
:109F300012E00412EC0412F40412FC04100304B145
:109F400001000C041214041220041228041230041C
:109F50001238041240041248041250041258041219
:109F60006004126804127004127804128004128CC7
:109F700004129404129C0412A40412AC0412B4043B
:109F800012BC0412C40412CC0412D40412DC041255
:109F9000E40412EC0412F40412FC041304B27C1165
:109FA00004121404121C04122404123004123C047F
:109FB000124804125404126004126C041278041241
:109FC000800412880412900412980412A00412A8AB
:109FD0000412B00412B80412C40412D00412DC0437
:109FE00012E80412F404100314B3010034041254F0
:109FF0000412740412940412B40412D40412F4046B
:10A000001314B42011041254041274041294041290
:10A01000B40412D40412F4041314B520110412541D
:10A020000412740412940412B40412D00412F00442
:10A030001310B6B4110412500412700412900412DA
:10A04000B00412D00412F0041310B72011041250FF
:10A050000412700412900412AC0412CC0412EC042A
:10A0600010030CB801002C0412480412640412847A
:10A070000412A40412C40412E4041704B91811044D
:10A0800012400412600412800412A00412C00412D0
:10A09000E0041700BAB811041240041260041280E0
:10A0A00004129C0412BC0412DC0412FC04171CBB36
:10A0B000541104125C04127C04129C0412BC04129D
:10A0C000DC0412FC04131CBC201104125C04127C7E
:10A0D00004129C0412BC0412DC0412FC041B18BD04
:10A0E000101104100390930200580812780412987B
:10A0F0000412B40412D40412F4041714BE28110478
:10A10000124C04126C04128C0412AC0412CC041213
:10A11000E8041B08BF5C110412480412680412888A
:10A120000412A80412C80412E8041308C020110481
:10A1300012480412680412880412A80412C80412F7
:10A14000E8041308C120110412480412680412889C
:10A150000412A80412C80412E8041308C22011044F
:10A1600012440412640412840412A40412C40412DB
:10A17000E0041700C3281104124004126004128086
:10A180000412A00412C00412E0041300C4E8110475
:10A1900012380412580412740412940412B40412F3
:10A1A000D40412F4041710C5CC1104125004127018
:10A1B0000412900412B00412D00412F0041310C65A
:10A1C00020110412500412700412900412B00412F0
:10A1D000D00412F0041310C720110412500412709E
:10A1E0000412900412B00412D00412F0041310C828
:10A1F00020110412500412700412900412AC0412C4
:10A20000CC0412EC041B0CC92C1104124C04126C6B
:10A2100004128C0412AC0412CC0412EC04130CCA09
:10A22000201104124C04126C04128C0412AC04129F
:10A23000CC0412EC04130CCB201104124C04126C4D
:10A24000041003409C02006404228804111012A828
:10A250000412C80412E8041708CC50110412440474
:10A2600012640412840412A40412AC2C12D004123E
:10A27000F40412C01012E0041700CD5C1104124067
:10A280000412600412800412A00412C00412E0043C
:10A290001003189D02003C041300CE281104124044
:10A2A0000412600412800412A00412BC0412DC0424
:10A2B00012FC041B1CCF8C110412580412700412DF
:10A2C000900412A80412C80412E8041308D09811CC
:10A2D0000412480412680412840412A40412C40470
:10A2E00012E4041F04D13003110412440412640464
:10A2F00012840412A40412C40412E0041300D284D1
:10A30000110412400412600412800412A00412C04E
:10A310000412E0041300D32011041240041260045C
:10A3200012800412A00412C00412DC0412FC0413F4
:10A330001CD4A41104125C04127C04129C0412BCF0
:10A340000412DC0412FC04131CD5201104125C045A
:10A35000127C04129C0412BC0412DC0412FC041FC4
:10A360001CD6B0041D4C0312E00410030894020034
:10A37000300412580412800412A804123C2012D097
:10A380000812F8041003209502004804127004100B
:10A3900003249002005004127C0412A80412D40476
:10A3A000125C2C12981C12C00412E80410031096C0
:10A3B0000200380412600412880412B00422D8107B
:10A3C000258010029102002C04100300970200283F
:10A3D00004125004127C40129C0412780C12A00447
:10A3E00012C80412582412840412B00412F010127D
:10A3F000BC20100318980200400412DC0C126808FC
:10A4000012900412B80422E01411281003089202DA
:10A4100000340412FC20130899D4110412580412B9
:10A420006014128C0412B80412E4041210F41284A2
:10A430008C12801C12A80412D00412F80413209A63
:10A44000E8110412700412980412C00412E80413F4
:10A45000109BD01104126004171CD7581104124C21
:10A4600004125C04126C04127C04128C04129C040E
:10A4700012A80412B80412C80412D80412E8043C4A
:10A48000010024F46F072DC407F00108B89E0204F0
:10A4900052FF01F200BA1410010000BC0C21404F21
:10A4A000B027BC074FE7F9120812E10852FD0CCFA4
:10A4B000E5F92608129134210152813C4101114EE7
:10A4C00022140D5200011004590A020003FF0E125B
:0BA4D000100430040C0400D167021BD4
:0400000500029EADAA
:00000001FF
