:020000040000FA
:10000000C0070000D1060000D1000000B1060000CA
:1000100000000000000000000000000000000000E0
:100020000000000000000000000000005107000078
:100030000000000000000000DB000000E500000000
:10004000EF000000F9000000030100000D010000B6
:1000500017010000210100002B0100003501000004
:100060003F01000049010000530100005D01000054
:1000700067010000710100007B01000085010000A4
:100080008F01000099010000A3010000AD010000F4
:10009000B7010000C1010000CB010000D501000044
:1000A000DF010000E9010000F3010000FD01000094
:1000B00007020000110200001B02000025020000E0
:1000C0001FB5C046C04600F0EFFA04B00FB41FBD24
:1000D00008205A49096809580847382057490968CB
:1000E000095808473C2055490968095808474020E5
:1000F0005249096809580847442050490968095875
:10010000084748204D490968095808474C204B4981
:10011000096809580847502048490968095808479C
:100120005420464909680958084758204349096836
:10013000095808475C204149096809580847602068
:100140003E4909680958084764203C49096809582C
:100150000847682039490968095808476C20374919
:100160000968095808477020344909680958084740
:100170007420324909680958084778202F490968CE
:10018000095808477C202D490968095808478020EC
:100190002A490968095808478420284909680958E4
:1001A0000847882025490968095808478C202349B1
:1001B00009680958084790202049096809580847E4
:1001C00094201E4909680958084798201B49096866
:1001D000095808479C201949096809580847A02070
:1001E0001649096809580847A4201449096809589C
:1001F0000847A8201149096809580847AC200F4949
:10020000096809580847B0200C4909680958084787
:10021000B4200A49096809580847B82007490968FD
:1002200009580847BC2005490968095808470000D3
:1002300003480449024A034B7047000000000020B5
:10024000C0070000C00700000122D84B5A6000BF61
:10025000D74A1268002AFBD0016000BFD44A126856
:10026000002AFBD00022D14B5A6000BFD04A12684E
:10027000002AFBD07047F0B505460E46174600240D
:1002800006E0A200B158A2005019FFF7DDFF641C80
:10029000BC42F6D30020F0BD0120C043C549086030
:1002A000401048607047014601229204086890425D
:1002B00001D9102070470020FCE7F0B505460C4638
:1002C0001646002706E028462168FFF7BDFF2D1DD2
:1002D000241D7F1CB742F6D3F0BD70B505460C4611
:1002E0002E460BE0304600F075F9FF2C01D80024B3
:1002F00001E0FF3C013C012080023618002CF1D1C6
:1003000070BD0146012212044868904201D90920BB
:100310007047A9484069401C01D10F20F8E7002030
:10032000F6E7FEB504462068030000F037FA05043E
:100330002B4249598B00201DFFF7E3FF0546002D96
:1003400001D02846FEBDFFF7A7FF0120C00200F044
:1003500041F9042221469948FFF78DFF002801D07A
:100360000320EFE708222146944800F06DF90028A9
:1003700006D1002192480068FFF766FF00F00CF9F3
:100380000320DFE7A768E6686068019031463846D9
:10039000FFF7A3FF324638460199FFF78EFFB20000
:1003A0003846019900F050F9002800D1CAE703202F
:1003B000C8E700F0E3F9834800688349086041E03A
:1003C00060680190E668A0680090B200009901980A
:1003D00000F03AF90746002F00D1B3E70E20B1E74D
:1003E000201DFFF760FF0546002D01D02846A9E734
:1003F0006068002807D1FFF74FFF0320800200F05C
:10040000E9F800F0C9F8FFF747FF0120C00200F04B
:10041000E1F8042221466948FFF72DFF002801D0AA
:1004200003208FE708222146644800F00DF90028D8
:1004300006D1002162480068FFF706FF00F0ACF823
:1004400003207FE700BF00207CE770B505460C461F
:10045000182D04D12068FFF764FF206002E001201E
:10046000206000BF00BF70BDF0B589B05248406940
:1004700003905248806881000398081802900398FE
:10048000000B01900121090302984018401E000B47
:1004900000900124002520462946019A00F0C4F866
:1004A0000022401E91410791069001260027304608
:1004B0003946009A00F0B8F80022401E914105919B
:1004C0000490049BDB43059AD2430698184307998E
:1004D00011430791069037490698086007984860CD
:1004E00009B0F0BD70B53448446934488568466841
:1004F000AA003146204600F0A7F8002801D00020CD
:1005000070BD0120FCE72D484068002801D0012083
:1005100000E000200546FFF7E5FF002807D0FFF7C1
:10052000BBFE0320800200F055F800F035F8FFF71D
:100530009BFF002D0ED020484669204884684768FC
:1005400021463046FFF7C9FE224639463046FFF7BE
:10055000B4FE00BF00F020F810B5184844681A48EF
:100560000460204600F0DCF810BD15480068006803
:10057000401C01D100BFFEE710480068002802D0EF
:10058000042806D101E0FFF7BEFFFFF7E5FF00BF3B
:10059000FEE700BF00BFFEE7BFF34F8F0B480C49DB
:1005A000C860BFF34F8F00BFFEE7000000E50140C9
:1005B00000E40140000600400010001000080000A8
:1005C000B8070000BC070000000000200400FA0586
:1005D00000ED00E010B50146104B1A6808460223F2
:1005E0000F4C636000BF0F4B1B68002BFBD0531CEC
:1005F00004D0904202D20A4B186101E0084B986087
:1006000000BF084B1B68002BFBD00023044C636029
:1006100000BF044B1B68002BFBD010BD0010001066
:1006200000E5014000E4014010B5202A04DB01464A
:10063000203A9140002010BD914020239C1A03468F
:10064000E3401943904010BD034610B50B439B0790
:100650000FD1042A0DD308C810C9121FA342F8D025
:1006600018BA21BA884201D9012010BD0020C04328
:1006700010BD002A03D0D30703D0521C07E000208E
:1006800010BD03780C78401C491C1B1B07D1037854
:100690000C78401C491C1B1B01D1921EF1D118463D
:1006A00010BD70477047704710B500F007F810BDD7
:1006B000014B1B68DB6818470000002019481A49E5
:1006C0007047FFF7FBFFFFF7FBFC00BD20BFFDE716
:1006D0001649174C24688C420BD1164B1B68994263
:1006E0000CD1154B154A1360186810498842EDD09B
:1006F0000AE0134880F30888124B18470F4A13602A
:1007000018680A498842E1D080F308880E49884277
:1007100004DD0E48026802210A4302605B68184744
:100720000346DFE7C0070000C0070000FFFFFFFF30
:10073000000C000014100010001000000000002049
:10074000000400206B05000000200020240500406C
:100750000D48704502D1EFF3098101E0EFF3088104
:10076000886902380078182802D1C046074A104725
:10077000074A12682C3212681047000000B5054B7A
:10078000054A9B58984700BDFDFFFFFF4B04000042
:1007900000000020001000000400000030B4744687
:1007A000641E2578641CAB4204D3635D5B00E318D0
:1007B00030BC18471D46F8E7000C00000010000090
:101000007811002031A90100752F000081A801008E
:1010100000000000000000000000000000000000D0
:101020000000000000000000000000009DA9010079
:101030000000000000000000752F0000752F000068
:1010400005AA01000BAA0100752F0000752F0000F2
:10105000752F0000752F0000752F0000752F000000
:1010600011AA0100752F0000752F000017AA0100BA
:10107000752F00001DAA010023AA010029AA010062
:10108000752F0000752F0000752F0000752F0000D0
:10109000752F0000752F0000752F0000752F0000C0
:1010A0002FAA010035AA0100752F0000752F00003E
:1010B000752F0000752F0000752F0000752F0000A0
:1010C00000F002F819F015FC0CA030C808382418FC
:1010D0002D18A246671EAB4654465D46AC4201D170
:1010E00019F007FC7E460F3E0FCCB6460126334270
:1010F00000D0FB1AA246AB4633431847A09E01001E
:10110000C09E01000023002400250026103A01D3D0
:1011100078C1FBD8520700D330C100D50B607047AF
:101120001FB5C046C04619F081FB04B00FB41FBD07
:1011300082690249816102481044704745110000EC
:101140000100000001B41EB400B510F070F901B444
:101150000198864601BC01B01EBD0000F0B44046B7
:10116000494652465B460FB402A0013001B506481D
:10117000004700BF01BC86460FBC804689469246A8
:101180009B46F0BC70470000C110000070B50546DA
:101190000C46164602E00FCC0FC5103E102EFAD2B8
:1011A000082E02D303CC03C5083E042E07D301CC7E
:1011B00001C5361F03E021782970641C6D1C761E62
:1011C000F9D270BD70B505461A4C08202070A01CDD
:1011D00000F083F85920A0802946204606F081FCC3
:1011E00070BD10B506F08AFC12490020891E0870F7
:1011F00010BD70B50C460F49891E0978002905D02D
:1012000001466039532905D301200EE0602801D042
:1012100009480AE0094E211D80008019FF380EC9D7
:101220008138256806682846B047206070BD0120D7
:10123000704700000A00002001300000E8AA010009
:101240008307FF22DB0E9A408907090E9940002888
:101250000BDA0007000F0838830827489B0018188E
:10126000C36993430B43C3617047830823489B00C2
:101270001B181868904308431860704710B504465F
:1012800000210120FFF7DCFF00211820FFF7D8FF25
:1012900000210B20FFF7D4FF02211920FFF7D0FF18
:1012A00002210D20FFF7CCFF02210E20FFF7C8FF1F
:1012B00002210F20FFF7C4FF0221C81FFFF7C0FF64
:1012C00003211620FFF7BCFF03211520FFF7B8FF0D
:1012D0002046FFF777FF002010BD8721018070476F
:1012E00010B5FFF77EFF10BD0548704710B5FFF73A
:1012F00080FF10BD7047704700ED00E000E400E0A3
:1013000003F9004330B5FD4D044610280AD0112CD6
:1013100006D028468178122C06D0132C08D0FFDF87
:10132000AC7030BDFFDFFBE71129F9D0FFDFF7E735
:101330001129F5D0FFDFF3E770B50EF0EAF90446A6
:101340000FF035FE201AC4B206200CF0DDFB054676
:1013500006200CF0E1FB2E1A07200CF0D5FB054609
:1013600007200CF0D9FB281AE44932188878122893
:101370000DD00023D21813280BD0002012180878A3
:10138000022808D000201018201AC0B270BD012316
:10139000F0E70120F2E70120F5E710B5D74994B056
:1013A000C878002815D017206A46107000A80622B9
:1013B0000230091D19F0C9F809A968460AF052F966
:1013C0000446112802D0002C00D0FFDF204614B0C4
:1013D00010BD3220E8E710B502210CF0E7FB10BD8C
:1013E000FFB595B01D460E460746FFF7F4FF040013
:1013F0000AD02078222804D3A07F8006C00FA842FC
:1014000004D1082019B0F0BDBD48FBE7372168467C
:1014100001704780002D05D0012101714671179997
:10142000817102E000206946087109A968460AF046
:1014300019F9A07FDF21084069010843A077002047
:10144000E0E730B50446084620380D46030019F0A1
:101450003DFB0A06080D1D2429363B40454AFFDFA7
:1014600042E0207820283FD1FFDF3DE0A34801780B
:10147000032939D08078132836D02078242833D017
:10148000252831D023282FD0FFDF2DE020782228F7
:101490002AD0232828D8FFDF26E02078222823D04E
:1014A000FFDF21E0207822281ED024281CD0262807
:1014B0001AD0272818D0292816D0FFDF14E020786A
:1014C000252811D0FFDF0FE0207825280CD0FFDF82
:1014D0000AE02078252807D0FFDF05E020782828BB
:1014E00002D0FFDF00E0FFDF257030BD30B5854C56
:1014F0000B88854A022801D0934204D09D1FA54243
:1015000025D2022802D04D88954203D04D88AD1FC8
:10151000A5421CD24C88A34219D88B88FF25F435EC
:10152000AB4214D8022802D0C888904205D0C8889F
:10153000744D0A382D1FA84209D2C888904208D09D
:10154000944206D05B1C63438000834201DB07208A
:1015500030BD002030BD70B5044610F097F900286A
:1015600033D12079002806D0082802D8217B082909
:1015700005D9072070BD217B0029FAD0F6E70028A5
:1015800004D0206810F082F900281ED1207B0028AA
:1015900004D0A06810F07AF9002816D1002508E0E0
:1015A0002068A900405810F071F900280DD16D1C79
:1015B000EDB22079A842F3D800250AE0A068A9007E
:1015C000405810F063F9002801D0102070BD6D1C48
:1015D000EDB2207BA842F1D8002070BD10B5028981
:1015E0004A4B111F994213D24189042910D3DB1CA5
:1015F00099420DD891420BD80178890706D54068E9
:10160000002803D0FFF7A7FF002800D1002010BD5D
:10161000072010BDFFB50022099B002802D0994287
:1016200005D858E0002902D1002004B0F0BD0920FF
:10163000FBE7845C002C12D087187D78112D43D0F5
:1016400010DC2B0019F042FA0A401726262C2C2E0B
:101650002E363640835C002B30D1521CD2B28A42E7
:10166000F8D3E1E71D2D2FDA123D2B0019F02EFAE9
:10167000042C2C121A2C022CD9D1BB78039C072BDA
:10168000237001D25B0701D40A20CEE7029B01241C
:101690001B7816E0E343DB0708E0012C08D013E0D9
:1016A0000620C2E70F2523072D075B19002BF4D076
:1016B0003046BAE7029B1B789C0701D50B20B4E7A4
:1016C00002242343029C2370835C521C9A18D2B2DA
:1016D0008A4202D9ABE7192676028A42A9D3A3E748
:1016E00010B504780B46002C14D00121084A012CB7
:1016F00013D0022C17D0032C1FD11AE0A801002010
:10170000023000007B0C0000FFFF0000FD3F0000E6
:10171000023200000021197011E0197081798909E5
:1017200003290AD10BE0197081798909012904D1B3
:1017300005E019708179890901D0104610BD411C5E
:101740000622581C18F001FF002010BD08B51346F2
:10175000002806D0F6A00068009048796A46800903
:10176000105C18700622581C18F0EFFE08BD30B54A
:101770000C46097895B0222902D2082015B030BD58
:10178000282369460B704880132A03D03B2A01D0D6
:101790000720F3E708460A7109A909F063FF05006D
:1017A00003D121212046FFF74CFE2846E6E700B58D
:1017B00095B0232369460B70488010888880508834
:1017C000C880D08848819088088100208881C8819D
:1017D00009A9684609F046FF15B000BD70B50E4670
:1017E000050003D00021092010F011F80120D14C90
:1017F000022EE0701BD0032E00D0FFDF0621201D3B
:101800000FF056FD607A8006800E6072FFF7C5FD0E
:10181000608A00280AD0002D08D083000122002110
:1018200009200FF065FF092800D0FFDF70BD0321FC
:10183000E01D0FF03DFD607A40218006800E0843D8
:101840006072E01C02F0E7FCE0E7F0B585B0022131
:101850006846B84E0171F18AC18000275AE001A89C
:101860000CF00CF9050007D0F08A002858D00020B1
:10187000F0826946C8804BE0039C2078212847D03D
:10188000A07F01072FD520462330009068462346CD
:10189000A28E00892146363301F051FD050003D0A8
:1018A00011282ED0FFDF2CE0A07FF7210840A07781
:1018B000E17F480849074000C90F0843FD21014066
:1018C0000007C00F400001432046E17720304178F7
:1018D000C906C90E01702078282823D12921204665
:1018E000FFF7AFFD1EE0400712D56846224600898B
:1018F00021460E32FFF75BFF050004D0112800D00F
:10190000FFDF00250EE0A07FFB210840A07709E063
:101910007F1CFFB202200CF0F7F8401CB8429ED8A2
:10192000052D07D06846C088F082052D04D02846D2
:1019300005B0F0BD0020F0820020F9E7FEB50400FC
:1019400000D1FFDF72202070606808250178794E91
:10195000091F0B0019F0BAF811F10A0B4EF00B0C2D
:10196000F0F0350B0B0B0BF172F10B00FFDFFEBD3E
:1019700080880090FFF72FFD070000D1FFDF60781F
:10198000042128436070307D08433075212138469A
:10199000FFF757FD009806F001FE009803F018FDD0
:1019A000009804F03DFD022000990FF030FFB87F51
:1019B000EF210840B877FFF748FF0028D7D0FFDFB6
:1019C000FEBD86883046FFF706FD002800D1FFDF08
:1019D00060688078012800D0FFDF60688179304638
:1019E00007F060F80028EBD06178294361706168E6
:1019F000C880FEBD87883846FFF7EDFC060000D1A1
:101A0000FFDF60783946284360706068C0883081A5
:101A100060680089708160684089B08102200FF0A1
:101A2000F6FE0020B075B07F8007800F0228E0D15D
:101A3000FFF70BFF0028DCD0FFDFFEBD80783C28DD
:101A400003D0002702280ED000E0012700210091DA
:101A5000002804D03C2802D0022800D0FFDF0098E4
:101A6000002802D078E00121F1E760782843607017
:101A7000307D28433075002F62D16068022187884D
:101A8000009738460CF08AF80546032138460CF0DA
:101A900085F80290052138460CF080F80190042169
:101AA00038460CF07BF80746002D00D1FFDF029886
:101AB000002800D1FFDF0198002800D1FFDF002FB0
:101AC00000D1FFDF22212846FFF7BBFC6068807948
:101AD000012833D00227A87F0622800880003843DF
:101AE000A8776068C08A28816068008B6881606818
:101AF000408BA8816068C079E87561682846183015
:101B0000083118F022FD60680622807B68706168E9
:101B1000A81C0F3118F019FDA87F8107890F0098C4
:101B200006F02BFD012F0BD0022F15D0FFDFFEBDDD
:101B30000302FF01A80100201AE01DE00127CAE707
:101B40003078032800D0FFDF002108460FF05FFE49
:101B5000012000F065FFEAE7B078132800D0FFDF2E
:101B6000002107200FF053FE1120FFF7CBFBDEE72B
:101B7000204601F0DFFEDAE7607828436070D6E7A0
:101B8000F7B505460078002700090C463E460128B7
:101B90007ED0F84902287CD007280AD00A2879D0BC
:101BA000FFDF0298002C068001D02780668000208D
:101BB000BDE768682246037808320D2B3DD006DC6D
:101BC000042B68D0072B41D00A2B63D106E0122BDF
:101BD00043D0132B4BD0142BF7D1C8E01127092683
:101BE000002C7DD08088A0806968FB2389792172D0
:101BF000E14905460A7D1A400A7504210BF0E7FF0A
:101C0000052128460BF0E3FF002128460BF0DFFFFB
:101C1000012128460BF0DBFF032128460BF0D7FFFC
:101C2000022128460BF0D3FF062128460BF0CFFFF8
:101C3000072128460BF0CBFFB3E701270926002C2C
:101C4000CFD08088A080686880790EE012271026A7
:101C50008088214600F007FFA3E71C270926002CF7
:101C6000BFD04088A08068680079207299E78178A9
:101C70003C2941D010272026002CB2D08088A0809B
:101C80006868C08A60836868C08A2083686803E0E7
:101C90007EE0A7E0CBE03AE0008BA0836868408B51
:101CA000E0836968E07D497F4008C9074000C90FAB
:101CB0000843E0756968C007497FC00F49084900BB
:101CC0000843E0756968C8790831FFF73FFD696826
:101CD000224608460F308B7B01460F32184600E043
:101CE0007FE0FFF733FD68688079002802D001208B
:101CF000A07507E00220FBE71B270926002C70D007
:101D0000002020729C48F722017D11407DE01D27B4
:101D10003026002C65D0A18069680879491DFFF73D
:101D200015FD68682030C07AE0736868C0780428C0
:101D3000207C19D0400840002074F92108406968CF
:101D40001F22C9788907490F084320746968400732
:101D5000C97A400FC90008432074696820461130D1
:101D60000C3118F0F2FB1CE701210843E4E72027BF
:101D70001026002C63D0A18068682246407A207229
:101D800069680932CB1C88781946FFF7DFFC08E741
:101D9000287E012803D0022813D0FFDF01E71F2788
:101DA0001026002C4BD06888A080688B2081A88BDF
:101DB0006081E88BA081288CE0816F48DF22017D63
:101DC000A3E712271026688800F04DFE002C36D0BD
:101DD00068784007400F0328C5D16748FD22017D80
:101DE00093E72CE0287E030018F070FE0604111122
:101DF000212121271B270926002C20D0A18000208B
:101E000020725D48017D490849000175C9E61B271C
:101E10000926002C13D0A180287E012805D003209C
:101E200020725548EF22017D6FE70220F8E7214636
:101E30002846029A01F003FF79E6FFDFB1E6029837
:101E40000680B4E610B54C4894B08078132802D0D0
:101E5000082014B010BD22206946087009A9684600
:101E600009F000FC0446002107200FF0D0FC2046BA
:101E7000EFE700B5404895B08078122801D00820DF
:101E8000AAE41E216846017000218170C17009A971
:101E900009F0E8FB0028F3D1002107200FF0B7FC80
:101EA0001120FFF72FFA002096E400B5324895B0D4
:101EB0000078022803D0032801D008208CE41B21DD
:101EC000684601700021817009A909F0CBFB002848
:101ED000F4D1002108460FF09AFC012000F0A0FD8B
:101EE000002079E4F8B5244C030018F0EFFD0A0651
:101EF0006B176B6B6B6B38315D6BFFF7D6FF002890
:101F000026D105F030FD002822D0222101700021C9
:101F1000017605F006FD207D012141E08EB23046BC
:101F2000FFF759FA050000D1FFDF287821280FD0EC
:101F300005F019FD00280CD0122101700227077648
:101F400046800020A87505F0ECFC207D3843207504
:101F5000F8BD132229463046FFF709FCF8BDA578E5
:101F6000122D03D0132D09D0FFDFF8BDFFF781FF3D
:101F700006E00000FFFF0000A8010020FFF762FF5D
:101F80000028F2D105F0EFFC0028EED022210170EC
:101F9000122D07D00221017605F0C3FC207D10210F
:101FA0000843D4E70121F6E7607A8109012907D0C7
:101FB000800900D0FFDF03210020FFF70FFCF8BDF0
:101FC0000221F9E7FFDFF8BDF7B582B014460D0036
:101FD00000D1FFDF2046297818300827009001291A
:101FE00003D0022919D0FFDFA2E40298FFF7F3F92A
:101FF000060000D1FFDF0220B0751030207060783D
:102000000A22384360702946009818F09EFAF84872
:102010002022017D114301758AE40298FFF7DBF964
:10202000060000D1FFDF6988F248814208D1AA8802
:10203000824205D1132231460298FFF798FB77E4DC
:10204000814202D1A88800280BD01220207060782D
:102050000A22384360702946009818F076FA00206A
:1020600006E078230022022002990FF041FB0120B4
:10207000B0755DE430B5054695B00C4608460FF0E6
:1020800005FC00282FD1203D01212B0018F01EFD5A
:1020900006042640444A545B002108200FF091FBBF
:1020A000002802D0112015B030BD242069460870E8
:1020B00000A80522A11C023018F047FA09A96846B9
:1020C00009F0D0FA05002BD108230022114618464A
:1020D0000FF00EFB082823D0FFDF21E060680FF02F
:1020E00008FC002801D01020DDE73C216846017083
:1020F000218841806188818009A909F0B3FA05002F
:102100000ED1606800280BD06946098D018007E078
:10211000206802F0BCF802E0204600F0B7FC05465B
:102120002846C0E73D2208E0997000E0987009A9B0
:10213000184609F097FAF2E734226B461A702278B3
:10214000D207F3D0F0E70720ADE730B5054695B0EC
:102150000C4608460FF0B7FB002801D01020A2E77C
:10216000203D2B0018F0B2FC05042121232135006D
:102170002088FFF730F9002804D00078222803D205
:10218000082090E79C488EE7252168460170218849
:10219000418009A909F066FA050018D10AA90522AB
:1021A0000231A01C18F0D1F911E006250FE02068DB
:1021B000002808D00FF09DFB002801D0102506E074
:1021C000206802F059F88A480025408AA0802846F5
:1021D00069E7072067E786480A30704710B518217D
:1021E000834818F00FFA012000F01AFC1120FFF7C5
:1021F00089F87F4C00206074E12080006082211DFE
:10220000E01C05F07FFCE11C0722C81D18F09DF9B9
:10221000FFF7C3F8002800D0FFDF00F09FFC01F0BB
:102220003FFB10BD10B50C463E21204618F0EAF9E0
:10223000A07F80088000A077202020700020A0755B
:102240002034A07010BD7047FEB505460E46084606
:102250000FF01CFB002801D0102068E4644C002D16
:1022600002D0012D31D125E00722E11C684618F08B
:102270006CF9E11C3046FFF733FA0028EDD1FFF787
:102280008CF8070006D007226946E01C18F05DF9BB
:1022900038464CE43078002801D0012805D1544854
:1022A0000722E11C0A3018F050F9002109200FF034
:1022B000AEFA0FE03178002907D0012905D00229B4
:1022C00005D0032903D04D4831E407202FE4012035
:1022D000FFF784FA6574002029E410B504460FF076
:1022E000F2FA002801D0102010BD41492246C878DA
:1022F000091DFFF72BFA002010BDFFB599B0054668
:10230000002008A908746946087108A908730875AF
:102310001E46144628460FF0F7FA002804D120463E
:102320000FF0F2FA002802D010201DB0F0BD2846B0
:10233000204318D01F270BAB0CAA009728461A99E8
:10234000FFF768F90028F0D10DAB01AA314620460D
:102350000097FFF75FF90028E7D168460079C007CA
:1023600003D00A20E1E70720DFE702AF002D0FD0FE
:102370001A20694608721A9888722946F81C1A9A17
:1023800018F0E3F80EA902A809F06CF90028CCD1E6
:10239000002C0ED0202168460172867232462146FA
:1023A000F81C18F0D2F80EA902A809F05BF9002871
:1023B000BBD108A80E49007B48700020B5E770B576
:1023C00006460A200C46087015461146204609F0BC
:1023D00049F9002807D1382121702046294609F003
:1023E00041F900280CD0082801D10448401C70BDD8
:1023F000A8010020FFFF00000230000002320000B0
:102400002A462146304600F067FB0446082800D1E2
:10241000FFDF2046EBE7F0B50446F9A103C997B00A
:1024200014900027159120460FF030FA002807D1AC
:102430002078012807D160680FF028FA002802D020
:10244000102017B0F0BDF04D2878012801D00820E9
:10245000F7E707200BF060FB002804D12078002864
:102460000AD0012808D0FEF767FF002806D0287D93
:102470000107890F08D103E01220E2E71320E0E70B
:10248000C10701D1800701D51120DAE7208ADF4A90
:10249000014620399142217807D301297ED10028B5
:1024A0007CD1618A002979D110E0022901D0032969
:1024B00001D1A02872D3012908D0D3494978C9078E
:1024C00004D0618A002969D0B42967D8217800290D
:1024D00006D0012908D0022904D003295ED117E0D3
:1024E000002518E0022516E0002802D1608A0028A5
:1024F0000CD004256068007800280CD0012809D091
:10250000022807D0032805D0C1489AE70125F1E742
:10251000032500E00127207A002806D0012806D0F4
:10252000022806D0032860D105E0002604E0012639
:1025300002E0022600E00326002D01D0022D15D175
:10254000002E13D0E068002803D0FFF704F800281D
:1025500093D1AD484078800702D0AD48401E70E767
:10256000022D03D1022E40D0032E3ED01821684602
:102570000170218A4180218A81808571A248C078BA
:10258000002801D0012865D16946C87168460772E4
:1025900021780930012922D0062100E025E018F039
:1025A00031F869460E74207D8207C107D20F4007BB
:1025B000C90F5200C00F11438000014314A8405CB2
:1025C0006946C873002810D009A9684609F04AF87E
:1025D00000289AD1002D0AD0022D08D012E061689F
:1025E0000622491C17F0B1FFDBE7072029E7002E80
:1025F00008D0E068002805D009AA6946FFF7DFFE89
:102600000028ACD11B20694608700120887009A9F8
:10261000684609F027F80028A1D108A840791B28AE
:1026200018D12B0018F052FA05040406060409001C
:10263000032000E0022000F0F3F9012D0CD0608AA5
:10264000002809D000228300114610460FF050F8F0
:10265000002801D00320F4E60020F2E6F3B583B0B1
:102660000E46032508460FF04FF9002866D103985F
:10267000FEF7B1FE040004D02078222803D20820FF
:10268000B2E46448B0E4A07F8707BF0F002E05D0F6
:1026900031463846FEF72AFF0500F1D15A48012F8E
:1026A00004D0022F18D0FFDF28469DE4A27D3146DA
:1026B000012A02D0007D800701D5112094E4002971
:1026C00005D1684600F0E7FA0028D9D16946039899
:1026D00006F057F90546E7E7A17D022915D1007DEF
:1026E000800612D4002E04D0A07F40070BD4002116
:1026F00000E00121039806F099F90500D4D1A075F6
:10270000002ED1D003E01125CEE7002E16D03246A0
:1027100021460398FFF74BF805461128C4D1A07F46
:102720004007C1D42046082231460E3017F00DFF75
:10273000A07F04210843A0770025B5E7102053E4CB
:1027400070B50C460546FEF746FE010004D0224651
:102750002846FFF70CF84AE62E4848E600B595B043
:10276000312269460A70887009A9684608F07AFF24
:1027700015B000BD10B50123FEF732FE10BD0023D9
:1027800010B51A461946FEF72BFE10BD70B594B071
:1027900004460FF07BF8002802D0102014B026E683
:1027A0002046FEF71BFF0028F8D1174DA878112806
:1027B00001D00820F2E7FEF7BFFD002804D0287DF5
:1027C000C00603D51120E9E71320E7E71D2168467D
:1027D000017020780126C107C90F684681702189E0
:1027E00081806189C18020788007C10F684641726D
:1027F000E878002500280FD0012810D00320CDE76D
:102800000706050403020100A8010020E13F0000C3
:1028100002320000023000006846057201E068469E
:10282000067209A908F01EFF0028B7D1207880079A
:1028300008D56068002805D009AA6946FFF7BFFDE2
:102840000028ABD11E21684601708670C57009A9A9
:1028500008F008FF0028A1D1A08900F0F5F80400D5
:102860009CD11220FEF74EFD204697E7F0B595B0BB
:1028700015460C4606460FF047F8002809D12046B9
:102880000FF004F8002804D128460EF0FFFF0028BE
:1028900002D0102015B0F0BDAD4F387DC106890FB4
:1028A00001D1400701D51120F4E72046FEF796FE3E
:1028B0000028EFD120788107C90F314303D080076A
:1028C00003D5002E01D00720E4E729460220FEF7B9
:1028D0000DFE0028DED1B878112803D0122801D0CF
:1028E0000820D7E706200BF017F9002804D09848F5
:1028F0008078122802D005E01220CBE7FFF7B9FA62
:102900000028C7D1FEF718FD022801D21320C1E725
:102910002078800708D56068002805D009AA694694
:10292000FFF74DFD0028B5D12121684601702189AE
:10293000418061898180207800278007C10F684627
:10294000817120788007002815DB3078002807D0B7
:10295000012808D0022806D0032804D07D4899E732
:102960006846C77102E001206946C8710622711CE1
:1029700002A817F0EAFD7648C078002803D00128A5
:1029800004D0032086E76846877302E00120694689
:10299000887329886846018269884182A988818272
:1029A000E988C1820783478309A908F05BFE0028F4
:1029B0008AD1A08900F048F8040085D11320FEF7E1
:1029C000A1FC204666E730B5054695B00C460846A2
:1029D0000EF079FF002802D0102015B030BD284637
:1029E000FEF7F9FC002807D00178222902D3807F66
:1029F000800603D40820F0E75748EEE71321684625
:102A00000170458009A908F02DFE0028E5D108AA2B
:102A10000A2151567F2901D02170DEE70520DCE72D
:102A200030B54B4D040008D0012C04D0022C06D048
:102A3000032C04D0FFDF2C7030BDFFDFFBE72878CC
:102A40000128F8D0FFDFF6E710B5002809D0830091
:102A50000022114607200EF04BFE072801D003206C
:102A600010BD002010BD70B50C0006460DD0FEF75D
:102A7000B2FC050000D1FFDFA680288920812889CB
:102A800060816889A081A889E081B0E410B504461E
:102A90000068002806D00EF037FF002801D0102073
:102AA00010BD206801F0DBFBA088294C6082607CAF
:102AB00001280DD1002109200EF083FE002800D04E
:102AC0000120617A8909012904D00321FEF786FEDD
:102AD000002010BD0221F9E7F7B500260C46054697
:102AE0000B271AE02968B00009580978002903D09B
:102AF000012901D00720FEBDA170296806220958CE
:102B0000E01C491C17F021FD27702046029908F0AF
:102B1000A9FD0028EFD1761CF6B22879B042E1D8A1
:102B2000002639270FE0A868B10041581022A01CE8
:102B300017F00BFD27702046029908F093FD00283E
:102B4000D9D1761CF6B2287BB042ECD80020FEBD6D
:102B5000A8010020023200000230000010B506215A
:102B6000D04817F04FFD10BDFFB591B0149C204622
:102B70000EF08CFE002802D0102015B0F0BD2146CA
:102B80000120FEF7B3FC0028F7D101246846032199
:102B90008471C9028180002201A9204603F0EFFE62
:102BA0000028EAD1684615218471490281800026F7
:102BB0001C2102A8009617F027FD01200146684657
:102BC0001031017000200146684641708178F92774
:102BD0003940891C21438170017A02252943017201
:102BE00012998186C6861F2101870C9011980F903B
:102BF00001A80B9009AA0BA902A803F0ABFC0028BE
:102C0000BBD16846A74E808C308068468471A64947
:102C10008180807809AA3840801C410849006846B4
:102C200081708586058713A80F900BA902A803F071
:102C300091FC0028A1D16846808C7080311D1498C9
:102C400000F0EDF899E73EB5044608206946088093
:102C500020460EF01BFE002801D010203EBD21466C
:102C60000120FEF743FC0028F8D1208869468880BF
:102C70006088C880A0880881E0884881894801ABC5
:102C800080886A46002104F081F86946098808298D
:102C9000E4D003203EBD1FB504460020029008206A
:102CA00069460881204603910EF0F0FD002802D00D
:102CB000102004B010BD7B4802AA81887B4804F034
:102CC00009FA0028F5D169460989082901D00320AD
:102CD000EFE769460988218069464988618069462D
:102CE0008988A1806946C988E180E2E701B582B0A0
:102CF0000220694608806B4802AB40886A46002182
:102D000004F044F869460988022900D003200EBD6A
:102D10001CB50021009102216A46118001900EF03D
:102D2000D2FD002801D010201CBD5E486A464188B3
:102D30005E4804F0CFF9694609880229F4D00320DF
:102D40001CBDFEB5064615460F4608460EF09EFD14
:102D5000002801D01020FEBD1F2D01D90C20FEBD82
:102D600030460EF093FD4F4C002822D1208801A957
:102D700003F05AF90028F2D130786946487120886A
:102D800001A903F0E4FF0028E9D169460090087822
:102D900002210843694608704979090703D00821D0
:102DA0000843694608702088694603F06FFF0028D1
:102DB000D5D169460D8120883B4602AA002103F047
:102DC000E5FF69460989A942C9D00320FEBD7CB54B
:102DD00005460020009001900C460888694608804E
:102DE000284601950EF085FD002804D120460EF0FE
:102DF0006AFD002801D010207CBD002D03D068465C
:102E00000088002809D027486A460188274804F02E
:102E100061F96946098821807CBD0C207CBD30B5F4
:102E2000044693B000200D46079014210BA817F01C
:102E3000EBFB1C21684617F0E7FB6A461120107770
:102E400000205077107802210843107007A80C90DA
:102E5000012008AA907214486A46C01C10850AA86E
:102E60000B902088108460885084A0889084E0882B
:102E7000D084907FF9210840801C40084000907762
:102E800008209086108708A80F9010AA0BA9684602
:102E900003F060FB002803D110A8008828800020E0
:102EA00013B030BD10000020012A0000FFFF000019
:102EB00001202049C00308601F4900200870072036
:102EC0001E49C0058860704730B51B4D0446287800
:102ED000A04204D0002C02D0002800D0FFDF2878C8
:102EE000A0420BD00021164A14482C70002C18D098
:102EF000144B012C03D0022C0AD0FFDF30BD11602F
:102F0000022111605361032109068160416030BDD7
:102F100011600321116053610121C9058160416085
:102F200030BD116011600721C905816030BD00B559
:102F3000FFDF00BD80E100E01600002000F5014049
:102F400000F500406403002010B50DF03CFB10BDFF
:102F500003490020C863034902200860704700004D
:102F6000C01F004080E200E00E4A12680C498A420D
:102F70000AD118470B4A1268094B9A4204D101B58D
:102F80000EF04CFA03BC8E460749096809580847F9
:102F900006480749054A064B70470000000000003C
:102FA000BEBAFECA9800002004000020781100205C
:102FB0007811002070B50C46054606F09FFE2146AC
:102FC000284607F002FF70BD10B50EF0A5FD0EF00B
:102FD000D3F8FFF76DFF16F0A1F90EF0B5FC0EF077
:102FE00035FD10BD0348044A0168914201D100211A
:102FF0000160704798000020BEBAFECA7047704753
:1030000010FFFFFFDBE5B15100B001008700FFFFBB
:1030100010B504460EF03AFC002801D0102010BD77
:1030200020784006400F042807D86078072804D38A
:10303000A178102901D8814201D2072010BDE07883
:10304000410706D421794A0703D4000701D40807B1
:1030500001D5062010BD002010BD30B5C37F147807
:103060005B08A4075B00E40F2343C3771578FD24B6
:103070006D07ED0F23406D002B43C37713788878DD
:10308000DB0920405B001843887014784B78640695
:10309000DB06640FDB0E640123434B70137840089A
:1030A00040001B07DB0F184388705078487130BD13
:1030B000F0B50B78C4785B08E4075B00E40F2343AA
:1030C0000B70C478FD26A407E40F3340640023434B
:1030D0000B70C478FB256407E40F2B40A400234346
:1030E0000B70C778F7243F07FF0F2340FF003B43D7
:1030F0000B70117803794908DB074900DB0F19438E
:103100001170037931409B07DB0F5B00194311708D
:10311000037929405B07DB0F9B001943117000798D
:1031200021400007C00FC00001431170F0BD70B511
:1031300014460D46064604F016FC002809D0A221CC
:103140000170142221461830FEF720F804F0E9FB44
:1031500070BD132229463046FEF709FB70BD70B5DD
:1031600015460E46044604F0FEFB00280AD0222134
:103170000170448004222946183017F0E6F904F063
:10318000D0FB70BD132231462046FEF7F0FA70BD29
:1031900010B5FE4C207C00280AD12046FC4A21466E
:1031A00010380CF03AF9002800D0FFDF012020741D
:1031B00010BDFFB581B00B9E05461F461421304659
:1031C0000A9C17F021FA0C9800210160039800284E
:1031D00001D0029801E03878C007002812D020689A
:1031E0000EF071FB00283FD10398002807D120681A
:1031F000123030602068143070602068B0600C9825
:10320000216801603878800726D560680EF071FB70
:10321000002829D10298002829D0FEF7DCFF0146BA
:103220002846FF300722B53017F08FF9FFF7B0FFBF
:10323000D6480090F0606268002A0DD0FF20294631
:10324000B530FF31405DB6311032FEF77FFA102203
:103250006068009917F079F93878400712D5A068AE
:103260000EF031FB00280BD0102005B0F0BD6068D7
:103270000028F9D0F060FF35813560682863EBE7FE
:10328000A06830610020F0E730B50C4611212170B4
:103290000022054662702035A878002806D0042850
:1032A0000DD005280FD0062812D0FFDF20780009A6
:1032B000012803D92878C006C00E607030BD080709
:1032C000000F203002E00807000F30302070EDE7DB
:1032D0000807000F4030F9E710B5002803D0A924F3
:1032E000245C002C08D0A948447D0020002C0BD081
:1032F00008601060186010BD0446A8340C600146D8
:10330000D031F8301160F5E7A04C14340C60F0E7D0
:1033100010B58AB008236C466370019102910023B6
:103320009A490993039223744431059101466846F2
:103330000CF049F8002800D0FFDF0AB010BD70B5CE
:1033400094B015460C462C226946189E0A70488097
:10335000002B17D00822194601A817F0F6F8684686
:103360008581102231460E3017F0EFF809A9684622
:1033700008F078F9002803D1A17F10221143A1772A
:1033800014B070BD002001900290E8E7F0B5064649
:10339000008A8BB080B20D460390FEF71CF87B4983
:1033A0000446483930780F4668370091030017F01B
:1033B0008DFB12FAF93A0A3B7A819DADF8F7F6F5E2
:1033C000F4F360F3F3FAA07F8007800F012806D0A2
:1033D000002103980AF0EAFB050003D101E0012176
:1033E000F7E7FFDF387FC00905D068482946203855
:1033F000006E21310DE028462130032107460DF0F3
:1034000057FF384617F002F9624917F018F90846D5
:10341000394617F00CF970686866B068A8662078BD
:10342000252800D0FFDFFCE0A07F8007800F012867
:1034300006D0002103980AF0B9FB060003D101E091
:103440000121F7E7FFDF7078810702D52178252970
:1034500004D00121084370700BB0F0BD0220287029
:103460002020805D2871304621303136EE60A86022
:10347000F2E7A07F8007800F012806D00021039883
:103480000AF094FB040003D101E00121F7E7FFDF1C
:103490006078C10604D51420287041346C60DBE7E5
:1034A0000821084385E03948082148380DF000FF1D
:1034B000032017E02A206946087101A81022023073
:1034C000716817F042F805A810220230B16817F0B1
:1034D0003CF82E4901A84C3908F0C4F8002800D067
:1034E000FFDF0420287000986860B5E7E07FC00621
:1034F00000D5FFDFB0680090B3880622032103984F
:1035000005F0A8F80028A7D0FFDFA5E7002C00D120
:10351000FFDF7168002904D020461022233017F005
:1035200014F828212046FDF78CFFA07F8007800F2C
:1035300002280ED120462330002300901A4621464F
:103540000398FFF7FCFE112806D029212046FDF73D
:1035500078FF307A2034B4E0A07F000700D5FFDF89
:10356000A07F08210843A0770020A086204636309F
:1035700017F048F8E07FFB220146C9071040490FC9
:103580000843F72101408007C00F0DE07C020020B6
:10359000FFFF000040420F0034E07BE19CE092E03E
:1035A00063E008E043E079E1C0000143E177307A6D
:1035B0002034607050E7A07F8007800F012806D07C
:1035C000002103980AF0F2FA040003D101E001217E
:1035D000F7E7FFDF2046022175300DF069FE11206C
:1035E00028702046FF30B530686020466130017D8C
:1035F0002974407D6874FE48A86010306C346C619A
:10360000E86029E7A07F8007800F012806D000210D
:1036100003980AF0CBFA002803D101E00121F7E773
:10362000FFDF324621460398FFF781FD14E7002CA7
:1036300000D1FFDF20782128BCD93079012802D0C1
:10364000022808D103E0E07F10210843E077387FAB
:10365000012108433877324621460398FFF767FD7A
:1036600023212046FDF7EDFEF6E632790123032102
:10367000039804F099FE002813D0122028703279A4
:10368000AA802846A91D0C3008350191029000231C
:1036900000950321039804F006FF00288AD0FFDF7D
:1036A000DAE6A07F8007800F012806D0002103986A
:1036B0000AF07CFA040003D101E00121F7E7FFDF03
:1036C00030792070C8E60321039805F082FA0028BB
:1036D00097D113202870BFE6A07F8007800F0128B4
:1036E00006D0002103980AF061FA050003D101E039
:1036F0000121F7E7FFDF2E466036307D8007800F1F
:1037000001287DD1A07F8007800F0890E07F80078F
:10371000C70F03D00898012804D031E09020405D05
:10372000C00731D02946FF318131CA6A002A25D02D
:10373000107CF37C8007800F9B0018431074FD23DE
:103740001840E37FCA6ADB079B0F184310744008D8
:1037500040003843CA6A002F107415D0C86A214649
:103760001022233116F0F1FE28468030017C012220
:1037700011430174307E9043307601E0002F03D076
:103780000898022803D031E0307EC0072BD02846AD
:10379000FF308130826A002A25D0117CF37C8907B2
:1037A000890F9B0019431174FD231940E37F826A3E
:1037B000DB079B0F19431174490849003943826A9A
:1037C000002F11740FD02146806A1022233116F089
:1037D000BCFE307E01210843307628468030017CD3
:1037E000490849000174089802284FD00020182188
:1037F000484340196030007E80070AD5FF2000E072
:1038000007E0B13042592946307B6D311032FDF767
:103810009DFF052168460175307D80358107890F40
:1038200068464175317E8175297CC17570482221B9
:103830009C38039A0170417805ABC908C900C91CBE
:103840004170428004221946183016F07EFE684806
:103850009C3804F00BFA2078252805D0212807D0C1
:10386000FFDF2078222803D922212046FDF7E9FD39
:10387000A07F8007800F01280AD0002103980AF05A
:10388000A6F9002800D1E7E5FFDFE5E50120AEE776
:103890000121F3E7716800204870DDE5FFDFDBE51B
:1038A00070B55348524C4030017F00254906490EFF
:1038B000017725660BF050FD21461031204604F0BB
:1038C00054F92046203005740721403041712C30D6
:1038D000E066503060671030A06770BD70B50D466F
:1038E000FDF779FD040000D1FFDFFF21BD3128463F
:1038F00016F08AFE3E486430686120462330286115
:10390000A07F8007800F012809D002212846FF30C0
:1039100021300BF022FD002800D0FFDF70BD012117
:10392000F4E70A460146104610B5FF3021300BF08F
:1039300034FD10BDF0B505464068082601789BB0FF
:1039400008290DD00B2903D00C2938D10121817110
:10395000686887883846FDF73EFD040036D134E0BC
:1039600047883846FDF737FD040000D1FFDF207897
:10397000212824D0282824D1686802210C3001F0A5
:1039800034FA00281DD068680821001D01F02DFAC6
:10399000002816D02D21684601704780214610224C
:1039A000233101A816F0D1FD0FA9684607F05AFE91
:1039B000002800D0FFDF29212046FDF742FD1BB083
:1039C000F0BD687830436870F9E7FFDFA07F8107BA
:1039D000890F022902D1EF210840A0772078212801
:1039E0000FD068688179002905D08078002801E02F
:1039F0005C02002010D0A07F8007800F022858D0E2
:103A0000FFDFA07F8007800F0228D8D1FDF71DFFC0
:103A10000028D4D0FFDFD2E7687830436870E07FB9
:103A2000C10720D0800701D5062100E00521222012
:103A300001552078292818D02428E2D139460620BB
:103A40000DF0E5FE22212046FDF7FBFCA07F80075C
:103A5000800F01282BD0002138460AF0B8F8002842
:103A6000CFD0FFDFCDE70421E1E7A07F8007800F03
:103A7000012806D0002138460AF098F8050003D145
:103A800001E00121F7E7FFDF25212046FDF7D9FC02
:103A9000102008A908712846FF3009A921300BF031
:103AA00071FC0228ADD00028ABD0FFDFA9E70121CF
:103AB000D2E7687830436870A3E7FFB58BB01D4646
:103AC0000646FDF788FC040054D02078222851D304
:103AD00023284FD0E07FC0064CD4A07F8007800F02
:103AE000012806D0002130460AF060F8070002D015
:103AF0000BE00121F7E7A07F8007800F012804D1A8
:103B0000012130460AF04AF8074601AB02AA03A990
:103B10003846FFF7E1FB0398002800D1FFDF002FB4
:103B200009D0FF370398213787612078222806D0F3
:103B3000242804D007E003990020886103E02521B0
:103B40002046FDF77EFC03980C21417046620D99DA
:103B500081800C9981601499C180C56002990161CE
:103B60000199416104A90BF02EFC022802D0002823
:103B700000D0FFDF0FB0F0BD30B589B00546FDF7CE
:103B80002AFC0178222934D9807F8007800F012800
:103B900006D0002128460AF009F8040003D101E00C
:103BA0000121F7E7FFDF227801230321284604F0F3
:103BB000FBFB00281DD01221684601732278028287
:103BC00006A8694405AB00930191029000230321EC
:103BD000284604F068FC002800D0FFDF2046FF30B4
:103BE00003A921300BF0CEFB022802D0002800D020
:103BF000FFDF09B030BD10B586B00446FDF7EBFB22
:103C00000178222919D9807F8007800F012806D0EA
:103C10000021204609F0CAFF040003D101E0012180
:103C2000F7E7FFDF1320694608702046FF30213098
:103C30000BF0A8FB002800D0FFDF06B010BDF7B5E1
:103C4000054600780C46010920460027083082B05E
:103C50003E46019002297DD0072902D00A2909D1C8
:103C600040E068680178082905D00B292AD00C2982
:103C700028D0FFDF0BE214271C26002C6BD04088D5
:103C8000A080FDF7A8FB0090002800D1FFDF00987E
:103C90000099C07D1831019AFDF758FD6868082227
:103CA00080892082696820461230091D16F04DFC7B
:103CB000A07E01210843F9210840A0760098402108
:103CC000807F56E01A270A26002CD7D08088A08053
:103CD000FDF781FB050000D1FFDF28460199FFF7C2
:103CE000D3FAD4E1002C01D0288DA080287E0E28A4
:103CF0007ED006DC01287CD0022808D0032804D11D
:103D00003EE0102876D0112875D0FFDFBFE11E27D6
:103D10000926002CB2D0A088FDF75DFB009000289A
:103D200000D1FFDF287F8007800F0128207A24D070
:103D3000400840002072FD210840297F4907C90F33
:103D4000490008432072FB210840297F0907C90F59
:103D5000890001E08FE160E108432072F72108400B
:103D6000297FC906C90FC900084320720098802125
:103D7000807F08430099887789E101210843D9E7CA
:103D800013270D26002CA0D0A088FDF724FB00905F
:103D9000807F8007800F012806D00021A08809F0CD
:103DA00005FF050003D101E00121F7E7FFDF0098DF
:103DB000807F8207920F012A7ED0A86E81788907C2
:103DC000890F0129217A79D0490849002172857823
:103DD000FD236D07ED0F19406D0029432172FB256E
:103DE000294085782D07ED0FAD002943217203E0AE
:103DF0009FE0E7E0CDE0DEE0F72529408578ED069D
:103E0000ED0FED00294321728F25294005786D07BC
:103E10006D0E2943217245784906490EED0129436B
:103E2000217200216172C178A172E17A012A48D021
:103E300042794908D2074900D20F1143E172427911
:103E400019409207D20F52001143E1724579FB22CB
:103E50006D07ED0F1140AD002943E172F7252940B0
:103E600045792D07ED0FED002943E172217B05799E
:103E70004908ED074900ED0F2943217319400379E3
:103E80009B07DB0F5B001943217311400279520736
:103E9000D20F920011432173F722007911400007DD
:103EA000C00FC000014321730098007823286FD908
:103EB00026217EE000E001E0686E7FE701231943E0
:103EC00084E702794908D2074900D20F1143E17211
:103ED000027919409207D20F52001143E17205791D
:103EE000FB226D07ED0F1140AD002943E172F7256C
:103EF000294005792D07ED0FED002943E172217B63
:103F000045794908ED074900ED0F29432173194010
:103F100043799B07DB0F5B00194321731140427902
:103F20005207D20F920011432173F72211404079BA
:103F3000B5E718271026002C6FD0A088FDF74BFAA4
:103F40000190807F8007800F012807D00021A08882
:103F500009F02CFE0090002803D101E00121F6E7D2
:103F6000FFDFE869A06000980421407808430099C9
:103F7000487000988078800708D501202073019848
:103F80000078232804D92721019867E0002020E148
:103F900066E015270F26002C68D0A088FDF71BFAD5
:103FA00000900622E869019907F0C2FB0120A07386
:103FB000B5E0009852E016270926002C56D0287F3D
:103FC000207264E0297FFE4802290DD019270E26B1
:103FD000002C4BD001290ED003291BD004291DD061
:103FE00005291BD0FFDF24E01B270926002C4ED01B
:103FF0000121217205E001212172617A890889007D
:104000006172017FCA094906D201890E49000A433B
:1040100002770EE00220207207E027E0687F0007A9
:10402000000F8030207205291BD0607A8008800044
:104030006072A088FDF7CFF905460078212826D0C8
:10404000232800D0FFDFA87F8007800F012810D031
:104050000021A08809F0BBFD22212846FDF7F1F9D7
:1040600015E0607A80088000401CE1E70498068033
:1040700013E00121EDE7002C01D06888A080287EA4
:1040800003282ED004280BD005284ED0FFDF04983B
:10409000002C068001D027806680002005B0F0BD8E
:1040A00015270F26002CE1D0A088FDF794F9807F1A
:1040B0008007800F012806D00021A08809F076FD36
:1040C000050003D101E00121F7E7FFDF2846213099
:1040D00016F09CFA0622019907F02AFB0020A07333
:1040E000D5E717270926002CC0D0A088FDF773F963
:1040F0000090807F8007800F012806D00021A088D3
:1041000009F054FD050003D101E00121F7E7FFDFCD
:10411000A878800701D5022000E0012020720098D5
:1041200000782328B3D9272143E719270E26002C2E
:104130009CD0A088FDF74FF90090002800D1FFDF48
:104140000621019816F060FA00202072A07A03215F
:104150000843A072FB2108400099C97FC907490F95
:104160000843A0720099C97F8A07D20F1140F72235
:10417000C90010400143A172687E8007800F0128AA
:1041800085D1607A0421084360720098807F80079F
:10419000800F01281FD0607B4108E87E4900C007DE
:1041A000C00F01436173207BAA7E4008D207400004
:1041B000D20F10432073EB7EFD229B07DB0F1140D3
:1041C0005B0019436173A97E10408907C90F49003C
:1041D000084320735BE7207BE97E4008C907400065
:1041E000C90F08432073617BAA7E4908D2074900A2
:1041F000D20F11436173EB7EFD229B07DB0F104052
:104200005B0018432073A87E11408007C00F400058
:10421000014361733BE710B50446807990B0800993
:10422000012800D0FFDFFEF7B3FF01206946487088
:104230006448099062480AA920380190201D029024
:10424000601C0B9068460BF0BEF8002800D0FFDF22
:104250000322601C0B9916F078F910B010BD10B550
:10426000574C203C002805D001461022204616F06D
:104270006CF90120207410BD10B50446FEF788FFCC
:104280004F4910222039204616F05FF910BD70B555
:1042900000254B4C0646002816D00DF0F7FA0028F2
:1042A00001D010250EE00621304607F02BFA411C04
:1042B00007D0434940390866207F80210843207792
:1042C00000E00725284670BD207F4006400EF6E737
:1042D000F3B589B00D46002708460DF015FB002800
:1042E00014D10998FDF777F8040003D0207822282C
:1042F00015D102E034480BB0F0BD002D08D1A07FED
:10430000C10903D08007800F022801D01020F2E7F6
:10431000A07FC10601D4010703D5002D01D00820DC
:10432000E9E72749097FC90701D01120E3E7E17FC9
:10433000C90601D50D20DEE78007800F022806D1CF
:10434000002D04D02846FEF763FE0700D3D1A07FDE
:104350008007800F012806D00021099809F026FC6B
:10436000060002D00CE00121F7E7A07F8007800F54
:1043700001280BD00021099809F010FC060007D095
:10438000A07F8007800F022804D00AE00121F2E715
:104390000420B0E7002D04D02A4631462046FEF71F
:1043A0005CFE07AB1A4669463046FEF795FF00985B
:1043B000002800D1FFDF00990D204870099805E022
:1043C0009C020020FFFF00000230000048623046DF
:1043D000FF302130486100200881A07FFB22800748
:1043E000800F012832D0002D56D002200871301DD8
:1043F0008861707840090877B0788007C00F4877E7
:10440000887F2B788008DB078000DB0F18438877D4
:104410001040E27FD207520F10438877F7221040F6
:10442000E27F9207D20FD20010438877EF2210402C
:10443000B278D207D20E10438877A878C8770A4698
:10444000213228462031FEF733FE29E00120087191
:10445000087E2B788008DB078000DB0F1843087686
:1044600010402A789207D20F920010430876F72264
:1044700010402A785207D20FD20010430876EF225C
:1044800010402A781207D20F120110430876242117
:104490002046FCF7D6FF0BE00320087105200876C4
:1044A00025212046FCF7CDFFA07F4006400EA077D7
:1044B00001A900980AF087FF022802D0002800D046
:1044C000FFDF384617E7FFB5FB4A0D4607CA99B02C
:1044D00003AB07C300271998FCF77DFF060005D042
:1044E0003078262804D008201DB0F0BDF348FBE743
:1044F000B07F8007800F1590012802D0022808D0D5
:104500000AE0002D08D11B98FEF782FD0028EBD1B0
:1045100002E01B98002841D1B07F8007800F01285E
:1045200006D00021199809F041FB040003D101E0F5
:104530000121F7E7FFDF852D26D008DC002D1BD0F9
:10454000812D1BD0822D1BD0832D08D11AE0862D02
:104550001CD0882D1CD0892D1CD08A2D1CD00F205A
:1045600020710F281AD0012069460877201D089075
:104570002079002814D062E10020F1E70120EFE764
:104580000220EDE70320EBE70520E9E70620E7E757
:104590000820E5E70920E3E70A20E1E70720A3E791
:1045A0001598012814D0656EA06E16900220019017
:1045B000012000901699A878897808400007C00F5C
:1045C000109069D01C980DF061F9002878D138E07E
:1045D000A56E606E16900120019002200090214689
:1045E00030461B9AFEF739FD1B99A8780978800898
:1045F000C9078000C90F0843A870FB210840F17F5C
:10460000C907490F0843A870F7210840F17F8907BF
:10461000C90FC9000843A870EF210840A178C90755
:10462000C90E0843A870607840092870A0788007F8
:10463000C00F68701B988078E8700020687128713E
:10464000B8E71C98C0680DF021F9002863D11C98C8
:10465000C0690DF01BF900285DD11C98C068A060EE
:104660001C98C069E0601699A0784978C907890F3D
:104670000843A0701699C0B28978C906C90F891E6F
:104680000840A070002020210855304600991730BE
:1046900002290BD001210AE0169902224978A0785C
:1046A000C907890FD24311430840E2E7002189007E
:1046B000091988610199701C022902D0012101E0C9
:1046C00029E00021890009198861A8788007800FF6
:1046D00001284CD1169880788007800F012846D198
:1046E0001598012804D12A1D691D1B98FEF7E0FCCE
:1046F00016982979007908AA01401175169A6879E7
:104700005279104008AA1076014330D01C980DF061
:10471000BDF8002801D01020E6E61C982146FF31A4
:1047200022461030159BA9317C321790022B3AD0CB
:1047300002910192009000210DAB2046109AFEF7E5
:1047400038FD0028E8D12146FF3122461598AD31C9
:10475000943201282DD017980291019200900021E7
:104760000EAB2046109AFEF724FD0028D4D1A07885
:1047700080073DD41699A87889780843400737D533
:104780001698159B2978007803AA012B17D04300AF
:10479000D25A4B00DA409707BF0F18D0012F1ED016
:1047A000022F12D11DE01C9802910192009001216C
:1047B000C2E71C980291019200900121D0E74B00C2
:1047C000D25A4300DA409707BF0F032F07D0109A41
:1047D000002A0DD0012906D0042904D008E00227C0
:1047E000F5E70127F3E7012801D0042800D10427C9
:1047F000F07F01210843FD221040109A520010431F
:10480000F077A07882070320002A0BDAA0711099B4
:10481000002914D16946087606AA31461998FEF790
:104820009EFC0CE00225022F1AD0012F1AD0042F73
:1048300023D00020A071F07F40084000F0772521B0
:104840003046FCF7FEFD2046FF3007A921300AF074
:1048500099FD002802D0022800D0FFDF002043E6A7
:10486000A571D7E72046A5710D21243015F0CCFEA7
:104870006078284360700420CCE7A171DFE7F7B5CA
:1048800086B00D460446FCF7A6FD070005D0387833
:10489000272804D0082009B0F0BD0848FBE7B87FFE
:1048A0008007800F01280BD00021204609F07EF9F7
:1048B000040008D106E0000034AC01000230000022
:1048C0000121F2E7FFDFA679012E08D0002D0ED0DE
:1048D00008980CF0DBFF002815D01020DBE70898C3
:1048E000002821D1002D08D0012D1DD11EE0022E5F
:1048F00005D0032E05D0FFDF28E00C2526E001259A
:1049000024E0022522E0022D02D0012D0AD00BE086
:10491000032E09D12046002510222130089915F0D8
:1049200014FE13E0022E01D00720B4E72046213008
:1049300000251021064615F065FE0898002805D0D0
:10494000062106F0DFFE314615F071FE6078022682
:104950003043607025213846FCF773FD6078C1074D
:1049600012D040084000607068460670057120460D
:10497000213002906946FF300AF004FD022805D07C
:10498000002803D0FFDF01E020342570002082E7FB
:1049900030B587B00D460446FCF71DFD002812D047
:1049A000807F8007800F01280FD00021204609F06A
:1049B000FDF804000ED028460CF068FF002806D051
:1049C000102007B030BDFC48FBE70121EEE760781E
:1049D000400701D40820F4E7204629464130202230
:1049E000054615F0B2FD607810210843607001079C
:1049F00010D5F721084060701420694608702046E1
:104A0000FF30213001950AF0BDFC022802D00028B9
:104A100000D0FFDF0020D4E770B594B00D46064605
:104A2000FCF7D9FC002803D00178272945D102E002
:104A3000E14814B070BD807F8007800F012806D048
:104A40000021304609F0B2F8040003D101E0012151
:104A5000F7E7FFDFA07902282FD1A078C0072CD07C
:104A6000002302220321304603F09EFC002826D0BA
:104A70000D2168464173FF34213402220C960894BC
:104A8000828207A8811F06AB009301910290002348
:104A90000321304603F007FD002800D0FFDF04218A
:104AA0006846017408A805710DA903A80AF08BFCDB
:104AB000002800D0FFDF0020BBE70820B9E7112065
:104AC000B7E770B5064686B014460D4608460CF0AA
:104AD000DDFE002804D120460CF0F5FE002802D0AF
:104AE000102006B070BDB54886420DD03046FCF7A8
:104AF00072FC002806D04378811C22461846FCF739
:104B000025FE06E0AC48ECE72046FDF7E6FB002872
:104B1000E7D11021E01D0CF0CBFBE21D29466846D1
:104B2000FEF7F6FB204610221730019915F00DFD17
:104B30000020D6E7F7B58CB00446154600270D983F
:104B40000CF0E2FE002804D128460CF0DDFE00281F
:104B500002D010200FB0F0BD2046FCF73CFC060050
:104B600003D03078272817D101E09348F2E7B07FCF
:104B70008007800F012806D00021204609F016F892
:104B8000040003D101E00121F7E7FFDF607840076F
:104B900002D5A078800701D40820DBE7B07F80072A
:104BA000800F01281DD0616EA06E4978002901D0C8
:104BB000002D19D04078002802D00D98002813D07D
:104BC000002D19D0EA1D06A8E168FEF7A1FB2846D2
:104BD00010221730079915F08BFC002806D0042707
:104BE0000AE0A16E606EE0E70720B3E720461022DE
:104BF000E91D313015F0A9FC0D98002805D0C11D24
:104C000020461022213015F0A0FC607802252843B0
:104C1000607025213046FCF714FC6078C10714D081
:104C200040084000607068460570077120462130DA
:104C30000290103003906946EF300AF0A3FB02287F
:104C400005D0002803D0FFDF01E0203427700020CA
:104C500080E7F8B515460E460746FCF7BCFB040096
:104C600004D02078222803D00820F8BD5248F8BD8F
:104C7000A07F8007800F022802D04F48C01CF8BDDB
:104C800030460CF003FE002804D128460CF0FEFD4F
:104C9000002801D01020F8BD00953288B31C2146B1
:104CA0003846FEF74CFB112819D00028F3D1E17FDC
:104CB0002A7C490892074900D20F1143E177FD226F
:104CC00011402A7CD207920F1143E177297C8A0890
:104CD00020210A55A17F4906490EA177F8BDA17F81
:104CE0000907FBD420460822B11C363015F02DFCF4
:104CF0003088A086204610222946233015F025FC56
:104D0000E07FFB210840297C8907C90F89000843FF
:104D1000E077F7210840297CC907090F0843E077AD
:104D2000287C810821200155A07F08210843A07715
:104D30000020CFE770B594B00D460646002B01D099
:104D4000072076E6FCF747FB040007D020782228EE
:104D500002D3A07F400603D408206AE6164868E61E
:104D6000002D1CD02D216846017046801022294656
:104D700001A815F0EAFBE07F297C40088907400084
:104D8000C90F0843E077FD210840297CC907890F36
:104D90000843E077287C81082020015503E02E217C
:104DA00068460170468009A9684606F05BFCA17F51
:104DB000BF221140A1773CE602300000FFFF000057
:104DC00070B50D46FCF707FB040006D028460CF032
:104DD0007AFD002803D0102070BD0B4870BD294615
:104DE0002046FEF751FA002070BD05E00278401C15
:104DF000002A01D0002070470A46491E89B2002AC5
:104E0000F4D10120704700000230000070B50D465B
:104E1000007804991446042803D005282DD0FFDF1C
:104E200070BDA88B062250430E30188033200880B6
:104E3000002CF5D0A88BA081002611E0A87F0128C6
:104E400012D012207043411906227243088C1219A5
:104E5000D0811020223110320AF05BFB761CB6B2F2
:104E6000A089B042EAD870BDB00041190622724351
:104E7000088C1219D0810220ECE7A88B1222504333
:104E80001030188034200880A87F012808D002281C
:104E900006D0FFDF002CE6D0A88BA081002612E010
:104EA000A073F7E7A87F012811D0304612214843AC
:104EB00041190A8C0019028210221230223115F099
:104EC00044FB761CB6B2A089B042EBD870BDB000EE
:104ED00041191222088C72431219108202202231C9
:104EE00012320AF016FBECE7F8B500780C461646CD
:104EF00020340E36069F022805D0032832D006281B
:104F00007ED0FFDFF8BDCD8B0A2068430E301880BD
:104F100031203880002AF5D0087F9581801FC7B2E4
:104F20001AE020886168308048780A7800021043CF
:104F3000F080C8788A78000210433081B21C38466D
:104F4000091D0AF0E6FA002F01D0002802D0002047
:104F50003071708008340A3628466D1EADB20028C4
:104F6000DFD1F8BDCD8B0A2068430E301880322087
:104F70003880002AF5D0087F9581401FC7B243E0F2
:104F8000616822880878F2803279C307520852009B
:104F9000DB0F1A43FD231A408307DB0F5B001A4324
:104FA000FB231A404307DB0F9B001A43F7231A40E9
:104FB0000307DB0FDB001A43EF231A40C306DB0FA6
:104FC0001B011A43DF231A408306DB0F5B011A43E0
:104FD000BF231A404306DB0F9B011A433271C009FD
:104FE00070718A784B781002184330813246384607
:104FF000C91C0AF08EFA002804D00020B07000E02E
:1050000008E0308008340A3628466D1EADB200280C
:10501000B6D1F8BD087FCD8B801E86B230460830F1
:1050200068431030188035203880002AF1D01746A8
:1050300095811037E800D681C01900900DE02088D6
:1050400038800098786032466168009815F07DFAE3
:105050000098083480190837009028466D1EADB2BC
:105060000028ECD1F8BDFFB5099E1D460C46002A6C
:1050700005D0607EFF300130D080E08B1081009839
:105080000078030015F022FD0C900715212A333C0F
:105090004A5F68686890087F1746082802D003288E
:1050A00000D0FFDF0E20288030200AE00020B881E9
:1050B000FFBD087F1746042800D0FFDF0E202880A0
:1050C00031203080002FF1D1FFBD087F1746042822
:1050D00000D0FFDF0E2028803220F2E7087F17463D
:1050E000022800D0FFDF0E2028803320E9E7087F68
:1050F0001746022800D0FFDF102028803420E0E788
:10510000087F1746042800D0FFDF102028803520B4
:105110003080002FD8D00020B88112E0207F1746C1
:10512000052802D0062800D0FFDF12202880362074
:105130003080002FC8D0E08BB881002038820098E2
:105140004088F881FFBD087F1746072800D0FFDFA1
:105150000E2028803720B4E71420288038201746F6
:105160003080002AEED0E08BB88100207882009851
:105170000078092805D00A2809D00B280DD0FFDFB8
:10518000FFBD087F0C2800D0FFDF01200AE0087F68
:105190000D2800D0FFDF042004E0087F0E2800D097
:1051A000FFDF0520B873FFBDFFDFFFBD70B50C4604
:1051B0000546FCF710F9002804D00078222803D215
:1051C000082070BDFA4870BD0521284608F0EEFCA5
:1051D0002060002801D0002070BD032070BDFFB505
:1051E00085B00D4607461720694688810898022633
:1051F0001446002805D108A93846FFF7D7FF002834
:1052000042D1002D0DD068468289002331463846B0
:1052100003F0CAF8002842D00898007800283ED150
:1052200005E02078092823D00F282FD0FFDF0020A9
:1052300004A9019003460091029068468289314694
:10524000384603F030F900281ED10898A760801D69
:10525000606003A92046049A04F0E7F900282BD0E7
:10526000030015F033FC071E1C27272520222700EA
:1052700068460726828900233146384603F094F8B1
:105280000028D4D1CA48801C09B0F0BD6846828984
:1052900000233146384603F087F80028C7D1112093
:1052A000F2E70020F0E70820EEE7C148401CEBE7FA
:1052B0000720E9E70320E7E7049800906846838920
:1052C00004223146384603F0C5F90028DCD1002D10
:1052D000DAD008990D70D7E730B587B01D460C4677
:1052E000002A11D0042369460B7013888B815288E1
:1052F000CA81A2788A7422880A8200236A462946D3
:10530000FFF76DFF07B030BD1020FBE7F3B581B0AC
:1053100001980C4600780826030015F0D7FB123BD5
:1053200037371511390A0A0A0A0A0A0A0A0A0A0A42
:105330000A3B002C00D1FFDF6078304360702AE028
:10534000002CF9D1FFDFF7E701980521808887B2AB
:10535000384608F02BFC0546002C00D0FFDF002D5E
:1053600000D1FFDF3946A81D04F056F902F0FBFA20
:10537000040006D0607830436070678002F0D1FA94
:105380000BE013213846FDF7DBF911E0FFDF02E007
:10539000FFDF00E0FFDF002C0AD06078000707D5B0
:1053A000932020702046582218300199FBF7EEFE1A
:1053B0000020FEBD10B500200870881D04F029F9FA
:1053C00010BD0A4610B50146901D04F02DF910BD20
:1053D00070B50546052108F0E9FB040000D1FFDFA8
:1053E0002946A01D04F018F970BDF7B586B00C462B
:1053F000054600206946088188806F880521384667
:1054000008F0D4FB060000D1FFDF002C03D0A780FA
:105410000020E0802081297E20461230C91E1427FA
:1054200000900B0015F052FB0FFEF5F25E09A86725
:105430006C7D2BB1C6E19090F2003078012800D04D
:10544000FFDFA88B6A46C1000E31918030211181A7
:10545000002C13D0A08100200DE0C1003279091981
:105460000A747288CA8182005319DA8B4A821A8CB4
:10547000401C8A8280B2A1898142EED8E4E0307873
:10548000012800D0FFDFE88B6A46C1000E31918011
:1054900030211181297F091FC9B20491002CEDD060
:1054A000A08100271AE0F800021940190092039029
:1054B000416A0E3204980AF02CF8002804D00099B2
:1054C000002008740099C88103987F1C018C009803
:1054D000BFB241820398418C00988182A089B84272
:1054E000E1D8B1E002A8009001AB2246294630463F
:1054F000FFF78CFCA8E03078072805D0FFDF03E039
:105500003078072800D0FFDFE88B694612308880AA
:1055100036200881002C37D0A98BA1817188E181C8
:1055200022E03078082800D0FFDFA88B6A460146C9
:105530000E30908037201081002C25D0A18120468C
:10554000AA8B0E30296A4DE0E88B6946123080B292
:10555000392288800A81002C72D0A98BA181287EF3
:10556000102807D00221A173E98B2182EA8B296AD6
:10557000009837E00121F6E702A8009001AB22462F
:1055800029463046FFF7B0FC5EE03078092800D0AD
:10559000FFDF694638208F800881002C54D0A98B0A
:1055A000A1810020608220820120A0734CE00000D5
:1055B0000230000030780A2800D0FFDF288C6946CE
:1055C0001430888038200881002C3DD00421A1733C
:1055D000A98BA181E98B2182298C618220462A8CAA
:1055E0001430696A14F0B1FF2EE030780B2800D037
:1055F000FFDF694638208F800881002C24D00521E8
:10560000A1730020A081208260821DE01BE000E0E9
:1056100008E002A8009001AB224629463046FFF779
:1056200022FD11E00D2069463A2288800A81002C73
:1056300006D00120E08000202081207304E0FFE7F5
:105640000899088015E0FFDF68460899808808807F
:10565000002C0ED0684600892080684680886080D3
:10566000287E032805D0102803D0112801D000205F
:105670003070002008E6F7B556880F4682B0154610
:105680000521304608F092FA040000D1FFDFA41D86
:1056900033462A4639460094029804F04CF905B086
:1056A000F0BDF7B58CB00D46144607A90C98FFF76E
:1056B0007DFD002812D1884E0127002C10D0032137
:1056C000684601701021818208A802460690204693
:1056D00005A909F044FF00280CD007200FB0F0BD49
:1056E0000821684601708581C68105218774C90239
:1056F00001820BE00798A1780171218841806846FA
:1057000005218774C90201828581C6810246012173
:10571000079B0C98FFF763FDE0E708B501236A4695
:1057200093706E4B13800A4602236946FFF7D4FD3F
:1057300008BD08B501236A469370684B5B1C138053
:105740000A4603236946FFF7C7FD08BD00B587B0C9
:1057500000290CD002236A4613700B889381498874
:10576000D18100230421FFF73AFD07B000BD1020CE
:10577000FBE710B5002903D00623FFF7ADFD10BDF0
:10578000072010BD70B588B00D461446064607A91F
:10579000FFF70CFD00280DD1002C0DD00621684626
:1057A00001708581C481079B02465C8007213046D9
:1057B000FFF715FD08B070BD0521684601708581B1
:1057C000F1E710B588B000290BD007246B461C7098
:1057D0009A81049100236A460821FFF700FD08B072
:1057E00010BD1020FBE770B50024172288B00029F7
:1057F00014D00D782B0015F069F90623050519045E
:105800001B231522D21E93B2CA88002A02D08E68AA
:10581000002E03D09A4203D90C20CBE71020C9E711
:10582000042D05D08A88002A0AD101E00620C1E7AC
:10583000012D11D0022D05D0042D18D0052D23D017
:105840000720B7E709236A4613704B889381CB88FA
:10585000D381896804911DE00C236A4613704B883C
:105860009381CB88D38189680924049112E00D23A8
:105870006A4613704B8893818B88D381CB881382BF
:1058800089680A24059105E00E236A461370497859
:1058900011730B2400232146FFF7A1FC8AE700B512
:1058A00087B00F236A461370918100231946FFF7D2
:1058B00096FC5AE700B587B000290BD002236A4650
:1058C00013700B8893814988D18100230521FFF74C
:1058D00086FC4AE7102048E7FFFF0000022800008E
:1058E000002803D08178012939D101E010207047C8
:1058F0000188FE4A881A914233D01BDCFC4A881A80
:1059000091422ED00BDC00292BD00320C002081AB4
:1059100027D0012825D001210903401A07E00128DA
:105920001FD002281DD0FF281BD0FF3801380028C7
:1059300015D116E0FF220132811A904211D008DC05
:1059400001280ED002280CD0FE280AD0FF2806D14C
:1059500007E0012905D0022903D0032901D0002046
:1059600070470F20704700B50B2826D009DC0300D4
:1059700015F0ACF80B1D2125251B25292325271FF4
:105980001B0011281BD008DC0C2816D00D281CD0B9
:105990000F2814D0102808D10FE0822809D08428BD
:1059A0000FD085280FD0872811D0032000BD0020FC
:1059B00000BD052000BDCF4800BD072000BD0F2061
:1059C00000BD042000BD062000BD0C2000BD0D2040
:1059D000800200BD00B5030015F078F80705070543
:1059E0000D0D090B0D00002000BD112000BD07208A
:1059F00000BD082000BD032000BD00780207120F83
:105A000004D0012A05D0022A0CD110E0000909D1E6
:105A10000AE00009012807D0022805D0032803D096
:105A2000042801D007207047087000207047062026
:105A3000704700B5030015F049F8050406080A0C84
:105A40001000002006E0112004E0212002E03120B7
:105A500000E041200870002000BD072000BD38B5DF
:105A60000C4605004DD06946FFF7C7FF00281FD13F
:105A7000694660780978C0084907C000490F0843A3
:105A800060706946681CFFF7B8FF002810D1607885
:105A9000C7210840694609784907890E08436070A4
:105AA000A9784907890F012903D0022905D00720C9
:105AB00038BD2178DF22114002E0217820221143F5
:105AC0002170410707D0BF210840A9780907C90FF5
:105AD00089010843607060788106490F0AD0A9786F
:105AE0004006C906C90F400EC90108436070800610
:105AF000400F02D16078400603D52078402108434A
:105B00002070002038BD70B504460020088015467E
:105B10006068FFF7A4FF002815D12189A089814280
:105B200010D861688978C90708D0012149028842E4
:105B300008D8491C14F083FD298009E0FF21FF31BA
:105B4000884201D90C2070BDFF30FF30033028801F
:105B5000002070BD10B5137804785B08E4075B0083
:105B6000E40F23431370FD2423400478A407E40FBB
:105B7000640023431370FB24234004786407E40F7C
:105B8000A40023431370F724234004782407E40F70
:105B9000E40023431370EF2423400478E406E40F69
:105BA000240123431370DF2423400478A406E40F68
:105BB0006401234313700078BF244006C00F2340C4
:105BC000800103431370002906D00878C10701D172
:105BD000800701D5012000E00020C0015906490ED0
:105BE0000843107010BD10B54A784378D208D2002F
:105BF0005C0702D05B075B0F05E09B065C0F01D0E2
:105C00005B0F00E001231A434A70C72340781A4013
:105C100083065C0F01D0580F05E0430702D0400710
:105C2000400F00E00120C00002434A7010BDF3B5F0
:105C300093B00D000FD0139800280FD012212846E2
:105C400014F0E0FC03AAFF21012005F07EFB0024F4
:105C5000264637467BE0102015B0F0BD0720FBE755
:105C60006846807D01280BD16846818A0520C002E4
:105C7000081A0AD001280AD002280CD003280CD018
:105C8000042C0ED0052C0FD10DE0012400E00224DD
:105C90006846468A08E0032406E068460424478AEA
:105CA00002E0052400E006246846418A13988142F8
:105CB0004DD12C74002E48D00DAA0EA907200292B7
:105CC0000191009010230022FF21304605F0DCFBFB
:105CD00000282AD16846808E2A46C0B20EA909F053
:105CE00018FC002821D1AE81002F05E00229000018
:105CF000012800000330000027D00DA9072008AEBE
:105D000002910090132300220196FF21384605F0EE
:105D1000BBFB002809D16846808EF11CC01EC0B2B2
:105D20002A1D09F0F6FB002801D0032094E708A8FB
:105D30008178427808021043E881062C05D1684634
:105D4000807DA8726846808A2881002084E703A8A5
:105D500005F004FB002883D0FFF705FE7CE7F0B5D3
:105D60008BB00E4605461C461746142103A814F0B6
:105D70004BFC0120694608730874119A4A748F829B
:105D8000002C0AD0A178C90707D069468875E08839
:105D90004883A0880883A068079001F0E4FD040010
:105DA00024D06580172268460284002009A900914A
:105DB0000190034602900146284602F074FB002839
:105DC00012D16846083670C008AA099B109904F0E1
:105DD000AEFD06466078000701D501F0A2FD002E59
:105DE0000AD03046FFF7F6FD0BB0F0BD1321284670
:105DF000FCF7A6FC0320F7E7099800906846038C9F
:105E000004220021284602F025FCEDE770B5064685
:105E10008AB000200D4607900590069003A90490D3
:105E2000072402460291019010230094294630462F
:105E300005F02AFB00280DD108A804A900910290C2
:105E400001946846838900222946304605F03DF9D1
:105E5000002801D0FFF787FD0AB070BD10B504F02F
:105E6000C2FF10BDFEB500260546029600780C461E
:105E70000827030014F02AFE0CC5070F33D6686804
:105E800087A1C1A6B2C5002C00D0FFDF288980B24F
:105E900001F0F5FEB6E0A888042180B2009007F07A
:105EA00085FE0190002C00D0FFDF0198002800D172
:105EB000FFDF01980099083004F057F901F053FD15
:105EC000040007D06078384360700098608001F06B
:105ED00028FD99E013210098FCF732FCA2E0002C89
:105EE00000D1FFDF6088042107F060FE00900028E9
:105EF00000D1FFDF0099002008802A79944620E035
:105F0000C3005B199B6800936B461B781A0708D582
:105F1000DB0606D56046C20050194038C08F0880A5
:105F200008E06B465B785B0609D50871C200501922
:105F3000C0884880607838436070022662E0401C68
:105F4000C0B28445DCD85DE0E88869460880002C52
:105F500000D1FFDF68464078C00904D028780628C1
:105F600005D005282CD06078384360704AE06088FE
:105F7000042107F01BFE060000D1FFDF0020307176
:105F8000A88870801CE0002C00D1FFDF608804210D
:105F900007F00CFE0090002800D1FFDF00980830C9
:105FA00004F073FF0121484002D1E879C00929D0EB
:105FB000009861880226C180D5E7002C00D1FFDF60
:105FC0000226D0E7002C00D1FFDF022661880122E3
:105FD000204601F09AFE01200290C4E7A889002C17
:105FE00087B200D0FFDF6868009028896946888002
:105FF0000122384601F09DFE04E0002CB3D1FFDF02
:10600000B1E7FFDF002C0DD0607800070AD50298B9
:10601000002807D1842020702046582229461830B5
:10602000FBF7B4F83046FEBD3EB50C0009D002AB1C
:106030006A46002105F08AFA002804D0FFF793FC95
:106040003EBD10203EBD0321204614F0DBFA684619
:10605000407801A94007400FFFF7EBFC00280BD167
:106060006846007920706846407801A98006400F94
:10607000FFF7DFFC002801D003203EBD6846007911
:106080006070A278EF20024068464078C0090001A5
:106090000243A270F7200240684640784006C00FD5
:1060A000C0000243A270F9200240684600788006D2
:1060B00001D5022000E00120400069460243097A30
:1060C00050084000C907C90F0843A07000203EBD1A
:1060D00070B50646144608460D46204307D0002DED
:1060E00010D028460BF005FC002812D101E0072053
:1060F00070BD2946304605F082FA002802D0FFF72D
:1061000032FC70BD002C0BD020460BF0F2FB0028B7
:1061100001D0102070BD21463046FFF785FF70BDCD
:10612000002070BDF7B50C460546007E22468AB0B9
:106130000A320092921E05920027811E0C323E46C2
:1061400003920B0014F0C2FC08FC05FB34347EBE45
:10615000FDFB6888042107F029FD0190002800D18B
:10616000FFDF01980088002802D052270726EFE0C1
:1061700051271026002C7DD06888A0800120A071B6
:106180000198002200790099C0004019C08BFFF7E8
:106190009FFF00286FD101980079C0004019C08B83
:1061A000208101980079C0004019408CE081EBE02B
:1061B000698C0191062821D1E87FC0091ED00846CC
:1061C0001430512786B2002CD5D0A88B002200991C
:1061D000FFF77EFF002873D16888A0800220A0719D
:1061E000A88B20810120A073288C208201986082D6
:1061F000696A019A039814F0A8F9C5E008461230BC
:10620000502786B2002CB6D0A88B00220599FFF744
:106210005FFF002854D16888A080A88BE080287E8A
:1062200006280DD002202073288CE081E87FC00969
:106230006073019820822046696A1230019ADAE779
:106240000120F0E76888042107F0B0FC0290688C18
:1062500005900298002800D1FFDF0298083004F072
:1062600014FE0121484002D1E87FC00927D00598DB
:10627000143001E07AE023E0512786B2002C76D07A
:106280006888A080A88B00220099FFF721FF0028D2
:1062900016D10220A071A88B20810420A073288C25
:1062A000208205986082696A059A039814F04DF976
:1062B0000299002008710298A98B418064E00320B4
:1062C0000DB0F0BD6888FBF786F80090688804215F
:1062D00007F06CFC03900098002800D1FFDF0398C2
:1062E000002800D1FFDF0398FE49C088884202D011
:1062F0005127142601E050271226002C37D0688839
:10630000A080502F06D00220A071287F059901F0AF
:106310008BF939E0287FA11D01F086F90098002152
:10632000203080780090019103980B46428868885D
:106330000399FFF714FD0028C2D125E001E022E017
:1063400018E0E949A88BC988814206D1542706265E
:10635000002C0CD06888A08016E053270826002C5B
:1063600005D06888A080A88BE0800DE0FFE70C983E
:1063700006800FE055270726002CF8D0A88BA080B8
:106380000020A07100E0FFDF0C98002C068001D0F7
:1063900027806680002093E7D3490020087070476B
:1063A00030B587B00C4607F0CEFB0546FF2800D17C
:1063B000FFDF0020208020716080401EE0802046AA
:1063C0002946083003F0C4FE01AA2946012004F042
:1063D000BCFF102415E06846C079000711D5684657
:1063E00040892946FFF712FD6846C179FF23214302
:1063F000C1710170017A417040892946009A05F007
:10640000CDF801A804F0AAFF0028E4D007B030BD01
:106410000A46014610B51046083003F0AEFE10BD26
:1064200070B50546042107F0C1FB040000D1FFDF71
:1064300020462946083003F098FE70BDF3B58BB0B6
:106440000D460B98FAF7C7FF060004D030782228D3
:1064500003D2082034E7A54832E704210B9807F05F
:10646000A5FB0746002D02D0A88800280ED00121E8
:10647000684601730221002401744474002D07D082
:10648000A888694608832868059003E0092017E773
:106490000483059401F067FA050028D00B98688002
:1064A00017226846028409A8019400230090194627
:1064B00002940B9801F0F7FF0028CBD13846083042
:1064C0000B990290203600950191B17808AA03A893
:1064D000099B04F02CFA04466878000701D501F006
:1064E00020FA002C09D02046FFF774FAE8E61321C1
:1064F0000B98FCF725F90320E2E60998009068461E
:10650000038C042200210B9802F0A4F80021C94357
:10651000F980D5E6FFB585B00E9E77883846FAF744
:106520005AFF05460421384607F040FB0446002D7B
:1065300000D1FFDF002C00D1FFDF08340898694646
:106540000394C1C105A80DC82035A97803F044FE05
:1065500009B0F0BDF0B50446002099B007460E9092
:1065600010A887810D46078187805F4968468F8024
:1065700007858784878707868785087816460128D8
:1065800008D0022806D0032804D0042802D008200E
:1065900019B0F0BD20460BF079F9002856D12846F5
:1065A0000BF074F9002851D160680BF0ADF90028A8
:1065B0004CD1606800280AD060892189884203D8BC
:1065C00001225202914201D90C20E1E70E9015AA56
:1065D0000FA92846FFF797FA0028D9D16868807874
:1065E0004007800F022809D108A8407F8006400F8D
:1065F00004D028690BF07DF9002827D10AA9206969
:10660000FFF72DFA0028C3D1206900280BD060784D
:10661000800708A8407A03D58006400F6FD002E0BB
:106620008006400F6BD108A8007A800610D508A814
:10663000407A8006400F04D060680BF05AF90028B9
:1066400004D160680BF060F9002801D010209FE7AA
:106650000BA96069FFF703FA002899D16069002847
:1066600008D008A8407B4107490F012947D180067F
:10667000400F44D00CA9A069FFF7F1F9002887D199
:1066800008A8007B80063AD408A8007C800636D48F
:10669000A069002808D008A8407C4107490F0129BB
:1066A0002DD18006400F2AD0E068002804D0007861
:1066B000002824D01C2822D204AA611C2046FFF7FF
:1066C00049FA08A840790127C108C900491C08A84F
:1066D0004171684687730649818104AA033217A96C
:1066E000286808E0FFFF0000580300200230000087
:1066F0000328000003E008F032FF002801D0072043
:1067000046E710A8007F14A9C01CC2B200200D9259
:10671000FF320090034602910190FF3203A803323A
:10672000099904F06AFD002852D110A9088A109036
:106730002A892969FD4801910092029010A98A8A4C
:106740006B8928680F9904F058FD01007ED12078EC
:10675000C10601D4800626D5002010A908836069EF
:10676000002809D10BA90FA8FFF73DFA08A9487B1B
:10677000C008C000401C487308A9087BC821084312
:1067800008A9087369468F73E948888112AA16A977
:1067900002206D4607C50023E64A03A80B9904F0C2
:1067A0002CFD0100D2D1E1480025001F81886846F8
:1067B0004174090A8174072104A86A4623C210A8FB
:1067C0002A46FF21008A0D9B04F07FFC002802D09E
:1067D000FFF7C9F8DCE66846007CC0092ED06846A1
:1067E000858408A840790023C108C90008A8491C6D
:1067F000417168462921877309028181858608A82D
:10680000007DCC4A410860784900C007C00F0143B1
:1068100008A80175FD20014060788007C00F400086
:10682000014308A801750DA902200191009002956D
:1068300003A8099904F0E1FC010007D16068002871
:1068400029D0206900280ED10AA900E080E00FA815
:10685000FFF7C9F96078800705D408A9487AC721ED
:10686000084008A94872B24968468773491E818169
:10687000B0492089891E13F0E2FE0A4661680E982D
:1068800011AB009002930191002303A80A9904F030
:10689000B4FC01005CD12078C00727D0684685860B
:1068A000A069002809D10CA90FA8FFF79CF908A935
:1068B000487CC008C000401C487408A8017C4020E7
:1068C000014308A801749A4968468773491C81816D
:1068D00013AA0DA902200292019100900023954A6B
:1068E00003A80C9904F089FC010031D1E06800286C
:1068F00032D06846858408A840790023C108C900C1
:1069000008A8491C41718A4968468773891C81819E
:10691000E16808A80A78027549784175E068412263
:1069200041886846C186E068D200017908A80176EE
:10693000E0686C46C18808A84176090A81760DA9ED
:10694000072023C403A8099904F057FC010003D0D1
:10695000109800F07DFE1BE674480321001F0170B3
:10696000002E0AD08088308010A88088708010A8FF
:106970000089B08010A88089F080002008E630B53A
:1069800001248BB015460B46012802D002281AD1EB
:1069900004E0684605218473C90202E0684666493E
:1069A00084738181002B11D000210182407C06AAD2
:1069B000C108C9006846491C417405A9184608F079
:1069C000CEFD002804D007200BB030BD1020FBE71F
:1069D0006A46127D55480092801E06A9FF32019139
:1069E0000290FF32002303A80332049904F005FC4F
:1069F000002802D0FEF7B7FFE6E74C48001F002D45
:106A000001D04188298004700020DDE770B592B084
:106A10000446012608A8867048496846018410AAE1
:106A200008A93046FFF7ABFF002840D120783F4D42
:106A3000C00700242D1F00283BD01C21684613F0FE
:106A4000E3FD68460178202001436846017008A8EC
:106A500086703B496846018411940794817FF92030
:106A600001406846891C817700200146684601770D
:106A7000002001466846417704218185C48501864E
:106A800007A80A9011A80D9008A809900EAA09A9B4
:106A90006846FFF75FFD002809D16846008FE8804F
:106AA0006846808F2881401C68812C70002012B0BD
:106AB00070BDEC802C8110A80088F4E7F7B51B4965
:106AC0000026091F0A789EB0012A04D0022A02D0AB
:106AD000082021B0F0BD4A88824201D00620F8E7A4
:106AE0001F98824201D10720F3E7012218A812491A
:106AF0008271491C10A8818400210182407CC30856
:106B0000DB0010A85B1C4374684682810D4AC28179
:106B100018A8817310A881851BA804906846C282BA
:106B20000691FF21017503A80EE000005C03002020
:106B300002290000030200000128000001180000E3
:106B4000052A0000FFFF000004F02AFC002425466F
:106B5000274608AA072103A804F025FC002810D026
:106B600082286FD1002C6FD0002D6DD010A88480AA
:106B7000C5800021017518A8807C11AC012865D062
:106B80006DE008A88079002F21D0012857D16846F0
:106B9000818CFE4881421CD113AA0DA907206B46A7
:106BA00007C36846408C10230022FF2104F06CFCD0
:106BB000002868D110A88089042801D006284CD16B
:106BC0006846818E1F98814239D10F2081E70128C4
:106BD00035D16846808C0521C902884202D0491C03
:106BE00088422CD1EA4841886846408C814201D1D4
:106BF000012700E00027002C01D0002D10D01F99A4
:106C000088421CD113AB0DAA07216E460EC604465E
:106C100010230022FF2104F037FC002833D101E0CB
:106C200035460CE010A88089022801D0102814D124
:106C3000C0B21CAA0DA908F06CFC00280DD1684652
:106C4000468C86E71FE0FFE7052042E715A91CA850
:106C5000221D08F084FC002801D0032039E710A889
:106C6000007D0023001DC2B210A80275209800927A
:106C70000290019419A8149904F0BFFA002802D1D7
:106C8000C34A02211170FEF76EFE22E710B50B46D3
:106C9000401E86B084B203AA00211846FEF75AFFB0
:106CA00004AA072103A80292019100900123002267
:106CB000FF21204604F009FA04466846008A0128AC
:106CC00000D0FFDF2046FEF74EFE06B010BDF0B547
:106CD000AF4F0446387887B00E46032804D0042806
:106CE00002D0082007B0F0BD04AA03A92046FEF791
:106CF0000AFF0500F6D1606880784007800F0228FF
:106D00000BD16846407B8006400F06D020690AF010
:106D1000F0FD002801D01020E4E7208905AA6B4689
:106D2000216907C369460A8A63892068039904F0C8
:106D300064FA002802D0FEF716FED3E7002E02D038
:106D40006846808A3080042038702846CAE738B503
:106D50000C00054609D000236A46FF2104F0F6FB2B
:106D6000002804D0FEF7FFFD38BD102038BD69466D
:106D70002046FEF774FE0028F8D1A078FF21C30753
:106D8000DB0F2846009A04F009FCEBE77FB51446B8
:106D90000722019203AD029500930A462388FF2142
:106DA00004F093F9694689892180FEF7DCFD04B07F
:106DB00070BDF0B591B00746002568460C46858643
:106DC00000291CD0E068002806D0A068002816D052
:106DD00001886A46918605803846FAF7FCFA002851
:106DE00010D0007822286CD3384606F0ACFE009014
:106DF0000421384606F0DAFE060006D104E0102031
:106E000011B0F0BD6348FBE7FFDFA078012803D095
:106E1000022801D00720F3E72088002808D0401C72
:106E200080B203AA009904F090FA002829D102E068
:106E30005848401CE4E703A804F090FA69468A7DAC
:106E40000D218902012A09D16A46928A524B9A423F
:106E500004D1822802D0002813D101E00846CFE7F0
:106E6000E068002814D00DA9072202910192009039
:106E700069468B8EA2882088FF2104F026F900281D
:106E800002D0FEF770FDBBE76846A168808E0880DF
:106E90006846C07BC00601D54048B1E70798002886
:106EA00003D06846008B022801D00320A8E71722F0
:106EB000694607980A87A1780078012903D08007DE
:106EC00011D408209CE7C007FBD0002307213846D7
:106ED00001F06AFA002803D007200F90022005E095
:106EE0002C48801C8CE701200F90032008A9087013
:106EF00021886846818410A8009001950295684613
:106F0000028F002338460F9901F0CDFA002891D165
:106F100008360197029600950EAA072108A8109B33
:106F200003F005FD002802D0FEF754FD68E7109835
:106F300000906846038F042238460F9901F08AFBBF
:106F40005EE770B5064615460C460846FEF7C8FCD7
:106F5000002804D12A4621463046FFF710FD70BDB7
:106F600010B5FFF7ABFD10BD70B51E4614460D0001
:106F700016D0002C14D06168002911D0002811D03F
:106F80000349498881420DD0072070BD02280000C6
:106F900058030020023000000229000001340000E4
:106FA0001020F2E72068FEF79BFC0028EDD1324666
:106FB00021462846FFF7CEFAE7E770B515460C00E4
:106FC00007D0002807D0FE498988814203D00720D6
:106FD000DBE71020D9E72068FEF782FC0028D4D137
:106FE00029462046FFF773FECFE770B5054686B009
:106FF0000E46144610460AF066FC002861D160680F
:107000000AF082FC00285CD1EE48854204D0284674
:10701000FAF7E1F9002814D0284606F094FD054659
:10702000304601A9FEF703FE00280BD16846017D1A
:107030000F200B0013F04AFD0808060606060A0A90
:107040000832E14806B0A0E70320FBE769468979EA
:10705000012907D1694689880322D202891AF1D011
:107060000129EFD06946897A012906D16946098943
:1070700015225202891A0529E4D96946897B01291A
:107080000DD16946898929221202891ADAD002298A
:10709000D8D00329D6D0042901D1D3E7FFDF606817
:1070A000002810D100236A462946304604F04EFAE3
:1070B000002802D0FEF757FCC4E768460078800637
:1070C00001D41020BEE76188224630466368FFF78E
:1070D0005DFEB7E7F7B5074686B0144610460AF0DE
:1070E000F2FB002802D0102009B0F0BD384606F0AF
:1070F0002AFDB44E0546B74201D0FF2D0AD0014605
:10710000002303AA079804F021FA002804D0FEF710
:107110002AFCE9E7AC48E7E76846007BC00601D5F2
:10712000AA48E1E704A907200291002700900197EF
:10713000628833462946079804F0A6F9060013D161
:1071400060680AF0C0FB00280BD160680721029735
:1071500000910190238862882946079804F094F9E9
:1071600006466846008A20803046D0E710B50029E0
:1071700007D0934B0A881B899A4202D89248401C38
:1071800010BDFFF716FE10BD10B586B004236C4687
:10719000A3828B4BDC88002C07D01B898B4201D249
:1071A000914204D98848401C8FE506208DE56B4646
:1071B00019825A820021009101911C80022199704C
:1071C00005A9029104A903916946FFF7F2FD7CE548
:1071D000F3B583B08126684606700F4608460AF06C
:1071E00055FB00283ED10398FAF7F5F801900028E6
:1071F00012D00078222827D300231722194603989B
:1072000001F0D2F800280AD00421039806F0CEFC41
:107210000290002806D104E06B4805B0F0BD1120B3
:10722000FBE7FFDF0298083002F0BEFF0546387822
:10723000012803D0022804D00720EEE7A80703D5D1
:1072400004E03420054201D10820E6E7B8793C1D6E
:10725000C00709D0E088002806D0A0680AF016FB15
:10726000002801D01020D8E720883F78002100288E
:1072700011D0C21FFA3A0721112A1ED2130013F0AF
:1072800025FC110F0D130F240F1824160F0F2424A3
:1072900024240F240F006846017018E0022F14D137
:1072A000684606700846B8E7012FF9D00DE0EA06F7
:1072B00000E0AA06002AF3DA07E00246FF3A813A24
:1072C0001F2A02D97D3A022AEAD869460870684620
:1072D000017801982346203080780090029801912F
:1072E000428801460398FEF73AFD96E7FFB58BB05A
:1072F000002001901F4615460C460E460B98FAF7E3
:107300006AF8002805D00078222804D208200FB09F
:10731000F0BD2D48FBE7B80801D00720F7E7032FA1
:1073200000D100270B9806F00EFC0890002C1FD00F
:10733000022D7DD320460AF0E7FA002806D1601915
:107340000090401E0AF0E0FA002801D01020DEE78D
:10735000AD1EAAB221461B4804F0FAF90146009876
:107360001E38427F037F10021843814271D1ADB2B3
:107370001348B90702D50189491C00E0012189B2EF
:107380000091F90701D0078900E00E4F03AA089980
:10739000009803F0DAFF0DE0F078B17800020843BE
:1073A000102856D80199091D401880B20190A842B2
:1073B0004FD82618002E6ED070783278010207E080
:1073C00058030020FFFF00000230000001340000DD
:1073D000009811438142DFD35DE0C07B01075AD59D
:1073E000002C41D001996618091D89B20991F178E4
:1073F000B378090219438C4610292AD809996144A7
:10740000A94226D871783378090219438A4220D1DB
:10741000C00620D509990AAA072061180292009196
:10742000019070783178000208436346002200E042
:107430000FE0089903F049FE002802D0FEF793FA06
:1074400065E7F078B178000208436946098D884203
:1074500001D00B205BE7F078B1780002084309996E
:10746000401880B2019007E0C00605D51046089983
:10747000FEF7CCFC0028E3D16946C87BEF21084029
:107480006946C8730870087C4870488AFF23009AD0
:10749000089904F083F803A803F060FF002803D1E3
:1074A0006846428ABA4298D904210B9806F07EFBBE
:1074B000040000D1FFDF2288002A0CD0002507201D
:1074C000019500902B4621460B98FEF748FC0028BA
:1074D000B6D125801BE7002019E7F0B500248DB058
:1074E0001F4616460D46002A1DD0B90802D00720B7
:1074F0000DB0F0BD032F00D1002706F024FB08904B
:10750000FF2807D0002D10D028460AF0F2F90028F5
:1075100009D101E05448EBE73188681E08180AF0E9
:10752000E8F9002801D01020E2E75049B80701D55A
:10753000488900E00120FA0702D04989491E00E08D
:107540004B4903AA8FB2089903F0FFFE38E0694661
:10755000C97B090734D509AB0721002202930091AA
:107560000192434B089903F08FFF002821D1002D91
:1075700021D06A46928C3188A2182819121D914296
:1075800034D369464A8A0270120A42708A8C827029
:10759000120AC27009A90722001D009202910190EF
:1075A0006946488A8B8C0022089903F06DFF0028F9
:1075B00001D003209CE76846808C2018001D84B20F
:1075C00003A803F0CBFE002804D0822806D0FEF7E3
:1075D000CAF98DE76846408AB842B8D9002C07D06E
:1075E000002D10D03188A01C814203D20C207FE7EF
:1075F00005207DE7224629461D4804F0A9F82919EF
:107600000870000A4870A41C3480002070E710B590
:1076100004460AF058F9002801D0102010BD134884
:1076200040892080002010BD70B50C4605460E2113
:10763000204612F0E7FF00202080002D05D0012D0C
:1076400001D0FFDFA1E4062000E00520A0719CE44A
:1076500010B50C4603F04CFE002800D0FFDF20469A
:10766000FEF781F910BD0000023000005803002031
:10767000FFFF000010B50446007894B0022804D043
:10768000012802D0FD4814B010BDA078002806D013
:10769000032804D86078002801D0032801D90720E6
:1076A000F1E73F20694608702078022801D00120C8
:1076B00000E000208870607800F090FD6946C01DF1
:1076C000C870A078012800D1022000F087FD69462B
:1076D0000871607800F082FD69464871A07800F07A
:1076E0007DFD694688712078012802D1C878401C48
:1076F000C87009A9684603F0B5FF002800D0FFDF75
:107700000020C0E7FFB5DE4906468DB01546886803
:10771000C96803AA43C2687A297A4018C7B2002E02
:107720000ED00024F01DC008C000B04200D0FFDF22
:1077300028880599401C80B20090002C02D007E0F8
:107740000124EFE7C0B207F087FE002800D0FFDF7A
:1077500000980599000108182969C01C0191810849
:1077600089003A460591002C08D100200870019844
:1077700080B203F077FC002800D0FFDF0599019864
:10778000234608180590A87A297A3A464018C1B2CB
:1077900005A800F069FD0598C01C800880000590D0
:1077A000697A00912B7AAA7A002C00D0002001A9D6
:1077B00006F0D6F8002800D0FFDF694689880598D2
:1077C000169B4018C01C8008BC468000109F179A6A
:1077D00018990093019202910590002C00D000208E
:1077E0003B46624607A906F047FA002800D0FFDFB3
:1077F0006946898B05984018C01DC008C000821BCF
:107800000E9905900A60002C3ED101210907C96A32
:10781000C9430906090E03D19A490968491C03D0D6
:107820009949401A9949C86201232C220BA998480A
:1078300006F014F800F0DCFC00211E22084601F0DE
:10784000DFFEFAF7CBFC00F075FEFEF7A5FD03ABFB
:10785000002205218FA0FBF787F9002800D0FFDF69
:1078600028460C30FFF7D2F8002800D0FFDFFF21B8
:1078700089008A4812F0C8FE854801211C384176EB
:10788000022181760621C17611B0F0BD10B5834C7E
:10789000A078092800D3FFDF207870214843001921
:1078A000002101714179F722C908C900C91C1140A2
:1078B000EF22114041710121E170001D10BDF7B5AB
:1078C00005460078002700090C463E46052800D0F2
:1078D000FFDF287E00280AD0012810D0FFDF0298A1
:1078E000002C068001D0278066800020FEBD022784
:1078F0000926002C10D0A88BA080A87F0AE00327BF
:107900001426002C08D06888A080286AE060A88C23
:107910002082287F2072E2E702980680E5E70620B1
:10792000704770B55D4CE07800281BD0207870213E
:1079300048430019407900254007400F01191F20D6
:1079400040010918087E401E08762078401CC0B20D
:107950002070092800D12570A078401CA07009F083
:1079600085FBE57070BD4A481C38C07E002800D0F9
:107970008CE77047F0B5464D00269BB07C3D686FA4
:1079800000280BD0FFF7EFFF002876D07022696F38
:10799000F9F7FCFBFFF7C5FF6E67F0E73C481C38C2
:1079A000407E002869D0FFF771FF0446384805F093
:1079B00084FF6060002800D1FFDF606803F09BFE59
:1079C000002811D02046F9F7B9FF6078010706D5E5
:1079D000C008C000401C6070FFF7A3FFCFE72C4831
:1079E000616805F073FFCAE72948616805F06EFF1A
:1079F00001A800F072FC002871D16846032180883C
:107A000006F0D4F802906846808806F02CFA074603
:107A10000298002800D1FFDF02984068002802D0B9
:107A20000078FF285BD0FFF731FF04463846211D60
:107A300005F078FE002800D1FFDF60680C9006702A
:107A4000684680886080204600F05BFE384605F07E
:107A500094FE002800D1FFDF3B2168460173818836
:107A6000C18103A805F0D1FA0DA804F0A8F8607848
:107A7000010715D4C00619D41CE030E00530000021
:107A800040AC010000100010000000200005004084
:107A9000B40700206E52463578000000B80300207D
:107AA000C008C000801C6070FFF73BFF02990C9873
:107AB000486064E702984068002807D00178491CB4
:107AC0000906090E017089D1FFDF58E7002211462F
:107AD000384600F07FFB002885D1FFDF4FE71BB061
:107AE000F0BD10B5FE4C0422A06020460C3012F010
:107AF0002CFDFC4801F018FD607010BDF849002015
:107B00000870704770B5F84E0546706A94B00C4620
:107B1000401C04D1B06AC0430004000C0BD0306A92
:107B2000C007C00F2870706A12F081FDB06A207122
:107B3000000A607110E02B206946087009A96846A8
:107B400003F090FD002800D0FFDF012028700622FE
:107B50000AA9204612F0F9FC2878002803D06079A1
:107B6000C0210843607114B070BDF0B5DE4C06460C
:107B7000206895B00D4637460837401C08D160682C
:107B8000401C05D1A068401C02D1E068401C11D007
:107B90002068314612F04BFD6068311D12F047FD40
:107BA000A068394612F043FDE06831460C3112F00E
:107BB0003EFD1DE02B206946087009A9684603F0C8
:107BC00051FD002800D0FFDF08220AA9304612F03C
:107BD000BCFC2B206946087009A9684603F042FDE9
:107BE000002800D0FFDF08220AA9384612F0ADFCB9
:107BF00020692E460836401C08D16069401C05D11A
:107C0000A069401C02D1E069401C12D020692946BD
:107C100012F00DFD6069291D12F009FDA0693146C1
:107C200012F005FDE06929460C3112F000FD15B097
:107C3000F0BD2B246846047009A903F013FD002849
:107C400000D0FFDF082209AF28460AA912F07DFC08
:107C50006846047009A903F005FD002800D0FFDF85
:107C60000822391D304612F070FCE0E730B59F4C19
:107C70000546606F002800D0FFDF656730BD3EB568
:107C80000546032105F092FF0446284606F0EBF86E
:107C90000546002C00D1FFDF6068002803D0007883
:107CA000FF2800D1FFDF01AA6946284600F092FABA
:107CB00000280ED1FFDF0CE0002202A9284600F0C8
:107CC00089FA002800D1FFDF6846007A002800D03A
:107CD000FFDF6A461078411E1170EDD2606801998D
:107CE000884201D100206060804C6034A07E022870
:107CF00000D3FFDFA07E401CC0B2A076012803D1D4
:107D00007748407801F031FC3EBD70B504467848B4
:107D100016460D46814200D1FFDF012E01D0FFDF64
:107D200070BD5520207000202076A5830120A0770B
:107D300070BD70B515460C460646FFF714FE0028C8
:107D40000CD0552101704680012101762168016225
:107D5000A18881840577FFF7E4FD70BD13213046CB
:107D6000FAF7EEFC70BD70B505460C46084609F002
:107D7000AAFD002801D0102070BD2846F9F72BFB82
:107D8000002805D0284600F017FF2070002070BDA5
:107D9000584870BDF3B5044687B00020069050489F
:107DA0000178002902D0082009B0F0BD4C485249A2
:107DB0004160204609F087FD002867D1089809F046
:107DC00082FD002862D1677A237AF818FF2870D8DC
:107DD0002088FE286DD8002800D10A202080216943
:107DE000002901D10B21C90121616268002A15D047
:107DF000557890786E00AD192818157806267543C9
:107E0000281855796E00AE191579B4466E00AD1973
:107E1000D278062665447243551905E0780006229B
:107E200038185A4310180546FA00D21B1018DA0009
:107E3000D21A1018181886B21B20704305902846D5
:107E40001B2250430290D82901D20920ACE7A07A26
:107E5000B8422ED8082F0DD8012B0BD807F059FCAB
:107E6000074609F0A4F83A1A207A617A521E43189C
:107E70009A4201DA122097E7676801910090002F7B
:107E800019D0384609F040FD002801D010208BE7BA
:107E9000B8787978401839784218009901984018D4
:107EA000904206D179793A798918FA788918884206
:107EB00001D0072078E70298019687B200970598CD
:107EC000029583B2224603A90020FFF71BFC044859
:107ED000089A0399406812680918914212D90DE076
:107EE000180000207579000080000010380700207D
:107EF000FFFF000002300000881200200898016097
:107F0000042051E70097059922468BB2019602950D
:107F100004A9FA4CFFF7F6FB04990398884200D0B5
:107F2000FFDF0498616840186060089908600120CC
:107F3000F34920700870069836E7F8B507460E46F4
:107F4000084609F0C0FC002809D1384609F0D1FCE8
:107F5000002804D1F81C80088000B84201D010200D
:107F6000F8BDE8488178002911D031880091417826
:107F7000702251430C182079241D0007000F33464E
:107F80000022214600F0F6F9050004D015E000209B
:107F900030800520F8BD002F13D031880098814231
:107FA00001D90C250DE0207833460007000F3A4632
:107FB000214600F0DFF9050005D00C2D01D000208E
:107FC00030802846F8BDCF484178491CC9B241707D
:107FD000092901D1002141708178CB4E491E817061
:107FE00060784107490F01290BD0022903D00329EA
:107FF00017D0FFDFE5E7C006E3D46088FFF73FFE58
:10800000DFE7C14861681C3005F060FC707E401CF1
:10801000C0B270760128D4D1B848407801F0A5FAF2
:10802000CFE7F07E401CF076CBE770B50D460446F6
:1080300009F02CFC002804D1284609F044FC002853
:1080400001D0102070BD2946204607F03EFA70BDD1
:1080500070B5044615460E46084609F017FC002880
:1080600004D1284609F02FFC002801D0102070BD53
:10807000022C03D0102C01D0092070BD2A463146B5
:10808000204607F046FA0028F7D0052070BD70B5ED
:1080900014460D46064609F0F9FB002809D128468A
:1080A00009F011FC002804D1204609F022FC002828
:1080B00001D0102070BD22462946304607F04FFA05
:1080C0000028F7D0072070BD10B594B0044609F021
:1080D000FAFB002802D0102014B010BD0F2008A910
:1080E000087369460BA803F0BDFA0028F4D168466E
:1080F000007A207068464089608068468089A08048
:108100000020E9E770B505460C46084609F0F1FB8A
:10811000002806D1002C09D0206809F0D4FB0028E3
:1081200001D0102070BDA088002804D02146284628
:10813000FEF784F970BD092070BD70B504460D4688
:10814000084609F0A3FB002807D1601E1E2815D899
:10815000284609F09BFB002801D0102070BD022C9E
:1081600001D9072070BD002C00D1FFDF6749A000B6
:1081700040188038C16F2846884770BD2046203897
:108180001F28EED829462046F9F774FF70BD70B558
:1081900004460D46084609F096FB002807D1601EEC
:1081A0001E280ED8284609F071FB002801D01020A7
:1081B00070BD012C01D0022C01D1062070BD07201A
:1081C00070BD204620381F28F9D829462046F9F7E7
:1081D000BCFF70BD10B505F018F910BD032803D021
:1081E000022803D001207047062070470320704703
:1081F00010B594B0FAF7E8FE40484178806803F083
:108200000CFC3E4801240C300178012915D13022A4
:1082100069460A70C0788870002802D0012802D010
:1082200003E08C7001E000208870084604F0EDFE49
:10823000002802D009A803F0C2FC022008A9087196
:108240004871887109A8FFF715FA002800D0FFDFF0
:1082500008A8047103214171817109A8FFF70AFA86
:10826000002800D0FFDF37E7F8B506460220002AD5
:1082700002D050004018401DC7B23068C01C8208B0
:1082800092003260002B23D11E483B460A21283839
:1082900009F000FA002408E0230012F017FC0A0697
:1082A00008060A0A0C0C06060611194804E01948CB
:1082B00002E0194800E0194809F00AFA054600E012
:1082C000FFDFA54200D0FFDF641CE4B20A2CE3D339
:1082D0003068390140183060F8BDF1B594B03A20EB
:1082E00008A9087369460BA803F0BCF9002800D060
:1082F000FFDF0B4E00246D4636E000001800002022
:1083000008000020B80300209807002040AC0100BE
:10831000E51E0000A9850000B52F00000DF2000049
:10832000043000002F19B87DC10706D0400704D4DF
:1083300060004019C08800F030FC1948807E002899
:1083400010D0B87D80070DD560004019C08800F0BE
:1083500099F9002806D060004019C18814980026B9
:10836000018005E0641CE4B268460079A042D9D8D7
:1083700030465CE4F8B5044600201880601E1D46B7
:1083800016460F46052800D3FFDF0649A000401817
:108390008038C36F2A46314638469847F8BD0000FA
:1083A0009807002050AC0100FFB581B01546064685
:1083B000032105F0FBFB0446304605F068FD0C3553
:1083C000AFB200252E460090002C00D1FFDF0098B0
:1083D000002800D1FFDF0298800000190189B9420E
:1083E00000D30125218CB94202D20299062900D37B
:1083F00001260499A94304D0817A02221143817293
:108400000AE00499B14307D0827A04210A438272B8
:108410002034A0780843A0702846304005B0F0BD55
:10842000FFB581B00A9D174628460C3080B20E4633
:1084300000900B9C00232A4639460198FFF7B4FFB1
:10844000002803D0B078C00906D01EE0072F01D065
:108450001120E3E7FE48E1E7241F2570280A607039
:108460000498A070000AE070019805F010FD040067
:1084700000D1FFDF2D1D2046A9B204F0B5FE002873
:1084800000D1FFDF019803F03AFAB80080190289A1
:108490000099511A0181062F03D2318C0098081AD5
:1084A00030840020BAE7FFB585B01E460F460F9D09
:1084B000109C05F0ECFC002833D0079A6946121D89
:1084C00092B204F028FE00282ED00098077068466B
:1084D0000089042800D2FFDF0321019812F092F8EE
:1084E00000221146019803F0C4FA002E03D068461A
:1084F0000089001F30800E98002803D001980E9943
:10850000C01D0860002D02D06846008A2880002C1B
:1085100004D02888002800D003982060002009B0EB
:10852000F0BDCB48801EFAE7072F01D01120F6E7F7
:10853000C748F4E70020C74902464300401CCA521E
:108540000828FAD3704770B50C460021A170217835
:10855000090909012170012161700021616005F0A4
:1085600096FC050000D1FFDF284604F0D2FDF53867
:108570002085204600F0C8FB70BD70B50D46032174
:1085800005F014FB040000D1FFDFA0786906C009E4
:10859000C001490E0843A07070BD704710B5014678
:1085A000012009F034F910BD3EB58DB203212846F3
:1085B00005F0FCFA040000D1FFDF207869460009CD
:1085C0000001207002200870A348488088800022A3
:1085D0002846F9F7F9FC3EBDF7B50546002082B004
:1085E0000746019028780C460009012800D0FFDFDB
:1085F000287E032809D0FFDF0498002C078002D0D2
:10860000019820806780002008E7AE8B70200190E1
:1086100030460A3087B2002C19D06888A080688B59
:108620002081E680A889001F80B200900246A968D8
:1086300020460A30C91D11F088FF00988642DBD918
:10864000321A20180A30296911F07FFFD4E7049804
:108650000780D8E7FFB583B00F461C4616460321B6
:108660000C9D039805F0A2FA010008D033463A4663
:10867000019500940398FFF7D3FE07B0F0BD74484E
:10868000801EFAE770B50546734886B0854214D05F
:10869000284605F0E8FB040000D1FFDF20466946CC
:1086A00005F040F8002800D1FFDF019CA079617936
:1086B00000020843E41C052802D0012006B070BD6A
:1086C0002E460321284605F071FA050000D1FFDF90
:1086D000207912280AD160782178000208430C28FA
:1086E00004D1A8784006400E022806D000230622B6
:1086F00004213046FFF758FEE0E70023062205215B
:10870000F7E7F0B584688BB02179E3780A02A179A4
:108710001A4363790D021D438389818AE41C5B1827
:108720001B1F934218D1042D18D0052D6ED0062D95
:1087300065D0402D10D304461646284600F0D8FADE
:10874000082809D011202070032020766583A68395
:1087500060780821084360700BB0F0BD241D0394BD
:1087600016460446024630460399FCF784FFC0B221
:108770000828F1D1002768460784069760880321FE
:1087800005F014FA050000D1FFDF3448298900887C
:1087900081420ED317226846028406A801970297E9
:1087A0000090002360881946FFF77DFE002800D066
:1087B000FFDF009408AA3046069B0399FDF7AAFE46
:1087C000C0B2030012F082F905051904160419005D
:1087D000C2E76846008C0028BED00699019100903F
:1087E0006088042300222946FFF71AFE0028B3D030
:1087F000FFDFB1E760781021ACE7FFDFACE7009165
:1088000003694088211DFBF758F9A5E7074616467E
:108810004088032105F0CAF9050000D1FFDF0020E0
:1088200069460873A878400600D1FFDF042E93D371
:108830002179C807C017401C06D16A7863799A422B
:108840008AD12A78120787D0142950DA012907E043
:1088500004300000E4070020FFFF000068AC0100C6
:1088600043D0122902D0132941D129E00C2E3ED148
:10887000A9784906490E012939D028780121000933
:108880000001401C28706079687068460173607A46
:10889000227A010211436846C181E07AA27A01027C
:1088A000114368460182607B227B010211436846C6
:1088B0004182E07BA27B01021143684681821AE07B
:1088C000062E14D12878000900012870798801202B
:1088D00008F09DFF022168460173C91EC181607ABC
:1088E000227A0102114368461EE0062E09D069462D
:1088F000097B00291AD078883A4603A9F9F764FB66
:108900002AE728780009000128707988012008F0FA
:108910007EFF022168460173607A227A01021143C8
:108920006846C1810021C9430182E4E70028E7D0FD
:108930007E882F46002509A8009001952B46062227
:10894000042102953046FFF7AEFD002800D0FFDF7E
:108950000998012101706179417002218170002123
:10896000C1700571290A417106210091019005230A
:10897000042239463046FFF753FD0028C0D0FFDF00
:10898000EAE67FB50D460646032105F00FF904001F
:1089900048D020780007000F012845D0002003A907
:1089A00001900346009102900C2205213046FFF70A
:1089B0007AFD002834D103981221017061780523D3
:1089C000891C4170082181700021C17029880171C2
:1089D000090A417169888171090AC171A988017206
:1089E000090A4172E9888172090AC1720C21009159
:1089F00001901A4621463046FFF712FD002800D0AC
:108A0000FFDFF02300223146012008F071FE2078BC
:108A100000090001401C20706078801C60700020FC
:108A200004B070BDC248FBE71120F9E77FB50D46E1
:108A30000646032105F0BAF8040006D020780007A6
:108A4000000F012803D00820EAE7B948E8E7002032
:108A500003A90190034600910290062205213046A9
:108A6000FFF721FD0028DBD1039813210170617805
:108A70004170022181700021C1700571290A417184
:108A800006210523009101901A4621463046FFF742
:108A9000C7FC002800D0FFDF20780009000120700B
:108AA0000020BDE7F3B585B00E460321059805F01B
:108AB0007DF80546059805F0EAF901900020009040
:108AC000002D00D1FFDF0198002856D1FFDF54E0D0
:108AD00002A90022019804F098FC03906846047AE9
:108AE000082C00D3FFDFA00047190398398908300C
:108AF00009183981062C02D2298C08182884072CE1
:108B000003D10098401CC0B20090B97AC80710D0B9
:108B1000072C03D0874A6000105A00E0288D3A895C
:108B2000824206D348084000B8720598032C2BD027
:108B3000FFDFB87A810706D5FD210840B872059895
:108B4000032C24D0FFDF062C17D82846203081784C
:108B50004A0712D5FB27394081700024A000411933
:108B6000887A420705D5384088720598032C11D0C1
:108B7000FFDF641CE4B2062CF0D33046761EF6B25A
:108B80000028A5D1009878E5FBF735F8D1E7FAF78A
:108B9000F3FFDAE7FAF7F0FFEBE710B5032105F092
:108BA00005F8040000D1FFDF204600F0ADF8A07802
:108BB00080210843A07010BD10B5032104F0F6FF1A
:108BC000040000D1FFDF208D232111F038FDC0B259
:108BD00010BD70B50D46032104F0E8FF040000D17C
:108BE000FFDF062D00D9FFDF072D03D051496800B4
:108BF000085A00E0208DA90009190A89824204D28E
:108C00008A7A012002438A7270BD002070BD10B5BF
:108C10000446402801D2072010BD00F069F808285A
:108C200002D03120000210BD0021434802E0491C5F
:108C3000082903D24A00825A002AF8D1082903D011
:108C400049004452002010BD042010BD10B540283A
:108C500001D2072010BD00F04BF8082805D00021F4
:108C6000354A40001152084610BD052010BD70B5B0
:108C700088B015460C00064607D0002D05D0608848
:108C8000402804D2072008B070BD1020FBE72188DF
:108C9000002929D000F02CF8082827D003AA06A91B
:108CA00005A86B4607C3228804AB07213046FFF7AF
:108CB000FAFB0028E7D16846028A2946059811F098
:108CC00044FC68462188008A814204D90A1A29187E
:108CD000039811F03AFC05980090238862880721D8
:108CE0003046FFF7B7FCCEE70C20CCE70520CAE7FB
:108CF00001460020104A02E0401C082803D243002D
:108D0000D35A8B42F8D1704710B504462021083061
:108D100011F07AFC074800214A008B001B19825A87
:108D2000491C1A810629F7D9208DA08410BD0000A6
:108D30000230000068AC0100E407002030B40121DB
:108D4000B848C9020160CD1005604A030260B64808
:108D500003681C02240A002304600468240A240215
:108D60000460B2480468240A24020460B048012464
:108D700044608460AF4C23606360A360AE4B1960B5
:108D80001D601A60AD4B19601A600121016030BC92
:108D9000704710B40121A348CA0202600B020360AD
:108DA0000C060460A24841608160A5484168002922
:108DB000FCD1A04900200860486088609E4802609D
:108DC0000360046010BC704701219B48C902016028
:108DD000C91001607047002805D0012805D002287D
:108DE00005D198487047984870479848704700B533
:108DF000FFDF002000BD30B50021954C954D964A0F
:108E00008C4B002805D001281AD002281FD0FFDF84
:108E100030BD01200004A060A860116019608F4B74
:108E2000C2039A608E4A90607E4A001210608D489C
:108E30000160854801608C4801608C48017030BD3C
:108E400001204004A060A8605160596030BD01203D
:108E50008004A060A8609160996030BDF0B5944630
:108E60007B4A834F7B4D00240126002805D0012832
:108E70002ED002283CD0FFDFF0BD891E0902090A6E
:108E80000120000490603C6468606D4A1164012B0D
:108E90001CD00021754B774A597061461661764A9D
:108EA000546002249460042414616E4A3D311160C0
:108EB0006D490E60604A89151160694A50605F48CB
:108EC00001606649C00548601E70F0BD0121E1E700
:108ED00001206A4E40046A4F012B04D13464506073
:108EE00068603964F0BD9060346468603964F0BDD6
:108EF0000120644E8004644F012BF4D1EEE750480A
:108F00004068704770B54B4D28680026504C0128CA
:108F100006D1A068C00303D501200004A0602E6024
:108F20006868012809D1A068800306D501204004A3
:108F3000A0606E60012007F092FAA868012809D1AC
:108F4000A068400306D501208004A060AE60022026
:108F500007F085FA70BD10B544490878002818D08C
:108F600001203E4AC00790603D4AC00B90602D4AE8
:108F7000001210603B4A00201060334A10603A4AE9
:108F8000106008704A78002A02D0487007F067FA2B
:108F900010BD0320FAE701203C4900060860704735
:108FA0000120254900060860704701203749400527
:108FB00008607047012020494005086070472D492E
:108FC000012008611C49000208607047410A304ACC
:108FD000C005C00D5043FF3001305143400A08180E
:108FE000704710B42B4C430B63431B0C5C020C60AA
:108FF000274C6343C31A28485C025843244B400D56
:109000004343E31A0124DB03E4051B191B16137009
:109010000A681018086010BC704710B507F0E4FA31
:1090200010BD000080E100E008E400E018E400E08A
:1090300000B0004040B1004080E200E000E100E00C
:1090400000B5004048B100404081004044B10040BC
:1090500000B3004040B3004040B5004000F501407F
:10906000008300404085004000820040280000202E
:1090700000B10040008000400085004004B1004085
:1090800004B5004008B1004008B5004000E200E02F
:10909000093D0000378600006F0C010010B5EFF3AA
:1090A0001080C407E40F72B6D8484178491C41705B
:1090B0004078012801D107F0F7FF002C00D162B6FB
:1090C00010BD70B5D14CE07800280AD10125E570BB
:1090D000FFF7E4FF07F0F0FF002804D0002007F0BE
:1090E000CAFF002070BDCA4865714560F9E770B5D8
:1090F000EFF31080C507ED0F72B6C44C60780028FE
:1091000000D1FFDF6078401E60706078002801D1D8
:1091100007F0CEFF002D00D162B670BD10B5BB4880
:10912000C178002904D000214171C170FFF7DFFF31
:10913000002010BD10B5044607F0BEFFB349C97842
:10914000084000D001202060002010BDF8B5054681
:1091500041788278AD4800248171C2710472287808
:109160002646002804D0012810D0022810D0FFDFA6
:1091700007F0AEFF002813D007F0B0FFA0420FD1D8
:10918000204607F0AEFF0028FAD035E00124EFE7D3
:10919000FFF784FF07F090FF0028FBD00224E7E7E9
:1091A00001208107C8609B4F7E609B4A9461984B69
:1091B00002225A60886099480169C943C906C917E3
:1091C000491C0091016910221143016100E020BF98
:1091D00078680028FBD0204607F083FF0028FAD0EB
:1091E0000098002804D18D48026910218A43026149
:1091F0008749022088607E60844FF87900280FD06C
:10920000287800280CD107F057FF054608F024F90C
:109210008349002D02D0F960386101E03961F860BE
:10922000002C01D03E71F8BD0120387100F0CFF85C
:10923000F8BD10B5040000D1FFDF00207449C04321
:109240008860744A002111605160D160116107F09B
:1092500039FF002805D06D490120C8704878401CAE
:1092600048702046FFF772FF10BDF8B50125AF0723
:109270007D61664CE07900281FD0012803D0217A57
:10928000401E814219DA07F017FF064608F0E4F89D
:10929000E179012902D9217A491C2172002E01D0DD
:1092A000216900E0E168411A022901DA8A1C10DC18
:1092B000002E01D0206100E0E060FFF7EFFE07F034
:1092C000FBFE002802D03D61A57000E02570002063
:1092D0002072F8BDFEB54F4CA068002801D00126D1
:1092E00000E000262068002801D0012500E00025CC
:1092F0006068002801D0012700E00027E06800280E
:1093000000D0012001902069002801D0012100E057
:10931000002100913146294338468843019988430A
:109320000099884300D0FFDF30460026002803D094
:10933000A660012007F09FFE2800344D12D0266061
:109340006879002803D06E71002007F094FE287819
:10935000002807D007F0B0FE002803D00120A87035
:1093600081070861002F00D066600198002808D0AE
:10937000E660A878002800D1FFDFAE702E70FFF7FE
:10938000B6FE0098002805D026612879002801D073
:10939000FFF76BFFFEBD10B51C4CE078002801D133
:1093A00007F086FE012081078861A078002809D097
:1093B000184CE068002803D107F093FE0028F8D18C
:1093C0000020E06000201249C043886010BDF8B55D
:1093D0000F48192787600124A507AC610D490020BB
:1093E0000860C860086107F067FE084E002802D0D8
:1093F000B4702C6100E03470FFF750FE0649B0797C
:109400008863034847606C61F8BD00002C000020B1
:1094100000030040000100400005004000ED00E0B6
:10942000FFFFFF7F8107C90E002808DA0007000F41
:10943000083880082B4A80008018C06904E0800842
:10944000294A800080180068C8400006800F7047D5
:1094500010B50D20FFF7E6FFC4B20420C043FFF7AC
:10946000E1FFC0B2844200D0FFDF20490120486004
:1094700010BD01211E4A480310601E4B00221A60D5
:109480001D4A51601D4A10601D4A116018498039FB
:10949000086070470121164A48031060184A51605D
:1094A000144A0021116015490860704710B5114930
:1094B0000868012801D0FFDF10BD0C488068002239
:1094C000C0B20A6007F012FF10BD10B5094801686C
:1094D0000029FCD0FFF7EAFF01200849400308609B
:1094E00010BD000000ED00E000E400E000D5004009
:1094F00080E100E000D1004000D3004080E200E0C5
:1095000000D0004001203949400608603849086011
:1095100038490A68FF231B029A4383121A430A60E0
:10952000324980390860704700B50246042032494C
:1095300004E0C3005B181B79002B07D00346401ED4
:10954000C0B2002BF5D1FFDFFF2000BDC300CA5021
:10955000002259184A718A7101220A7100BD264AF7
:109560000021C00080180171704710B5044604281E
:1095700000D3FFDF2048E1000C182079012800D03B
:10958000FFDF6079A179401CC0B2814200D06071D8
:109590000120164940068031086010BD70B515489D
:1095A00004250068144E0004800F144C022817D0C4
:1095B000FFDF15E02078C10088190279012A07D160
:1095C000427983799A4203D04279827170588047F8
:1095D0002078401CC0B22070042801D300202070E5
:1095E00028466D1EEDB20028E4D170BD80E100E098
:1095F00080E200E018E400E0F407002040000020D2
:1096000010B5FE4B586019721A80C90010F0FCFFAB
:1096100010BD00210180704710B50022D2430280A6
:10962000032008F0F4F810BD7047F0B50E4604466C
:10963000017801208840F24999B0084000906168A3
:1096400015460888EF4A904206D0009A002A06D0B4
:10965000EB4A521E104202D0012019B0F0BD009A10
:1096600010430880002D12D0002028702178EA1CB9
:109670000027681C01920B0011F028FA10F30E1657
:10968000233A59616F3CB4B08AB8F2F1F0F3207814
:109690000B28EBD00420E0E702212970A18901709A
:1096A000090A4170032097E004212970A189017003
:1096B000090A41700198E1890170090A4170052089
:1096C0008AE006212970A1890170090A4170019977
:1096D000E2890A70120A4A70218A0171090A4171ED
:1096E000A28AE81DA16910F030FFA08AC01D73E0B6
:1096F000082129702178082901D110212970A18918
:109700000170090A41700198E1890170090A4170EC
:109710000520308020466A1D02A9103005F01FFF89
:1097200000287DD169463088097A401854E00A2122
:109730002970A1890170090A417003200BE00C21F6
:109740002970A1890170090A41700198E1890170AD
:10975000090A4170052030809CE0A08984464000C1
:10976000401C81B2308888425AD3052958D30E2034
:109770002870002008E0236942009B5A5219537058
:109780001B0A401C937080B26045F4D33180B9E06D
:109790009A48417A002973D0491E4172217B406862
:1097A000C9004518A9882868082240180838216986
:1097B00010F0CBFE0221684601710021417128683A
:1097C0000390A98868460181002101A8FBF79EFD4E
:1097D0000020A880002E00D0308093E029788022DD
:1097E0001143297029784022114329702978890969
:1097F000890112312970A1890170090A4170E28939
:10980000E81C216910F0A1FEE089C01C3080287896
:1098100041063FD5C00975D001216846017200E0BC
:109820002CE0002141723188091D81810495E18974
:10983000019808180590001D06907048017A684646
:109840000177002102A8FBF761FD074630880C3044
:109850003080022F06D0002F54D065E03DE033E089
:109860001CE05EE065486946097F4268CB00D2187B
:10987000037A994202D29188002902D0042753E04A
:109880002FE0417A491C4172156030889080002099
:10989000308049E06168A089888033E029788909AF
:1098A000890116312970A1890170090A4170019856
:1098B000E1890170090A4170228A681D616910F00E
:1098C00044FE208A401D46E7287880098001183030
:1098D0002870207B687002207EE760680188090498
:1098E00001D4052720E0C088A189884201D006273D
:1098F0001AE01E2028700120308060680188490429
:10990000490C0180009800280ED03C4800220088B5
:10991000A1688300032007F0EBFE6168207888705F
:1099200007E00020308003276068009902888A439E
:109930000280384691E6FFB59BB0249D0E46002874
:1099400005D0172803D82A882E4B9A4202D1072027
:109950001FB0F0BD3278530601D4D20901D00820DF
:10996000F6E700226B461A705A701446327802AB42
:109970001793431E19939BB216939706CB1CBF0EE9
:109980001893821E711C3B0011F0A0F8209011F07A
:1099900066F074F0B4F0D6F0EFF0EEF0EDF0ECF02D
:1099A000EBF0F0F0EAF0E9F0E8F0E7F090F00528ED
:1099B0007CD1042168460170A9780171F078B278F1
:1099C000010211436846C180317941707078800688
:1099D000800E0C282ED009DC801E030011F076F8D2
:1099E0000919661C662166246627660012282AD09B
:1099F0000ADC0E2821D01028DAD121E0140800203A
:109A0000FF710000FFFF000016281FD01828CFD1DB
:109A10001FE02878800701E028784007002845DA11
:109A20004FE128780007F9E72878C006F6E728789C
:109A30008006F3E728784006F0E728780006EDE78F
:109A40002888C005EAE72888C004E7E7288880045A
:109A5000E4E728884004E1E72A78920726D503281E
:109A6000A6D105206A46107048780978000208439C
:109A7000908026E129784907F0D5062816D370781A
:109A800091B2012802D0022892D101E0022700E021
:109A90001027062268460270727882710022828046
:109AA000179AB01C1692BA1C18921EE0BDE04278BC
:109AB0000378801C17901202891E16981A43199178
:109AC000028016983A46801C179910F03EFD169AAF
:109AD0001798D219921C19996B4616929A88C01938
:109AE000C91B521C9A80189A89B28A42DFD9002970
:109AF0008DD1E6E028780007B0D519986A4681B282
:109B00000720107000209080701C921D11E0437897
:109B100007781B023B431380C37887781B023B43C3
:109B200053806F46BB88091F5B1C001D89B2BB8038
:109B3000121D0429EBD2DAE72978C90675D5022867
:109B400073D30821684601700021C18071780171CA
:109B50008C4692B2B01C179919E091E098E086E02B
:109B60006FE063E038E02DE021E015E0C4E04378E9
:109B700007781B023B430B80831C4B606346D21A61
:109B80006F46FB8860445B1C92B2FB8008319445B1
:109B9000EDD9002A49D194E02878800645D50922DC
:109BA00068460270AA888280169AC28012E02878DD
:109BB00040063AD50A206A461070A8889080169808
:109BC000D08007E0287800062FD50B206A46107059
:109BD00016989080029174E02988C90525D502283D
:109BE00023D30C20694608700020C8807078087163
:109BF000844692B2B01C179914E0437807781B0290
:109C00003B430B80C37887781B023B434B80031D8B
:109C10004B606346D21A6F46FB8860445B1C92B26D
:109C2000FB8008319445E8D9B3E763E02988C9048B
:109C300060D501285ED10D2168460170A988818018
:109C40003FE02988890455D5052853D30E2269465B
:109C50000A70AA888A801899401F4A7809781202E7
:109C60000A436946CA800881701D039029E029884B
:109C700049043FD501283DD10F206946087020E0F6
:109C80002A88120436D44A780B7812021A43EA80E2
:109C900003282FD332789206920E1B2A26D0112247
:109CA0006B461A702A880123DB031A432A804A78FC
:109CB0000B78110219436A469180C01ED080189813
:109CC000029030788006800E1B2809D01D2807D00E
:109CD00003201E9907F09BFD2888C00BC003288035
:109CE00068461D99FBF712FB204631E610226B46B1
:109CF0001A70DCE70724F7E70824F5E700B597B00A
:109D0000032806D16A461070019100216846FBF7CE
:109D1000FDFA17B000BD0000FFB593B00446002067
:109D20001D9E049015981C9D1027082806D0E069F8
:109D300001F0B0F8002809D03770CCE0288809215C
:109D4000384328801F980227017016E0E16901203E
:109D500088710521E269C9029180E1698872E1692F
:109D6000F8480881E1690020887328882021084389
:109D7000288011211F98042701701F980225801C3C
:109D80000390307810900A203070204618301190DF
:109D900001F006FB00206FE01598102809D1022D74
:109DA00007D06846828A04990398401A8270110A83
:109DB000C1706846C08A1699884203D9E249097A77
:109DC000149106E0884204D11099002901D0317025
:109DD00021E003990870000A48701E980088401B13
:109DE000C01B83B2FF20C01B984200D203460398D9
:109DF000149AC0190CA90092019002912020015DD3
:109E00006846C08A002201F03FFB3070002806D06F
:109E1000C0B2832862D06846C08A208345E00F988C
:109E2000002805D0C848006800790A2830D33CE0F3
:109E30006846008EC119C9B20491022D0FD01F9936
:109E4000049A4978914203D16A46128C824209D021
:109E5000BD48049100680178032909D027E008462D
:109E60001F994870B84800680178042906D008E0B6
:109E700000790A281BD201200F9009E06946C98A9F
:109E8000818003990498081803900498281885B2D3
:109E900005AA1499119801F086FA002805D11E9898
:109EA0000088401BB84200DB76E7022D0ED01598E3
:109EB000102807D1049A03996846808A891A887005
:109EC000000AC8701E980580002030709E48006807
:109ED0000078032802D0002017B0F0BD0220FBE775
:109EE000F8B50546406B00271346002836D0491FB9
:109EF0008EB2698F954A914208D0421854791279EE
:109F0000240214430919891D8CB200E00024A11910
:109F10002A8F083191421FD899785A78090200197E
:109F200011430170090A41701979DA780902114365
:109F30008170090AC1700671310A41713246591D9A
:109F4000801D10F002FB6C87696B00200919B61D9B
:109F500089190870487002E0092700E08327384615
:109F6000F8BD30B50B88048F9C4212D9446BE018C1
:109F70004478057824022C430BD0447905792402D7
:109F80002C436404640CA41D1B190B80106000207A
:109F900030BD822030BDF7B588B000256846058207
:109FA00007275DE00398417802780E021643417955
:109FB000027908021043000452D40A980123068053
:109FC00005A802905B02002200970195304609998E
:109FD00001F05AFA04004AD16846018A01830398C5
:109FE0004179027909021143437802781C02144333
:109FF000B4421ED10A041CD44B0401215B0C89031A
:10A0000000950B4301970295C17880780A020243BC
:10A010002046099901F059F8040011D103994879B3
:10A020000A79000210430122D20310430871000A8A
:10A03000487103AA06A90898FFF793FF0400CED041
:10A040000399009501970295487809780002084322
:10A0500069468B8A0022099901F037F8822C06D1D3
:10A0600003AA04A90898FFF77CFF04009AD0684669
:10A07000058209E0039841790279090211434904F4
:10A08000490C0171090A417103AA04A90898FFF754
:10A0900068FF0028EED0822C02D020460BB0F0BD25
:10A0A0000020FBE730B50446406B002597B0002840
:10A0B0000DD00B2268460270228F0281606B0391E3
:10A0C000019000216846FBF7CDFE68460570002030
:10A0D000C04365636087258717B030BDF8B50F466C
:10A0E0000546696B0020069E144600290FD0012BFF
:10A0F0000DD1324639462846FFF74DFF002806D1DC
:10A10000002C04D032463946284600F0D2FEF8BD75
:10A11000F8B5069E4D1D3788ADB2079CAF4201D2FF
:10A120000620F8BD3580172525706070000AA070E4
:10A13000E270100A20710A461946601D10F005FAF7
:10A140000020F8BD0128000020080020FFFF0000CB
:10A1500000220280C262831D0263C3614263531EF8
:10A160004387028720300170704710B50022D24328
:10A170000280042007F04BFB10BD30B597B00D46B0
:10A180000446FFF78FFF208E002809D00120694682
:10A190000870E06A0190002102956846FBF762FEB4
:10A1A0000020E062206397E70146098800200A0743
:10A1B00000D501200A06120F01D002221043CA0561
:10A1C00001D5042210438A0501D510221043490508
:10A1D00001D5202108437047FFB5A7B00700309D87
:10A1E000339C29981E46229016D0007841060FD441
:10A1F0008106890E1E2909D021884A05520E0BD1ED
:10A200003288172A08D3FB4A914205D0C10906D0EB
:10A210008006800E122802D004202BB0F0BDF64933
:10A2200028980872002018AA039010726A461074C9
:10A2300004AA0A60319A4A6020AA908090812298EC
:10A2400000781C908106681C0190781F1D90299849
:10A25000890EC21C2492224620321B92083A401CCE
:10A2600002920B0010F032FC1FFEFE11FE1FFE8E4C
:10A27000FEFDFEFCFEFBFEFAFEFDFEF9FEFEFEF814
:10A28000FEF7FEFEFEFEFEF6FE00032F76D102E094
:10A2900018A9087236E303202870019917220A7062
:10A2A00000224A70ECE2052FF0D1417802780802D2
:10A2B0001043208320A98880249A517812780902BB
:10A2C0001143618300287DD088427BD80020207212
:10A2D000E080401E6084029801F062F8052028703A
:10A2E000A81C0190022000901BAA2899029801F056
:10A2F0005AF8002867D118A8807C012803D00220D2
:10A300006870102002E00120687002202490002272
:10A3100025A91CA805F023F900282BD120A8007D31
:10A320002499814226D132880099801C511A814299
:10A3300020DB10A8C18D01980170090A41700199B4
:10A340001CA8891C01910099019A891C009125A9DA
:10A3500005F005F920A8007D01991BAA09180191B3
:10A360000099081880B200902899029801F01BF813
:10A370000028CCD00098022825D081E273E018A9EB
:10A3800008727EE2072F6ED34178027809021143EA
:10A39000218320AA9180249B5A781B7812021A43A9
:10A3A000628300290ED091420CD80121217241799B
:10A3B000027908021043E08000202073E06900F079
:10A3C00069FD01E098E0A9E000280ED1E1690120D3
:10A3D00088710521E269C9029180E1698872E169A9
:10A3E00086480881E16900208873F81F60842298FC
:10A3F000C01D6062029800F0D3FF07202870681C1F
:10A40000009001200190002010A9C8852FE001983C
:10A41000012814D0E0698079012830D000981E38D6
:10A42000417F007F0902014300980170090A4170D1
:10A430000098801C00900198801C80B2019010A8A8
:10A44000C18D00980170090A41700098801C00902D
:10A45000019809E025E2A9E135E1D9E01FE297E0A2
:10A4600075E034E02FE2ABE0801C80B201901BAAC3
:10A470002899029800F097FF002803D007E010A861
:10A48000818DD1E731880198081A0428BFDA019834
:10A49000012843D0E0698079012804D010A8818D7B
:10A4A0005448814206D110A8818D00980170090A94
:10A4B000417009E000981E38417F027F0802009930
:10A4C00010430870000A48700198801CD8E1072FDB
:10A4D00001D0152F74D141780278080210432083EF
:10A4E00020A98880249A5178127809021143618347
:10A4F000002801D0884201D9012040E701202072C4
:10A500000020E0802073052F0AD01D982299E2696F
:10A51000C0B2491D04F0FDFF002801D00A202EE73B
:10A520000020C04360841AA8019023A922980296B3
:10A5300003950091007800238206920E2046289908
:10A54000FFF7EAFB0390208B20A9888099E1032F75
:10A55000C0D1402220A98A814178027808021043A4
:10A56000208320A988801EAB289A0293009231880C
:10A570000022491E8BB21B99097800F085FF18A9AB
:10A580000872002831D10B20287010A8008F3DE000
:10A59000052F9FD1802220A98A8141780278080264
:10A5A00010432083249984464A78097812020A438A
:10A5B000628420A988801248824202D30720DEE606
:10A5C000ADE03F208002024362841FAB28990293D2
:10A5D00000913088401E83B21B980178604600F0DD
:10A5E00053FF18A9087200280CD08328AED102208E
:10A5F000DAE00000FFFF0000200800200128000032
:10A60000010200000D20287010A8808F401C37E147
:10A610001C990C22C9095143C91CB94204D91C9880
:10A6200040067CD500202BE14278037810021843C5
:10A6300020AA9080844622980078400609D50520FB
:10A640006A46107422980078C00905D00020107462
:10A650003CE106206A4610742498289A1F900090C6
:10A660000023781A029383B21E9001921B98002255
:10A670000178604600F029FD18A908720022694699
:10A680000A742299097849060DD52088C00506D597
:10A6900020A9208B8988884201D100206062002097
:10A6A00018A90872ECE0832801D102200390FF2151
:10A6B000013120A88181808820831E9860841F98A2
:10A6C00060621320DAE0052F29D34178027808026E
:10A6D000104320A98880218F002902D0F94A914295
:10A6E00006D10A216A4611740121C943218702E07B
:10A6F00007216A46117422990022491D289B029263
:10A70000009101221D99D203019311438BB2249928
:10A710004A78097812020A431B99097800E0EBE0B5
:10A7200000F0D3FC18A90872002269460A740122BD
:10A73000520220A98A81832808D0002815D0218FB1
:10A74000E04881427BD1002020879AE039462046AC
:10A75000229AFFF7C5FB18A90872002801D08328A8
:10A7600023D120A88088208341E739462046229AB9
:10A77000FFF7B6FB18A90872002816D1618F606B2D
:10A78000009643180195D8789978000208438446CA
:10A7900058791A790102114358781A780002104347
:10A7A00062469B1DFFF7B4FC03906AE02298022FDB
:10A7B0004078019072D1002801D001286ED1082084
:10A7C000694608740198087521A800901B9800221A
:10A7D00001782046019BFFF781FC694600224875FD
:10A7E0008A75002809D10198012811D0002804D1C8
:10A7F000B448218F401C81420AD0208F002807D006
:10A800000020694608740120800220A988810EE09A
:10A8100004A83199FBF726FB0390002069460874D1
:10A820000120800220A988810398022808D0A64828
:10A8300000688079002806D018A908722AE061E033
:10A84000019820831DE00398002803D0812018A9D7
:10A8500008723DE021A800901B9801220178204653
:10A86000019BFFF73BFC18A9087220463299FFF7BD
:10A8700019FC18A9087A002803D119202870012092
:10A8800030806846007C002804D004A83199FBF78A
:10A89000E9FA03900398002830D019E016E006206A
:10A8A000F6E42078000711D5012F0FD10921684661
:10A8B0000174A18881820420329906F0A8FF082142
:10A8C00020A88181AEE61C98400615D5042003908F
:10A8D00020A9208889890843208020A988898005AB
:10A8E00008D5218F7748814204D12998E0622786D4
:10A8F00003200390039890E40420C9E418A8007A88
:10A9000000280ED00120287022980078687020A8B6
:10A910008088A870000AE87018A8007A28710520BD
:10A92000308020A92088898988432080E2E7FFB50C
:10A93000A1B000201C902198012100782C9C81401E
:10A940006248604A014010A881862088521C9042CB
:10A9500003D0002904D0000702D5012025B0F0BDA6
:10A96000249E00203070239910AA0988118518AA06
:10A9700010735549229A0A726A460546107404A853
:10A9800008602A9848602198249E0178701C1E90C7
:10A99000204620300390012930D0022909D0032914
:10A9A00075D13078800980011D3030702198808801
:10A9B000A08021980078022804D130788009800195
:10A9C0001B3030701FAAF11C07206B4607C310A86C
:10A9D000008D0022C01E83B20398017821988088E0
:10A9E00000F052FD0028DBD1219881881E9801706B
:10A9F000090A417010A9888FC01CCDE021984179C7
:10AA000018A8017321980079012802D00228C7D123
:10AA100044E120887F2212011040219F10AA9086D5
:10AA200002060837120F1BD00006800F05D03888A9
:10AA3000228B904201D0052597E1002910D1B878EA
:10AA4000C0070DD0B868002207216B4607C30398E2
:10AA5000FB880178BA88388800F037FB002875D168
:10AA600010A8808E80284DD006DC102810D0202819
:10AA70000ED0402894D12BE0FF38013868D0FF3841
:10AA800001387DD0FF38FF38022889D1D8E00FE1A6
:10AA9000C00601D5082000E010201C900420694663
:10AAA0000874002088821AA81BA91DAA0396009288
:10AAB000019102903B88072120461C9AFFF72CF950
:10AAC000A2E00000FEFF00002008002009F80000BE
:10AAD0000A201C9018A8007B002836D11FAA072046
:10AAE0006B461E9907C310A8008D0022401E83B23A
:10AAF00003980178208B00F0C7FC014618A8017369
:10AB00000B2018E00C201C9018A8007B0028E4D132
:10AB10001FAA07206B461E9907C310A8008D628CE0
:10AB2000401E83B203980178208B00F0ADFC0146F3
:10AB300018A801730D20307010A8818F491C018561
:10AB4000042168460174218B8182D2E061E0FFE735
:10AB50003988208B81425CD112211C9118A9097B74
:10AB600000291AD1616A002912D0B978C90750D0DA
:10AB70000023B9680722029301920091FB8800E04C
:10AB80000CE00399BA88097800F09FFA18A90873B5
:10AB900013203070012010A90885AAE03888218B85
:10ABA000884236D116211C9118A9097B002907D0AB
:10ABB000606B002843D000206A461080D54F30E0FB
:10ABC000616B002915D0B878C00722D1608F01963B
:10ABD0000B181AA80090D8789978020258790A437D
:10ABE0001D790102294358781D78000228439B1DD6
:10ABF00008E0B978C9070CD01AA901960091BA8863
:10AC0000F988BB68FFF784FA050072D0062D50D092
:10AC10003FE005253DE00F4601AA69462046FFF7C3
:10AC2000A0F96946628F09888A4201D00028F2D0D3
:10AC3000618F626B0020511808704870678758E078
:10AC400018201C9018A8007B002809D0208B002811
:10AC50001AD03888208320462B99FFF723FA48E042
:10AC60002046183000900398237E01780122204668
:10AC7000FFF734FA18A908730028ECD119203070B6
:10AC8000012010A90885E6E7052520462B99FFF746
:10AC900009FA6846007C032861D066E0208801211B
:10ACA0004902084010A98886FF38FF38022806D0DC
:10ACB000062510A92088898E8843208055E0954973
:10ACC000208F491E884200D0B5E616201C9021989E
:10ACD000806800280AD06063219989892187002132
:10ACE000C943618700210170417002E00020C04328
:10ACF000208710A8808E7F21090102468A430ED04A
:10AD00007823002204202B9906F0F2FC219810A948
:10AD10000078A0702088898E0843208002E0218876
:10AD2000814321806846007C002805D07A4841682C
:10AD300004A8FBF797F8054618A8007B002814D054
:10AD40001C98707001203070208BB070000AF07079
:10AD500018A8007B3071052110A8018505E06E4818
:10AD6000416804A8FBF77EF8054620884005400EA0
:10AD700025D1208E002822D0239910AA0988118578
:10AD800024992A9B2B9A01930091039402921AAB67
:10AD9000E26A2299FFF720FA054603280FD0012026
:10ADA00069460874E06A05902B980690002104A873
:10ADB000FBF758F8002800D005460020208610A890
:10ADC000018D239801802846C8E500B597B0042876
:10ADD00007D102206A461070019100216846FBF7F6
:10ADE00041F817B000BD10B54B4C03780022216824
:10ADF000012B02D0022B42D126E00B78002B01D090
:10AE0000042B03D10A712268032111702168838801
:10AE10000A79D200921D8B5221680A79D200083239
:10AE20008918C2880A80216803890A79D2000A3207
:10AE30008B52428920680179C9000C314252216845
:10AE40000879401C08711EE00A7482888A80216893
:10AE5000C288CA8022680189118122684189518192
:10AE6000C1682068C1606168FAF7FCFF01460228EA
:10AE700007D02068007C002802D1002903D081205F
:10AE800010BD832010BD002010BD406B002800D0F5
:10AE9000012070478178012909D100880521C90264
:10AEA000884202D0491C884201D100207047062008
:10AEB0007047F7B586B00024684615460F46848172
:10AEC00007261AE004984178027809021143298084
:10AED000811D019602940091417902790B0213437E
:10AEE000C178827809020A43417800780902084350
:10AEF000394600F0EAF8002806D104AA03A906980A
:10AF0000FFF72FF80028DDD0822800D1002009B0FB
:10AF1000F0BD0000FFFF00002008002010B58B7876
:10AF2000002B16D002789A4202D10B88002B10D049
:10AF3000401C8B789A4206D1437804781B02234345
:10AF40000C88A34205D08B79091D002BF1D18120FB
:10AF500010BD002010BD00B507282ED0002A02D059
:10AF6000012A2ED103E049784907490F02E04978C8
:10AF70008906490F0B000FF0A9FD0504200A131ADA
:10AF80002400002A01D0032000BD022000BD0428B7
:10AF900013D0052811D006280FD000280BD00EE0C2
:10AFA00005280AD0062808D0022808D003E0062881
:10AFB00003D0032803D0052000BD002000BD0F20D2
:10AFC00000BD812000BD70B5137805460B70507828
:10AFD00048701446D8091ED0FE48807AA84204D88A
:10AFE000102003430B70002070BDA068EF22007892
:10AFF0001340E840C007C00E03430B702078E1788F
:10B000008007800D0843F4490FF019FBA0686943DD
:10B010000818401C70BD906870BD37B569468988B6
:10B02000118069460D79E9091BD0EA4993688C7A49
:10B030000121844209D8FE280FD1E80602D5A1409B
:10B04000491E00E00021197007E01C7881408C4304
:10B05000E906C90F81400C431C701078EF210840AD
:10B0600010703EBDF8B50746C81C80080E4680002B
:10B07000B04201D08620F8BD082A01D90E20F8BDC3
:10B08000D44D00202E60AF802881AA723446E8801B
:10B0900016E0E988491CE980810610D48007E17830
:10B0A000800D0843CC490FF0CAFA206800F0C3FABB
:10B0B0002989401880B22881381A8019A0600C3480
:10B0C00020784107E5D40020F8BDFFB589B09F0482
:10B0D0001646139DBF0C0193099800F09EFA0400D8
:10B0E0000AD02078C00909D0BA48817A0A988142EA
:10B0F00004D887200DB0F0BD0120FBE72246694649
:10B100000A98FFF760FF0021069068460172072D3C
:10B1100014D0012221462846FFF71DFF0028E9D15F
:10B12000207840060AD5022168460172099981817A
:10B130000188C18106824782129805900198000417
:10B1400004D500273E460125079709E02078E178DD
:10B150008007800D0843A04907900FF070FA0D4654
:10B160000198400409D50798A84206D1A078217912
:10B170008007800D0843B04201D3AE4201D90720B9
:10B18000B8E7B81980B20190A84201D90D20B1E703
:10B190006846007A002804D002A8FAF75FFE00286B
:10B1A000A8D10798A84209D1A07801998008800009
:10B1B0008905890F0843A070019820711498002810
:10B1C00000D007801298002815D006983A468019BA
:10B1D00012990FF0BAF9224669460A98FFF7F3FE72
:10B1E00069460878EF2108406946087022460099B0
:10B1F0000A98FFF712FF00207CE7FFB5754D0C227F
:10B20000E8882968504383B00C180D9F724905984F
:10B210000FF015FA0091049800F00DFA29682A89B8
:10B220008E46611A0C310918944651188AB2A988C1
:10B23000914202D8842007B0F0BD6A46167CF2091C
:10B2400003D0B20601D58520F5E7EA88521C92B2F8
:10B25000EA800E9B002B00D01A80B20601D5A760B1
:10B2600006E0604480B22881091A70460818A06080
:10B270002246FE200499FFF7D0FE0598E070009862
:10B28000207120780599800889058000890F08437E
:10B29000A178009A890892058900920F1143A17044
:10B2A0000421084320700398807860710398008817
:10B2B000E08000202073F10901D0AC7A00E0012485
:10B2C000B10600D5002700260EE0072100200191DD
:10B2D00002900097E88831460C9B069AFFF7F5FE2E
:10B2E0000028A8D1761CF6B2A642EED30020A2E731
:10B2F000F1B5009800F091F9060002D00025009CFD
:10B3000014E00120F8BD204600F087F907460078D8
:10B3100031498007820DF87810430FF090F93868B2
:10B3200000F089F94019641C85B2A4B22948C1888B
:10B33000601E8142E7DC00992648491EC1800189D0
:10B34000491B018100203070F8BD002804D0401E48
:10B3500010809170002070470120704710B504469E
:10B3600001881C48C288914201D3822010BD006828
:10B370000C22514342185079A072D08820819078D5
:10B3800011798007800D0843A081A078E11CFFF7A8
:10B390001AFE20612088401C2080E080002010BD23
:10B3A000012101827047F7B50546002084B0C043F3
:10B3B00010806868174681786846817068680188DF
:10B3C0006846018000218171288A2C88A04200D320
:10B3D000044603E02C080020010200002C8234E027
:10B3E000288A401C2882701D6968FFF797FD002895
:10B3F00029D139889848814201D1601E38806888F7
:10B40000A04227D3B07831798007800D084302909D
:10B410006946701DFFF782FD002814D169898E48A6
:10B4200081421BD0002231460598FFF794FD002889
:10B4300009D16A890298824205D1E968B0680FF0A3
:10B4400057F800280AD0641CA4B2204600F0E5F8A2
:10B450000600C5D1641E2C828220ECE67C807079C7
:10B46000B871F088B8803078F1788007800D084393
:10B4700078810298B8813946287A32460831FFF738
:10B48000A2FD38610020D6E6FFB585B01D460F4607
:10B49000059800F0C2F8040009D02078C00908D04F
:10B4A0006E48807AB84204D8872009B0F0BD0120E8
:10B4B000FBE7079822468605B60D69463846FFF732
:10B4C00082FD07460E98072816D000222146FFF776
:10B4D00042FD0028E9D1207840060DD501216846BB
:10B4E000017105990181018841818681C58101A889
:10B4F000FAF7B4FC0028D8D1207822798007810D92
:10B50000E0780143A0788007800D1043079A9642A7
:10B5100007D0534A914204D3691E814201DD0B20BA
:10B52000C3E7864201D90720BFE7801B82B2AA4247
:10B5300000D92A461098002800D002800F980028D1
:10B5400002D0B9190FF001F80020AEE7F8B51D469A
:10B5500017460E4600F061F8040008D02078C009B4
:10B5600007D03E48807AB04203D88720F8BD01203A
:10B57000F8BD224639463046FFF725FD002D0BD099
:10B580002078E1788007800D08433549884201D250
:10B59000012000E0002028700020F8BDF8B51E460C
:10B5A00017460D4600F039F8040008D02078C0098D
:10B5B00007D02A48807AA84203D88720F8BD012006
:10B5C000F8BD224639462846FFF727FDFF2E14D046
:10B5D0002578E178A807800D084321490FF02FF85E
:10B5E000002E03D1FF31FF31033189B2E170A80889
:10B5F00080008905890F084320700020F8BD10B530
:10B600000C4600F00AF8002805D0C1882180407956
:10B61000A070002010BD012010BD1049CA888242D0
:10B6200007D3002805D00C22096850430C380818AD
:10B6300070470020704703B50846694609788A06B6
:10B6400007D4C90904D00549897A4143491C88B205
:10B650000CBD00200CBD0000FFFF00002C080020E6
:10B660000102000010B50C4601F0CFFC002840D0CC
:10B67000204600F0A4FA002839D022780E2A09D0FA
:10B680000F2A07D0022A05D0032A03D0102A2AD075
:10B69000FFDF1CE0A0781E2827D00FDC0C2820D06C
:10B6A00008DC03000FF012FA0913211521211B1BDE
:10B6B00017192100122818D1072010BD302814DDD9
:10B6C0003A3803000FF002FA030F110911000020AD
:10B6D00010BD0B4810BD042010BD0D2010BD0F2063
:10B6E00010BD082010BD112010BD032010BDFFDFCC
:10B6F000EDE7FFDFEBE710B500F061FA10BD0000E9
:10B700000230000030B50346002002460DE09C5C8C
:10B710002546303D0A2D02D30020C04330BD0A2506
:10B72000684330382018521CD2B28A42EFD330BD61
:10B7300070B50D46144608E00A210EF080FF2A1964
:10B740003031203A641ED177E4B2002CF4D170BDC0
:10B7500010B5002310E0040A00020443A0B2CC5C40
:10B7600044402006000F60400407240C444020069B
:10B77000C00C60405B1C9BB29342ECD310BD000038
:10B7800010B508F0C2FF042803D008F0BEFF05285A
:10B7900003D107F06FFE00280BD109F061F80328F0
:10B7A00003D009F063F8032805D106F0C5FF00288F
:10B7B00001D0012010BD002010BD70B50C4605461B
:10B7C000062102F0F3F96060002801D0002007E0B4
:10B7D0000721284602F0EAF96060002803D0012022
:10B7E0002070002070BD022070BDFEB50C460646DC
:10B7F00001A9FFF7E2FF00287FD168460079002801
:10B800000BD006F012FFB04277D00022214630461E
:10B810000BF082F800286DD12DE007F02CFCB0422F
:10B820006BD00022214630460AF0B7FE002861D1D5
:10B83000029D9820405D3035002804D1687E0028A4
:10B8400001D0012000E00020009028462030417BFC
:10B85000002914D0817B890711D500216170012254
:10B860002270A170A680C27BA2712A8E22816A8E6C
:10B87000628141733EE0029D3035687EE4E73046E8
:10B8800002F005FB070000D1FFDF384601F06BFD39
:10B890000006000E08D0002161700D212170A680E5
:10B8A000E0800120A07025E0304602F0DCFA0700BD
:10B8B00000D1FFDF009800281FD0384601F0EEFDD0
:10B8C00000281AD068460079002807D102988030F5
:10B8D000C06B4188B14201D100210170304606F0B1
:10B8E0000CFE002060700A212170A070A680A97E45
:10B8F000A17168760120FEBDFFE70020FBE71CB5C3
:10B900006946FFF75AFF002800D0FFDF684601F0C4
:10B91000C5FBF84800218068803041831CBDFEB51E
:10B9200004460E46062002F0EFF80546072002F016
:10B93000EBF82818C7B20025BE1915E02088401C76
:10B9400080B22080B04201D30020208080B2B84273
:10B9500003D3B04201D20020CDE76946FFF72DFFA7
:10B960000028C8D06D1CEDB2AE42E7D80020C0431D
:10B9700020801220BFE738B50020C0436946088008
:10B980000FE068460621008802F021F90446684667
:10B990000721008802F01BF9002C02D0002800D0FB
:10B9A000FFDF00216846FFF7BAFF0028E9D038BD65
:10B9B0007CB5D1A103C9D24C002501910090A5709E
:10B9C00001F065FB2146E57004204039088710200E
:10B9D0004887CC48C03460812573E0810846203018
:10B9E00045740D7085730575C03005771D300522CF
:10B9F000694605460EF0A9FD2946201F0AF076FE8D
:10BA00000A20A0700320E070207160710E20A071E8
:10BA10000620E071207260727CBDF8B5B54C0D4611
:10BA20006060217006F052FDFFF7A5FFFFF7C0FF31
:10BA3000207808F013FCB2498431084681380F465B
:10BA4000064607F0F5FB60680AF016FE20780BF05A
:10BA500069FF284609F0A9FA3946304606F016FE75
:10BA600060680AF0DEFF01F012FBA5480021C170FA
:10BA7000F8BD10B50124002A01D0002010BD002916
:10BA800004D0012903D00024204610BD02210CF06F
:10BA90008EFEF9E7FEB5040000D1FFDF984D203D92
:10BAA000687C002809D00020607010212170A97CDA
:10BAB000A170E97CE170687473E0914E403E30788B
:10BAC000002809D02C22B11C20460EF03EFD0E208D
:10BAD00020700020307064E0A87B00280AD001208C
:10BAE000E070E87BA070287C60700F202070002040
:10BAF000A87356E082480221CE300290FFF70FFF74
:10BB0000002800D0FFDF7E4FC037F8890190062063
:10BB100001F0FAFF0646072001F0F6FF3018C6B222
:10BB2000701CC0B20090F889B04214D100212046A8
:10BB300007F056FA002834D1287D002833D000269B
:10BB40006670132020701C21A01C0EF05BFD0220EB
:10BB5000A0702E7525E0009988421DD10021204655
:10BB600006F03CFD00281ED02078132819D1A078BB
:10BB70003C2816D1A088072102F018F8050000D152
:10BB8000FFDF288806F0B9FCA088072102F01FF823
:10BB9000002806D0FFDF04E02146FFF726FE00283C
:10BBA00001D00120A7E602210298FFF7B8FE002885
:10BBB00003D1F98901988142B5D100209BE669E75C
:10BBC00010B508F0D3FA002800D0FFDF0AF052FDCC
:10BBD000002800D0FFDF07F0EFFA09F0D0F90028C5
:10BBE00000D0FFDF0AF01BFF002800D0FFDF06F0C7
:10BBF00025FD002800D0FFDF0BF08EFE002800D0CE
:10BC0000FFDFFFF7B8FEFFF7D3FE06F049FC02F0B6
:10BC100019F901F03CFA3A480021C170403801712D
:10BC2000012141710222C270017010BD10B5344C67
:10BC3000403C2078002804D00A210E2001F0F4F9BD
:10BC400010BDFFF79DFD002801D00C2002E001F09F
:10BC50001EFA00202071012060710A21E17020701D
:10BC600010BD70B5264C0646403C2078002804D014
:10BC700039210E2001F0D8F970BDFFF781FD0028B1
:10BC800001D00C2010E01E4DE87808280BD20001EE
:10BC9000001910223146443001F0D0F9E878401CF8
:10BCA000E870002000E00720207101206071392138
:10BCB000E170207070BD70B5114C0646403C207894
:10BCC000002804D00B210E2001F0AEF970BD3078B1
:10BCD000002803D0012801D012201FE0084D803534
:10BCE0002879082821D2FFF74BFD00280CD00C2022
:10BCF00014E0000044000020FFFFFFFF1F000000D1
:10BD000078080020FFFF000033782979721CFE4874
:10BD100005F0A6FF2879401C287100202071012021
:10BD200060710B21E170207070BD0720F6E710B53F
:10BD3000F54CC83C2078002804D038210E2001F0B2
:10BD400073F910BDFFF71CFD002801D00C2003E0A3
:10BD5000ED4900208839C8702071012060713821B8
:10BD6000E170207010BDE84810B5C838017800298E
:10BD700004D00F210E2001F057F910BD00210171F0
:10BD80000E2181700F21C170FF2181710021C943F3
:10BD90000181DE4949680A7882728A8882814988ED
:10BDA000C18101214171017010BDD74910B5C83959
:10BDB0000A78002A04D03B210E2001F035F910BD8D
:10BDC000D14A0088383250810120107300220A7154
:10BDD00048713B22CA70087010BD10B5CA4CC83CEF
:10BDE0002078002804D02B210E2001F01DF910BD71
:10BDF0000821A01D05F05CFA00202071012060716F
:10BE00002B21E170207010BD70B5BF4CC83C21786B
:10BE1000002904D031210E2001F006F970BD002167
:10BE20004156042910D000290ED0081D0CD0001D49
:10BE30000AD0001D08D0001D06D0001D04D00A3015
:10BE400002D01220207104E00025084605F051FFC1
:10BE500025713120E07001206071207070BD30B517
:10BE6000A94D0446C83D28788DB0002805D02A2168
:10BE70000E2001F0D9F80DB030BD102221466846E1
:10BE800001F0DCF81022A11804A801F0D7F86846E8
:10BE90000DF0D6FA10222C46A81D08A901F0CEF804
:10BEA000002020710E20A0702A20E0700120607117
:10BEB0002070E0E7F0B5944885B0C83801780029D3
:10BEC00005D03A210E2001F0AFF805B0F0BD8E4844
:10BED0000021C8388171FF3001304089694688806F
:10BEE00002A9FFF76AFC0124002805D0002101A85F
:10BEF000FFF715FD002852D1684681880180684609
:10BF000002A90088FFF759FC002800D0FFDF68462F
:10BF1000008801F0BCFF050000D1FFDF039E28462A
:10BF2000303601F0C3FA604005466846767E0088E8
:10BF300001F099FF070000D1FFDF384601F0AEFAAB
:10BF400060400246304610431ED0684601886E4865
:10BF50005200C8388379AD005B001B1819818779BE
:10BF600003461833F95C490849003143F954FD2769
:10BF7000867939401143F154FB26827931402943B7
:10BF8000D1548179491C817100216846FFF7C7FCB3
:10BF9000002804D16846018880888142AFD15A4880
:10BFA0000021C838017144713A21C17004708CE7D6
:10BFB00070B5554C0546C83C2078002804D0342183
:10BFC0000E2001F031F870BD08F09FFB052804D069
:10BFD000284608F032F9002000E00C2020710120F2
:10BFE00060713421E170207070BD10B5464CC83CC2
:10BFF0002078002804D00E21084601F015F810BD65
:10C00000424906220C31A01D0EF09FFA002020713B
:10C01000012060710E21E170207010BD70B53A4CA6
:10C020000646C83C2078251D002804D032210E2069
:10C0300000F0FAFF70BD3146002006F0F7FB2870D3
:10C0400000280DD100213246084607F0B9F92870C2
:10C05000002805D12D48062231460C300EF075FA25
:10C06000012060713221E170207070BD70B5264CE6
:10C070000546C83C2078002804D030210E2000F06E
:10C08000D3FF70BD08F080F9002803D109F006FA4B
:10C0900000280DD0287808F0CBFF287807F012FA96
:10C0A00000202071012060713021E170207070BD8E
:10C0B0000C20F6E7F8B5144C0646C83C2078251D40
:10C0C000002804D017210E2000F0AEFFF8BD314645
:10C0D000012006F0ABFB0127287000280FD1324663
:10C0E000012107F06DF92870002808D106480622C2
:10C0F00031468C380EF029FA03488838877067710A
:10C100001720E0702770F8BD0009002044000020CF
:10C1100010B5FE480178002904D030210E2000F02F
:10C1200083FF10BD12210171012141713E22C270B5
:10C13000017010BDFEB5F54C05462034A07B0028EB
:10C1400004D028210F2000F06FFF05E42820207480
:10C150000121A173A8781A2824D00EDC03000EF068
:10C16000B5FC162F2F2F2F2F212F2F2F2F2F2F2FB3
:10C170002F2F2F2F2F2F2121212F2A2820D00ADCEB
:10C180001E3803000EF0A2FC0C1C1C1C1C1C1C1CEA
:10C190001C1C1C1C0E1C3A3803000EF097FC0411EA
:10C1A000031103112888DA4A904209D81F20E0734E
:10C1B00028886946FFF701FB002803D0022014E01D
:10C1C000122012E068460078019F00280FD0CE3779
:10C1D000019E00280DD0CF36684600F04BFF0028A6
:10C1E00002D03878002806D00C20E073DAE4B437A7
:10C1F000EEE7B536F0E701203870A87830700020FF
:10C20000E073684600F04AFFCCE4F0B5BF4C074647
:10C21000207885B0002804D025210E2000F004FFEE
:10C2200053E6388802A9FFF7C8FAB84E002108364D
:10C2300000280CD00220207131603171E1800E2085
:10C24000A0702520E0700120607120703DE6039D04
:10C2500028460830503501900020A8750522304648
:10C260000199F4F793FFA87D0028F5D13888E08084
:10C27000E5E7FEB5A54C06462034A07B002804D097
:10C2800010210F2000F0D0FE8CE41F20E07310205E
:10C2900020740127A77330886946FFF78EFA0028BB
:10C2A00010D1684600F0E6FE00280BD06846019DDC
:10C2B000007830350028019806D0E2300178002956
:10C2C00009D104E0022007E08030C06BF6E720359A
:10C2D000697B002902D03A20E07363E4A97B8907D7
:10C2E0000DD10421017068460078002804D101981E
:10C2F00031888030C06B4180684600F0CFFE00205E
:10C30000E0736F734EE4F8B5804D06462878002838
:10C3100004D01D210E2000F087FEF4E61F202871B6
:10C32000012068711D21E970287008F0EEF90C27D2
:10C33000042854D0052852D0B0791224012801D005
:10C3400000281DD13078002801D0012818D1F079BB
:10C35000002801D0012813D170886E49021F3024B3
:10C360008A420DD2B288121F8A4209D22887B08829
:10C370006887B0790024012804D000280CD013E08D
:10C380002C71C0E6614840308078002827D05F4A91
:10C390003C320121084602E05F4A0021012007F0FB
:10C3A0000FF8040000D0FFDFF079012801D0002849
:10C3B00002D107F046F80446002C01D01F2011E0FE
:10C3C0003078012802D0002803D00AE000210220A2
:10C3D00001E00021012007F044F8002801D02F716E
:10C3E00091E6002028718EE670B5484C217800292E
:10C3F00004D01E210E2000F017FE70BD1F212171F8
:10C40000012161711E22E270217002781221012A3D
:10C4100001D0002A04D14078002803D0012801D09F
:10C42000217170BD00260C25012A09D008F06DF994
:10C43000052803D007F048FE002806D0257170BDFE
:10C44000618F208F07F0ADFFF6E7267170BDF0B564
:10C450003249054603C985B02C4E0391203602901F
:10C46000B07B002804D021210F2000F0DDFD2CE559
:10C470001F20F073212030740120B0732A88254BCF
:10C48000111F3020994252D269880C1F9C42FAD267
:10C4900091424CD8EA89224B911F9942F3D2298AC2
:10C4A0008C1F9C42EFD28A42F3D86A8AFF23F4336E
:10C4B0009A42EED8AA8A1A4C13460A3B241FA3427A
:10C4C000E1D2C9088A4232D9E98A2A8B9142E0D85E
:10C4D00029791220002902D0012928D102E06979A6
:10C4E0000029F9D1297B002901D00129F5D108F0D3
:10C4F0000CF905281AD008F008F9042816D0307D68
:10C50000002813D106F0B7FD06490DE038080020D9
:10C51000FF0E0000FD3F000050000020F8BC0000AE
:10C520007B0C0000FFFF0000884201D00C20AFE030
:10C53000062104A801F00FFB04004CD003210BF0EE
:10C5400075FEF74F1B22F8780090BB7820881146C3
:10C5500001F0D5FB042840D0002800D0FFDF208860
:10C5600005F0CAFF20460D3000902088019004217C
:10C57000009804F09DFE019900980BF0EFFE204614
:10C5800011300190E7A0006800900321684604F094
:10C5900018FE00206946019A0B5C1354401CC0B27F
:10C5A0000328F8D3288A6080688AA080A88AE0805F
:10C5B0007979387907F0BAFE0146204607F0DDFEAA
:10C5C0002046002720308775C775687900280DD070
:10C5D00001280FD10CE009205AE02088062101F043
:10C5E000F6FA002800D0FFDF072051E0677601E06F
:10C5F0000120607620460622A91D1A300DF0A5FF05
:10C600002046052202A90830F4F7C0FD0120C4210C
:10C61000085569460F700146684604F0D2FD694628
:10C6200008784107C206490F920F80068918C00F8B
:10C63000081869460870401D2076092801D2083084
:10C640002076002120460BF0F1FD287B002803D046
:10C65000012805D0FFDF29E00021B34A012008E0CE
:10C66000AF48C0388078002814D0AD4A0121C43AC0
:10C67000084606F0A5FE002818D0208805F03DFFEA
:10C680002088062101F0A3FA002800D0FFDF1F2038
:10C69000F0731AE4208805F030FF2088062101F0AD
:10C6A00096FA002800D141E7FFDF3FE7287901280B
:10C6B00001D0002803D106F0C4FE00280CD1214689
:10C6C000032006F0CEFE002806D16A88298820467D
:10C6D00007F0ECFD00280AD0208805F00EFF208826
:10C6E000062101F074FA0028DDD0FFDF1EE7A03438
:10C6F0002776F7735BE438B58C4C2078002804D09B
:10C7000022210E2000F090FC38BD1F202071012551
:10C7100065712220E070257007F0F7FF052802D030
:10C720000C20207138BD00202071684607F06CFE97
:10C730000028F7D10098008805F0DFFE0098062158
:10C74000008801F044FA002800D0FFDF774820304D
:10C75000057575480C380078FCF707FF38BDF8B54B
:10C76000724E05462036B07B002804D023210F20CE
:10C7700000F05AFCC7E41F20F0732320307401201E
:10C78000B0736A886A4B911F302099424BD2A988B6
:10C790008C1F9C4247D28A4245D8EA88FF23F43353
:10C7A0009A4240D82A89624C13460A3B241FA3426E
:10C7B00039D2C9088A4236D96989AA89914232D8C0
:10C7C0002888062101F0F2F902270446002809D042
:10C7D00000F041FC002805D08034E06B017800298E
:10C7E00006D101E0F7738EE4216D0978002901D0AC
:10C7F0003A2018E005218171E06B00210181E26B94
:10C80000A8885081E26BE8889081E26B2889D0810A
:10C81000E06B028943899A4204D88279082A01D8B8
:10C820009A4202D31220F0736DE42A884280E06BB2
:10C830000770F17367E4FEB53C4C0546207800288C
:10C8400004D024210E2000F0EFFB7EE40126667167
:10C850002420E070267028460BF09EFD002801D0B1
:10C86000002000E0122020710028EED12C4F05227C
:10C87000203F38463E7729461D300DF066FE0020E9
:10C8800038776946062001F01DF9002800D0FFDF47
:10C89000684601F0F3F8002814D168468788684696
:10C8A0008088062101F082F9050000D1FFDFC03544
:10C8B0002E71684601F0E2F8002803D168468088AE
:10C8C000B842ECD1002020713FE470B5174C064609
:10C8D0002034A07B002804D026210F2000F0A4FBE8
:10C8E00070BD1F20E073262020740120A0733088C3
:10C8F000062101F05BF9050009D000F0ACFB00282F
:10C9000005D08035E86B0178002906D101E00220CE
:10C9100016E0296D097800290CD03A2010E00000BB
:10C920003809002011223300500000203808002070
:10C930007B0C000005210170E96B308848800020E5
:10C94000E07370BD10B5FA4C2078002804D00621A1
:10C950000E2000F069FB10BD002020710E20A07099
:10C960000620E0700821A01D0DF04CFEA1790120E9
:10C970000143A1716071207010BDF8B5EC4C074601
:10C980002034A07B002804D02C210F2000F04CFB89
:10C99000C3E41F20E0732C2020740120A07338888A
:10C9A000062101F003F906000AD000F054FB00282C
:10C9B00006D035468035E86B0178002906D101E0C4
:10C9C00002201FE0296D0978002901D03A2019E0E2
:10C9D00060363179002917D00822B91C001D0DF0EE
:10C9E000B4FDE86B79898181E86B394610220C31FE
:10C9F0000E300DF0AAFDE96B03200870E96B388852
:10CA000048800020E07388E40C20FBE770B5C84E36
:10CA1000044630780C25002804D018210E2000F0A0
:10CA200003FB70BD07F01CFF03285BD007F01EFF5F
:10CA3000032857D06079002801D001282DD1A07992
:10CA4000002801D0012828D1A07B002805D001288A
:10CA500003D0022801D003281FD1607B00281CD0FE
:10CA6000C0081AD1628801208003824202D821883E
:10CA7000814203D9207901280FD119E020790028BB
:10CA800006D0012814D0022805D0032805D102E0E1
:10CA9000202A0BD30CE0A0290AD22079042805D142
:10CAA0002088202802D36188884201D9122519E004
:10CAB0009F482179203081756079002802D00128B3
:10CAC00004D00FE09B4A0021204608E098484030FF
:10CAD0008078002806D0964A01213C32204605F095
:10CAE00031FE05460120357170711821F1703070EA
:10CAF00070BD10B58E4C2178002904D01A210E206B
:10CB000000F092FA10BD01781F2902D9122020717D
:10CB100006E0002121710278411C104605F0ACFEB0
:10CB2000012060711A21E170207010BD10B5804C99
:10CB30002178002904D020210E2000F075FA10BDC4
:10CB400001781F2902D91220207106E000212171ED
:10CB50000278411C104605F081FE01206071202101
:10CB6000E170207010BDFEB5714C2178002904D011
:10CB70001B210E2000F058FA67E6012161710C219B
:10CB8000217100780026012803D000286BD01220E4
:10CB90005CE005F0A5FD002859D065482030807D77
:10CBA000002816D0012814D0042812D007F05EFE09
:10CBB000002875D107F054FE002803D007F050FE7E
:10CBC00002286DD1002008F036FA002849D0FFDF96
:10CBD00047E007F045FE002862D107F047FE002835
:10CBE0005ED105F022FD5449884259D1072101A8A0
:10CBF00000F0B1FF4F4905460C398860280000D18C
:10CC0000FFDF032128460BF0B7FA284605F0CEFED9
:10CC10004A4F797A387A07F02CFE0146284607F009
:10CC20004FFEF87900901B22BB792888114601F04D
:10CC300066F800280CD0042800D0FFDF28880721E0
:10CC400000F0C5FF002800D0FFDF0720207127E09B
:10CC5000288805F051FC284608F0EDF9002800D09E
:10CC6000FFDF26711CE007F0FBFD032803D007F06F
:10CC7000FDFD032814D107F0F6FD0546002008F05D
:10CC800007F900280CD12671002D09D0288805F05D
:10CC900034FC2888072100F09AFF002800D0FFDF2D
:10CCA0001B20E07001202070CFE5F8B5204D06462E
:10CCB0002878002804D02D210E2000F0B5F959E580
:10CCC0003088072100F072FF0127002822D0044697
:10CCD000C034617C00290AD13C21095C0F2901D0B4
:10CCE000102904D1FF210531095C00290AD00C204C
:10CCF00028710E20A8702D20E8703088E8806F71B0
:10CD00002F7037E51022B11CD2300DF01EFC677475
:10CD10000020EDE70220EBE770B5054C05462078D2
:10CD200000280DD02E210E2000F07EF970BD0000ED
:10CD30003808002050000020FFFF000038090020C4
:10CD40002888072100F032FF0222002810D0014677
:10CD5000C0314B7C002B05D12030007F0F2804D040
:10CD6000102802D00C20207103E04A740020FAE75A
:10CD700022710E20A0702E20E0702888E080012013
:10CD800060712070D2E77CB5CB4C05462078002836
:10CD900004D037210E2000F047F97CBD2888694671
:10CDA000FEF70BFD002807D00220207101206071E2
:10CDB0003721E17020707CBD01987F220146303020
:10CDC0000272427200228272A87820310872E878DA
:10CDD0004872287988722271E8E71CB5B64C217830
:10CDE000002904D013210E2000F01EF91CBD00887C
:10CDF0006946FEF7E2FC002801D0022005E0019917
:10CE00002820405C012802D00C20207106E0382048
:10CE100000222271405C20720888E080012060714D
:10CE20001321E1700E21A17020701CBDF8B5A24C39
:10CE300005462078002804D035210E2000F0F4F8B3
:10CE400098E4A878002801D0012804D1A888FF21FF
:10CE5000F531884201D9122020712888072100F07D
:10CE6000A5FE0126002813D001460027C0310F720D
:10CE7000AA884A81A0300671AA78012A00D000222F
:10CE80000A724079002801D008F0F1F9277101E019
:10CE90000220207166713520E07026706AE4F8B5D2
:10CEA000854F04463878002804D03C210E2000F03D
:10CEB000BBF85FE42088072100F078FE06002DD043
:10CEC000B58864886800F2887188401C844217D352
:10CED0007A484143800050430DF0B1FB401EFF21D2
:10CEE00080B2F531884200D90846844200D22046FB
:10CEF000691C401C0DF0A3FB6D1C6843401E85B2ED
:10CF0000F020805D002800D13584FD80002038713C
:10CF1000012078713C21F97038702BE40220F6E78B
:10CF200070B5654C05462078002804D033210E20CA
:10CF300000F07AF8FAE607F093FC002801D00C2004
:10CF400018E02978002911D00A290FD014290DD012
:10CF50001E290BD0282909D0322907D04B2905D00A
:10CF6000642903D0FF2901D0122003E0284608F0ED
:10CF7000F8F800202071012060713321E1702070E9
:10CF8000D4E610B54C4C2178002904D03F210E2066
:10CF900000F04AF810BD002121710178002909D064
:10CFA00001290BD012202071012060713F21E17016
:10CFB000207010BD0422411C414803E0411C404840
:10CFC0000422001D0DF0C1FAEEE770B53A4C05469B
:10CFD0002078002804D03D210E2000F025F8A5E699
:10CFE00007F03EFC002803D107F040FC002801D0E8
:10CFF0000C2003E0287805F04BFC00202071012074
:10D0000060713D21E170207090E610B501784029F3
:10D0100008D22C4A89005158002903D0801C884727
:10D02000012010BD002010BD234A2032537C002B6C
:10D0300003D19074D17401205074704730B51346F9
:10D0400006E0CC18203CD51AE47F5B1E4455DBB2C9
:10D05000002BF6D130BD4921095C002908D1803070
:10D06000017E002904D0007E042801D001207047F1
:10D070000020704701784068002905D04030407A90
:10D08000002802D000207047E5E7012070470A49D8
:10D0900000208031886740310871704710B50178F1
:10D0A000012908D14068A0304179002903D000212E
:10D0B000417108F0DCF810BD38080020C4090000F8
:10D0C0003A09002078AC01003D3070470818C01DB7
:10D0D00050433D31401880B2704770B51D4606463A
:10D0E000A818049BC01D2C4658433D34001984B237
:10D0F000A14200D2FFDF1C2130460DF083FA1C3C18
:10D10000A0B201213575C9033080884200D9FFDF04
:10D1100070BD00887047F0B5044684B01C300390A1
:10D12000019015460E46A288E188570448047F0CFA
:10D13000400CB84208D1C90BD20BC903D2039142AB
:10D1400002D0002004B0F0BDB8421AD9217DC01B26
:10D15000401AC01F85422CDC0198C91DC01909184E
:10D16000C91E716035810021F1603182021D32607B
:10D1700005702A0A42708170C1700120A07404B049
:10D18000F0BD2188227DC91B891AC91F0091029018
:10D190000FD41B2900DAFFDF0098854201DC294605
:10D1A00000E081B2681A0204120C06D00298824292
:10D1B00003DD0020A07404B0F0BD237D0198DB1DC9
:10D1C000C0191B18DB1E73603181039BF360328230
:10D1D000031D33600170090A41708270110AC17029
:10D1E0000120A07404B0F0BDF8B504460246808862
:10D1F000A37C40041C32400C002B0BD0101842784A
:10D20000037812021A43C37885781B022B43D31884
:10D210008B4201D20020F8BD00268A4206D301705D
:10D22000090A41708670310AC17014E0891A8DB202
:10D23000290A8570C170002D0DD0A088271D4004DB
:10D24000400CA84200D2FFDF39880120C003884388
:10D25000284338800BE041780278237D0802104390
:10D26000DB1D181881B22288201D00F0DAFAA6749E
:10D270000120F8BDF0B40446468803468588700452
:10D280001C34400C2018AE4203D10020D881F0BCE1
:10D290007047457807785E892D023D43AE4209D339
:10D2A000761BC57880782D020543A81B85B23019FE
:10D2B000C01E05E0AC1BA5B21C7DA4192018001DE2
:10D2C0000C88AC4200D90D805C89002C05D000246C
:10D2D00014700988D981F0BC70470124F8E7F8B5CB
:10D2E0000446014640881C314004400C4518E08942
:10D2F000002837D06189081880B2608169782A785F
:10D3000009021143EA78AB7812021A438918814264
:10D3100000D2FFDF6878297800020843E978AA780C
:10D320000D021543628941190027914218D1002D41
:10D330000DD06088A61C4004400CA84200D2FFDF3C
:10D3400031880120C00388432843308007E0237DD3
:10D350002288DB1D181881B2A01C00F062FA6781D8
:10D36000E7810120F8BDF0B504468AB01C30039077
:10D37000218967880026B94244D0254608354804EB
:10D380000399400C0918C8788A78000210430ED01F
:10D39000009029884904490C814200D2FFDF298886
:10D3A0000120C003884300990843288025E04A787B
:10D3B000207D09782B8812020A43C01D9C468118E3
:10D3C0005B045B0C2288591889B291420DD2521A23
:10D3D00092B21B30824204D201206146C0038843CE
:10D3E0000AE06046C00BC00305E0881A81B2012044
:10D3F0006246C003904308432880761C2189B6B258
:10D40000B942BCD130460AB0F0BDF0B50B46C58874
:10D410000146044683B000896E041C310090760CEE
:10D42000608889190E46854202D1002003B0F0BD04
:10D43000002A01D0081D1060002B04D0227D311D70
:10D4400018460DF082F87078317807020F43F078B3
:10D45000B1780002084311D0C1198FB20190E18860
:10D46000A61D4904490C814200D2FFDF318801200A
:10D47000C003884301990843308007E0237D228858
:10D48000DB1DD81981B2A01D00F0CBF900988542B0
:10D4900001D1E0882081384603B0F0BD4188808802
:10D4A000814201D101207047002070474188C08827
:10D4B000884201D10120704700207047F0B44588B0
:10D4C000838804466A041C34520C5904490CA6187B
:10D4D0009D4222D04389C48937781D1973781C0274
:10D4E000F378B6781B023C433343E618B54217D3B2
:10D4F000002B02D08B4213D30FE0037DD21D1C19E9
:10D50000A218008892B2801A80B22233984202D2C6
:10D51000002902D004E08A4202D1F0BC002070470A
:10D52000F0BC01207047F0B48588C68802466C04C0
:10D530007304640C1C305B0C0719A34208D1F60B72
:10D54000ED0BF603ED03AE4202D00020108228E07E
:10D55000A34206D9157D1B1B5B1BDB1F9C460023CA
:10D5600005E01588167D2D1BAD1BED1FAC466546ED
:10D57000002DEADB9589002D16D07D783E782D02AE
:10D580003543FE78BF7836023E430DD09C1B002306
:10D59000D3748C4204DB93891818401BC01E18E01A
:10D5A0001382F0BC002070476646771B0026D674B5
:10D5B0008F4206DB137DDB1D1B1994892018181878
:10D5C00006E08B4208DB0123D37493891818401BB3
:10D5D000C01E1182F0BC70471682E2E7F7B5044620
:10D5E0000546808882B04004400C1C352E180190FE
:10D5F000208A002802D00399884202D2002005B078
:10D60000F0BDA189002913D0707832780702174342
:10D61000F078B2780002104300903818814200D0B0
:10D62000FFDFE07C0099014305D000283FD048E0AF
:10D6300000270097F5E7A08900280CD0217D019AEA
:10D64000C91D891840190818617DC01E0170A17D8F
:10D650004170E17D81700398A289039938185118AF
:10D66000A1813070000A70700027B770F7700498BD
:10D6700000280DD07078237D317800020843DB1D2F
:10D68000181881B22288201D00F0CBF8A78143E052
:10D69000207D0199C01D4018A18949194018C01E5C
:10D6A000017861754178A1758078E07534E0A089D2
:10D6B000617D4019C01BC01E0170A17D4170E17DDC
:10D6C000817003990098A28940185118A181377080
:10D6D000390A80B27170B070010AF1700646049880
:10D6E00000280FD0A088251D4004400CB04200D275
:10D6F000FFDF29880120C0038843304328800020B1
:10D70000A08109E0A0894019C01BC01E0178617585
:10D710004178A1758078E07500202082A0740120F6
:10D7200005B0F0BD30B4458802466B041C328488D5
:10D730005B0CD318A54202D04489002C02D030BC27
:10D74000002070471C1D0C60007DC01DC018C01E4D
:10D75000486058781C78000220430881CA60DC7851
:10D760009D7823022B430B82002803D1D21E4A60EE
:10D770000B81088230BC0120704770B50246418899
:10D780000446838848041C32400C1218994205D084
:10D790006189002902D1E189002901D0002070BDF2
:10D7A0005178137809021943D37892781D021543F2
:10D7B0000DD0A61CA84200D2FFDF31880120C00393
:10D7C0008843284330800020E081012070BD237D04
:10D7D0002288DB1D581881B2A01C00F022F8F2E765
:10D7E00000218181C1740182817470478289002A7D
:10D7F00001D10020704730B4828803465204520C95
:10D800001C339A185478157824022C4304D0037DD5
:10D81000121D9A184A6001E0DB1E4B60808930BC03
:10D82000704730B405886C04640C61188CB2012117
:10D83000C90394420AD2121B92B21B339A4201D2FC
:10D84000A94307E0E90BC903214303E0A21A92B2FE
:10D85000A9431143018030BC70470000FFB5264941
:10D86000D21C0A401E4604461546002809D000274F
:10D87000E01C80088000A04200D0FFDF201D0121B5
:10D880000DE00127F4E702464019002F05D1B1420F
:10D8900001D2034600E000231360491CC9B2B14223
:10D8A000F1D9011B0198002F016005D1002E01D094
:10D8B000201D00E000202060FFBD01460A68002016
:10D8C000002A02D0104612680A60704702680A6097
:10D8D00001607047084B10B5C91C101A1940001F91
:10D8E0000CF0BBFEC0B210BD034BC91C1940514324
:10D8F000001D081870470000FCFF0000FEB5D14C69
:10D900000546A0780E46A84200D8FFDFB0000719F0
:10D910000190A800B96A00900858002800D0FFDFE5
:10D92000B868FFF7CAFF04000DD0B96A0098062E48
:10D930000C500AD0082E00D3FFDFC34901980A58C3
:10D940002146284690472046FEBDBE48BF4B7A3050
:10D95000024600902E3A2146284608F008FEF2E7DB
:10D96000FFB581B00A98019F18181E46C4B2002F57
:10D9700007D00025FF2800D9FFDF0298002803D137
:10D9800001E00125F6E7FFDF0198C01C810801983E
:10D990008900814200D0FFDF0A990398884200D9AC
:10D9A000FFDF002D0BD1A74900204C310870A84A99
:10D9B0004A80A6490870A3497A3108704A80A14874
:10D9C0000399017046708470C470047144710A999F
:10D9D0008171C6710026FF1CB80880000746002D23
:10D9E00003D19849B20051188860974972004031BC
:10D9F0008A5A9449002D8B5D00D000206946FFF7BC
:10DA00002DFF0099761C7F18F6B2082EE3D3FF1C79
:10DA1000B808800023460646002D0FD000200222C1
:10DA20006946FFF71BFF009831180020A2009646B8
:10DA3000C91C8A089200002D03D012E08149886435
:10DA4000EDE78049860071188C468A6200210B46FA
:10DA500005E066468F00B66A491CF351C9B2A1427F
:10DA6000F7D37146401C5118C0B20828E0D3019882
:10DA7000081A02990880002005B0F0BD70B5044670
:10DA800003F021FF002801D0102070BD20786D4ADE
:10DA900080008018618892780FE0836A8D005B595E
:10DAA000002B08D04A1C6280A180806A89004058FF
:10DAB000A060002070BD491C89B28A42EDD8618007
:10DAC000052070BD70B505460C46084603F0FBFE08
:10DAD000002801D0102070BD082D01D3072070BD93
:10DAE00025700020608070BD0EB56946FFF7EAFF23
:10DAF000002800D0FFDF6846FFF7C0FF002801D0F4
:10DB000000200EBD01200EBD10B50446082800D32C
:10DB1000FFDF4C48005D10BD3EB505460024694658
:10DB2000FFF7D0FF002803D0FFDF01E0641CE4B260
:10DB30006846FFF7A3FF0028F8D02846FFF7E4FF68
:10DB4000001BC0B23EBD3F498978814201D9C0B2B5
:10DB50007047FF207047F8B50C460546062901D0EE
:10DB6000072C0FD1374FB86CFFF7A7FE384E0200D5
:10DB700004D00221B86CFFF7ADFE00E030462880EB
:10DB8000B04201D10020F8BD2146FFF7B7FE0400E6
:10DB900002D1288800F049F82046F8BD2C4A90426E
:10DBA00001D0082901D300207047A7E6284A9042F7
:10DBB0000BD0082909D2234A9378834205D98900DA
:10DBC0008918896A80000858704700207047F8B5A6
:10DBD0000D4604461E491F488C4202D0082D01D331
:10DBE0000720F8BD174A9178A142FAD9A9008F18E9
:10DBF000A200BB6A00929E58002EF2D0124A204624
:10DC000020325258314690470020BA6A0099062DBA
:10DC1000505001D0072D02D1204600F006F83146C1
:10DC2000B868FFF753FE0020F8BD10B5054CC2B22E
:10DC30000221A06CFFF758FE0146A06CFFF746FEDC
:10DC400010BD00004809002078AD010056000020FA
:10DC5000FFFF000002300000014610B59F4800227F
:10DC600000680260037A9B001818C26001821146A6
:10DC70000C3000F022F910BDFFB5002781B0154629
:10DC80000446002826D00026E01C80088000A04220
:10DC900000D0FFDF002D2DD00120FFF715FA0C99E1
:10DCA0006843CA000A99511847180120FFF70CFA77
:10DCB0006843C1190B98C20004981018081806216F
:10DCC00069430818A90014300818081887B2002EF4
:10DCD00002D00FE00126D7E7781A0C3886B27F48C9
:10DCE0000460204625720C3060600CF08DFC3046DC
:10DCF000FFF7B2FF02980780002005B0F0BDFFB526
:10DD0000764C0546206883B0002800D1FFDF2068EC
:10DD1000017AA94205D9A900426801915158002908
:10DD200002D06F4807B0F0BD0068002800D1FFDFC7
:10DD300001210C9A0598FFF7C9F96A4EC51C3540B8
:10DD40000121069A0498FFF7C1F9C01C30400290E7
:10DD50004019001D86B2614800270068046801E090
:10DD6000274604462068002807D0A188B142F7D191
:10DD70003946204600F0AAF813E030460830A18862
:10DD800080B2814229D33946204600F09FF8A0880E
:10DD90000022811BA01902608180394600F08DF8B5
:10DDA000A680A088608025802946201D0C9D059AAC
:10DDB000064601230095FFF790F92088069D8019FB
:10DDC0000123049A02990095FFF787F943480068F8
:10DDD000416801980C500020A4E70420A2E770B528
:10DDE0003E4C06462068002800D1FFDF2068017AFB
:10DDF000B14210D94568B300E85800280BD04188DB
:10DE00000022EA5002608180114600F056F8216835
:10DE100000200A7A08E0324870BD4B6884001B5924
:10DE2000002B0DD1401CC0B28242F6D8002002E087
:10DE30008A88101880B209680029F9D1FFF70CFF11
:10DE4000002070BD70B5254D286800280AD0002438
:10DE500004E02046FFF7C3FF641CE4B22868007AA0
:10DE6000A042F6D870BD70B51C4E0546306800243F
:10DE7000002800D1FFDF3068017AA94205D9406847
:10DE8000A9004058002800D0041D204670BD70B580
:10DE9000124E054630680024002800D1FFDF3068AC
:10DEA000017AA94207D94068A9004158002902D047
:10DEB0000888091D4418204670BD002903D00A684F
:10DEC00002600860704705490968F8E700680029A2
:10DED00001D00860704701490968FAE75C0000203A
:10DEE00002300000FCFF000070B5044600780E46CA
:10DEF000012819D0072802D00C2819D114E0A068F5
:10DF0000216905780B2D0BD0052003F080FC052D31
:10DF10000ED0782300220520216903F0E9FB07E0F9
:10DF2000782300220620F8E70520216903F06FFC22
:10DF30003146204601F094F970BD30B5411D0246CE
:10DF4000393294780325C379ED432C432340C371C0
:10DF5000DB070DD04B79547923404B710B79127943
:10DF600013400B718278C9788A4200D9817030BD24
:10DF700000224A710A71F5E74178012900D00C218D
:10DF800001707047F7B58CB00D468C69002069466A
:10DF900008732878012716462A287CD243007B4440
:10DFA0009B885B009F442900F9023F0352038C03C6
:10DFB0009C03B803E80300042C04560476048F0481
:10DFC000D404E30405050D052D0557058305A805B3
:10DFD000D305EF05F9051B062C063C0663068306F0
:10DFE000D2060607160740075C0772078407BD07BD
:10DFF000F4071F08DD07E107E607002C02D02078B0
:10E000001D282BD0A8680190002844D00121684623
:10E010000173686A07900321684601740A214174FC
:10E02000286A0590A8880028EFD00199097800296E
:10E0300014D00F2912D20B000CF048FD0FFE14462D
:10E04000D9FDFCFBFAF9F8F70990F6F5FE00022875
:10E0500021D1002C04D020780C2801D000275AE3CD
:10E060000220B7E10620696A03F0D1FBA8880728DF
:10E07000EED1204601F0EEF8022809D0204601F04A
:10E08000E9F8032808D9204601F0E4F8072803D26C
:10E090000120207005E00CE2002CB6D02078012889
:10E0A000D6D101980079C11F0A2901D30A2053E073
:10E0B000A07020460722383001990CF046FA012062
:10E0C0002870032020703BE00728C1D1002C9CD091
:10E0D00020780D28BCD101982146C2782031C87E15
:10E0E00010400007C00F01D00E2000E00F20920763
:10E0F00007D1019A52790242D8D1019A927902420B
:10E10000D4D1019A4B7F527907469F433A42CDD1F1
:10E11000019A897F927988430242C7D10198007998
:10E12000C11F0A29C2D2617F81427BD80722201DEC
:10E1300001990CF00AFA012028700E2020700320AB
:10E1400069460873686A0790204639300490601D5C
:10E15000059017300690F2E02877F0E3E9880891FF
:10E16000412885D1204601F075F8042802D1E078D5
:10E17000C00704D1204601F06DF80F2890D108980F
:10E1800040210F1A01993A46606A491C0CF0DDF9EA
:10E19000606AE968C019089A0CF0D7F90E20694640
:10E1A0000873686A0790606A0490002103A8FFF76B
:10E1B0009BFE2078042809D0A07F002813D00128D6
:10E1C00011D0032811D01020207079E00520207094
:10E1D000032028700A2168460173686A079041216C
:10E1E00068460174ABE011202FE11220ECE7112802
:10E1F000B7D1204601F02EF8042802D1E078C007FC
:10E200000FD0204601F026F8062805D1E078C00797
:10E2100007D1A07F022804D0204601F01BF8112866
:10E220009FD10AE0E4E1BBE08BE08CE16BE14DE1E2
:10E230000FE1F0E0D7E019E0ADE1019920461022AE
:10E240004830491C0CF081F9607801280CD012206C
:10E250002070E078C00704D0A07F002830D00128CB
:10E260002ED00A202870F3E30720ADE7112885D1CE
:10E27000204600F0EFFF082804D0204600F0EAFF17
:10E280001328B5D1286900281ED0686900281BD042
:10E290002046019978301022491C02900CF055F963
:10E2A0002078082814D014202070E078C00711D0FE
:10E2B000A07F022825D0617802291ED00328D0D162
:10E2C00004202870052006E2002069460873F0E06B
:10E2D0000920E9E70B202870296902204870206C8A
:10E2E00048600298886020463830C860201D086168
:10E2F000206B4861606B8861A4E3002801D001288D
:10E3000070D10B2028702F6908207870606A7860BF
:10E31000206AB86002985AE2206C0CF077F9E17834
:10E320008906C90E491EC840C007C00F803000E0F2
:10E3300000203874E06A78615EE20746FAE331460D
:10E34000F9E31128C3D1204600F084FF0A2802D146
:10E35000E078C00704D1204600F07CFF1528B6D134
:10E360000199204610224830491C0CF0EEF8207824
:10E370000A2810D0162020701220287029690A203F
:10E380004870204658304860203088601038C86097
:10E39000206C0861A8E30B202070D7E22870B9E157
:10E3A000022894D1204600F055FF042804D32046CB
:10E3B00000F050FF082809D3204600F04BFF0E283C
:10E3C00085D3204600F046FF122872D2A07F022893
:10E3D000B8D1112069460873686A0790019840789F
:10E3E0000874FBE355E20228ACD1204600F032FF6E
:10E3F00000285ED0204600F02DFF0128F9D02046ED
:10E4000000F028FF0C28F4D0052069460874019814
:10E41000407848745BE71128FCD1002CFAD02078B2
:10E420001728F7D16078E16A022810D0002018225E
:10E4300050431830085801991022491C0CF085F8F7
:10E440000520696A00F0FAFE1820207006E6012017
:10E45000EDE70B28DED1002CDCD020781828D9D1AC
:10E460006078E16A022825D000201822504310303D
:10E470000958019842780A70807848706078E16A9B
:10E48000022819D00020182250431430085801994E
:10E490000822C91C0CF059F80520696A00F0CEFE6C
:10E4A000607802280AD000210919497A49084900F0
:10E4B0006AE0ACE10120D8E70120E4E70121F3E7BD
:10E4C000012000E000200019417286E31128A1D14B
:10E4D000002C9FD0207819289CD16078E16A02280E
:10E4E0000FD00020182250431C30085801991022E8
:10E4F000491C0CF02AF80520696A00F09FFE1A20DA
:10E50000A3E70120EEE7082884D1002C86D02078EC
:10E510001A2886D10198E16A40780870E06A01996A
:10E520000622401C891C0CF010F80520696A00F0D6
:10E5300085FE6078022804D000210919497AFD225D
:10E5400021E00121F9E7112884D1002C84D0207822
:10E550001B2884D16078E16A022818D00020182294
:10E5600050432030085801991022491C0BF0EDFF50
:10E570000520696A00F062FE6078022809D0002157
:10E580000919497AFB22114002289BD198E7012002
:10E59000E5E70121F4E70720DEE53078012896D190
:10E5A0001C22A0187168F2F7F1FD3B21E079095DAA
:10E5B0000840E17800074908C00F49000843E070AF
:10E5C000217F002901D0297721E1217803290BD06F
:10E5D000C00700D174E6032028700A20694608733A
:10E5E000686A07904120AFE3607FA178884201D933
:10E5F0000620B1E502272771E1792046C906C90E38
:10E60000E171617A0907090F6172A17A0907090F9F
:10E61000A172FFF792FC2F700A2069460873686A9E
:10E620000790072090E330781228CDD10720087397
:10E63000696A079191680591694608820722211D40
:10E6400005980BF082FF04202070C7E2F088089044
:10E6500030781228B8D1072168460173686A07909C
:10E66000301D07C804AB07C34121684601820598E5
:10E670000C21017008994022521A1746401C216A49
:10E680000BF063FF206A089AC119F0680BF05DFF78
:10E69000002103A8FFF728FCE078C1210840801C76
:10E6A000E0702078052801D00F20CEE6A07F00285A
:10E6B00000D1D9E50128FCD0032874D10820C4E694
:10E6C00030780328B1D120460822683071680BF0F9
:10E6D0003CFF0520287069460873686A07902EE69B
:10E6E00030780328A1D120460822703071680BF0E1
:10E6F0002CFF206C00283DD1A07F002805D00128E8
:10E7000003D0062028700420E5E707202870F94888
:10E71000206460640327F0E33078022885D13079E3
:10E72000002873D1A07F022802D0032805D021E061
:10E73000B06800286BD020641BE06078012806D008
:10E740003A21A079095D012805D0EA4806E03A207F
:10E75000A179005DF7E7B0680028EBD02064E0788D
:10E76000C00701D0012901D0E24802E0F06800288A
:10E77000E0D06064072011E60A200873696A0791F7
:10E78000E178C9070AD06178022904D1A17F002964
:10E7900005D0012903D0A17F032900D008202870CB
:10E7A0001120694655E1CBE0307812288AD1B06853
:10E7B000286209202870E0782F69C0070DD0082052
:10E7C0007870206A7860606AB86020466830F860C7
:10E7D000A07F022800D0ABE59EE502207870206C77
:10E7E000786020466830B8603038F860201D3861A5
:10E7F000206B7861606BB861686A3946786223E1A2
:10E80000E0783178C00703D0072002E0D7E0AFE21C
:10E810000B208142CAD12078072819D011202070FE
:10E82000072069460873686A0790286A05901120D6
:10E83000088205980321017051681022401C0BF0DA
:10E8400084FE002103A8FFF74FFB0020286205E4A7
:10E850000820E4E730781228A8D107200873686AF6
:10E860000790906805901120088205980421017096
:10E87000214610226831401C0BF067FE002103A8DE
:10E88000FFF732FB2078092801D01320DDE50A20AC
:10E89000207016E0E1783078C90701D0072100E048
:10E8A0000B218842B6D120461022483071680BF007
:10E8B0001FFE002801D004204EE42078092800D152
:10E8C000CFE40C206AE5E078C1073FD0A17F0129A1
:10E8D00002D002291DD035E00D20287029690B20B7
:10E8E0004870607801280BD0206A4860606A8860B0
:10E8F00020466830C86010300861E06A4861A1E0D5
:10E90000606A4860206A886020467830C8601038A5
:10E91000F2E78106C90E142914D20621C84101214B
:10E92000C90640181A21C841E0706078012807D054
:10E9300010202070042028700520694668E162E3F9
:10E94000062082E56078012800D17FE50E2025E5CC
:10E9500030780A28A6D1287010200873686A0790BA
:10E9600050680490002103A8FFF7BEFAEAE7E078B8
:10E97000C0070AD0A07F012803D10F2028700420EF
:10E9800046E1102028700F2042E1152028702969E7
:10E9900003204870206C48606078012804D020462D
:10E9A00078308860103881E2204668308860103006
:10E9B0007CE230780228CDD130790028E1D0287768
:10E9C0001EE330781428FBD1112028702969092012
:10E9D000487070684860607801280DD02046683023
:10E9E00088601030C860206B0861606B4861204609
:10E9F00058308861A06A22E020467830886010385C
:10EA0000F0E730780828DBD16078012801D01320A6
:10EA1000DBE1A178A06A10224018511A0BF0F2FD38
:10EA20001220287029690A20487020465830486012
:10EA3000203088601038C860206C08614DE0C861E3
:10EA4000E06A0862686A48620C9800F020FC74E48E
:10EA500027E00874DFE030780928B1D12046102281
:10EA6000483071680BF044FD002801D00B2093E57D
:10EA700020780B2812D02046FFF75FFAA178A06A11
:10EA800010224018511A0BF0BDFD162028700820E6
:10EA900069460873686A0790002070E013202870A8
:10EAA0000A2069460873686A079011204CE13078A3
:10EAB000122885D1B06828621420287029690A209C
:10EAC0004870204658304860103088601030C86068
:10EAD000606C08616078012806D0204639304861B2
:10EAE000206B8861606BAAE7601D4861606B88617C
:10EAF000206BA4E796AE010030780928ADD107203D
:10EB00000873686A0790286A0590112008820598A2
:10EB10000D2101701022401C71680BF016FD0021C0
:10EB200003A8FFF7E1F9002028626178012903D0EA
:10EB300015208AE454E26FE01621297008216A4604
:10EB40001173696A07910490A0781075C7E5307851
:10EB50000C28AED1162028706078022802D12046F9
:10EB6000FFF7EBF9A178706810224018511A0BF0EA
:10EB700049FD082069460873686A07907068049028
:10EB8000A0780875ABE53078102892D1E079C007FD
:10EB900076D01720287009203AE03078112888D1E3
:10EBA00020461422311D1C30F2F7F0FAE06A218D64
:10EBB0004172090A8172E16AA078C871E179E26A5A
:10EBC0008907890F1172E16A627A0A73E16AA07A91
:10EBD000203108716078012872D0A0E12CE26078C1
:10EBE000022801D0012000E000200019407AC0076F
:10EBF00004D0E078C00701D11920E6E01E20BAE574
:10EC000030781228A5D1B06828621A202870052013
:10EC10000873686A0790114603A8FFF765F916E7BD
:10EC20003078032895D16078E16A022801D001206C
:10EC300000E0002018225043143008580822716860
:10EC40000BF083FC1B2028702969062268694A7032
:10EC5000626A4A606278E36A022A01D0012200E017
:10EC6000002218277A4314329A588A601EE13078BD
:10EC70000F287DD16078E26A022802D0012001E0ED
:10EC800076E1002018214843103010580223093241
:10EC9000716809F057FF1C20287029690520487009
:10ECA000206A4860E06A09308860F948FEE0307800
:10ECB0000E285DD16078E16A022802D0012001E0CF
:10ECC0004BE100201822504318300858A278716890
:10ECD0000BF03BFC6078E16A022801D0012000E0E3
:10ECE00000201822504318300858A17810224018EC
:10ECF000511A0BF087FC072069460873686A079071
:10ED0000286A059011200882059806210170617813
:10ED1000E26A022901D0012100E0002118235943B1
:10ED2000183151581022401C0BF00FFC002103A891
:10ED3000FFF7DAF8002028621D2028700A206946B3
:10ED40000873686A07900B200874C8E430781228AA
:10ED50000ED1072168460173686A07909068059094
:10ED60000B2268460282059801706178E26A00E031
:10ED7000A7E0022901D0012100E000211823594316
:10ED8000103151580A784270497881706178E26A8E
:10ED9000022901D0012100E0002118235943143138
:10EDA00051580822C01C0BF0D0FB002103A8FFF72C
:10EDB0009BF823E76078022801D0012000E00020C2
:10EDC0000019407A800703D51F2028700A2055E0DB
:10EDD0002120D0E43078122873D107200873686AA4
:10EDE0000790B068059011200882059808270770E1
:10EDF0006178E26A022901D0012100E00021182394
:10EE000059431C3151581022401C0BF09EFB00212D
:10EE100003A8FFF769F8202028700A2069460873C4
:10EE2000686A07900F745AE43078122849D1072095
:10EE30000873686A07909068059008200882059812
:10EE400009210170E169062209784170E169801C9D
:10EE5000491C0BF07AFB002103A8FFF745F8B7E740
:10EE60006078022801D0012100E000210919497AC7
:10EE7000490708D5222028700A2069460873686A65
:10EE800007901120E5E5012849D068E03078122884
:10EE900017D1B0682862232028702969052048709E
:10EEA000206A4860E06A093088607A48C860C9E52D
:10EEB00030780E2805D16078E16A022802D001205E
:10EEC00001E064E00020182250432030085810224E
:10EED00071680BF03AFB072069460873686A07906F
:10EEE000286A05901120088205980A21017061782E
:10EEF000E26A022902D0012101E0A2E000211823E8
:10EF00005943203151581022401C0BF01EFB0021A8
:10EF100003A8FEF7E9FF002028626078B3E7242009
:10EF200029E4607802280BD000200019407AC1073C
:10EF300002D0E178C90705D0810705D51920A5E4DD
:10EF40000120F2E71720A1E4400701D51B209DE432
:10EF50001C2020706078012801D018200BE42720A5
:10EF600009E4282028700B2052E63078132847D176
:10EF70002920A7E42078012842D00C2840D0204640
:10EF8000FEF7FAFF0C2069460873686A079037E0BD
:10EF90003078122805D013201070032726202870FF
:10EFA0004FE0072168460173686A0790B0680590D2
:10EFB000022168460182059805210170297F417070
:10EFC000002103A8FEF790FF0B2168460173686AD1
:10EFD0000790314603A8FEF787FF074626202870D2
:10EFE000012F0DD02DE0012168460173686A07905A
:10EFF000042168460174297F41740020287713E0BA
:10F00000287F002810D01D202070252028700A207D
:10F0100069460873686A079002200874314603A89D
:10F02000FEF762FF07460CE0002C01D0FE202070A6
:10F030006846007B002804D0002103A8FEF754FF97
:10F0400005E438460FB0F0BDF7B50C464E690978B7
:10F050000127072086B0002904D001294CD00229BD
:10F0600021D1C5E02179012906D0022917D0032931
:10F0700012D0042917D127E07078012812D1062078
:10F08000616A02F09EFB00280DD102200FE0000013
:10F090008EAE0100C8AD01001D203070F5E771781B
:10F0A000022901D0052790E031780C2923D1694647
:10F0B000087101202070684621890079814211D2AF
:10F0C0000A20694608704AE03078011F042902D3FB
:10F0D0000E38032879D2B07F022876D12089022801
:10F0E00073D3D2E7089812210170083408980ECC27
:10F0F000001D0EC0032768E008990978122964D121
:10F1000069460870616A049108998D6802952179B1
:10F11000012906D002292AD0032911D0042954D16B
:10F120005AE00227684687800B202870207E002145
:10F13000C006C00E68706846FEF7D6FE377043E022
:10F1400002266846868005202870207E687000218F
:10F150006846FEF7C9FE26700B2168460170606A9A
:10F16000049068460899FEF7BFFE07462DE0694601
:10F17000888001202870207F6870607FC007C00FE2
:10F18000A870A07FC006C00EE870E17F2971C0079B
:10F190001ED02046203001780907090F6971407898
:10F1A0000007000FA87100216846FEF79DFE30465B
:10F1B0000722294638300BF0C8F9A06940787077EB
:10F1C0002879B0700D2030700027384609B0F0BDA6
:10F1D0000020A8716871E6E70220694688800E2049
:10F1E0002870207E687000216846FEF77DFEEBE700
:10F1F000FE203070012168460170606A049004218D
:10F2000068460171217E41710021EEE700B50023BF
:10F21000012285B005280CD0062808D16846027066
:10F2200004910221017143710021FEF75DFE05B0DA
:10F2300000BD6846027004910271F4E770B50C4697
:10F24000054602F0E4FA782300222146284602F01F
:10F250004FFA70BD002801D0007870470C2070472D
:10F2600070B505780C000DD0002121702146F4F70F
:10F270008DF877482178405D884201D1032070BD28
:10F28000022070BD0021F4F781F8002070BD027BE0
:10F29000032A05D000220A704B780C2B02D003E021
:10F2A000042070470A770A62027B9300521C0273A3
:10F2B000C15003207047F0B585B00F4605460124C4
:10F2C000287B800040198038C66F7078411E0D2958
:10F2D0000AD25F498000123140188038C36F3A4625
:10F2E0003146284698470446002C01D0012C11D104
:10F2F000287B401E0006000E287301D00324DFE7A0
:10F300000D2069460870706A0490002101966846D5
:10F31000FFF7A6FF032CD3D0204605B0F0BD70B593
:10F3200015460A46044629461046FFF7C4FF06461E
:10F33000002C0FD02078FE280CD1207E002806D08B
:10F3400000202870204629460C30FFF7B4FF2046E5
:10F35000FEF712FE304670BD704770B50D4604468C
:10F3600088210BF051F9012D03D0022D03D0052087
:10F3700070BD012000E0022060702046FEF7FCFD19
:10F38000002070BD002806D0027E002A03D00A4665
:10F3900001460C31C3E70120704730B5044687B001
:10F3A0000D46062002F033FA2946052002F02FFA16
:10F3B0002078FE2805D00020694608702046FFF717
:10F3C000E1FF07B030BD7FB50E4600216A461173DC
:10F3D00041780C2903D00D2903D0002407E084696B
:10F3E00000E04469002C02D0217E002912D015468D
:10F3F00001462846FFF74BFF032809D1324629462C
:10F400002046FFF78CFF6946097B002900D00420C5
:10F4100004B070BD25460C35EAE710B590B00C4637
:10F4200005216B465970019009480992801E02908F
:10F43000084803900AA96846FFF7C5FF002805D1D0
:10F44000102220460B990BF080F8002010B010BD60
:10F45000CEAD01008EAE010070B50D46040012D095
:10F46000002D10D0210128460BF0CCF81022534972
:10F4700028460BF06AF85148012108380180448081
:10F480004560002070BD012070BD70B54B4E00245A
:10F490000546083E11E0716820014018817BAA7B77
:10F4A000914209D1C17BEA7B914205D10C222946C8
:10F4B0000BF01EF8002806D0641C30888442EADB7A
:10F4C0000020C04370BD204670BD70B50D460600DB
:10F4D00007D0002D05D0FFF7D8FF002803DB401C24
:10F4E00014E0102070BD354C083C20886288411C17
:10F4F000914201D9042070BD6168000140181022BA
:10F5000031460BF022F82088401C20802870002013
:10F5100070BD70B514460D001FD0002C1DD0002109
:10F52000A170022802D0102817D108E06878297845
:10F530000002084311D00121A17010800BE0284681
:10F54000FFF7A3FF002808DB401CA070687B297B25
:10F55000000208432080002070BD012070BD70B5FE
:10F56000054614460E000AD000203070A878012805
:10F5700007D004D9114908390A8890420BD90120D3
:10F5800070BD002C04D0287820702888000A5070A4
:10F590000220087010E0002C0CD0496800014118CE
:10F5A0001022204610390AF0D0FF287820732888CE
:10F5B000000A607310203070002070BD68000020C9
:10F5C000F8B5FC4C207EE17D884219D00126FA4D29
:10F5D0000027E07D215C14200A4642435019037C39
:10F5E000052B0ED0037C062B19D0037C072B25D0CE
:10F5F000437C012B30D0FFDF207EE17D8842E8D1C3
:10F60000F8BD0674E07D162807D0E07D401CE0754B
:10F61000491CC8B2AA5802210CE00020F7E7067482
:10F62000E07D162808D0E07D401CE075491CC8B27A
:10F63000AA5803219047DFE70020F6E70674E07D33
:10F64000162807D0E07D401CE075491CC8B2AA58B6
:10F650000821EFE70020F7E74774E07D162807D080
:10F66000E07D401CE075491CC8B2AA580721E1E7BB
:10F670000020F7E770B50024D04E0C207072D048FF
:10F6800025464473047328300476C475CD480AF0C7
:10F6900095F8CD480575F572CC49601E8860757186
:10F6A000B570F57035717570C948E83905704570E9
:10F6B0001420604340180574641CE4B20B2CF7D38B
:10F6C0000120F9F798FB0020F9F795FB0120B071B4
:10F6D000F9F718FFBF48F9F727FFBF4C2070BF4864
:10F6E000F9F722FF6070F9F729FB70BD10B5F9F743
:10F6F00050FBB94C2078F9F732FF6078F9F72FFF0B
:10F70000AE4C207A002803D0F9F7F1FC00202072DB
:10F7100010BD0B207047F8B5F9F7F1FBA74D044673
:10F72000A879002801D0FFDFF8BDE87A002800D1D1
:10F73000FFDFA64F01237969A94A601A9B05984209
:10F740000ED30E1B9E420BD3904203D9501A0019C0
:10F75000401C05E0964232D9101B4018401C404224
:10F76000002800DBFFDF0126AE710024EC72687A0E
:10F77000042114225043904A80180174B868401C38
:10F7800004D0481FB8600120F9F735FB0020F9F7D5
:10F7900032FBF9F719FB0AF08BF9F9F710FC9148E5
:10F7A0000460046001209049C0030860F3F7D0FBB7
:10F7B00087480078022807D0032802D006E0FFDF40
:10F7C000D0E7E878002801D0AE7000E0AC70F9F71F
:10F7D000E2FBF8BD034678490B201422424352183D
:10F7E000203A127F002A04D0401E0006000EF4D1F9
:10F7F00070471422424351180A46803AD3660122C8
:10F8000020390A777047012805D0032805D100293F
:10F8100003D1002070470029FBD010B4674C0023AF
:10F8200063706B4A002890700CD002280AD0072918
:10F830001AD2080078440079001887441505070D8E
:10F840000F111300D37003E01B2000E03A20D070AA
:10F850000120607010BC70475820F8E77720F6E769
:10F860009620F4E7B520F2E710BC0020704710B5F1
:10F8700057484078F9F7AAFB80B210BD411E142208
:10F88000504310B54C4A8418203C0A2902D8207FE6
:10F89000002800D1FFDF207F012800D0FFDF0020FB
:10F8A000207710BD70B5464C607B217B884201D12A
:10F8B000012500E00025F9F722FBF9F787FB617BC2
:10F8C000227B914201D1012100E00021A942EBD12C
:10F8D00070BDF7B50646481E84468EB0C0B21422ED
:10F8E00005905043344A85180495287C2D1D07281F
:10F8F0002AD1304C0027E07D227E824221D0235C39
:10F90000059A934201D1012701E0002F04D0162867
:10F9100011D0421CA25C225416280ED0401C227E1C
:10F92000C0B28242EBD1002F0BD0207E002806D03F
:10F93000207E401E04E00022ECE70020EFE71620C6
:10F940002076049A0120107460461C4C0A2813D8B3
:10F9500014204143184808182038007F00280BD095
:10F960000498007C012808D00498007C012803D06A
:10F970001098807A012804D0FFDF1098807A01283F
:10F9800059D104980C4B007C02282FD0094C207EC2
:10F9900016285CD0207EE17D401C884200D1FFDF2C
:10F9A000049901204874217E05986054207E162811
:10F9B00051D052E0BC0B0020D80B0020E00C0020FE
:10F9C000940B0020EC0C0020A40B0020C00C0020A5
:10F9D0007A000020B115010078000020C1F5000078
:10F9E000FFFFFF0000F5004080E200E0607A059A2A
:10F9F0000146904206D0014614277843C018807C07
:10FA00009042F8D1627A824208D1617A142251433D
:10FA1000C918897C61720121A17207E01422424356
:10FA2000D21814277943927CC9188A7414220C21A5
:10FA30005043C01881741098007A06281DD2010026
:10FA40007944097949188F440C161412100EE07D80
:10FA50000028A4D0A4E7002001E0207E401C2076EE
:10FA6000AFE000210BE0B42109E0732107E032216F
:10FA700005E00A2103E0062101E0FFDF00211098E4
:10FA800002910068401A28601099097A002912D062
:10FA90000221401A0102090A296010980268406890
:10FAA00010180002000A68601098807A02281098E6
:10FAB00003D0007B6FE00421EBE7007A002812D02E
:10FAC0000222029812181098436810461030181835
:10FAD0000A90FB48029B4078984202D9E378002BB9
:10FAE00003D00A9805E00422EBE7029BC31A0A98A8
:10FAF0001818637A11300C2B1CD0637A14277B43BF
:10FB0000F04FDB195B68994214D0EF4F617ABC4625
:10FB100014235943EB4BC9184B6889689B1B891BFD
:10FB20001B0209021B0A090A984235D8634533D8DB
:10FB3000614531D831180A980123081A0002000AD9
:10FB4000286010998018C9680002000A471ADF4A25
:10FB50009B05BC469F4201D2384610E00F1A9F42D7
:10FB600001D260460BE0944503D9511A0818401C95
:10FB700005E0974206D9101A4018401C4042002860
:10FB80005DDC00E0FFDF0A982968103808180002E1
:10FB9000000A68600020287268681127103000028F
:10FBA000000A68601098407AA8721098007A68720B
:10FBB00003280ED200280CD001F07EFA002803D0D2
:10FBC00007E0002011B0F0BD3221029802910F1A17
:10FBD0001137BB480178012901D0032909D14078A8
:10FBE0000299884205D9E178002902D10299401A88
:10FBF000C7196A682868921B801B9446010212028A
:10FC0000B14B090A120A8F4219D81F46994216D8D9
:10FC1000BA4214D8617A0C2915D0677A61460C2251
:10FC2000039200921422A74B7A43D21893689B1B2D
:10FC3000834216D80397977C0C2FF3D16EE005987A
:10FC400001F096F8BDE70499022205980A74627AD9
:10FC50000C2A00D0627A8A7460720120A07211B0FE
:10FC6000F0BD0C2F5AD00022384694461422034689
:10FC70005343944A9A1853689B1B8B4222D2907B21
:10FC8000AB7A984218D804980521059D0174904CD0
:10FC9000207E16280CD0207EE17D401C884200D1B9
:10FCA000FFDF207E2554207E162800D0D5E6D2E640
:10FCB000E07D0028F4D0F4E701208446907C0C28F5
:10FCC000D4D102E06146002927D03D46009014209F
:10FCD0002A4642437B480621161831741C38007EA0
:10FCE00016287B4813D0017EC07D491C814200D17B
:10FCF000FFDF7748017E4554017E16290BD0017E37
:10FD0000491C0176B57C0098A842E0D106E0C07D90
:10FD10000028EDD0EDE70021F3E7009704990220D9
:10FD2000684D0874607AB84207D1049900988874C5
:10FD3000059860720120A0721BE003980C2F0CD074
:10FD40000C2800D1FFDF0398142250434019059975
:10FD500081740499009888740BE00C2800D1FFDFAF
:10FD600003981422504340190599817404990C207A
:10FD70008874012011B0F0BD30B50D46554A4419C4
:10FD800000210B46101A8B4100D2FFDF52488542FA
:10FD900000DDFFDF5148854200DAFFDF5048844232
:10FDA00005DA002C01DB204630BD4D4800E04D480F
:10FDB000201830BD401E70B5C0B2142148434149DF
:10FDC0004418607B062813D2010079440979491848
:10FDD0008F44020C0A08060400202FE0B4200CE037
:10FDE00073200AE0322008E00A2006E0062004E042
:10FDF000FFDF617B0020002920D0022140186168CC
:10FE000040180002000AF9F7E1F80C256557314A5D
:10FE1000441900210B46101A8B4100D2FFDF2E48F7
:10FE2000854200DDFFDF2D48854200DAFFDF2C48E8
:10FE3000844207DA002C03DB204670BD0421DDE795
:10FE4000274800E02748201870BDF0B5064683B06B
:10FE500025480190457A029534687068001B0702B6
:10FE60001A483F0A001B00900C2D40D01420294650
:10FE700041431448012208188446416813489205FA
:10FE80008646081B904210D3631A93420DD3024654
:10FE90007046724503D900984018401C05E0734530
:10FEA00024D9411A0819401C404200281FDA604634
:10FEB0000295857C0198C0790028D5D003B0F0BDAB
:10FEC0007A000020D80B0020FFFF3F00FFFFFF005B
:10FED000BC0B0020FF7F841E0020A10700E05EF81D
:10FEE0000080841E00807BE1E00C0020FFDF029890
:10FEF000854226D014214843FE4901234018029030
:10FF00008068FD499B058C46011B8646994210D3AB
:10FF1000221A9A420DD36346614503D90099714470
:10FF2000491C06E0194662452DD9091A0819401CDA
:10FF30004142002905DD0298B17A807B814200D3DD
:10FF400074460C2D15D0EB491420454368184268BF
:10FF5000121B1202120ABA420BD2B37A827B93426C
:10FF600000D38468857C0198C0790028A6D10C2D27
:10FF7000EAD13068A042A1D0E0190002000A346042
:10FF8000706003B0F0BDFFDFDBE7F0B5DB4904468E
:10FF9000486885B0C005C00D1CD0103840B200289C
:10FFA0000CDA0207120F083A920892005118C96938
:10FFB0008007C00EC1400806800F09E08108D04AC2
:10FFC0008900891809688007C00EC1400806800FA3
:10FFD000002808D000272078002806D0012804D067
:10FFE000002005B0F0BD0127F5E72079062813D2DF
:10FFF00001007944097949188F44020C0A08060463
:020000040001F9
:10000000002014E0B4200CE073200AE0322008E065
:100010000A2006E0062004E0FFDF21790020002905
:1000200005D002214618B74D002F02D003E004216D
:10003000F8E70020E871694602AAA068F8F7D1FF46
:10004000694608228A56E06801A980180122C01C6E
:100050001F2801DA019209E003AAF8F7C2FF6846F7
:10006000007B002802D00198401C01900099019863
:10007000401810300002000A0190881B0002000A9C
:10008000009060796946887200980390F8F737FF0E
:10009000009A019B121A181A9B4912020002120AB6
:1000A000000A8A4216D8884214D86846FFF7CDFE67
:1000B00000990398814205D088190002000AF8F7D8
:1000C00085FFA0600120E97900298AD0002FB0D0F7
:1000D00005B0F0BD0020F6E7F3B58FB08B480C46B5
:1000E0000B9009F073FB8A4A0F99864F5618894D79
:1000F000203E002808D08848007D002800D0FFDF7F
:10010000207801287AD033E1687B162809D0687BF3
:10011000297B401C884200D1FFDF2078012804D0D1
:1001200009E0287B0028F7D0F7E7F07F002800D00F
:10013000FFDF0120F077697B0F981422774E51433F
:10014000891908742078022822D0687B142148433A
:100150008619207930726079707232460C323146DD
:10016000A068F8F73EFF0C2030560F2804DD1F383A
:1001700030733068401C30600C217156301DE268CD
:1001800001905018C01C1F287EDA01200199DAE086
:100190005A494868C005C00D1DD0103840B200282B
:1001A0000CDA0207120F083A920892005118C96936
:1001B0008007C00EC1400806800F09E08108504A40
:1001C0008900891809688007C00EC1400806800FA1
:1001D000002800D1FFDF687B1421484386190021E5
:1001E000E0686A460691117006A9F8F7FAFE6A46B9
:1001F000002010560F2802DD012001E0B2E00020AF
:100200000699401807900220B07220793072607908
:100210007072A068311DC01C06911F2801DA0120F0
:1002200009E0F8F7DEFE68460078002804D006985A
:1002300006990068401C0860307A062813D2010035
:100240007944097949188F44020C0A0806040020F1
:100250000BE0B42009E0732007E0322005E00A201B
:1002600003E0062001E0FFDF0020217900295CD0B7
:1002700002214018069071681030081807990890FC
:1002800009180698081A00E051E00C900020F87157
:10029000F8F735FE04463060079820180002000A7F
:1002A000F060787A0C283CD0797A142041431148C8
:1002B000081840680899029040180002000A03904C
:1002C000707A6946887402A8FFF7BFFD0299039A05
:1002D000091B121B090212020B4B090A120A0C9885
:1002E00099421ED882421CD802990698081800022A
:1002F000000A15E0D80B0020FFFFFF0000ED00E032
:1003000000E400E0E00C0020FFFF3F00EC0C0020C8
:10031000B40C0020940B0020A40B0020D409002072
:100320003060F8790028B1D110E00421A1E704AAD7
:100330000199F8F756FE6846007C002804D0019821
:1003400001990068401C08602078B072687B16280C
:1003500006D0687B401C68730B9809F04FFA40E0A8
:100360000020F8E7F07F002800D0FFDF0120F077C1
:10037000FE490F9808742078022800D1FFDFFB4E59
:10038000207930726079707232460C323146A06842
:10039000F8F727FE0C2030560F2804DD1F38307385
:1003A0003068401C30600C22B256301DE16801906C
:1003B0008818C01C1F2802DA012001990BE003AA4B
:1003C0000199F8F70EFE6846007B002804D00198DA
:1003D00001990068401C08602078B072E349012050
:1003E0000875687B297B884224D07C7A0C2C23D02A
:1003F000F8F785FD14214C43DD4961180A7C042A75
:1004000018D00A7C032A15D04B6889681B1A081A71
:100410001B020002D74A1B0A000A112B0AD31146FD
:10042000934207D8884205D8687B297B884201D04F
:10043000F8F7B1FD11B0F0BD687B297B8842F7D198
:1004400011B0F0BD10B50020F8F7C5FC10BD10B517
:100450000120F8F7C0FC10BDC74800787047F1B51F
:10046000009802281AD0C54C607A0C2800D1FFDF12
:100470000026A6710125E572607A03211422BC4F83
:100480005043C0190174F8F78BFD009800280AD07A
:10049000012825D0032872D0FFDFF8BDB6480078C8
:1004A000F9F763F8F8BDB648007F002800D0FFDFF9
:1004B0006571B34D00202E60F8F79DFCA968481CBB
:1004C00004D0012300221846F8F7C8FC607A617A4C
:1004D000401CC0B2142251437A5801219047F8BD04
:1004E0000120F8F788FC607900280DD0A4488068C6
:1004F000401C09D0607A617A401CC0B2142251437A
:100500007A5806219047F8BD9D48007F012807D002
:1005100002280FD003281FD0042831D0FFDFF8BDF8
:100520002079002803D02671F8F73FFDE570944844
:100530000677F8BD207A002802D1F8F7AFFD2572C2
:10054000607A617A401CC0B2142251437A5800216B
:1005500090478B480677F8BD894F0123397B78682F
:100560000022411A1846F8F779FC2079002803D0B8
:100570002671F8F71AFDE57002203877F8BD19E00A
:100580007F4E217870680123411A00221846F8F73F
:1005900065FC207A002802D1F8F780FD2572607A88
:1005A000617A401CC0B2142251437A58002190470E
:1005B0003577F8BD607A617A401CC0B2142251438D
:1005C0007A5805218AE710B56C4C607A0C2800D166
:1005D000FFDF607A617A401CC0B214225143644A42
:1005E00052580421904710BDF0B583B0F8F787FC4E
:1005F00000900C20614C0290617A624801900C29B5
:1006000020D0617A1420414359480918097C0429F3
:1006100018D0617A142251430818007C03286ED048
:10062000019900980A684968121A081A1202000211
:10063000504B120A000A112A61D319469A425ED819
:1006400088425CD84E488068401C00D0FFDF002004
:100650006071607A0C2807D16078002804D04A487D
:10066000C178417081780170607A0C2815D0617A68
:10067000142041433E480918097C04290DD1617AB0
:100680000291617A01221423594309180A74617A8C
:1006900059430818807C6072A2723C4D687B297BAC
:1006A0003B4F884233D03B4E287B1421484380196E
:1006B000007CC05D0128287B06D048438019007C5F
:1006C000C05D02282FD041E0142148438019807A70
:1006D00001280AD0287B0221142250438019007C73
:1006E000C155287B162808D00AE0287B0021142257
:1006F00050438019007CC15528E0002002E0C5E18C
:10070000287B401C2873687B297B8842CCD1174DFD
:10071000287D00285DD0287CC15D01293CD0C05DCA
:10072000022844D04BE0287B142148438019807A6A
:10073000012800D0FFDF297B0020142251438919B2
:100740008872297B51438919097CC855287B14215B
:1007500048438219287B48438019017C0098FFF7A1
:10076000B8F8287B1628CBD1C7E70000A40B0020DF
:10077000D80B0020FFFF3F0078000020E00C002095
:10078000C00C0020D00C00207A000020940B002028
:10079000B30C0020D4090020A97A012904D0022139
:1007A000C155002028750AE00021C15507E0A87A4C
:1007B000012800D0FFDF0020A872297CC855287DC1
:1007C000002806D0297CFE4A0098FFF782F8002016
:1007D000287502980C281CD0014614204143F94882
:1007E0000818017C012914D107210174F64D287ED7
:1007F000162839D0287EE97D401C884200D1FFDFD1
:10080000297E02986854287E162831D0287E401C04
:100810002876607A0C287DD0A07A00287BD0002032
:10082000A072607A14214843E6494618E748B56843
:1008300073680246F6687C32C36796605560E44D83
:10084000687E002816D00226607A1422DD495043C3
:100850004018407B06281BD20100794409794918C9
:100860008F440A1412100E0CE87D0028C7D0C7E789
:100870000020CDE70426E7E700200BE0B42009E0E4
:10088000732007E0322005E00A2003E0062001E0A3
:10089000FFDF00202873697E022901D0012910D1D1
:1008A0002969009A09188A1A1202120A432A08D9D9
:1008B0000320687632390802000A28613220287342
:1008C00008E0322806D2207A00280AD1F8F7E6FBA1
:1008D000012005E0207A002803D0F8F708FC00206A
:1008E0002072BC491122487820700978012901D072
:1008F000032906D101212171297B884201D9421A9D
:100900001132A378002B00D0921C2179002904D148
:10091000002B01E086E094E05AD09446AE4A00995C
:100920000092019A176852687F1A511A3F02090211
:100930003F0A090ABC451BD8A74A974218D8009A13
:10094000914215D8297B884223D92B69421A9A1AD9
:100950001202120A101880190002000A2A61686047
:10096000002914D0032028770006000E3BD149E06F
:1009700000202071A070297B002922D0286940180E
:1009800080190002000A6860022028772BE001200D
:10099000E9E781420BD92A69511889190902090A24
:1009A0006960002801D00420DDE70220DBE7002B8E
:1009B00000D1FFDF286980190002000A686000206A
:1009C00004E0296989190902090A6960287719E090
:1009D000287B00280FD02969081880190002000A16
:1009E00068600220287728690123811900221846AF
:1009F000F8F734FA09E0286980190002000A6860F3
:100A0000002028770120F8F7F6F9607A142148438E
:100A10006C490C2240188256012300206968F8F7BF
:100A20001DFA0EE00120F8F7E6F90020F8F7E3F9E7
:100A3000F8F7CAF9207A002803D0F8F758FB00200D
:100A40002072A078002804D0F8F7AFFA0020E070F8
:100A5000A0706078002804D05E48C1784170817829
:100A600001702079002806D000205A49E0700978EA
:100A7000002900D120715448017EC07D814203D0FD
:100A800056484078F8F771FD0120E07103B0F0BDE1
:100A9000F0B5534C0746607A83B00C2800D1FFDFD5
:100AA000607A1421474E48438019007C032800D007
:100AB000FFDF474DA868401C00D0FFDF607A14219B
:100AC000484381190C20085600216A460091117193
:100AD000C01901AA6946F8F784FA6A46042010563C
:100AE0000F2801DD012000E000200099401869680E
:100AF00040180102090AA9606079002804D0012386
:100B000000221846F8F7AAF903B0F0BD30B5364C0C
:100B1000344A0B1AA34211D3451AA5420ED393426D
:100B200003D9101A43185B1C08E0954204D9511AE6
:100B30000818401C434201E0FFDF0023184630BD87
:100B400010B50146012300220220F8F787F910BDF5
:100B500010B50220F8F74FF910BD10B5F8F7CFF92E
:100B600010BDF0B51E4D0446E87A83B0002800D1D0
:100B7000FFDF642C68D31D4900200246091B824117
:100B800062D31B48417B007B81425DD10C48007DD4
:100B9000002859D1687A14210A4F48430C4EC519D0
:100BA000306801AA00196946F8F71BFA6946042063
:100BB0000856002802DD0098401C0090A96819E042
:100BC000A40B0020D80B0020BC0B0020540C0020EC
:100BD000C00C00207A000020FFFF3F0078000020BA
:100BE000E00C0020FF7F841E0020A107FF1FA1074B
:100BF000940B002000986B680A18D21A12026D4BF1
:100C0000120A9A4220D8AA7C0C2A08D014235A43EC
:100C1000D2195268511A0902090A814214D3B068E4
:100C2000401C05D00120F8F7E6F80020C043B06072
:100C3000306800193060A868009940180002000A66
:100C40007061012003B0F0BD002003B0F0BDF0B52D
:100C50000646401EC5B21420574968434418207CFC
:100C6000002800D1FFDF5548017B407B81420CD03A
:100C7000534A14234B439B181B7CB3420CD01629B8
:100C80000CD0491CC9B28142F3D14E48017D0029E4
:100C900064D0007CB04261D10020F0BD0021F1E7BA
:100CA000217C052905D0217C062902D0217C072939
:100CB00028D101212174C17D0023027E8A4221D0E6
:100CC0000246565CAE4201D1012301E0002B04D064
:100CD000162911D04E1C965D565416290ED0491C6B
:100CE000167EC9B28E42ECD1002B0BD0117E0029AA
:100CF00006D0117E491E04E00026ECE70021EFE754
:100D000016211176617C00292AD06774C17D0023E9
:100D1000027E8A4224D0425CAA4201D1012301E032
:100D2000002B04D0162912D04A1C825C425416298A
:100D30000FD0491C027EC9B28A42ECD1002B0FD0E1
:100D4000027E0146002A06D00A7E521E04E00022DE
:100D5000EBE70021EEE716220A7601E01A480027A9
:100D6000217C01299CD1617C002999D10120F0BD11
:100D700030B505461420104A0521684380180174D7
:100D8000114C207E16280ED0207EE17D401C88422A
:100D900000D1FFDF207E2554207E162807D0207E3C
:100DA000401C207630BDE07D0028F2D0F2E7002024
:100DB000F7E70000FFFF3F00D80B0020940B002056
:100DC000D4090020A40B0020BC0B0020F0B5794A08
:100DD0001468794E002533780121002B06D1774B1A
:100DE0005D6003279F6004271F6131701560744B9D
:100DF000D9601960724E714D40364035F160EF6830
:100E00008742FBD35960D9601460F0BDF8B5044641
:100E1000800700250126002804DA6A48C563C663F6
:100E200002208443684FE00405D56848466068485E
:100E3000876080148443600003D566484560800560
:100E40008443E0050CD55B480560634887605B48D8
:100E5000456085600421016159480661801584431D
:100E6000A00409D55D4846605D4805605D4887601F
:100E70005D484560401484436004C10F2004009025
:100E8000C00F814200D0FFDF0098800F13D0574879
:100E900046605748876057498E6057480560574AF3
:100EA00097605748056046608E60976005604660B1
:100EB00003208003844320050BD55248466086609A
:100EC0005148876050484030876050488560C01462
:100ED000844308F0CDFD4E48044200D0FFDFF8BD4A
:100EE000F0B5002120270A46FF230446CC40E40742
:100EF0002ED04CB2E606F60E0125B540454E3560C3
:100F0000454E3560002C13DA25072D0F083DAE083D
:100F1000424DB6007619F569B446A407E40E1E46A4
:100F2000A640B5431646A64035436646F5610FE038
:100F3000A6083B4DB60076193568B446A407E40E02
:100F40001E46A640B5431646A64035436646356064
:100F5000491CB942C9D3F0BD70B5174C0D4660604D
:100F6000FFF754FF6068FFF7BBFF2846F8F761F909
:100F700008F0D4F900F000F908F07AFD08F0C9FC97
:100F8000F8F7C0FA08F06CFA70BD10B50A4C60684A
:100F9000FFF73CFF6068FFF7A3FF08F069FDF8F773
:100FA000FAF90020606010BD0348406870470220D5
:100FB0007047000000820040800000200085004053
:100FC00000800040C01F0040FFFFFFFF00C0004046
:100FD00000C3004000E501400083004000D0004015
:100FE00000D2004000D3004000D5004000E00040A7
:100FF00000E3004000F0004000F2004000F3004039
:1010000000F5004000B0004000B3004000B50040D3
:10101000FEFF0FFC80E100E080E200E000ED00E078
:1010200000E400E070B51E490A68002A17D00023CA
:101030001D4601244A68521C4A60092A00D34D60AB
:101040000E792246B2400E6816420AD072B60B687C
:1010500093430B6062B649680160002070BD0520B3
:1010600070BD5B1C092BE5D3FFDFF8E701200D49BC
:10107000800508607047EFF31081CA07D20F72B67F
:10108000012181400648036819430160002A00D10C
:1010900062B6EBE702480021016041607047000042
:1010A0008800002000E200E001208107086070470E
:1010B00001208107486070471048C068C00700D011
:1010C000012070470D488068C00700D0012070479C
:1010D0000A484069C00700D0012070470748C0692E
:1010E000704706498A69D20306D589698907890F3D
:1010F000814201D101207047002070470004004068
:101100008107C90E002808DA0007000F0838800898
:10111000BD4A80008018C06904E08008BB4A800096
:1011200080180068C8400006800F7047B8494878AA
:101130008978884201D3401A02E02122511A081806
:10114000C0B27047B249233148788978884201D3C8
:10115000401A02E02122511A0818C0B27047AC4967
:10116000463148788978884201D3401A02E021222A
:10117000511A0818C0B27047A44910B50C3108685C
:10118000FF22120290430122D20310430860A049BB
:1011900000202331487088702339487088704631A8
:1011A000487088709B4808F009FB9A48401C08F07A
:1011B00005FBF8F74DF900F01DF910BD2020704730
:1011C000B4E770B50C4605460026FFF7AFFF90491F
:1011D000A04214D30A46203A00232046641EE4B2FB
:1011E00000280BD08878105C287088786D1C401C13
:1011F000C0B288702128F0D18B70EEE7012600F094
:10120000F9F8304670BD202070479BE770B50C465A
:1012100005460026FFF796FF7D492331A04214D3EF
:101220000A46203A00232046641EE4B200280BD070
:101230008878105C287088786D1C401CC0B288705B
:101240002128F0D18B70EEE7012600F0D3F830466C
:1012500070BD202101700020704710B50446FFF7D3
:101260007EFF2070002010BD70B50C460546FFF7CC
:1012700076FF67494631A04215D30A46203A00233B
:101280002046641EE4B200280BD08878105C2870D9
:1012900088786D1C401CC0B288702128F0D18B70FA
:1012A000EEE7002400E05C4C00F0A4F8204670BD9E
:1012B00070B50C460546212900D9FFDF5248406829
:1012C000103840B2FFF71CFFC6B20D20FFF718FF21
:1012D000C0B2864203D2FFDF01E0F8F7F6F82146FC
:1012E0002846FFF76EFF0028F7D070BDF8B5074617
:1012F0004848474C401E464E007825464636233522
:10130000002806D1A9786878212200F068F8002822
:101310000ED0A1786078212200F061F8002814D066
:10132000B1787078212200F05AF8002828D033E0F4
:1013300037496878C91C0F546878401CC0B268707F
:10134000212829D10020687026E0314960782039B1
:101350000F546078401CC0B26070212801D1002079
:1013600060702C4F7F1E3878002815D0A1786078E7
:10137000212200F034F800280ED0002038700BE055
:101380002349707826310F547078401CC0B27070B9
:10139000212801D100207070A9786878212200F0FE
:1013A0001EF800281AD0A1786078212200F017F8E2
:1013B000002813D0B1787078212200F010F80028AE
:1013C0000CD0F8F767F8134808F000FA0121490338
:1013D000884200D0FFDF0F4808F010FAF8BD401C2B
:1013E000884205D0904201D1002901D000207047E9
:1013F0000120704710B5074808F0E8F9002801D12E
:10140000F8F737F810BD000000ED00E000E400E060
:10141000100D002091000020072000000C490878E2
:101420004A78401CC0B2904200D008707047094A08
:10143000074820BF40BF20BF41780378437013683E
:10144000002B02D103788B42F3D0002070470000BC
:101450009300002000E200E0F0B50121184A0803E3
:101460001060184A00231360174B1860174803696F
:101470000569DB43DB06DB17102425430561144DAA
:101480006960144E31605B1C00E020BF1768002FBC
:10149000FBD0002B02D10369A34303610E4880688F
:1014A0007160A960002111600121074A09031160E0
:1014B000F0BD10B50446FFF7CFFF2060002010BD3F
:1014C00080E100E000C1004080E200E000ED00E0CB
:1014D00000C3004000C0004000C50040FEB5EA4C1B
:1014E00007466068FF213E0181552178FF2913D00E
:1014F0000901083141583246491E08320902019259
:10150000090A805800F0B6F9002802D02478254650
:1015100015E06168207888552770FEBDDA4842687A
:1015200001981158280100900830105800F0A2F9D5
:10153000002806D1D4482C46416800980D5CFF2D48
:10154000ECD1D1482101406885554754FEBD70B5A6
:10155000CD4A04460020157A53680AE00201561C61
:101560009E5DA64203D10C329A588A4204D0401C98
:10157000C0B28542F2D8FF2070BD10B5FFF7EDFA7A
:10158000C14C01462078626800010830105800F014
:1015900071F9012807D920786168000108300858DE
:1015A000FFF7CEFA10BDFEF757FFF7F7DEFF10BDCD
:1015B000F8B5B54F3E78FFF7D0FA0146FF2E68D058
:1015C0003401254678680835405900F053F902285F
:1015D00002D9786840595AE0AB494868025D0A7000
:1015E000A11C425C002A0CD0521E425441590122D7
:1015F000D20589180902090A41513046FFF76EFFEA
:1016000030E0631CC25C0092221D94468258002A7E
:1016100010D001239B029A420FD99205920D435993
:101620005703DB191B021B0A43516346C3589A1A1E
:10163000920A09E0FF21C1540AE0435952039A1863
:101640001202120A4251002242543046FFF746FF6E
:101650008D480C344168C2680098095980001258BE
:1016600000989047884C2078FF2812D0FFF775FA31
:1016700001462078626800010830105800F0FAF83E
:10168000012896D920786168000108300858FFF7D2
:1016900057FAF8BDF0B51D4614460E460746FF2B17
:1016A00000D3FFDFA00700D0FFDF7748FF21C7602E
:1016B000446005720674017000224270104604E016
:1016C0000201521C401CA154C0B2A842F8D3F0BD84
:1016D00070B56D4C06466578207C854200D3FFDFEF
:1016E000E068A90046506078401C6070284670BDD4
:1016F000FFB581B01D46FF24FFF72FFA624F064663
:1017000079780198814200D8FFDF5F480021037A91
:10171000406810E00A019446521C825CFF2A25D0E2
:10172000019FBA4205D162460C328758029A97420D
:101730001ED0491CC9B28B42ECD8FF2C18D0210115
:101740004A1C019B83540B460C33029AC250039BE4
:101750004D4F0022012B0ED00B1DC25001239B02C6
:101760009D4216D9AA05920D08D008E00C46E0E784
:10177000FF2005B0F0BD0B1DC550EFE71A4653031F
:101780009B190E461B0208361B0AAA1A8351920A9D
:1017900009E0002D00D101256B039B191D022D0AC4
:1017A0000B460833C550891C42543D463E782046BE
:1017B000FFF794FE2878B04201D0FFF7DEFE0198D3
:1017C000D7E770B50C460546FFF7C7F90646214630
:1017D0002846FFF7BCFEFF2817D02B4D04012046FA
:1017E000696808300858314600F044F801210903BF
:1017F00040186968A41C095D400B002901D08902CA
:101800000818002800D1012070BD002070BDF3B57C
:1018100081B00F460198FFF79AFEFF2819D01A4EA3
:10182000357871682A462C4604E0844205D0254666
:101830002301CC5CFF2CF8D10BE0FF2C09D0A54292
:101840000BD11001085C3070FF2804D0FFF795FE23
:1018500003E00020FEBDFFF77BF939460198FFF752
:10186000B0FF22017168FF23541C0B558A5C2B01C9
:10187000CA54FEBD401A00020121000AC90588426F
:1018800000D90020704700005C0D002070B50446B0
:101890002748844201D2012500E0002500F03FF8EE
:1018A0002449002806D08C420BD32348006804E06A
:1018B000284370BD8C4204D32048844201D20120C9
:1018C000F6E70020F4E710B5044600F028F80121FF
:1018D0008907002806D01848006804E08C4204D22A
:1018E000012003E015488442F8D20020012148403D
:1018F00010BD10B5002805D0FFF7E5FF002801D086
:10190000012010BD002010BD10B5002805D0FFF744
:10191000BDFF002801D0012010BD002010BD0848E7
:1019200008490068884201D10120704700207047B3
:1019300000B00100000000201C0000200800002072
:1019400098000020BEBAFECA3B48002101704170D9
:1019500010218170704770B5064614460D4602206E
:10196000F1F7B2FA01203449344A0870E41E1461D8
:101970009660556070BD10B50220F1F7A5FA2E49AA
:10198000012008702E480021016041608160012023
:101990002C49C005486010BD10B5274801780029C2
:1019A00017D00121274AC905916025490B680022FB
:1019B000002B05D04B68002B02D08968002902D08B
:1019C0004270102103E0012141701F4909688170B4
:1019D00002700020F1F778FA10BD1748017800294D
:1019E00012D01748016800290AD00168002905D0E3
:1019F0004168002902D08068002803D00020704789
:101A00000220704701207047407870470A480178EB
:101A100000290FD00A480168002905D04168002933
:101A200002D08068002801D0102070470648006866
:101A3000C0B27047807870479C00002000F50040DD
:101A400000F1004000F5014000F400402C48002166
:101A500001704170704770B5064614460D4601206E
:101A6000F1F732FA26490120264B08709E60DC60AF
:101A70001D6170BDF8B504460120F1F725FA204933
:101A8000012008701F494C601F4900264E60032149
:101A90001E4D0906A9601E4F002C07D0012C00D056
:101AA000FFDF3E60032000066860F8BD386001205B
:101AB0000006F9E710B51248017800290ED003217D
:101AC000124A0906916010494A680021002A03D091
:101AD000104A1268427000E0417001700020F1F776
:101AE000F3F910BD06480178002907D00648406880
:101AF000002802D007480068C0B27047407870479D
:101B00009F00002000F5004000F1004000F501407A
:101B100000F2004000F4004070B5FC4D00246C70F1
:101B20002C706C616C72AC720120E8726C776C6224
:101B3000F748EC6207F042FE002800D0FFDF2C7669
:101B400070BD00B5F349002803D0012805D0FFDFA0
:101B500000BDF1484861F14802E0F1484861F148B0
:101B6000886100BDF0B50125EF4902260E60EF49FE
:101B70000027CF63CD63EE49C96A09070DD4ED494B
:101B8000CB6AED4A53620B6B93624B6BD3628B6BE8
:101B90001363C96BD30519435163DE4C00281FD072
:101BA000012821D0FFDFE548A063FF2004306063F7
:101BB000256303202061E24996204860D34918201C
:101BC00008560722D243811A90422ED011DC1631DA
:101BD00034D00A2930D00E292CD012290FD127E079
:101BE000CD486061CD4802E0CD486061CD48A0613C
:101BF000D9E7001D17D0042813D008280ED0FFDF26
:101C0000D149D0488860D248D0494160D14901606B
:101C1000D1480660D14910204860F0BD0420E06042
:101C2000EEE7E760ECE7FC2000E0F820E060E7E7A3
:101C3000F420FBE7F020F9E7EC20F7E7D820F5E700
:101C400010B50C460146C64808F01BFFAF480472A9
:101C500010BDAE48407F7047AC4A5170107070475D
:101C6000F0B504460D465079117900020843690029
:101C700009190884501C01460E78012730464E7819
:101C8000360230438E78C97836043043090608435B
:101C9000117800020843A9006050284608303E46EB
:101CA0008640002B08D0012B00D0FFDF206B304393
:101CB000AF4038432063F0BD206BB043F8E730B548
:101CC0000D460446082900D9FFDF0022002D0CD95B
:101CD000A4489100635809180B6053001B191B8C12
:101CE0000B62521CD2B2AA42F3D3206B9E49086009
:101CF00030BD10B504460722D243083085499442CE
:101D00001AD008DC16301FD00A281BD00E2817D096
:101D1000122806D112E0201D0CD0042807D0082874
:101D200003D0FFDF7948047610BD042000E00020D6
:101D3000C860F7E7FC20FBE7F820F9E7F420F7E7B5
:101D4000F020F5E7EC20F3E7D820F1E78748007AA8
:101D500070477049C2784A62024613781846537831
:101D60001B0218439378D2781B04184312061043C1
:101D70000002C8617047252808D0262808D02728E7
:101D800008D041000A2807D8091D06E0022105E015
:101D90001A2103E0502101E0891DC9B25D4A91601A
:101DA000674948617047594948617047F8B500284C
:101DB00012D00220554E6E4AB07203231360624C5B
:101DC000604A626001276B4D002907D001290BD0C2
:101DD00002291DD0FFDFF8BD0120EBE7012801D06B
:101DE0006F60F8BD2F60F8BD48490128C96A03D06B
:101DF000022807D0FFDFF8BD012000050143F16292
:101E00006060F8BD012040050143F1626060F8BDEB
:101E10007069002800D1FFDF7169706A4018564967
:101E200088604B4855498160B17A012917D05449DF
:101E3000C1600120F16AC0030143F1624C490E68A0
:101E4000464A10209060002008603F4A09149160C3
:101E5000FF216A4611704B4C20612F6104E0C56080
:101E6000E7E71078401E10701078002802D0206933
:101E70000028F6D01078002800D1FFDF0020E060B5
:101E8000206160606061A0613948066001142E48DD
:101E90004160324A10215160C9024160F8BDF8B575
:101EA000334801688F082D49BF004A68D206D60F13
:101EB00010228A6000240460234822498160FF20A8
:101EC000694608702F4D2C612A490120086103E002
:101ED00069460878401E087068460078002802D0DD
:101EE00028690028F4D068460078002800D1FFDF78
:101EF0002C610648012144728472C1721C4807603B
:101F0000002E02D0154910204860F8BD700D002049
:101F1000A00D00200015004006010200250003026C
:101F2000050103001F00030280E100E0C01F004024
:101F300080000010C0000010001700405B06000089
:101F4000401500400040000400F501404080004082
:101F500080F501401011004080E200E000130040D5
:101F6000720D00200016004040160040900D002029
:101F700000120040001000404085004048810040B1
:101F8000041000400011004001460A7810464A78CB
:101F9000120210438A78C9781204104309060843D4
:101FA0000002FD49000AC8637047FC49022008602E
:101FB000FB4908607047FB49022008607047FA49F6
:101FC0000870704710B5F94807F000FC002800D0F1
:101FD000FFDF10BD10B5F54807F010FC10BDEE494D
:101FE0004860704730B5F24C0546606AA84200D39D
:101FF000FFDF01202073EF49002025614860EE4893
:1020000045600120E16A80050143E162EB494860D7
:1020100030BDE74802210173C6210161E54A002174
:102020005160416AE44AC63151600121C26A8905A2
:102030000A43C262E148416070470121DF488905D7
:102040008160DB48C26A8A430021C2620173704723
:10205000DB4801214160C160D64900204860D64973
:102060004860D34948627047D64940200862D64943
:102070000A6802430A607047D348016840229143CE
:102080000160D049002008627047CF4801681022E3
:1020900091430160CD49012088617047CC490020FF
:1020A000C861C94801681022114301607047C849DE
:1020B000CA69012A01D000207047C24A92685206BC
:1020C000520E524202700020C8610120704730B5A4
:1020D0000C00054600D1FFDFE00702D0012C00D044
:1020E000FFDF002D0AD00221B14801294172C472DC
:1020F000B54805D0022908D0FFDF30BD0121F3E744
:10210000016804221143016030BD016808221143B7
:10211000016030BDF8B5A64C0025E17A8A0701D5EB
:10212000420712D4CA0606D5AA4A537A002B02D017
:10213000927A002A09D00A0702D5227F002A04D108
:10214000490703D5617F002900D10125677A002264
:1021500001239D49002F1AD00226304028433BD04E
:10216000086886089C48B6004568ED06ED0F102704
:10217000876000200860914A98499160FF216A4673
:102180001170934F38619149012008610CE08B4D2B
:102190009248A8600868800880000860A272E37214
:1021A000F8BD1078401E10701078002802D03869F1
:1021B0000028F6D01078002800D1FFDF0020386119
:1021C0006072A0720120E0727F480660002DE7D0A7
:1021D000814810214160F8BD012F03D0022F09D0A2
:1021E000FFDFF8BD08680425A84308606272E37247
:1021F000A372F8BD08680825A84308606272E372FC
:10220000A672F8BDF8B56A486C49C26A8A600021B6
:10221000C162017B674D002902D06968012909D09C
:1022200000236B4C2169012906D00022817A012903
:1022300004D006E00123F4E74022F7E7E668012E28
:1022400004D000261643012902D004E02026F9E735
:102250006268012A05D000223243614F022902D070
:1022600007E01022F8E73E68012E02D1E668012E51
:1022700004D000261643022902D007E00826F9E719
:102280003A68002A02D1E268012A04D000223243CF
:10229000022902D005E00422F9E7002B01D0022335
:1022A00000E000231343022907D16068012804D10C
:1022B0006868012801D0012700E0002749481F4332
:1022C00001680906090E02D06169012900D00021C8
:1022D000404E317200680006000E02D0A06901284D
:1022E00000D0002070723748006A002803D0FFF742
:1022F00074FB012800D00020B0720026E660266141
:1023000066606661A6612B4846602B483D46416881
:10231000274C216200686062A07A022809D16078A7
:10232000002806D01C4A5268127802402078904358
:102330000CD026771C4FE8070BD038782A4A400883
:102340008000125808469047012109E001202077BB
:10235000F0E7A80601D5022102E0A80707D5002171
:102360003A78224B520892009A58606A904738781F
:10237000C0073FD1084841680622A01C093108F077
:10238000B7F8002834D10448217A40680078C009A1
:1023900081422DD101202CE00015004080E100E0B9
:1023A00080E200E000E100E0A1000020A00D00209C
:1023B000700D0020408100404085004000F5014044
:1023C0000080004040150040001200400010004016
:1023D00000110040900D0020001300400040000458
:1023E000001400404016004014AE01001CAE010075
:1023F000002060772846FFF78DFEA80704D53878BF
:1024000021498000085880472807810F05D0397876
:10241000C00F1E4A890051588847A80604D538784D
:102420001B498000085880473878022805D16E2063
:102430000540402D05D101F048F83878042800D334
